:020000021000EC
:10B000000080002035FD01007DFD01007FFD010075
:10B010000000000000000000000000000000000030
:10B0200000000000000000000000000081FD0100A1
:10B03000000000000000000083FD010085FD01000C
:10B0400087FD010087FD0100FDD4010087FD01009F
:10B0500087FD0100000000002DCE010087FD0100EA
:10B0600087FD010087FD010087FD010087FD0100CC
:10B0700087FD010087FD010087FD010087FD0100BC
:10B0800087FD010049C0010087FD010087FD010027
:10B090002DC1010087FD010005FC010087FD0100B5
:10B0A00087FD010087FD0100000000000000000096
:10B0B0000000000000000000000000000000000090
:10B0C000054B0648033310B51B1A062B03D9044B56
:10B0D000002B00D0984710BD741F0020741F002063
:10B0E000000000000648074910B5091A8910CB0F67
:10B0F0005918491003D0044B002B00D0984710BDBD
:10B10000741F0020741F00200000000010B5074CC1
:10B110002378002B09D1FFF7D3FF054B002B02D07A
:10B12000044800E000BF0123237010BD741F0020FD
:10B1300000000000C0150200094B10B5002B03D021
:10B140000849094800E000BF08480368002B02D105
:10B15000FFF7C8FF10BD064B002BF9D09847F7E763
:10B1600000000000781F0020C0150200741F00209E
:10B1700000000000164B002B00D1144B9D464022CE
:10B1800092029A1A924600218B460F461348144A9F
:10B19000121A00F067F80F4B002B00D098470E4BA7
:10B1A000002B00D098470020002104000D000D481E
:10B1B000002802D00C4800E000BF00F02DF820006D
:10B1C000290003F09BF900F011F8C04600000800C8
:10B1D000008000200000000000000000741F00201C
:10B1E0007C3000200000000000000000084B10B57B
:10B1F0000400002B02D0002100E000BF054B1868BE
:10B20000836A002B00D09847200000F033F8C04636
:10B2100000000000200F02000E4B70B500251E003C
:10B220000D4CE41AA410A54204D0AB00F358984783
:10B230000135F8E705F066FE084B00251E00084CB6
:10B24000E41AA410A54204D0AB00F3589847013586
:10B25000F8E770BD6C1F00206C1F00206C1F0020E1
:10B26000701F002003008218934202D0197001332E
:10B27000FAE77047FEE7C04610B51C001100002039
:10B280001A0000F003F8200010BDC046F0B5444697
:10B290005F4656464D46F0B4744B83B098461B78D3
:10B2A00004008A461700002B21D141460222404665
:10B2B0000A614A616E4A83628A616E4982646E4A9B
:10B2C000C1618021C2641022C9004362C3628365E8
:10B2D00002654365C36501626849073004F0EEFE0C
:10B2E0006749404604F0EAFE202342469371EFF39B
:10B2F0001083012181F3108865002E19F600464461
:10B300000193F36A012B6BD0002B3DD0022B2CD183
:10B31000002301349B4663001C19E300756A9946BB
:10B320001BE0013B346A5B1BBB4200D93B00641B42
:10B330009C4200D91C0043464B4458685146401972
:10B34000220004F097FE336A2D19A344A2443F1B48
:10B350009D4217D07562002F09D0B36AAB42E0D886
:10B36000346A1B19013B5B1BDEE700239B46019BF4
:10B3700083F31088584603B03CBC90469946A246D9
:10B38000AB46F0BD0025E5E7B26A736A9A4253D92D
:10B39000013AD31A002293469F42E8D82D19ED00B6
:10B3A00045446B6A01349B465A462B6A9E1A6300D9
:10B3B0001C19E4004444B7424CD3636832005B4438
:10B3C0001800514604F056FEBB1B310098461A0087
:10B3D0005144606804F04EFE4346BB466B62C6E7CC
:10B3E000B36A726A934222D9013B316A9B1ABB4607
:10B3F0009F4200D99B462D19ED000134454463005E
:10B400006E6A1C19E4008F1B4444BB4519D3636862
:10B410003A009819514604F02DFE5B463900DE1BB8
:10B4200051446068320004F025FE6E629FE7316A85
:10B430005B18013B9B1ADAE7316A5218013AD31ABA
:10B44000A8E760685A46801951465E4404F012FE2F
:10B450006E628CE760683A005844514604F00AFE78
:10B460005B46F8186862BB4681E7C04600300020A2
:10B47000240F0200A01F0020901F0020300F0200A8
:10B48000340F0200F0B5474680B42B4D1E002B78D8
:10B4900082B0040088461700002B29D02B69A342F4
:10B4A00046D9EFF31083012181F310880022019324
:10B4B000002C0CD11419089BE4002C19E362019BA9
:10B4C00083F31088002002B004BC9046F0BD631CDA
:10B4D0005A00D31842460021DB005A51EB18620093
:10B4E0005F601319DB00EB1899621E625962E1E795
:10B4F00002222A616A61114A1149AA61AA64114AA9
:10B50000E9618021EA641022C900AB62EB626B62E0
:10B51000EB65AB6529626B652A650B49E81D04F094
:10B52000CDFD0A49280004F0C9FD2023AB71B5E721
:10B5300001204042C7E7C04600300020240F02002F
:10B54000A01F0020901F0020300F0200340F0200C7
:10B55000F0B5474680B4284D1E002B7882B0040019
:10B5600088461700002B24D06B69A34241D9EFF322
:10B570001083012181F3108800220193002C0CD14B
:10B580001419089BE4002C19E365019B83F31088D0
:10B59000002002B004BC9046F0BD41466200131981
:10B5A000DB00EB1899640021DF6499651E6559651D
:10B5B000E6E702222A616A61104A1149AA61AA6477
:10B5C000104AE9618021EA641022C900AB62EB6293
:10B5D0006B62EB65AB6529626B652A650A49E81DFC
:10B5E00004F06CFD0949280004F068FD2023AB71CC
:10B5F000BAE701204042CCE700300020240F0200CF
:10B60000A01F0020901F0020300F0200340F020006
:10B61000F0B55F464D4656464446F0B483B01D0033
:10B620000C9B0600894617009B46914200D2E4E03D
:10B6300008000124390004F0A7FB01348742F9D93E
:10B640000094AC4200D2009501230D9A1A40019259
:10B6500003D15B46002B00D08CE0F3689A46002BA8
:10B660007BDBB36898464B460124B1461E00012D92
:10B6700003D9013D7C43012DFBD82100300004F0AB
:10B6800083FB8742F6D933004E4699463B005C4D1A
:10B69000474698460AE05346002B00DA9DE020001A
:10B6A000414604F071FB041E00D196E0484621009B
:10B6B00004F06AFB03004A466343D31A9946736851
:10B6C0007A1C9A420CD82B5C3168CB55F368170072
:10B6D0009A4601239C46E2445346F3607368B26085
:10B6E0009F42D8D13A0031683069FFF7CFFDB76883
:10B6F000B84239D00123B8465B42F360019B002B6E
:10B700002BD05B46002B28D0009B202400255B45D6
:10B7100023D242465F46984606E0F368002B1CDBC6
:10B72000002F1AD0474518D97368511C013F994220
:10B7300007D833689C540A00F368B1600133F360A2
:10B7400073689A42E9D131683069FFF79FFDB368A9
:10B75000984244D001235B42F36003B03CBC904666
:10B760009946A246AB46F0BD0023B360F3680027BC
:10B770009A4690E70D9B20249B0733D4009B9B4562
:10B7800000D86AE7B368AA461A005B46009DBB462C
:10B790000C9327001C0006E0F368002BDDDB002C77
:10B7A00025D0AC4223D97368511C013C994207D87B
:10B7B00033689F540A00F368B1600133F360736823
:10B7C0009A42E9D131683069FFF760FDB368984269
:10B7D000C0D100230022B360DEE7B8468EE7B56033
:10B7E00000229AE71034002DC8D0103CC6E75F460F
:10B7F00055469046A3469A4635E7012420E7C046C1
:10B800003C0F0200F0B556465F4644464D46F0B444
:10B810009FB00EAB099340230A9300230B930C9324
:10B820009B4604330E009246984606900D9033785E
:10B830000136002B5BD0252B66D1337800270221FF
:10B84000082234002B2B0BD02B2B0DD92D2B57D0AE
:10B85000302B0ED10F430136337834002B2BF3D12C
:10B86000434601361F43F7E7232B02D11743013626
:10B87000F2E71A00303A0025092A0AD8AA00551919
:10B8800001346D00ED182378303D1A00303A092A52
:10B89000F4D900262E2B02D185E0237801341A003A
:10B8A00041468A43682AF8D0642B00D100E159D977
:10B8B000732B00D19FE000D889E0752B00D0CDE03C
:10B8C000534651461B6809A81A1D0A6019680A22C6
:10B8D000330001970095FFF79BFE0C9B9B46661C6F
:10B8E0005B46002B32DB33780136002BA3D15B465D
:10B8F000002B2BDD0B9A002A00D071E1934425E048
:10B90000012301361F43A7E70B990A9A481C90426E
:10B9100024D8099A5354012294460C9B0A9A039303
:10B9200063440B909B460C939042D9D1099B03939F
:10B930000D9B039918000493FFF7A8FC0B9B03933E
:10B94000984200D147E101235B429B4658461FB015
:10B950003CBC90469946A246AB46F0BD914200D011
:10B9600065E7E3E7582B7CD0632B00D183E0252BE0
:10B97000B5D10B980A99421C8A4200D81DE10200F9
:10B980008A42ACD1099B03930D9B03991800049341
:10B99000FFF77CFC0B9B039398425AD100230B9337
:10B9A0000C9B9B469BE76378611C1A00303A0C00A5
:10B9B000092A00D973E7B200961901347600F61807
:10B9C0002378303E1A00303A092AF4D967E7702B01
:10B9D00000D084E7534651461B681A1D0A60196857
:10B9E0000023019308330093102209A8FFF710FEEB
:10B9F0000C9B9B4673E75346514658461B681A1DDD
:10BA00000A601D6829780135002910D00B9B0A9E19
:10BA10005A1CB2420DD80998C1540C9B0B92581C69
:10BA20000A9B0C9003939A4206D00028EADA8346D8
:10BA300055E7B342E6D11A00099B03930D9B039986
:10BA400018000493FFF722FC0B9B0393984200D14C
:10BA5000A4E001235B420C939B4640E7782B00D087
:10BA60003DE7534651461B681A1D0A601968019745
:10BA700000953300B8E75346524618680B99031DEA
:10BA800013600A9B4A1C9A4200D9A2E0099B0393C7
:10BA900003680398435401218C460C9B0B9203933B
:10BAA00063449B460C930A9B9A4200D017E769E7D0
:10BAB000534651461B681A1D0A601B68DA1798180E
:10BAC000039301235040994609280ADDA1461C0032
:10BAD0000A2104F0E3F901340928F9DC23004C467B
:10BAE000994604964E4563D3002D06D0039B002B48
:10BAF00002DB43463B4200D0013DBB0752D4012349
:10BB00003B4236D1002D34D0049BAB4231D22023AE
:10BB100058460B9AB3469946049E05E0002886DBFA
:10BB2000002D24D0AE4222D20A9B511C013D9942E5
:10BB300009D84846099B98540A000C9B0B91581C45
:10BB400005930A9B0C909A42E8D1099B05930D9BA3
:10BB5000059918000793FFF799FB0B9B05939842F3
:10BB600000D076E700230C980B930022D6E75E46C0
:10BB70008346039B002B3CDB43463B425ED10323C1
:10BB80003B40022B74D03300019700950A220399A1
:10BB900009A8FFF73DFD0C9B9B46A0E600230C98EF
:10BBA0000B9342E7002EE4D001233B42E1D1A9E709
:10BBB0004B460493002DA0D098E709990B5401211E
:10BBC0008C460C9B0B92039363449B460C930A99FF
:10BBD000D6E60A0068E700230B930C9B9B467FE6A2
:10BBE0000EA90698FFF752FB0C9B0B9A9B469344B9
:10BBF000ACE65B4203930B9B0A9A591C914209D80D
:10BC0000099A05922D220598C2540C9B0B9105931D
:10BC10002C3A21E09342B2D1099B05930D9B0599E3
:10BC200018000793FFF732FB0B9B0593984200D057
:10BC30000FE700230B930C9B9B4614E00B9B0A9A87
:10BC4000591C9142E6D8099A05922B220598C254B4
:10BC50000C9B0B9105932A3A94460A9A63449B469F
:10BC60000C939142D8D05B46002B00DA37E686E78A
:10BC7000002E88D1002D32D0049BAB4283D23023DA
:10BC80000B9A9946594607E000292ADB002D26D059
:10BC9000049BAB4200D376E70A9B501C013D9842BF
:10BCA00009D84946099B995402000C9B0B90591CDA
:10BCB00005930A9B0C919A42E6D1099B05930D9B33
:10BCC000059918000793FFF7E1FA0B9B059398423B
:10BCD00000D0BEE600230C990B930022D4E7002588
:10BCE00051E78B46FBE5C046F0B54E465746454604
:10BCF000E0B4214B1978994600292AD01F4B002522
:10BD000098461F4B1F4F01269A4603E00135EDB2BE
:10BD10008D421ED243461B6832009C46EC006444B0
:10BD200020783B6882401342F0D093433B6001F09F
:10BD300073F8330022785146934009680B400100A4
:10BD400091408B420AD04B4601351978EDB28D42B5
:10BD5000E0D31CBC90469946A246F0BD6368002B18
:10BD6000F1D0617801394C424C41211A4C424C418E
:10BD70001000E1B29847E6E7A8230020A4230020A2
:10BD8000CC230020D0230020F8B5124D0700280056
:10BD900000F03CFD002807D10124BC400E4E336862
:10BDA000234202D0A3433360F8BD380001F034F8D9
:10BDB0000A4A136800280BD023431360336800221B
:10BDC0001C43074B28001968346000F09BFCEBE72C
:10BDD000A343F2E7AC230020D0230020CC23002093
:10BDE000A0230020F0B54F464646C0B4140007001B
:10BDF00083B00E000720042A04D803B00CBC904680
:10BE00009946F0BD00F0FAFE00282FD01A4B1B4ACD
:10BE10001F601B4B751E1E701A4BEDB21C60002379
:10BE20001360194A1360002E1AD0184B01AC9946C2
:10BE300003230026984600E01D004246EB00FB1855
:10BE40002270A670E6709A781878627021004A46CF
:10BE500000F0DEFE0028D0D16B1EDBB2002DEBD14E
:10BE60000B4A00210B4800F033FCC6E700F092FEBD
:10BE70000028CBD0C1E7C046A4230020CC2300205B
:10BE8000A8230020A0230020D023002089BD01008A
:10BE9000E9BC01004C0F020070B5094D2B78002B56
:10BEA0000BD00024074E3268E300985C012100F0BB
:10BEB0005FFF2B780134A342F5D8002070BDC04647
:10BEC000A8230020A423002070B5040082B00C2019
:10BED00015000E0001F04EFE6B46DA1D01231370B3
:10BEE00013781249124B1C605E609D608C4211D029
:10BEF00010498C4206D072B61378002BFCD162B682
:10BF000002B070BDDD60D96809889961D968496857
:10BF1000D961F0E71D611969896859611969098852
:10BF2000996119694968D961E5E7C0460140000097
:10BF3000D42300200240000000B585B001AB198079
:10BF4000029203901A0000210248FFF7BDFF05B0DE
:10BF500000BDC0460140000010B500290DD00923E6
:10BF6000002A01D1180010BD541E2240FAD182606F
:10BF700001608480C2600023F4E70E23F2E7C0462C
:10BF8000030010B59C888068DA68121A0420944275
:10BF900000D210BDDA68002014401A681155DA6822
:10BFA0000132DA60F5E7C04610B58468C268030064
:10BFB0000520944200D110BD98689A880240186804
:10BFC000825C00200A709A6801329A60F3E7C046EA
:10BFD00080218023184A8902D1508022D221174B18
:10BFE000520289005A5040395A5001222F205A607B
:10BFF0000138C046C046C046C046C046C046C046DE
:10C00000C046C046C046C046C046F1D19A60002333
:10C010000B4A2F2013600138C046C046C046C046B8
:10C02000C046C046C046C046C046C046C046C046E0
:10C03000F1D1044A1370704700E100E000100140A4
:10C04000F423002014240020A021F0B5002347464B
:10C050002C4A490080B4535004315350043153509A
:10C06000043153504C39535004315350264B1B6804
:10C07000002B38D02549002652582549254F0C68F9
:10C08000141B254A2402240A904602E0002D1BD0EE
:10C090002B001A68A24217D8A41AB6181A7CDD69B8
:10C0A000002AF3D0002299691A745A693B68002B60
:10C0B0001CD0100098470028E8D062214246FF318A
:10C0C000FFF73AFF002DE3D1144B15491A780B788E
:10C0D0009A420ED0134A9B009E5080218023124A20
:10C0E00049035B00D15004BC9046F0BD0800904766
:10C0F000CCE70132D3B2022B01D00B70EAE7002368
:10C100000B70E7E700100140F82300200405000051
:10C11000F4230020FC230020500F020008240020FC
:10C12000092400200C24002000E100E0F0B55F4667
:10C1300056464D464446F0B4C24BC34A1B68C349F9
:10C140008BB0059309781378994200D154E10133FB
:10C15000DBB2022B00D100231370BD4A9B009B5819
:10C16000B84A9A46059B53441B021B0A13600123DD
:10C170000193B84B00241B689B46B74B5A461B786B
:10C180009146190088460393B44B47461B68013F0C
:10C190000493AC4B1B680893B14B1B7807930023A7
:10C1A000099306931E00FBB29846FF2B32D04346FC
:10C1B000D800049B9C4613006044017845780096A3
:10C1C0001A00A9421FD046684A00B4465218867821
:10C1D0000131D200C9B262448E4200D1EBE0167840
:10C1E000022E00D1C5E0032EEAD1002BE8D01C744A
:10C1F000DB69002BFBD1013345780093002399467E
:10C200001A00A942DFD14746013FFBB2009E984683
:10C21000FF2BCCD10292002E00D0F1E0069B002B28
:10C2200002D0884B089A1A60099B002B03D06A46FB
:10C230008B4B127F1A70019B002B00D02AE15B46CA
:10C24000029A00259B1A5A1E9341DBB205937D4B3F
:10C2500000271B6802999C467E4B1B689B46804BBF
:10C260001B780693002301937E4B9946012300938C
:10C27000039B013BDBB20393FF2B00D1F6E0049A52
:10C28000DB0092460E009A44002D28D06A68A96807
:10C290002C00ED696346D31A1B021B0A4B4552D88A
:10C2A0006A4612785B1823606760A7602274E761B2
:10C2B000002E58D031683000994205D3B6E011689D
:10C2C000994200D3A0E01000C2695B1A002AF6D19F
:10C2D000E26132002360C4611600002DD6D15346BE
:10C2E0001A785B7831009342C2D0514649685300B6
:10C2F000884651469B180132D2B20A708978DB0019
:10C300004344914200D19AE0197832000129E3D1E7
:10C310005C68227C9046414632000029DCD19A6854
:10C320006260D968A1601869E0605B69A361069BDF
:10C33000002BAFD04346002263606346D31A1B0232
:10C340001B0A4B45ACD963469A1A1202120A8A425A
:10C3500061D28B1A6A46127823606760A7602274E4
:10C36000E761002EA6D122000123A3460193160007
:10C37000B3E75668002B30D09E421ED0009A1F00B3
:10C38000944602E0964206D01700FA69002AF9D1D5
:10C390006246009214E765460095BA420FD01568D0
:10C3A000D269FA61002A16D013689C46654415606C
:10C3B00045784B4604E7002111E71A001F00DE69AB
:10C3C000002E0CD0012500951568D269B1463300C6
:10C3D000FA61002AE8D14578F2E60023F0E601256B
:10C3E000214B9D600995079506950025002308952A
:10C3F000013599460095D2E700239A460193B8E6A5
:10C400004A46144B1A6009E7C91A1160E2612360B9
:10C410003200C46160E76B461B7827606760A760E5
:10C420002374E761002E9ED000233168CB1A33605D
:10C4300022000123E661A346019316004DE7524610
:10C44000157061E7F423002008240020092400204F
:10C450000C240020F82300200024002004240020C5
:10C460000A240020FEFF7F0000100140019B002BEA
:10C4700000D09DE0029B994236D1059B002B33D121
:10C480000023534A13700BB03CBC90469946A24619
:10C49000AB46F0BD4F4B002418680025029B0021DD
:10C4A0000026574615E01A68BA4200D984E0D868D9
:10C4B000BF1A89181E60DC69002807D0DD611D00E5
:10C4C000059A986052181202120A5A60230020003E
:10C4D000019C002BE7D1002C01D03E4B18600023BB
:10C4E000029301330593B2E6002900D15DE00B68A9
:10C4F00039489846394B3A4DC4583A4B2E781B6808
:10C50000E11A0902090A0331002E2DD042468A425F
:10C5100000D20A00A820D21812022F49130AC00024
:10C520002E4D0B504A591B1B121B1202120A1B02E2
:10C5300003321B0A9A42A3D94B590B502F200138C2
:10C54000C046C046C046C046C046C046C046C046BB
:10C55000C046C046C046C046F1D180218023224A51
:10C5600089025B00D1508BE78026D1277602BF007D
:10C57000C651403FC651C02280271B4EBF02520009
:10C58000B7503760012606602F200138C046C046EC
:10C59000C046C046C046C046C046C046C046C0466B
:10C5A000C046C046F1D12E70B0E7FFF711FD67E736
:10C5B0005A46084B1A605DE7BA46002C01D005497F
:10C5C00008605146521A1A600293012305933EE611
:10C5D0000A240020F8230020001001400405000078
:10C5E00014240020F423002000E100E0F8B54F46B9
:10C5F0004646C0B40326350080460F001400994615
:10C6000015400720002D03D00CBC90469946F8BD7C
:10C61000002A44D0FFF7DCFC4A46224B80201A60F7
:10C620002200214B18321E70204B62601C607B0080
:10C63000DB19DB00D218E260D318C02263612570D9
:10C640006570A77025726572A77225746574A774EA
:10C65000C524FF21164B40031D60164B52001D7070
:10C66000154BA4001D70154B98501A598A433F3939
:10C670000A431A51A122186040461149D20088503D
:10C68000C42080001C580F4A2240C02424022243A8
:10C690001A500D4B0020CA580C4B1A60B4E7034BDC
:10C6A0001A60B1E7FC2300200024002004240020AD
:10C6B000F8230020082400200924002000E100E0E5
:10C6C00000100140FF00FFFF04050000F4230020DC
:10C6D00010B50B4B1B68002B0BD0002A07D000288D
:10C6E00005D0036808201C7C002C04D010BD072056
:10C6F000FCE70820FAE759745A610020F6E7C046C3
:10C7000004240020F0B5474680B43A4B1C68002C46
:10C7100008D0002806D00723042905D8180004BC37
:10C720009046F0BD0823F9E74369002BFAD0437C1B
:10C73000012B48D000239C462F4B10255B68DB055E
:10C74000DB0D26D1641963785F1CFEB2A778B7426F
:10C750003DD02778B74238D05D00ED186368ED0012
:10C76000984645440423002DD8D0033B2B706860C5
:10C77000224B2348C358E960AB60634680212B619C
:10C7800080236A611F4A5B0049036670D150002311
:10C79000C4E7103BDFB27DB2002D1ADB0326AD08E3
:10C7A000184FC035AD00ED593340DF002B00FB4082
:10C7B0009B093340DBB20025012BC3D00835032B86
:10C7C000C0D00835BEE78C46B6E70423A6E70026AE
:10C7D000BFE70F230C4D3B40A8460325083B9B08B1
:10C7E0009B0043445B682F40FF00FB409B092B40AC
:10C7F000E0E7C0460424002000ED00E0040500004E
:10C800000010014000E100E018ED00E010B52F4AF3
:10C8100003001168082000292AD0002B28D05A696B
:10C82000002A25D000221A74294A08305268D205FD
:10C83000D20D1ED109184A788878541CE4B2A0425F
:10C8400032D00878A0422DD0500082184868D2001B
:10C85000844662440420002A0AD0023810705360D3
:10C860004C708023802100201A4A49035B00D1507C
:10C8700010BD103AD4B260B2002817DB8008154C06
:10C88000C0308000005903242240D200D0408209E9
:10C890002240D2B20020012ACCD00830032AC9D0CD
:10C8A0000830C7E70420E3E70024CAE70F220A485C
:10C8B000224084460320083A92089200624452685B
:10C8C0000440E400E24092090240E2E70424002030
:10C8D00000ED00E000E100E018ED00E070B5104D63
:10C8E00082B02B780024002B02D0200002B070BD53
:10C8F000012680230096DB000A4A0B490020FEF740
:10C90000C1FD002801D00824EFE700941023074A56
:10C9100007490020FEF71CFE0028F4D12E70E4E742
:10C920002828002028240020900F0200182400202E
:10C93000980F02000EB400B582B003AB02CB01AA7F
:10C940000193FEF75FFF02B008BC03B01847C04672
:10C9500030B5047885B0012C19D0022C34D0002CCD
:10C9600001D005B030BD274D274C29002000FFF72E
:10C970001BFB002823D0A268E3689A42F1D103236D
:10C9800002AA1370214B10001B689847E9E743681F
:10C990001F4D19782800FFF7F3FA002822D1AA6862
:10C9A000EB689B1A012B25D0A968AA88EB685B1A53
:10C9B0009A42D6D30121174800F0FCFCD1E70121AF
:10C9C000280000F09DFCD6E702AB1C70C368012173
:10C9D00010480193039300F0EDFC0C4B02A81B6878
:10C9E0009847BEE702AB1C70084B03901B6802A877
:10C9F0009847D9E702AB1870044B02A81B68984708
:10CA0000D2E7C0462C2800203828002030280020FB
:10CA10004828002034280020F0B51E00214B0500D6
:10CA200089B00C001A600720002906D08A881E48A9
:10CA30000968FFF791FA002801D009B0F0BDA2897A
:10CA4000A1681A48FFF788FA0028F6D16A46184B01
:10CA5000684692CB92C292CB92C212CB12C2AB6802
:10CA600006932B7906775A1E934103756B790E2234
:10CA7000591E8B415B421A404275EB780293AB78AA
:10CA800003932B7801936B7800930A4900F0A6FB7F
:10CA90000028D2D100F01CFD0121074800F08AFCDB
:10CAA000CBE7C04630280020482800203828002046
:10CAB000A00F020051C901003428002070B50A4CB3
:10CAC0000500A168A288E3685B1A9A4204D0290095
:10CAD0002000FFF769FA70BD0121044800F06AFCEC
:10CAE0000028F4D00520F6E748280020342800204C
:10CAF00010B5040006480121047000F001FC112863
:10CB000000D010BD21000348FFF73AFAF9E7C0460C
:10CB10005828002038280020F0B500281EDBFF260A
:10CB20001A4B37009C4603238208C025C0B203403D
:10CB3000DB0089019F403140994092006244AD0082
:10CB40005459BC43214351511F23C02118401E3B5F
:10CB500083400E4A490053501360F0BDFF250C4A34
:10CB60002E00944603220F23C0B20240D200890156
:10CB70009640294091400340083B9B089B0063443A
:10CB8000DC69B4432143D961DEE7C04600E100E03F
:10CB900000ED00E070B54425164C0820635D002BC5
:10CBA00000D070BD4022FF21013BA3540132A154AB
:10CBB0000132A354236201326362A362E3622363FE
:10CBC0006363A363E363FC390238A35423606360A7
:10CBD000A360E36023616361A361E361FFF79CFFEE
:10CBE0008021C123044A9B000906D1500123002063
:10CBF0006355D6E75C280020006000404423034AC8
:10CC0000D05C431E9841C0B27047C0465C280020EB
:10CC1000F0B5474680B4534C0825231820331E78BE
:10CC20007F2E03D8280004BC9046F0BDCD78AC46DA
:10CC3000002D36D02568013500D188E00423002678
:10CC40009846731C9D006759013733D0B31C984533
:10CC500025D99D00675901372CD0F31C98451ED962
:10CC60009D006759013725D0331D984517D99D0080
:10CC7000675901371ED0731D984510D99D0067591B
:10CC8000013717D0B31D984509D99D006759013761
:10CC900010D00736B04502D9E369013308D0042526
:10CCA000C0E72569013557D0082304269846C8E710
:10CCB00007231C25625162462718DEB220373E70DA
:10CCC000002A02D1E3183C3318708B78002B15D161
:10CCD0000300A0254A78C133FF3392009B00ED0585
:10CCE0005A51CB78002B15D176B2A4193C340B786D
:10CCF00022789B0113432370002593E7A022D205DD
:10CD00009446E025022783006344ED005A59BA4354
:10CD10005A51E6E7144A0B789446A22176B2B6003F
:10CD20006644C9007458114A000222407250F82229
:10CD3000520110400500C02218040300280092028E
:10CD40007458134018432043705000256AE70025AB
:10CD500022601D700026B8E7042522611D702E0098
:10CD60002B00AFE75C28002000600040FFE0FCFFE4
:10CD7000F0B5264D2C182034227853B2032B18DD41
:10CD8000EB183C331B789B09032B32D0012B39D095
:10CD9000C0218902A023DB059C46E023800060447B
:10CDA000DB00C4581A4A2240C250C2580A43C2503B
:10CDB000F0BD032AFCD81748A227844601269A0012
:10CDC0006244FF00D0593043D0511A00604600271A
:10CDD0004032920092B217500029E9D00022A256A8
:10CDE00092005259002AE3D09E40C1239B00C650B6
:10CDF000DEE7A223A022DB00D205D2580123834024
:10CE00001A42C5D180218902C4E7C0465C280020AF
:10CE1000FFFFFCFF00600040A222A0210300D2001F
:10CE2000C9058858D840012318407047F0B55746C7
:10CE30004E464546E0B4D44A00241368012B00D185
:10CE4000C1E0D24B1A68012A00D1CAE0D04B1A685F
:10CE5000012A00D1D5E0CF4B1A68012A00D1E0E0C9
:10CE6000CD4B00251A68012A00D1EBE023070BD037
:10CE7000E30700D5FCE0A30700D508E1630700D570
:10CE800013E1230700D5E7E0002C04DB1CBC90462F
:10CE90009946A246F0BD4023C04CE15C4BB2013341
:10CEA0001ED0C9B2C02308009843231820331B7832
:10CEB0005BB29B001E59002E12D0A0230127DB0578
:10CEC0009C46E023874082006244DB00D3588909F6
:10CED0009B039B0F3D4200D10FE1022B00D173E178
:10CEE0004123E15C4BB201331ED0C9B2C02308001C
:10CEF0009843231820331B785BB29B001E59002EE9
:10CF000012D0A0230127DB059C46E0238740820046
:10CF10006244DB00D35889099B039B0F3D4200D13B
:10CF2000D3E0022B00D143E14223E15C4BB2013359
:10CF30001ED0C9B2C02308009843231820331B78A1
:10CF40005BB29B001E59002E12D0A0230127DB05E7
:10CF50009C46E023874082006244DB00D358890965
:10CF60009B039B0F3D4200D1F6E0022B00D125E14F
:10CF70004323E15C4BB2013300D187E7C9B2C02340
:10CF800008009843231820331B785BB29B001E597E
:10CF9000002E00D17AE7A0230124DB059C46E02384
:10CFA000844082006244DB00D35889099B039B0FB5
:10CFB000254200D1BDE0022B00D067E7032900D154
:10CFC00008E1B04762E7C1217548890041580B422A
:10CFD00000D136E76D4B14601A680134012A00D085
:10CFE00034E7C1226E499200895802220A4200D1D8
:10CFF0002CE700211960664B14431A68012A00D0FF
:10D0000029E7C12266499200895804220A4200D1C8
:10D0100021E7002119605F4B14431A68012A00D0F0
:10D020001EE7C1225E499200895808220A4200D1B7
:10D0300016E700211960584B14431A680025012A8D
:10D0400000D013E71D6080231B061C43A022A223EF
:10D05000D205DB00D55809E7514A524BD058D15878
:10D060004E4B8903C004890FC00EDB6898470BE75D
:10D07000A2234B4ADB00D058D158484B8903C00447
:10D080001B68890FC00E9847A30700D4F6E6464BED
:10D09000434AD058D158414B8903C0045B68890F7B
:10D0A000C00E9847630700D4EBE6A3233C4ADB009D
:10D0B000D058D158394B8903C0049B68890FC00EE2
:10D0C0009847230700D4DFE6C6E7032B00D02BE701
:10D0D000032910D180239B029C46E023DB00994664
:10D0E000324FD3581F404B46D750D75863463B4327
:10D0F0001F004B46D750B04716E7032B00D0EFE692
:10D10000032914D180239B029A46E023DB00D758E1
:10D110009946B846254FBC46474663461F403B00EC
:10D120004F46D351D35957461F434B46D750B0476C
:10D13000D6E6032B00D0A9E6032900D041E78027DB
:10D14000BF02E023DB00D458184D2540D550D458F9
:10D150003C43D450B04799E6032B00D008E703299D
:10D1600010D180239B029C46E023DB0099460F4FA1
:10D17000D3581F404B46D750D75863463B431F00F8
:10D180004B46D750B047F3E60061004004610040D1
:10D19000086100400C6100407C6100405C28002078
:10D1A000006000401C05000014050000FFFFFCFFAC
:10D1B0000329A0D1C0239B029C468EE70329E1D11D
:10D1C000C0239B029C46CFE70329B0D1C0239B021A
:10D1D0009A469AE7C027BF02B3E7C046F0B5574664
:10D1E0004E464546E0B43C4C0300E27E0820002A4F
:10D1F00004D01CBC90469946A246F0BD002B68D0D6
:10D200001A68A0200325C132FF32C00592001550D4
:10D210000122AA461D68AA40A125ED004251A94657
:10D2200000255A68AC46C132FF32920015509E6903
:10D230002A4A2B4D56515D7DA84646461D7D3543F5
:10D24000284E95515D681E68A846274D56514646A2
:10D25000264D56511D7D012D1AD19E683700E026BE
:10D260007600B0464744BE0067463750C137FF37A7
:10D27000B8465746DE684644B6003750DE68B540CB
:10D280004E468551D8689D689051A220C000155027
:10D290001A696160226000290DD0197F0023144AA9
:10D2A00014481360144A1360C1230C4A9B00D050E9
:10D2B0000220FFF731FCA0230421084ADB00D150F3
:10D2C00000230122E3752376A375E276A37600207E
:10D2D0008FE70922094B94E7A42800200020004092
:10D2E000240500006C0500000C050000140500007A
:10D2F0001C2100408000020044210040C00F0200B9
:10D30000F0B5264A0400937D1120002B00D0F0BD1B
:10D310000125917522482349938294600B60056032
:10D320000B60938AE05C938A1F4C01339BB293821B
:10D330001E4BE0505068002801D00020E7E700278E
:10D3400026001D000130FF30947D938AA34203D351
:10D3500012E0938A834202D00B68002BF9D0938AA3
:10D360008342F2D00F60938A9468E45C938A01331D
:10D370009BB293827451E7E78023918A5B009942C4
:10D380000AD008490B68002BFCD001210020084B73
:10D39000196000239375BAE70F20FAE7A42800204C
:10D3A000082000401C210040002000401C05000017
:10D3B0000C200040F0B5474680B43F4B5A68002A25
:10D3C00005D08126C2243D4DB600A4002E51DC7D3F
:10D3D000002C0CD01C7E002C1CD0002A66D0812191
:10D3E000C123364A89009B00D15011200FE0D97526
:10D3F000997ED8605C761C76002925D0002A0DD055
:10D400008121C12300202D4A89009B00D15004BCFA
:10D410009046F0BD18611976002AF1D1284D294EA9
:10D420002A60264A284C9446A322D20090463268AD
:10D4300021682868002910D1002826D1002AF6D0BA
:10D4400000220320DA75E2E71E4A11601E4A1160CD
:10D4500001211A4A11605A68D0E7002AF0D1002849
:10D4600015D1DA7D2060002A15D162464146525816
:10D470005A7ED97D9142DAD80022DA759B7E002B44
:10D4800016D001220D4B1A60C1E7002AD8D1002224
:10D490000F20DA75BBE7474661465A7EC959DF68F7
:10D4A000B9545A7E0132D2B25A76E1E71120AEE782
:10D4B0000122064B1A60AAE7A428002000200040A1
:10D4C0004421004024210040082100400420004065
:10D4D000064A937E002B07D105490B6005490B6076
:10D4E000054901330B6093767047C046A42800209D
:10D4F000242100400821004000200040C12210B536
:10D50000604B92009A5884B092054DD55E4A1168DE
:10D51000002949D0002111608121C2228900920096
:10D5200099505A4B9A7E002A02D10121584A116023
:10D53000022269460A7090215248C900425842505E
:10D5400069460392DA7D68460A72DA6819680192C0
:10D550000022DA751A765B6898474E4A1368002BEA
:10D5600010D04A4B988A997D81424FD90021116091
:10D570009A8A9968895C9A8A013292B29A82464B59
:10D58000404AD150454B1A68002A0BD000221A603D
:10D590003E4B9A7E002A02D001213A4A1160DA7D80
:10D5A000002A42D104B010BDC123364A9B00D35893
:10D5B0005B07D2D53A490B68002BCED0334BD87DD0
:10D5C00000283FD10860A321C90052585A7ED97D56
:10D5D0009142C2D11A7E002A41D19A7E002A02D1FC
:10D5E00001212B4A11608120C2222649800092002D
:10D5F0008850002268460121DA755A7E0170027255
:10D60000DA68196801925B689847A6E70020106005
:10D610000029B7D06A46107011729A689875196817
:10D6200001925B6868469847ACE700226846012192
:10D63000DA755A7E01700272DA68196801925B68C5
:10D640009847AFE700200860A320C000597E125819
:10D65000D86842545A7E0132D2B25A76B6E7DA75A9
:10D660001A69D968DA6000226C46587E1A765A76B2
:10D670000132207201912270196868465B689847F0
:10D680006BE7C0460020004024210040A428002071
:10D69000042000401C2100401C05000044210040E3
:10D6A00008210040074B1A680823520701D41800CC
:10D6B0007047002804D0044B5B7803600023F6E732
:10D6C0000E23F4E78C290020C0280020A02210B5EA
:10D6D000064BD205D15880231B041C00A1208C438B
:10D6E0000B400349C0001450535010BD0405000006
:10D6F0000C050000F8B54F4646460400C0B411289A
:10D7000009D0122839D0132839D0142839D00CBCAC
:10D7100090469946F8BD0025012911D000291FD057
:10D720000229F4D16B005D191F4B5D196E78002E34
:10D73000EDD01E4B1B68002BE9D030009847E6E780
:10D74000194B6F00984642467B19D65C43445B7880
:10D75000002B18D17F194744BA78154B5A55E6E784
:10D760001448FFF753F8104A6B005B19D318104A9E
:10D770009B78565D9E42CAD1D9E70125CCE70225A8
:10D78000CAE70325C8E70C4B0A4899460B4B4A46A3
:10D790001B689900C9184900FEF7B4FF0028D9D1C9
:10D7A0004B461C70D6E7C0460C2A0020B02900204A
:10D7B000C4290020C8290020BC290020C02900203D
:10D7C000F8B5C64B1B68DB0700D4F8BDC44A147813
:10D7D000172CFAD8C349A300CB589F46A022C24BAE
:10D7E000D205D1588023DB031C00A1208C430B40C1
:10D7F000BE49C00014505350BD4B00221B68BD48A9
:10D800009900C918FEF77EFFDFE7A023F021B74A91
:10D81000DB05490499500021043A9950D5E7A0222C
:10D82000B14BD205D1588023DB031C00A1208C43CF
:10D830000B40AE49C00014505350AD4B0022196844
:10D84000AC48FEF75FFFC0E7AB4BA1201968E023AF
:10D850005B048B43A0210026F025C905C000A34C22
:10D860000B50A14B0E51CB586D046B408025AD037E
:10D870002B4000D129E10D5003230E5108211370D4
:10D880009B4B00221B689B485943FEF73BFF9CE7DC
:10D89000994BA1201968E0235B048B43A02100264B
:10D8A000F025C905C000914C0B508F4B0E51CB5841
:10D8B0006D046B408025AD032B4000D100E10D507D
:10D8C00004230E512821DAE7A023A122E021DB0561
:10D8D000D20049048024995000218448A40319509F
:10D8E0001C50995071E7854D2800FEF78FFF1123DA
:10D8F0001C1B00D1C9E0002800D0C6E080237E4E6A
:10D900001B043360012C10D0C8306421604302F046
:10D910003BFA774B00221B68434328001900FEF7AF
:10D92000F1FEF02332685B041340A0226F49D20558
:10D930005350A1230021DB00D15046E76E4BA121BB
:10D940001A68F0235B049343A022C900D205535008
:10D950000021664BD15038E7674BA1201968E023BE
:10D960005B048B43A0210027F026C905C0005F4D52
:10D970000B505D4B4F51CB58760473408026B60355
:10D98000334000D190E00E504F512821022C79D025
:10D99000147075E7A023A122C021DB05D200490441
:10D9A000C024995000215148E40319501C5099504B
:10D9B0000BE7A023A122D021DB05D200490480245B
:10D9C000995000214948E40319501C509950FCE635
:10D9D000A023F021A122DB054904D20099500021A7
:10D9E000424A9950F1E6E022434B52041B68A121C0
:10D9F0009A43A023C900DB0580245A5000223B48EB
:10DA0000A4031A501C505A50DFE63B4BA120196862
:10DA1000E0235B048B43A0210026F025C905C0004C
:10DA2000324C0B50304B0E51CB586D046B4080255F
:10DA3000AD032B4041D00D500E51052313702C4BDC
:10DA4000002219682B484900FEF75CFEBDE62A4B10
:10DA5000A1201968E0235B048B43A0210026F02558
:10DA6000C905C000214C0B501F4B0E51CB586D0403
:10DA70006B408025AD032B402CD00D500E5106235A
:10DA80001370DAE616391470FAE6F0231A4A5B04CA
:10DA90001168A1200B40A021C000C9050B50002334
:10DAA00012480B50136090E64E510B500421022C8B
:10DAB00000D06DE702391470E2E60D510B50BCE75F
:10DAC0000D510B5004210423D9E60D510B500221B6
:10DAD0000323D4E60D510B50D1E7C046B8290020EE
:10DAE000E8290020E00F0200040500000C050000FA
:10DAF000C029002090290020B4290020EC29002012
:10DB000010B50378112B06D0122B12D0132B12D084
:10DB1000142B12D010BD00235A00D318084AD31872
:10DB200058780028F6D0074B1B68002BF2D0984796
:10DB3000F0E70123F0E70223EEE7113BECE7C046F4
:10DB40000C2A0020B0290020002303280DD8A2238E
:10DB5000A022DB00D205D258054B8000C05801231B
:10DB6000834093435A1E9341DBB200200B707047F1
:10DB7000A010020070B5DB4B04001B680020DB071F
:10DB800000D470BD172CFCD8D74AA300D3589F46A9
:10DB9000A022D64BD205D1588023DB031C00A12044
:10DBA0008C430B40D249C00014505350D14B00223B
:10DBB0001B68D1489900C918FEF7A4FDE1E7A0222F
:10DBC000CA4BD205D1588023DB031C00A1208C4313
:10DBD0000B40C749C00014505350C64B002219686F
:10DBE000C548FEF78FFDCCE7C44D2800FEF70EFEBA
:10DBF00011231C1B00D14CE1002800D049E18023F7
:10DC0000BF4E1B043360012C10D0C8306421604328
:10DC100002F0BAF8B74B00221B68434328001900F2
:10DC2000FEF770FDF02332685B041340A022B04978
:10DC3000D2055350A1230021DB00D150A1E7A0233E
:10DC4000F021A122DB054904D20099500021A84A05
:10DC5000002099501222AB4B1A7092E7A023A12208
:10DC6000E021DB05D2004904802499500021A0481E
:10DC7000A40319501C5099501322A24B00201A7073
:10DC80007FE7A023F0219A4ADB054904995000213F
:10DC9000043A99509B4B00201C7072E7984BA121CD
:10DCA0001A68F0235B049343A022C900D2055350A5
:10DCB00000238F4900205350924A137061E7904B24
:10DCC000A1211A68E0235B049343A0220026F025DB
:10DCD000D205C90086485350844B1650D3586D0462
:10DCE0006B408025AD032B4000D1E9E05550165024
:10DCF0002821022C00D1F2E0824B1C707D4B0022C7
:10DD00001B687D485943FEF7FDFC3AE7A023F0214C
:10DD1000774ADB05490499500021043A99500C22B6
:10DD2000784B00201A702CE7A023A122D021DB051C
:10DD3000D20049048024995000216D48E403195011
:10DD40001C50995014226F4B00201A7019E76C4B2D
:10DD5000A1211A68E0235B049343A0220025F0244C
:10DD6000D205C90062485350604B1550D358640423
:10DD700063408024A403234000D199E054501550FF
:10DD8000082103221AE05E4BA1211A68E0235B04FC
:10DD90009343A0220025F024D205C90054485350D3
:10DDA000524B1550D358640463408024A40323408D
:10DDB00000D18DE05450282115500422514B1A7087
:10DDC0009CE7E0224E4B52041B68A1219A43A023FA
:10DDD000C900DB0580245A5000224548A4031A508C
:10DDE0001C505A50474B07321A700020C9E6A02336
:10DDF000A122C021DB05D2004904C0249950002192
:10DE00003B48E40319501C50995015223D4B00200B
:10DE10001A70B6E63A4BA1211A68E0235B049343DB
:10DE2000A0220025F024D205C900314853502F4BC1
:10DE30001550D358640463408024A40323403CD08D
:10DE40005450155005222F4B2B481A70294B002295
:10DE500019684900FEF756FC93E6294BA1211A6880
:10DE6000E0235B049343A0220025F024D205C900DF
:10DE70001F4853501D4B1550D358640463408024F1
:10DE8000A403234028D05450155006221D4B1A706D
:10DE9000A3E6F0231A4A5B041168A1240B40A021D9
:10DEA000E400C9050B510023114C0B51136068E6C7
:10DEB000145053500221032280E714505350C1E7FD
:10DEC000155053500421022C00D015E7023913E7F6
:10DED00014505350042170E714505350D5E71639AD
:10DEE0000AE7C046B82900204010020004050000DF
:10DEF0000C050000C029002090290020EC290020FA
:10DF0000B4290020E8290020234B10B51960234BC9
:10DF100004001860224B1A60830712D50D22214B92
:10DF200021481A700132DA7001329A7101325A7244
:10DF30004A080421FDF756FF002820D0E30703D448
:10DF400010BD0020E3070DD5A023F022A12100245D
:10DF5000DB055204C9005A5014495C500C315A5028
:10DF60000028EDD1124A00211248FEF7B1FB00282B
:10DF7000E6D1114A01211148FEF7AAFBE0E7FDF7BF
:10DF80008BFF0028DAD10E4A00210E48FEF7A0FBD5
:10DF9000E307D9D4E4E7C046C0290020B82900200F
:10DFA000B02900200C2A0020B41002000C0500004B
:10DFB000C1D70100D4100200CDD60100D810020054
:10DFC00001DB0100B010020003000720032B00D981
:10DFD0007047012A13D0012917D0002908D002293F
:10DFE00019D15800C3180D48C3185A700020EFE724
:10DFF0005800C3180948C3189A700020E8E70022A7
:10E000000129E8D11A000D32D2B258000349C318D1
:10E010005A540020DCE70720DAE7C0460C2A00202B
:10E02000E0231D4ADB00D2581C4B13400022C107DD
:10E0300001D5C02292021343E0221749D2008B502F
:10E04000174B9A58154B13400022810701D5C02267
:10E0500092021343E0221249D2008B50114B9A587E
:10E060000E4B13400022410701D5C02292021343F8
:10E07000E0220C49D2008B500B4B9A58074B1340AF
:10E080000022010701D5C02292021343E022064973
:10E09000D20000208B50704744000050FFFFFCFF6F
:10E0A000480000504C0000505000005010B50320B4
:10E0B000FFF7B6FF0023002802D0031E062B01D075
:10E0C000180010BD0023FBE710B50388102B08D003
:10E0D000112B05D1294A1368013B1360002B07D08F
:10E0E00010BD264C2368002B11D001332360F7E7C5
:10E0F000012202210020FFF767FF00282BD007280C
:10E1000029D01F4B1B68002BEAD09847E8E7012273
:10E1100000210020FFF758FF002808D0072806D06C
:10E12000174B1B68002B00D098472368DDE70722B8
:10E1300002210120FFF748FF002801D00728EFD176
:10E14000042202210020FFF73FFF0028EDD007281E
:10E15000E6D12368C9E7072202210120FFF734FF37
:10E16000002801D00728CCD10A2200210020FFF787
:10E170002BFF0028B4D00728C3D1B1E71C2A002008
:10E18000182A002010B5234B82B00C1E186018D03E
:10E190006B460020991DFFF7D7FC002801D002B084
:10E1A00010BD6B460130D91DFFF7CEFC0028F6D11B
:10E1B0006B46DB79002B26D16B469B79002B25D152
:10E1C0002370154B1B68002B01D00020E7E70122CC
:10E1D00002210020FFF7F8FE002801D00728DED139
:10E1E000072202210120FFF7EFFE002801D00728B7
:10E1F000D5D10A2200210020FFF7E6FE0028E4D056
:10E200000728CCD1E1E702232370DAE70B23237040
:10E21000D7E7C046182A00201C2A002076DF704766
:10E220007ADF70477CDF70477FDF7047A9DF704778
:10E230003CDF704748DF704710B5024AC021FDF748
:10E240007BFE10BDE810020010B5040001F014FAC6
:10E250002100314801F06EFA2188112936D023D9E6
:10E2600013290ED052292DD12C4B002218880021C1
:10E270000023FFF7DBFF002847D1294801F004FF06
:10E280000BE0264B0022188885210023FFF7CCFFE6
:10E29000002834D1234801F0F7FE200001F05AF89D
:10E2A0002000FFF711FF10BD10290BD10720FFF749
:10E2B00061FC00281DD1A288184B1B481A8001F070
:10E2C000E3FEEAE7194801F0DFFEE6E70020FFF78A
:10E2D00051FC002807D10122104B524214481A80E9
:10E2E00001F0D2FED9E78D21124A4900FDF724FE44
:10E2F000F1E714210F4AFF31FDF71EFEDBE7912104
:10E300000C4A4900FDF718FEC4E72A21094AFF31EB
:10E31000FDF712FEB1E7C046482E0020681F00201E
:10E3200078110200581102002C110200981102000D
:10E3300040110200E810020070B50D00161E08D052
:10E340000024285DFEF7D4FB0028FAD10134B44242
:10E35000F7D30A20FEF7CCFB0028FAD1A8552900F4
:10E36000014801F091FE70BDB811020010B50378AC
:10E37000002B00D010BD064B3B211888FFF74EFF45
:10E380000028F7D0034AB521FDF7D6FDF2E7C046D5
:10E39000681F0020E810020010B5072825D00A28C1
:10E3A00011D0042800D010BD1B4B13211888FFF793
:10E3B00035FF082302009A43F5D0BB21174A4900D4
:10E3C000FDF7BAFDEFE70020FFF7D4FB00281DD1D1
:10E3D000FFF76CFE002814D1FFF72AFF0028E2D0D7
:10E3E0000E4AEA21FDF7A8FDDDE701F045F8082314
:10E3F00002009A43D7D0BF21084A4900FDF79CFD8F
:10E40000D1E7064AE621FDF797FDE5E7034AE22159
:10E41000FDF792FDDCE7C046681F0020E81002000F
:10E4200070B50378012B2CD0002B08D0022B05D11E
:10E43000AA214068164AFF31FDF77EFD70BD154CDC
:10E44000154D20782818FEF739FB22780132D2B218
:10E45000AB18013B1B7822700A2B01D0132AEDD98F
:10E4600092B229000D4801F099FA082302009A435C
:10E4700004D0A221064AFF31FDF75EFD0023237080
:10E48000DCE7AE214068024AFF31FDF755FDD5E7D4
:10E49000E8100200202B0020EC2C0020482E002049
:10E4A00010B5002807D0032804D10138FFF762FB1C
:10E4B000002812D110BD0020FFF75CFB002816D108
:10E4C000FFF7F4FD00280DD1FFF7B2FE0028F1D0D0
:10E4D000094AEA21FDF730FDECE7074AFC21FDF788
:10E4E0002BFDE7E7044AE621FDF726FDECE7024AAB
:10E4F000E221FDF721FDE3E7E8100200F0B5464612
:10E500004F46C0B4ABB002AB984642468F4B03CBEC
:10E5100003C21B8805211380002000238C4AFEF7CC
:10E5200065F88C4C002803D022008B49FDF704FDD0
:10E530000EAE3200894B23CB23C2894B894A1C93F0
:10E5400080231CAD5B006B60AA60EB60864AFD3BDC
:10E5500029003000FEF760FA002804D0E7212200ED
:10E560004900FDF7E9FC814A81490320FFF7CCFC13
:10E57000002804D0FD2122004900FDF7DDFC290020
:10E580000020FFF7FFFD002804D0FE212200FF310C
:10E59000FDF7D2FC002348227649082001F0FEFA5C
:10E5A000002804D052212200FF31FDF7C5FC2A00CB
:10E5B0000121002001F042FB002804D05821220054
:10E5C000FF31FDF7B9FC6C4801F050FB002804D086
:10E5D000AD2122004900FDF7AFFC280001F06CFBE3
:10E5E000002804D05E212200FF31FDF7A5FC63481E
:10E5F00001F0FEFA002804D062212200FF31FDF76D
:10E600009BFC0F21012233785D4F8B431343102273
:10E610000B4013433800337001F058FD390082B2CB
:10E620003000FFF7FFFD002803D022006D21FDF729
:10E6300083FC082200212800FCF714FE10232B8005
:10E640002C336B800023AB809133FF332800EB80A9
:10E65000FFF7E6FD002803D022007721FDF76CFCD0
:10E66000002104222800FCF7FDFD464B2900464806
:10E670001C9301F08FF8002803D022009F21FDF7A2
:10E680005BFC382200213000FCF7ECFD02233370E4
:10E6900000239946B3700523382200212800F37027
:10E6A000FCF7E0FD012305AF2B82384B242200212B
:10E6B00038006B61FCF7D6FD01233B7340233B61BF
:10E6C00074337B614B463A0000932900304B300095
:10E6D00000F080FD002804D0EC212200FF31FDF77E
:10E6E0002BFC1C2200212800FCF7BCFDA02292027A
:10E6F0006A60F02200231203AA6003221C93EB81BC
:10E700002B74244B28006B61234B2A73AB6100F000
:10E7100077FF002803D02200D721FDF70DFC4146EA
:10E720001E4801F0B1FC032000F0F6FD002803D0E4
:10E7300022001B49FDF700FCFFF77CFD0028FBD001
:10E74000822122008900FDF7F7FBF5E7DC110200CA
:10E75000242B0020E810020015020000DC1002004B
:10E76000482D0020202A002021E4010099E3010027
:10E77000CD0C0000002D0020001E002049E2010009
:10E78000CC11020039E30100482E0020641F002054
:10E79000A1E401006DE3010039E20100D81102009B
:10E7A0002102000071DF704772DF704779DF704728
:10E7B0007DDF704765DF7047F0B55F4656464D46D2
:10E7C0004446F0B485B09A460EAB80CB06001B8859
:10E7D00000919B463B8801930388002B64D0002363
:10E7E0000E97994602ABDD1C0E9B0024170098463D
:10E7F00003E033880134A3422CDD7368A1009C46FA
:10E800000422614403A801F035FC0022290003A87A
:10E81000FFF7D0FF002829D12B78BB42E9D14B4626
:10E82000002B2AD043461A88D3195B453EDC52445C
:10E83000290003A8FFF7BEFF002817D143462A7816
:10E840001B880134D318424613800123994633882C
:10E85000A342D2DC4B464746002B25D03B88019A89
:10E86000013B9B1A9BB20C20FF2B1AD905B03CBC74
:10E8700090469946A246AB46F0BD43461B88DA193E
:10E8800002325A4512DC4246013369469BB213807C
:10E8900052460978D15443461A88013292B21A80FE
:10E8A000C5E71100524653540020DFE70C20DDE796
:10E8B000F0B55F4656464D4644460023F0B41788EF
:10E8C0001380436B87B006000D001400002B00D1AD
:10E8D0009BE1022F00D890E11A7802230B701121DE
:10E8E000238801339BB22380E954238801339BB2F0
:10E8F0002380EA54238801339BB22380326B002AA1
:10E9000000D170E019001231B94200D975E111212E
:10E91000E9542388013901339BB22380E9542388C9
:10E9200001339BB22380D17BE954238801339BB20E
:10E930002380917BE954238801339BB22380517B50
:10E94000E954238801339BB22380117BE954238847
:10E9500001339BB22380D17AE954238801339BB2DF
:10E960002380917AE954238801339BB22380517A22
:10E97000E954238801339BB22380117AE954238818
:10E9800001339BB22380D179E954238801339BB2B0
:10E9900023809179E954238801339BB223805179F4
:10E9A000E954238801339BB223801179E9542388E9
:10E9B00001339BB22380D178E954238801339BB281
:10E9C00023809178E954238801339BB223805178C6
:10E9D000E954238801339BB223801278EA542388B8
:10E9E00001339BB223802E22B25C002A00D00EE1BC
:10E9F0002D22B25C002A00D02BE1B278002A00D090
:10EA000054E1F278002A14D0D91CB94200D9F4E0BC
:10EA10000221E9542388013901339BB22380E95450
:10EA2000238801339BB22380EA54238801339BB2AD
:10EA300023807268002A14D0D91CB94200D9DCE0C6
:10EA400002211278E9542388083101339BB22380D4
:10EA5000E954238801339BB22380EA54238801338D
:10EA600023803389002B00D09CE1338A002B00D017
:10EA7000B2E1338B002B00D0C8E1336A002B4BD0BE
:10EA800022880C20911D9346B94200D9B6E019881E
:10EA900005388A46052900D8B0E0BC496A468C464C
:10EAA000D4446146D181D1898C46B94988468C4588
:10EAB00000D8A3E059888C46052900D89EE0B349C8
:10EAC0006144D18189B2414500D897E0B1498A4576
:10EAD00004D08C4502D0E24500D98FE005215A468A
:10EAE000A95422880D31013292B22280A954228881
:10EAF000013292B222801988AA181170090A517045
:10EB00002288023292B222805988AB181970090A01
:10EB10005970238802332380736A9846002B30D0C3
:10EB20009A882188131D5B180C20BB4266D8931C61
:10EB3000FE2B63D803326A54FF22238801339BB231
:10EB40002380EA544246238801339BB223801288F3
:10EB5000EB181A70120A5A704246238802339BB28D
:10EB600023809288002A0CD0414689680538002904
:10EB700044D0E81801F07EFA434622889B88D318D7
:10EB800023802C23F35C002B00D0B0E033780020EE
:10EB9000002B33D032880720012A2FD02288901CE6
:10EBA000B8422AD8012B04D1737802339B189F42B4
:10EBB00023D3023FBA1A04AF93B2281839009846FB
:10EBC0003B80FFF7F5FD002818D13378022B00D1E8
:10EBD00042E1012B00D1DFE043460821FE2B0CD897
:10EBE00022885E1CAE542288013292B22280A9543F
:10EBF000228801329B18238000E00C2007B03CBC27
:10EC000090469946A246AB46F0BD002376E6D91C55
:10EC10000C20B942F2D80221E95423881030013384
:10EC20009BB22380E854238801339BB22380022ABD
:10EC300000D10CE100D805E1032A00D10AE1042A41
:10EC400000D0FDE00322EA54238801339BB22380E5
:10EC5000CEE609330C20BB42D0D804A8FFF7A2FDB2
:10EC60000028CBD1082223880921EA5423881332B3
:10EC700001339BB22380EA5402AB9C462088153AAC
:10EC8000013080B220806144281801F0F3F9238814
:10EC900002AA0633127A9BB22380002A00D00122F6
:10ECA000EA54238801339BB22380A6E604330C2068
:10ECB000BB42A3D804A8FFF779FD00289ED1032208
:10ECC0002388EA542388163201339BB22380EA5406
:10ECD000238802AA01339BB212892380EB181A7091
:10ECE000120A5A70238802339BB2238089E6B36AE2
:10ECF0009846002B00D1A3E09B880233FE2B00D95D
:10ED00007BE70022914616329246163220889346BF
:10ED10000CE04B46B26A5B0090464B449B00984423
:10ED200043469B880233FE2B00D966E752460133E7
:10ED30002B54238801339BB22380EA544246238814
:10ED400001339BB223801288EB181A70120A5A7092
:10ED500043462088023080B220809A88002A0BD057
:10ED6000996800296CD0281801F084F9434620885E
:10ED70009B88C01880B220804B460133DBB2994695
:10ED80005B46F35C4B45C4D800E7C0467FF3FFFF0A
:10ED90007DF30000FFFF00007378984500D31CE767
:10EDA00043461AE708239846B044019700942B0085
:10EDB000022202214046FFF7FFFC002800D01DE799
:10EDC000019700942B00102206214046FFF7F4FC27
:10EDD000002800D012E748E610239846B044019777
:10EDE00000942B00022203214046FFF7E5FC002897
:10EDF00000D003E7019700942B0010220721404622
:10EE0000FFF7DAFC002800D0F8E632E6182398462F
:10EE1000B044019700942B00022214214046FFF7D2
:10EE2000CBFC002800D0E9E6019700942B001022CB
:10EE300015214046FFF7C0FC002800D0DEE61CE6A6
:10EE40000720DBE6012AFBD10022EA54FCE601227E
:10EE5000EA54F9E6E954F7E63B880921984500D3DE
:10EE6000BCE64346B9E6C04630B593B01F236A46B8
:10EE70000C009380D380002822D0C3785B071CD578
:10EE800001AA02A9FFF714FD02AD002816D1002C3B
:10EE900019D0E378002B10D16B460AA99A1D2000E7
:10EEA000FFF706FD002809D16B469B790AAA69463F
:10EEB00028000979FFF778FC00E0072013B030BD87
:10EEC00090800025E3E76B460022DC800023EEE71C
:10EED00073DF704774DF7047F0B5474680B4AE4BC0
:10EEE00086B01800072200219846FCF7BBF9AB4C0E
:10EEF0006378002B25D0AA4F3B78012B4BD0A2780A
:10EF0000002A46D1022B55D103233B70237B002BD3
:10EF100000D004E104233B70237E002B00D10CE1E0
:10EF2000A04B1A68002A57D02378002B54D09E4B50
:10EF30001B78002B50D101219C4B07201970904762
:10EF40004DE0A378964F002B2FD03B78022B22D098
:10EF5000012B2FD102233B70A378002BD4D0434642
:10EF60005B78002B13D143469B78002B0FD143468F
:10EF7000DB78002B0BD143461B79002B07D143468E
:10EF80005B79002B03D143469B79002BBCD0022335
:10EF90001BE0022B0ED1834A1268002A00D1C9E07F
:10EFA0000121834B0820197090473B78012B69D0D1
:10EFB000022BD1D0227B002A01D1032BAAD0227EA2
:10EFC000002A02D1042B00D1B7E0764A1268002A49
:10EFD00002D0033B012BA7D90022744B1A701822D0
:10EFE00000216846FCF73EF900266B463D781E700E
:10EFF00001961E720396022D65D02CD9032D00D1E7
:10F0000074E0042D19D16B46A28B1A82228C5A828D
:10F01000684B1A79002A00D183E02278002A04D0B4
:10F02000614A1278002A00D1A1E00422624B6349B0
:10F0300000201A70FDF77EFC3D78002D1CD1594B45
:10F040001B68002B02D05C4A10789847002006B05D
:10F0500004BC9046F0BD012DEFD159490020FDF7C9
:10F0600069FC434601936B461D705E821E82524BC3
:10F070001D703D78002DE2D06846FFF729FF00287B
:10F08000DDD0E4E76278002A00D163E74246527897
:10F09000002A9AD142469278002A96D14246D278E6
:10F0A000002A00D091E742461279002A00D08CE76E
:10F0B00042465279002A00D087E742469279002AD8
:10F0C00000D147E781E73E490020FDF733FC434686
:10F0D0006A460193012313706B4622895A826A465D
:10F0E00063681382344B1D703D78A6E76B46A28A95
:10F0F0005A82228A1A822F4B1A79002A16D0227835
:10F10000002A03D0284A1278002A1BD003222A4B57
:10F110002C4900201A70FDF70DFC3D788DE7032384
:10F1200053E71A7B002A00D077E77EE71A7B002A94
:10F13000E5D1EBE71E490A7038E700231E4A3B7011
:10F14000137049E769460393042302321E480A728A
:10F150000021C370FFF788FE002800D077E7052262
:10F16000154B1A491A70FDF7E5FB3D7865E76946CE
:10F1700003930423023214480A720021C370FFF77C
:10F1800073FE002800D062E706220B4B10491A706C
:10F19000FDF7D0FB3D7850E7D42E0020DC2E002078
:10F1A000742F0020A82E0020CF2E0020502F0020EA
:10F1B000752F0020402F0020882F0020A812020069
:10F1C000E811020048120200642E00201012020012
:10F1D00070120200F8B504000E000E20002C00D1C1
:10F1E0007BE0002A79D000203C4908703C490B6044
:10F1F00006993C4B19603C490B0023CA23C323CA20
:10F2000023C323CA23C3072200213848FCF72AF866
:10F21000374B384A384D1A60384A00219A60280026
:10F220003822FCF71FF8237822002B70A3781032C5
:10F23000AB70E378EB7063786B702B00103303CA0C
:10F2400003C32B00103A083303CA03C32B00083250
:10F25000183303CA03C3636A002B11D0284B294F0C
:10F260006B62616A9F600A881A808888988000288B
:10F2700006D000238A68D25CFA5401338342F9D164
:10F28000A36A002B14D0204B204FAB62A06A9F6072
:10F290008188998002881A800023002905D082681D
:10F2A000D25CFA5401338B42F9D12C23E25CEA544C
:10F2B000236A002B06D0164B2B62226A5188598094
:10F2C00012881A806368002B03D0124B6B6063684E
:10F2D0006B6031002800FFF7C7FDF8BD742F0020D8
:10F2E000A82E0020D02E0020DC2E0020D42E0020BE
:10F2F000402F0020002F0020642E0020542F0020DB
:10F300009C2E0020B02E00207C2F0020202F0020DB
:10F31000782F0020512F002010B500240B4B82B015
:10F32000187001A80194FEF7BDF9082809D000283B
:10F3300005D1019B002B05D00122054B1A7002B0AC
:10F3400010BD0194FFF7C8FDF9E7C046742F0020F7
:10F35000AC2E002070B5038882B0112B25D0192B5C
:10F360000AD0102B01D002B070BD037D012BFAD161
:10F370008288364B1A80F6E78479002CF3D1344E1C
:10F380003578022D5BD040D9032D27D0042DEAD14A
:10F39000304D314900202C70FDF7CCFA2F4B1B6803
:10F3A000002BE0D028789847DDE700242C4B1C7018
:10F3B000264B82881B889A42D5D10125244B01A86F
:10F3C0001D700194FEF76EF908282CD000282FD16B
:10F3D000019B002B28D0234B1D70C4E71D4B2249F5
:10F3E00000201D70FDF7A6FA042301A833700194D4
:10F3F000FEF758F9082816D0002819D1019B002BD8
:10F4000012D00122174B1A70ADE7012DABD10020AD
:10F410001649FDF78FFA022301A833700194FEF715
:10F4200041F90828D2D10194FFF756FD00289AD05F
:10F430000F4B1B68002B00D195E7984793E70D49C8
:10F440000020FDF777FA0323CFE7C0466A1F0020AC
:10F45000742F0020882F00207C130200A82E00208B
:10F46000CF2E0020AC2E002034130200D012020058
:10F47000D02E00200013020030B5184B83B01B784B
:10F48000002B22D0164C2378002B1ED1154B1B7855
:10F49000002B1DD101252570002401A80194FEF741
:10F4A00001F9082807D000280AD1019B002B03D0BE
:10F4B0000D4B1D700AE00194FFF70EFD002804D0EB
:10F4C0000A4B1B68002B00D09847002003B030BDCA
:10F4D000FFF700FD0028DDD0F8E7C046DC2E002055
:10F4E000CF2E0020742F0020AC2E0020D02E002024
:10F4F00075DF704776DF70477ADF70477BDF7047D4
:10F5000010B5184B82B01888174B984214D0174A80
:10F51000174C13780133DBB21370217B99420DD263
:10F5200000231370237C002B12D16369002B03D0BE
:10F53000002201A80270984702B010BD0D49FFF7E4
:10F54000D7FF0028F8D0A369002BF5D09847F3E740
:10F550003B21FFF7CFFF0028E7D0A369002BE4D0C1
:10F560009847E2E7D42F0020FFFF0000942F0020EF
:10F57000982F0020D82F002030B51B4B1B4A5B88EA
:10F58000118883B099420FD852889A420CD3184BF5
:10F590005B69002B03D0012201A802709847154C2B
:10F5A0000023237003B030BD124C2378002B08D009
:10F5B0000F4B5B69002BF3D0002201A80270984723
:10F5C000EEE70D4B0A4D1B78002B0BD0A9680022EB
:10F5D0000A48FDF797F80028E2D0AB69002BDFD08E
:10F5E0009847DDE76968F2E78C2F0020D82F0020CC
:10F5F000982F0020892F0020942F0020B42F002066
:10F60000164902000B0070B532CA32C332CA32C387
:10F6100012681A600022124B01681A70002916D075
:10F62000104C0832200000F025FD2000FFF764FF99
:10F6300000280BD101220C4B52421A8000220B4BA6
:10F6400000211A700A480B4AFDF742F870BD0548C0
:10F65000FFF754FF0028EDD0F8E7C046982F0020B0
:10F66000892F0020D82F0020D42F0020942F002095
:10F67000BC13020001F5010010B50388112B35D031
:10F6800021D9122B17D0502B1CD1214CC288E389D1
:10F690009A4217D1C38B022B14D11E33C35CDB07F4
:10F6A0000ED41C48FDF7B2F800280BD0A369002B3C
:10F6B00008D0984706E0811D0822174800F0DAFCC0
:10F6C000FFF75AFF10BD102BFCD101008288134BAD
:10F6D00016311A801048082200F0CCFC0022104B92
:10F6E0001A700B4BDB89002BECD1E9E701220B4BA5
:10F6F00052421A8000220A4B06481A70FDF786F81B
:10F700000028DFD0024B9B69002BDBD09847D9E75C
:10F71000982F0020B42F00208C2F0020D42F002001
:10F72000942F0020A0DF7047A2DF7047A6DF70474C
:10F7300063DF704710B5002808D0002906D00B8879
:10F74000112B15D0502B02D0102B0ED010BDCB8812
:10F75000028A9A4210D082889A42F7D18369002B9C
:10F76000F4D0CA8B20319847F0E78B888382EDE78D
:10F7700001235B428382E9E7CA8B022AEBD1202373
:10F78000CA5C1F3B134002D001238375DEE78375FB
:10F79000DCE7C046F0B54D465F464446564610236A
:10F7A000F0B495B004000D0010227B4904A89946DE
:10F7B0000E2700F05FFC002C0ED0002D0CD0012392
:10F7C0005B42A3822B682100A361002304A8A375D8
:10F7D000FFF7AEFF071E07D0380015B03CBC9046BF
:10F7E0009946A246AB46F0BD237802A98B7001234F
:10F7F000A21C01200B80FFF795FF071EECD103220E
:10F8000000216846FBF72EFD6B460F221B789246BF
:10F810009343012293465A46134352461340102203
:10F820009046424613436A461370537852469343B8
:10F830005A46134352461340424613436A46537096
:10F84000937806229343043A13436A460DAD9370AE
:10F8500000211C222800FBF705FD42462B7801AE53
:10F8600013432B706B466A466B61237800219373B8
:10F8700003233000938103226F60EF602F61AF613B
:10F88000FBF7F0FC52463378002193435A4613436A
:10F89000524613404246134352463370737808A8C9
:10F8A00093435A461343524613404246134306229B
:10F8B0007370B3789343043A1343DBB20632934335
:10F8C0004A4693435A4613431422B370FBF7CAFCCB
:10F8D00003AB089301226B461A8514225F859A8533
:10F8E000230060880C3308AA29000996FFF71CFF43
:10F8F000071E00D070E71C2200212800FBF7B2FC95
:10F9000008232A7800211343042213436A462B70EC
:10F910002378300093730223938103226F60EF609A
:10F920002F616F61AF61FBF79DFC52463378002178
:10F9300093435A461343524613404246134352469A
:10F940003370737808A893435A46134352461340C2
:10F950004246134306227370B3789343043A134329
:10F96000DBB2063293434A4693435A46134314226A
:10F97000B370FBF777FC03AB089301226B461A8543
:10F9800014225F859A856088231D08AA290009969C
:10F99000FFF7CAFE07001FE7C013020070B586B06C
:10F9A0006B4604000D00DA80002809D0828A114BD2
:10F9B00008209A4202D0A37D002B03D106B070BD6F
:10F9C0000E20FBE76B46DB880138142BF6D802AE1D
:10F9D000102200213000FBF745FCA389A08A338068
:10F9E0006B460633B36001233100F560B370FFF757
:10F9F0009DFEE3E7FFFF00001D4B1B78012B00D0AD
:10FA000070471C4B1B681B07FAD1F0221A4B1B686E
:10FA1000134018D1194B1B6813421CD0154B1B689F
:10FA20001B07EDD1F022144B1B681340402BE7D18C
:10FA3000124B1B681342E3D1C12380220121DB005A
:10FA4000D205D150DCE7102B01D0302BEAD10B4B83
:10FA50001B681342E6D10A4A0A4B1A6080220A4BFD
:10FA600012021A60024B1B78012BD7D0C8E7C046A0
:10FA7000E00F00F0E40F00F0E80F00F0EC0F00F0F2
:10FA8000DFFF07C004050040186C00402EDF704700
:10FA900052DF704710DF704760DF704761DF7047EB
:10FAA00010B5FCF711FA10BDF0B557464E46454665
:10FAB000E0B4354B82B01D6899466B425D41334BD3
:10FAC000EDB21C68984663425C41314BE4B2314F61
:10FAD000314E9A46002D13D0002C40D134683B881B
:10FAE00001A920000B80FFF7D9FF052837D0002897
:10FAF0002AD05246C821FCF71FFA0024002DEBD172
:10FB000001A8FFF7C5FF05280DD0002822D0204A04
:10FB1000A921FCF711FA002C27D0012401A8FFF736
:10FB2000B7FF0528F1D1002C19D16A46194B01A95C
:10FB30001B889380184B1C682000FFF7AFFF052837
:10FB40000DD001250028D4D1434620001B689847DA
:10FB50000024D3E74B4601981B689847DBE702B0C7
:10FB60001CBC90469946A246F0BD6A46094B01A9C5
:10FB70001B889380084B1C682000FFF78FFF052827
:10FB8000B5D10124CAE7C046E82F0020EC2F0020A1
:10FB9000D0130200E22F0020E42F0020F8B505006A
:10FBA0000C0017001E00FCF799FE0720002C01D066
:10FBB000A30700D0F8BD094B09491C60094B280078
:10FBC0001F80094B1E60FFF765FF0028F2D101225C
:10FBD000064B16301A70FFF759FFEBE7E42F0020B1
:10FBE000A1FA0100E22F0020F02F0020E02F0020DA
:10FBF000002803D0024B1860002070470E20FCE75D
:10FC0000EC2F002010B50A4B1B68002B09D0984739
:10FC1000002800D110BDBB21064A4900FCF78CF931
:10FC2000F8E7054B1B78002BF4D0FFF73DFFF1E719
:10FC3000F02F0020D0130200E02F002070B5140038
:10FC400005000E00142200212000FBF70BFB00230F
:10FC500001222361237B22809343237326726572E2
:10FC6000002D01D00123A372002070BD30B50F4BD1
:10FC700083B00193019B0500834213D080235B0571
:10FC80009C6B5B6B0A495C4380239B059C46019AF5
:10FC9000644403000020FCF74DFE621B0549002070
:10FCA000FCF748FE002003B030BDC046001F002016
:10FCB0002C1402006014020030B50400184B83B00D
:10FCC0000193019A174900200092FCF733FE694620
:10FCD0002000FFF7E1FE009A019B05009A4204D143
:10FCE000002816D1280003B030BD80235B059C6B33
:10FCF0005B6B0D495C430020FCF71CFE009B0B492D
:10FD0000E21A80239B059C4600206244FCF712FE09
:10FD1000E8E7020006490020FCF70CFEFEE7C046BB
:10FD2000001F002088140200AC140200E814020036
:10FD30001015020003210A4802680A4302600948BC
:10FD400002680A4302600849084A094B9B1A03DD0E
:10FD5000043BC858D050FBDC0648804706480047A3
:10FD60002405004054050040C8150200001F002073
:10FD7000741F0020F9F9010075B10100FEE7FEE7EC
:10FD8000FEE7FEE7FEE7FEE7002243088B4274D35E
:10FD900003098B425FD3030A8B4244D3030B8B428C
:10FDA00028D3030C8B420DD3FF22090212BA030C95
:10FDB0008B4202D31212090265D0030B8B4219D376
:10FDC00000E0090AC30B8B4201D3CB03C01A524196
:10FDD000830B8B4201D38B03C01A5241430B8B42DE
:10FDE00001D34B03C01A5241030B8B4201D30B03C7
:10FDF000C01A5241C30A8B4201D3CB02C01A5241EE
:10FE0000830A8B4201D38B02C01A5241430A8B42B0
:10FE100001D34B02C01A5241030A8B4201D30B0299
:10FE2000C01A5241CDD2C3098B4201D3CB01C01AB3
:10FE3000524183098B4201D38B01C01A52414309BD
:10FE40008B4201D34B01C01A524103098B4201D3AB
:10FE50000B01C01A5241C3088B4201D3CB00C01A18
:10FE6000524183088B4201D38B00C01A5241430890
:10FE70008B4201D34B00C01A5241411A00D20146B5
:10FE8000524110467047FFE701B5002000F0F0F83E
:10FE900002BDC0460029F7D076E7704703460B4302
:10FEA0007FD4002243088B4274D303098B425FD373
:10FEB000030A8B4244D3030B8B4228D3030C8B429F
:10FEC0000DD3FF22090212BA030C8B4202D3121285
:10FED000090265D0030B8B4219D300E0090AC30B5A
:10FEE0008B4201D3CB03C01A5241830B8B4201D307
:10FEF0008B03C01A5241430B8B4201D34B03C01AF0
:10FF00005241030B8B4201D30B03C01A5241C30A67
:10FF10008B4201D3CB02C01A5241830A8B4201D3D8
:10FF20008B02C01A5241430A8B4201D34B02C01AC2
:10FF30005241030A8B4201D30B02C01A5241CDD267
:10FF4000C3098B4201D3CB01C01A524183098B42B2
:10FF500001D38B01C01A524143098B4201D34B019B
:10FF6000C01A524103098B4201D30B01C01A5241FE
:10FF7000C3088B4201D3CB00C01A524183088B4285
:10FF800001D38B00C01A524143088B4201D34B006E
:10FF9000C01A5241411A00D20146524110467047E0
:10FFA0005DE0CA0F00D04942031000D340425340E5
:10FFB00000229C4603098B422DD3030A8B4212D3A5
:10FFC000FC22890112BA030A8B420CD389019211D7
:10FFD0008B4208D3890192118B4204D389013AD014
:10FFE000921100E08909C3098B4201D3CB01C01AE9
:10FFF000524183098B4201D38B01C01A52414309FC
:020000022000DC
:100000008B4201D34B01C01A524103098B4201D3E9
:100010000B01C01A5241C3088B4201D3CB00C01A56
:10002000524183088B4201D38B00C01A5241D9D26E
:1000300043088B4201D34B00C01A5241411A00D2EF
:100040000146634652415B10104601D34042002BEB
:1000500000D54942704763465B1000D3404201B56A
:10006000002000F005F802BD0029F8D016E770471F
:100070007047C046002310B59A4203D0CC5CC454EC
:100080000133F9E710BD00000FB40B4B13B51C682A
:10009000002C05D0A369002B02D1200000F060F8ED
:1000A00005AB049AA1682000019300F06BF916BC1F
:1000B00008BC04B01847C046601F0020031C0A7823
:1000C00001311A700133002AF9D170470023C25C54
:1000D0000133002AFBD1581E7047000010B50249B9
:1000E00000F0B0F810BDC046610C0200002310B54E
:1000F000040003604360836081814366C2810361C1
:1001000043618361190008225C30FBF7ABF8054BB3
:1001100024626362044BA362044BE362044B2363D7
:1001200010BDC04601090200290902006109020050
:100130008D09020070B568254B1E5D430E00290035
:10014000743100F0A1F8041E08D000212A000160DB
:1001500046600C30A0606832FBF784F8200070BD68
:10016000836913B50400002B28D18364C36403653D
:10017000134B144A1B6882620193984201D10123F8
:100180008361200000F020F86060200000F01CF87F
:10019000A060200000F018F80022E06004216068F0
:1001A000FFF7A4FF01220921A068FFF79FFF0222A9
:1001B0001221E068FFF79AFF0123A36113BDC04637
:1001C000200F0200DD000200F8B51D4B06001D687F
:1001D000AB69002B02D12800FFF7C2FF4835AC689D
:1001E0006B68013B05D40C22A75E002F10D0683449
:1001F000F7E72B68002B01D02D68F0E704213000D1
:10020000FFF798FF28600028F6D10C23336016E032
:10021000012320005B42E3810233A38167662760EC
:10022000A760676027616761A7615C3008223900B9
:10023000FBF718F820006763A763A764E764F8BDBD
:10024000200F0200F7B50400070000260191483492
:10025000002C16D06368A5680093009B013B0093B7
:100260000DD4AB89012B08D90E22AB5E013304D02B
:1002700029003800019B984706436835EDE724685C
:10028000E6E73000FEBD0000032370B5CD1C9D43A2
:10029000083506000C2D01D20C2505E0002D03DAEF
:1002A0000C230020336040E0A942F9D81F4B1C68A2
:1002B0001A002100002913D00B685B1B0DD40B2BF7
:1002C00002D90B60CC181EE08C4202D16368136027
:1002D0001AE04B6863600C0016E00C004968E9E71F
:1002E000134C2368002B03D1300000F0F7FA206094
:1002F0002900300000F0F2FA431CD1D00323C41CC3
:100300009C43A0420AD12560200007220B30231D08
:100310009043C31A09D05A42E25006E0211A300035
:1003200000F0DCFA431CEED1BAE770BDF82F0020D4
:10033000F42F0020936810B5013B9360002B05DA81
:100340009469A34208DBCBB20A2B05D01368581C72
:1003500010601970C8B201E000F01EFB10BDF8B5C6
:1003600006000F001400D518AC4208D021783A00DE
:100370003000FFF7DFFF0134431CF5D100E000201F
:10038000F8BD0000F0B59FB006000F000292059383
:10039000002804D08369002B01D1FFF7E1FE7F4BD9
:1003A0009F4201D1776808E07D4B9F4201D1B76839
:1003B00003E07C4B9F4200D1F768BB891B070AD53D
:1003C0003B69002B07D0002306AD6B6120336B76B1
:1003D0001033AB763DE03900300000F035FB0028EB
:1003E000F1D001204042D6E0059A111D1268059116
:1003F000002A00DA7FE00992013423782E2B00D105
:100400008DE021780322684800F0BCFC002807D06A
:10041000654B2A68C01A4023834013432B60013484
:100420002178631C062261480293297600F0AAFC19
:10043000002800D19DE05E4B002B00D090E0072209
:10044000059B07339343083305936B69039A9B1805
:100450006B61029C2378002B04D1029BE31A049366
:1004600012D003E0252BF8D00134F3E7049B029A65
:1004700039003000FFF773FF431C00D186E06A6942
:10048000049B944663446B612378002B7ED0012249
:10049000002352426A6002A95432521801342B6080
:1004A000EB60AB601370AB6521780522414800F02A
:1004B00069FC002808D03F4B2A68C01A01238340FA
:1004C00013432B600134EFE72B68DA0604D553227F
:1004D000202102A8121811701A0704D553222B21CB
:1004E00002A81218117022782A2A00D17CE7099BF1
:1004F00000200A2105E05242EA60022213432B60E9
:100500007AE72278303A092A04D84B4301349B1801
:100510000120F6E7002800D16FE709936DE76378C3
:100520002A2B0AD1059B02341A1D1B680592002B49
:1005300001DA01235B42079363E700230A201A00D4
:1005400001346B6021783039092904D842430134E1
:1005500052180123F6E7002B00D152E7079250E72B
:1005600005AB00933A00144B2900300000E000BFB7
:1005700007E005AB00933A000F4B2900300000F074
:100580008BF80390039B013300D05EE7BB895B06C9
:1005900000D526E70B981FB0F0BDC0462C15020011
:1005A0004C1502006C15020092150200961502000F
:1005B000000000008C1502005F030200F7B5170071
:1005C00001938A680B6900900C00934200DA1300D3
:1005D00022003B6043321278002A01D001333B6095
:1005E00023689B0602D53B6802333B6006252368DF
:1005F0001D401ED0230043331B785A1E93412268AE
:1006000092061CD53020E1184331087021005A1C95
:1006100045310978A2184332023311700FE02200ED
:100620000123193201990098089EB047431C0ED04F
:100630000135E3683A689B1A9D42F0DBDAE7220055
:10064000019943320098089DA847431C02D101201C
:10065000404220E006232068E1683A680340002514
:10066000042B03D18D1AEB43DB171D40A3682269CD
:10067000934201DD9B1AED180027BD420AD02200EB
:1006800001231A3201990098089EB047431CDED01E
:100690000137F2E70020FEBDF0B58BB006920A00EC
:1006A00043320793059004920A7E0C00109B6E2A39
:1006B00000D1ABE011D8632A22D009D8002A00D19A
:1006C000B5E0582A00D0C5E045310A70814A4FE0B4
:1006D000642A1DD0692A1BD0BCE0732A00D1AAE08D
:1006E00009D86F2A29D0702A00D0B3E020220968E7
:1006F0000A43226037E0752A1FD0782A33D0A9E058
:100700000E001A684236111D196013683370A4E098
:1007100021681A68080606D4490604D5111D196017
:100720000023D55E02E0111D19601568002D3BDA2B
:100730002D23049A6D42137036E021681A6808066A
:1007400006D4490604D51568111D1960ADB202E042
:10075000111D196015685F4B227E039308276F2ACD
:100760001DD00A271BE022007821453211705A4A19
:1007700019680392081D226818600D68100602D4DB
:10078000500600D5ADB2D30702D520231A4322600C
:100790001027002D03D1202322689A4322602300D2
:1007A000002243331A7002E00A274A4B039363681E
:1007B000A360002B09DB0422216891432160002DF6
:1007C00005D1049E002B11D07BE0002D79D0049E32
:1007D00028003900FFF75EFB039B013E5B5C2800AD
:1007E00033703900FFF7D0FA051EF1D1082F09D177
:1007F0002368DB0706D563682269934202DC302355
:10080000013E3370049B9B1B23612BE009681A682F
:10081000080607D4490605D5111D19601368A28A78
:100820001A8004E0111D1960136862691A600023C0
:10083000049E236116E01A68111D196016680021D4
:100840006268300000F09EFA002801D0801B6060D2
:10085000636803E0260042363270012323610023DF
:10086000049A1370079B09AA00932100069B059820
:10087000FFF7A4FE431C02D10120404227E0236978
:10088000320006990598079DA847431CF4D02368B9
:1008900000259B070FD4099BE068984217DA1800DF
:1008A00015E022000123193206990598079EB047EA
:1008B000431CE1D00135E368099A9B1A9D42F0DBA5
:1008C000E9E72600039B42361B7833708EE70BB0B6
:1008D000F0BDC0469D150200AE150200002370B5A4
:1008E000064C05000800236000F0FEFA431C03D10B
:1008F0002368002B00D02B6070BDC04678300020EC
:1009000070B50C000E25495F00F08EFA002803DB5D
:10091000636D1B18636503E0A289024B1340A3813A
:1009200070BDC046FFEFFFFFF8B51F008B890500C3
:100930000C001600DB0505D50E23C95E002202233C
:1009400000F0BAF9A289054B28001340A3813200B8
:100950000E23E15E3B00FAF78FFCF8BDFFEFFFFFCF
:1009600070B50C000E25495F00F0A6F9A389421C62
:1009700003D1054A1340A38104E0802252011343AE
:10098000A381606570BDC046FFEFFFFF10B50E2369
:10099000C95E00F0CDF810BDF8B505000F001400D9
:1009A000002804D08369002B01D1FFF7D9FB234B2A
:1009B0009C4201D16C6808E0214B9C4201D1AC689B
:1009C00003E0204B9C4200D1EC68A369A360A3899B
:1009D0001B070AD52369002B07D023682269FEB2C2
:1009E000981A636998420FDB08E02100280000F0A4
:1009F0002BF80028F1D0012040421DE02100280002
:100A000000F02EF90028F6D1A3680130013BA36065
:100A100023685A1C22601F706369984205D0A3891D
:100A20003000DB0708D50A2E06D12100280000F08F
:100A300017F90028DFD13000F8BDC0462C150200A0
:100A40004C1502006C150200354B70B51D68060090
:100A50000C00002D05D0AB69002B02D12800FFF758
:100A60007FFB304B9C4201D16C6808E02E4B9C42CE
:100A700001D1AC6803E02D4B9C4200D1EC68A38906
:100A80009AB2110723D4D10607D40922012032607B
:100A900037321343A381404240E0530713D5616BC3
:100AA000002908D023004433994202D0300000F0DE
:100AB00075F9002363632422A3899343A381002350
:100AC0006360236923600822A3891343A3812369F8
