:020000040001F9
:1080000028300020758401008F84010091840100D4
:108010000000000000000000000000000000000060
:108020000000000000000000000000009384010038
:10803000000000000000000095840100978401000A
:108040009984010099840100498701009984010005
:1080500099840100000000006185010099840100FD
:108060009984010099840100998401009984010098
:108070009984010099840100998401009984010088
:10808000998401005D8601009984010099840100B2
:108090007D86010099840100D18601009984010048
:1080A0009984010099840100000000000000000094
:1080B00000000000000000000000000000000000C0
:1080C00000000000000000000000000000000000B0
:1080D00000000000000000000000000000000000A0
:1080E0000000000000000000000000000000000090
:108440000348854600F07AF80048004785A20100FD
:1084500028300020401E00BF00BF00BF00BF00BF8B
:1084600000BF00BF00BF00BF00BF00BF00BFF1D111
:10847000704700000321094802680A430260084867
:1084800002680A4302600748804707480047FEE742
:10849000FEE7FEE7FEE7FEE7FEE7000024050040FA
:1084A00054050040F58601004184010030B50B46BB
:1084B000014600202022012409E00D46D5409D42BE
:1084C00005D31D469540491B254695404019154644
:1084D000521E002DF1DC30BD03460B439B0703D039
:1084E00009E008C9121F08C0042AFAD203E00B7879
:1084F0000370401C491C521EF9D27047D2B201E0F1
:108500000270401C491EFBD270470022F6E710B5EE
:1085100013460A4604461946FFF7F0FF204610BDF1
:1085200030B504460020034600E05B1C934203D2B2
:10853000E05CCD5C401BF8D030BD0000064C01254E
:10854000064E05E0E36807CC2B430C3C98471034FB
:10855000B442F7D3FFF778FFE0B1010000B20100A9
:10856000F0B52A4885B0046929480021C1630E4648
:10857000284F45E014207968704345180120B968F8
:10858000B04008423AD0002000900390E868296883
:10859000C0436040084001460290284602F0D2FAEB
:1085A0001A48006929686040084016D022464240B7
:1085B0000192E868C04350400840014600902846B8
:1085C00002F0C0FA019A0098A96890430140039113
:1085D000009869680240114000910298A968A04380
:1085E00001400398029A0143686822401040009AB3
:1085F000104302460A4301D02A699047761CF6B21E
:1086000078788642B6D305B0F0BD00000005005072
:1086100040610040902000208307FF22DB0E9A403B
:108620008907090E994000280BDA0007000F083867
:10863000830808489B001818C36993430B43C36120
:108640007047830804489B001B1818689043084330
:108650001860704700ED00E000E400E010B5064946
:108660000020086048608860C8600349403908609D
:10867000486002F0F7FB10BD40110140FEB500203C
:10868000C043124D02906869019068462E6901F05E
:10869000E9FB074601F034FD0446002F08D002AA8A
:1086A0000199009801F0FEFB029801F073FD06E0CD
:1086B000029801F06FFD002801D1002C02D0304655
:1086C00001F018F900206871FEBD00009C20002018
:1086D00010B507484068002807D08047002803D01D
:1086E0000022114600F066FA10BD01F085FC10BDB5
:1086F000C420002010B501F0CDFC002805D00E49A3
:108700000C484860C8130D4988610D48018CC9B2F6
:1087100001290ED1818C09070BD1018D0906090FA2
:10872000042906D1808D0006000F02D105490120E1
:10873000886010BDDFFF07C000050040006C0040EE
:10874000C00F00F0000600407CB51B4CA0681B4E1B
:108750000025002818D0A56019488069C1B21948C1
:1087600000F05DFA002805D001216A4611700190E1
:10877000684607E013488168C068401A012803D1A1
:1087800068460570B1688847E069002803D0E56154
:10879000032001F069FF606A00280BD06562084978
:1087A00080390868086002216A4611700190B1683A
:1087B000684688477CBD0000002100406020002002
:1087C000002500402C2700200FB410B503A9044B4E
:1087D000044A029800F024F810BC08BC04B0184702
:1087E000FD9E0100C020002030B47446641E257830
:1087F000641CAB4200D21D46635D5B00E31830BCD5
:10880000184702E008C8121F08C1002AFAD17047B1
:108810007047002001E001C1121F002AFBD1704700
:10882000FFB581B00546002706E025280AD0049A46
:10883000039990476D1C7F1C28780028F5D1384695
:1088400005B0F0BD002269786D1C10462E2913D1A9
:10885000697804226D1C2A2909D102996D1C01C96D
:10886000029109E00A235843303808186D1C297812
:108870000B46303B092BF5D92B78002BDFD0632B2F
:1088800007D0732B10D0049A1846039990477F1C89
:108890002DE002996C460B782370091D029100218E
:1088A00061706E46012104E0029940C902910021E5
:1088B000C94352070AD5002400E0641C84420DDA43
:1088C0008C42FADB325D002AF7D107E0002400E099
:1088D000641C8C42FCDB305D0028F9D13F1904E0B8
:1088E0003078049A761C03999047641EF8D26D1C68
:1088F000A2E7000038B50D4C6078022802D00C4980
:108900000120886069460B4800F066F9002802D013
:1089100000F016F838BD0848802181606A46074B90
:108920001278DA6102226270416038BD6020002056
:10893000002000403C27002000230040002500408C
:108940001CB506490120C8600549487003206A46E5
:1089500010708968684688471CBD000000200040F0
:108960006020002004490020487004490122CA60A8
:108970004A600349086070476020002000200040E2
:1089800000250040F7B582B0002605461670007835
:108990001446002805D02846039901F09FFD0600E3
:1089A00008D1A87800281ED02078039F001D1F281A
:1089B00002D90C2005B0F0BD684679DF0028F9D156
:1089C00021780322481C20707A5421781922481CEF
:1089D00020707A542078C1196846008802F0F6FAAF
:1089E000217840182070E8780223002810D02078E1
:1089F000039A411C2170135420780399471C0122CB
:108A000027700A542078EA78471C039927700A5483
:108A10006868002815D00021415620788C4602460F
:108A2000C01C03991F28C4D8501C20708B54227876
:108A30000A23501C20708B5420786246431C2370FC
:108A40000A542889002809D02846009406220221C9
:108A50000830039B02F038FB0600ABD1288A0028BF
:108A600009D028460094072203211030039B02F00E
:108A70002BFB06009ED1288B002809D028460094A5
:108A8000152214211830039B02F01EFB060091D121
:108A9000286A002805D02246039900F07DFF0600D1
:108AA00088D1686A002805D02246039901F0E4FCC9
:108AB000060084D12C20405D002806D0224628469E
:108AC000039902F061F80600C7D1304672E700B59D
:108AD00087B018216846FFF718FD00206946087026
:108AE0000190087240200882B4204882684673DFF3
:108AF000002803D00022114600F05CF8022000F0AC
:108B0000E9FC002803D00022114600F053F807B01A
:108B100000BD0000044842680121C9050B4693438B
:108B200083600A40C26070470005005010B50548D8
:108B30004168002903D0407800F0CEF810BD08202D
:108B400010BD000078200020F8B50B46052A01D2A0
:108B50000720F8BD1349144D48600B708A6000214E
:108B600001240BE0DA00121816789778B600BF00DF
:108B70007619376016782246B24011431A465B1EBA
:108B8000DBB2002AEED10748084B0A46401C00F031
:108B9000EDF80028DDD10348054A00210C3000F033
:108BA0000BF9F8BD78200020000700508D9F0100D0
:108BB000B19A0100BFF34F8F03490248C860BFF369
:108BC0004F8FFEE70400FA0500ED00E0014B1B6843
:108BD00018470000082700208268C36893420AD023
:108BE000826883881A4003689A5C0A708168491C0D
:108BF00081600020704705207047002906D0002AB8
:108C000002D0531E134203D0092070470E20704734
:108C10000160838000218160C160084670478268DE
:108C2000C3689B1A8288934208D8C36813400268BD
:108C3000D154C168491CC1600020704704207047AE
:108C400010B5002903D08A070024002A01D007208C
:108C500010BD0F4A0B4651601070142154704143EF
:108C600018469460FFF751FC00200A49C043886011
:108C7000094840210160094A1068FF231B049843FA
:108C80000B041843106006480160002010BD00006E
:108C9000902000200063004080E200E004E400E057
:108CA00000E100E00A4B5A68002A04D05B78984241
:108CB00003D30720704708207047142358438018B7
:108CC000044A12690068024000200A6070470000F0
:108CD0009020002000050050F0B51F4A516800297F
:108CE00004D05378984203D30720F0BD0820F0BD8C
:108CF0001A4B0025DD631A4B1C699768002F02D1BF
:108D0000184EDB057360012686403E4396601422B0
:108D100050434218D560002201230D5893401D4254
:108D200015D01C4202D003252D0405E001256D0459
:108D30004618F7681F43F7600B4B9600F3181E6840
:108D400003273F04BE431E601E682E431E60521C54
:108D5000202AE1D30020F0BD902000204061004097
:108D6000000500500063004000070050F8B5114FA7
:108D700084467D68002D07D0002B07D078783C789A
:108D8000A04205D30420F8BD0820F8BD0720F8BD97
:108D90000E461424164344432E5164192361A260E5
:108DA000616061460870411C797001F0BDFC0020D3
:108DB000F8BD00009020002070B5114CA568002D72
:108DC00006D0002A06D0002804D00023247809E029
:108DD000082070BD072070BD24265E43AE5D002EC6
:108DE00004D05B1CA342F7DB042070BD24240126C1
:108DF0005C432E5564196170A2610360002070BD50
:108E00009C200020FFB59807002481B01E4615461F
:108E10000F4600280BD1002E09D001F021FE224977
:108E20000A9888610F70324600208E6008E00720A3
:108E300005B0F0BD24234343D4549B181C75401C3B
:108E4000B842F7DB24204743BB19032048700F4684
:108E50001846CB6019461830002218232E465E4370
:108E6000D3005B181C705C709D7058603018521CE9
:108E7000032AF5DB0020C0433861BC70FC7001247C
:108E80000A482405046003211420FFF7C5FB0848A5
:108E90000460084C0198A06003211120FFF7BCFB7F
:108EA000606878610020C3E79C20002080E200E039
:108EB00000E100E000150140FEB504461D481746DC
:108EC00082680D46002A0CD001788C4201D2052D13
:108ED00001D20720FEBD214624235943535C012BB8
:108EE00001D00820FEBD8818407801281DD000263A
:108EF00002F0AEF8C0000F490190C96840186946F9
:108F000002F0D0F8002812D0012101700A49446013
:108F100049680830E2C007490198C96841180098BB
:108F2000487001F02DFF0020FEBD2E46E0E7042032
:108F3000FEBD00009C20002000150140F8B5144D36
:108F40000446A868002809D029788C4201D307205C
:108F5000F8BD24216143405C012801D00820F8BD00
:108F600002F076F8C600E8686946301802F09AF810
:108F700000280AD0022101704460E8683118009886
:108F8000487001F0FDFE0020F8BD0420F8BD00008F
:108F90009C20002010B501460148FFF71DFE10BDC2
:108FA0002C270020FFB581B00446674D00200A9EA3
:108FB0000F466870AA60002958D0B888396882B214
:108FC0006248FFF71AFE002851D1B889B96882B209
:108FD0005E481030FFF711FE002848D16078032763
:108FE00081005B4809180F60227800219200101858
:108FF000016058486278C26022784261A268426289
:10900000544B62794033002A02D00E22DA6200E02B
:10901000D9622279022A06D0012A4F4F32884ED0D7
:10902000002A63D066E0A1788A00494951180F6090
:10903000A27801210F469740484A57608A1E026174
:10904000A2788260D86A0843D862E0780A468240F3
:109050006A60830003223E48120418180260E07818
:1090600081403088002804D0FF280FD2072005B0A7
:10907000F0BD35483A4B0A46801CFFF777FE0028C2
:10908000F5D1A8780002FF30308001E0000AA87016
:109090006946A878FFF706FE0028E8D1A878FFF710
:1090A0001BFE0028E3D1E1780120884000990842A6
:1090B00001D1012000E0002001F0D6FA2BE0002AC7
:1090C00003D12A783280521C2A7004220260254A79
:1090D0009160D161DA6A01210A43DA62E2780261C1
:1090E000A2788260B9603960697014E02A783280B1
:1090F000521C2A70042202601A4A9160D161D96A16
:1091000049084900D9620021C943816001610120F9
:10911000B8603860687000211348C9438160A1219C
:1091200089004160114804210160114B04981A68BC
:10913000FF2424048007000EA243000402431A60A7
:109140000C480160002092E7602000202C270020BE
:10915000000700500025004000200040000500509E
:10916000B99F0100002100400023004080E200E0A0
:1091700000E400E000E100E010B501460448FFF71C
:109180004EFD0446022001F06FFA204610BD00009B
:109190003C27002070B50C4692B000216A46117041
:1091A00007251171002809D0C17849070CD502A9FB
:1091B000FFF7E8FB002808D102AE00E00026002CF3
:1091C0000ED0E078002802D0284612B070BD01AA67
:1091D0000AA92046FFF7D6FB0028F6D10AAA00E02C
:1091E0000022684603790178304672DFEDE700001F
:1091F00070B5054601461C220F48FFF76DF90F4C6C
:10920000002626702968002907D00822A018FFF739
:1092100063F9204608307ADF02E0084808307BDF37
:10922000002808D1401E608004486670044A00216E
:10923000001DFFF7C1FD70BDE82500203020002093
:10924000EDAF0100F8B5224C028800271F4DE689DA
:10925000102A16D029464968112A21D0122A2DD069
:10926000502A1CD1C288801DB24218D1028B022A1A
:1092700015D1C27E837E10021843C007C00F0CD1E7
:1092800012E08188698001461048082216311030AA
:10929000FFF722F96F70002E01D100F0C5FBF8BD79
:1092A0000020C04368806F700846FFF747FE002823
:1092B000F5D0A1690029F2D08847F8BD811D034887
:1092C00008221030FFF708F9E7E7000030200020FF
:1092D000E825002010B50446FFF7B4FF21460348F7
:1092E00000F03AF8204601F041F910BDCC250020ED
:1092F00030B5184B0D4604000FCB85B003936B4679
:1093000007C324D0002D22D00020C043A0822868AB
:10931000A0610020A0752146684663DF002814D1B3
:1093200021786846817401210182A21C04A90120D0
:10933000A0DF002809D12946204601F0B3FB002810
:1093400003D12946204601F0CDFD05B030BD0E20E9
:10935000FBE70000D0B1010000281ED000291CD07E
:109360000A88102A14D0112A14D0502A15D1CA887C
:10937000038A891D9A4202D10B8B022B0ED083885F
:109380009A420AD18369002B07D00A8B1A311847F9
:10939000898801E00021C94381827047CA7E8B7EA3
:1093A00011021943C907C90F00D001218175704707
:1093B00007B584B000280DD0828A114B9A420BD099
:1093C000827D002A08D06A46128B142A06D907200B
:1093D00007B000BD0E20FBE70820F9E7002200924D
:1093E00001920292039282896B461A80039106A928
:1093F000029101219970808A6946A6DFE8E70000A2
:10940000FFFF000030B4002201290BD10B49C968CD
:10941000002907D00A4B94001C59844204D0521CE6
:10942000042AF8D330BC7047042AFBD2034810301A
:10943000805C0028F6D030BC0847000014200020D3
:10944000A0B1010004280CD2074A1269074B800022
:109450001B5C01209840904300D001200870002040
:1094600070470020FAE7000000050050A0B101009D
:10947000F0B500210F4D01270F4A03231B048C0078
:109480002E593C468C40044207D0B400A4182668EC
:109490009E43266026681E4305E0B400A418266893
:1094A0009E43266026682660491C0429E7D30020D5
:1094B000F0BD0000A0B101000007005002460020EE
:1094C000042A02D2024B99547047072070470000CB
:1094D0002420002010B5054A0146127A0020D20748
:1094E00002D0084600F04AF810BD00001420002009
:1094F00070B50E461C4905464E608D600020CA605E
:10950000A90717D5002420460B30C1B22046FFF72B
:10951000D5FF641C042C02D20028F4D00AE00028F5
:1095200008D1720804211148FFF70EFB002801D171
:10953000FFF7FCFAE90706D00F220D4952058A60B1
:109540000023CB608A6100280DD10748094A002119
:109550001430FFF731FC002805D10348064A0121E9
:109560001830FFF729FC70BD14200020B0B10100B5
:1095700000050050E9A00100158B0100FEB57849F7
:1095800006464F684B690093BB00FB180020012280
:10959000019352050546734C3300FFF725F9180D6A
:1095A00013133749596C828E858E97A1A5A5A5A561
:1095B000A5C3C8CDD4DADA120B225205A260E56049
:1095C0000D70FEBD05208005A060E56060680F237A
:1095D0005B055840800209D5A260E560022E02D1E9
:1095E000E120C0000AE07D20400107E0E260A560C4
:1095F000022E01D1C82001E0FF2091300E706421BD
:10960000FEF754FF78430022014646E0052080051E
:10961000A060E56060680F235B055840800204D5B8
:10962000A260E56019204001E8E7E260A560E1E79B
:1096300005208005A060E56060680F235B05584049
:10964000800202D5A260E560CDE7E260A560D3E7C5
:1096500005208005A060E56060680F235B05584029
:10966000800202D5A260E56001E0E260A5600E70B4
:109670007900002211E005208005A060E5606068A7
:109680000F235B055840800202D5A260E56001E02F
:10969000E260A5600E70002239460098FFF70CFCCE
:1096A000FEBD05239B0544E06068012189050A464B
:1096B0008243A2600840E06010E0616801208005FC
:1096C00002468A43A2600140E160E4E7616801204C
:1096D000800502468A43A2600140E1600199C8E723
:1096E0000F214905E1601BE00F468869FFF726FC62
:1096F00011218A1B1C4E01D0002802D0A660E56013
:10970000FEBD012A0BD91046C82148436421FEF74B
:10971000CDFE796800224143B869FFF7CDFBE660D2
:10972000A560FEBD0F225205A260E56015E007238B
:109730009B05A360E5600EE00D225205A260E56086
:109740000122920507E00322D205A260E560921093
:1097500001E00F225205E260A5600E70FEBD000020
:10976000142000200005005000008000012905D0D1
:10977000002908D1027843681046184703784268E8
:109780000121184610477047F8B53B4914230A7861
:109790000F205A43541821792569384E241D022977
:1097A0001AD004292ED0052964D101F055F80146BC
:1097B0002846FEF77BFE064601F04EF80146A088DB
:1097C00071434019401A870801F046F8711C48435C
:1097D000A1886288891836E0B08822698002618891
:1097E0001318091AA288281810180122920291420F
:1097F00003D28A08194629DF37E0FF2201321946D1
:1098000029DF32E0A2681C481101CC300918088910
:109810004B894968A94203D16188584388421BD0CB
:10982000022A19D001F018F801462846FEF73EFE3C
:10983000064601F011F87043281A870801F00CF869
:10984000711C484361883A464919401A83083146D9
:10985000204601F0FFF908E000F0FEFF014628462F
:10986000FEF724FEB188401828DF002802D1024903
:1098700001228A70F8BD00004C2700206C200020D7
:1098800014225043054A002180180171C180012231
:109890000161C26041610181704700004C270020D6
:1098A000F8B5134C069E65780A2D1FD027787D19D0
:1098B000EDB20A2D01D30A3DEDB214277D432D19D7
:1098C0002871002068716A6103C92961E860EB8032
:1098D0002E81A1780020002904D1FFF755FF11281F
:1098E00000D100206178491C6170F8BD0420F8BDEA
:1098F0004C270020F8B5224801694A1C3DD024229B
:109900005143826889184E681E494C68476900793E
:10991000E11B0D022D0AED1C002814D101201A4A6A
:1099200000045060184A403A5060184940000860EE
:10993000174908601749012008602F20FEF78AFDAB
:109940000F4901200871B54200D23546E8190002DE
:109950000C49000A403108600A494968001B091B8C
:109960000902090A0002000AC91C814204D9012027
:109970000649400480390860F8BD01F071F8F8BD6F
:109980009C200020001501404013014080E200E0CF
:1099900000E100E000100140F8B50D4611780646E0
:1099A000881D14461F2801D90C20F8BD33880720D4
:1099B000062BFAD31927FF01BB4202D9164A93425C
:1099C000F3D17288062AF0D3BA4202D9124FBA42B2
:1099D000EBD1114FBB4203D0BA4201D09342E4D83D
:1099E000481C052220706A5420781222411C2170E4
:1099F0002A5420784119308801F0E8FA217840187B
:109A0000C0B220704119708801F0E0FA2178401846
:109A100020700020F8BD0000FFFF000010B50022FC
:109A20001146FFF7C7F810BDF8B5164800F024FB43
:109A3000144D0026103D144C002807D06169002900
:109A40001BD001206A461070684615E0287800286F
:109A500005D06169002910D0684606700CE068786E
:109A600000280CD0A16800226868FFF725FA0028BA
:109A700003D0A169002900D088472E70F8BD616825
:109A8000F1E7000040200020E82500200C21484399
:109A9000064910B5012240188272911E0181FF21F2
:109AA000C1720721FEF731FD10BD0000FC26002029
:109AB000F8B5184D69466878FFF7F4F800281DD10D
:109AC0002F4600241037012615E06968E000401891
:109AD000037831463A6899400A4210D04268002A19
:109AE0000DD04178012901D1002100E00121FFF7CB
:109AF0003DFE641CE4B228788442E6D3F8BD7A685F
:109B00000A42F6D041680029F3D041780129EDD00E
:109B1000EAE700007820002010B5100003D00022F2
:109B20001146FFF747F8002010BD00001FB500F0F8
:109B300099FE002803D000221146FFF73BF803A945
:109B40000120FFF77FFC002803D000221146FFF719
:109B500031F803A800F038F8002803D0002211469D
:109B6000FFF728F801A805210130FEF7CEFC694671
:109B700048790122104302210843C3210840694665
:109B80004871072088711020C871064800900A713A
:109B9000054800F02DF9002803D000221146FFF7F8
:109BA00009F81FBD199B010001200020002806D0E4
:109BB000FF21017041708170C17000207047014821
:109BC000704700000E800000F0B585B0040036D06C
:109BD000294800250560457285722846FFF756FF23
:109BE000254818212438FEF790FC0026FF27304630
:109BF00000F07EFD21488755761C072EF7D35421AF
:109C0000684681800721C1801D481C4900900831A9
:109C1000684600F0B1FE00280FD1184E0120083E22
:109C20003070207800280CD069468888C98848435D
:109C300081B23046103000F0BFFD05B0F0BD1148D4
:109C4000FBE7114F00240D48A1B202AA083000F032
:109C500089FD002809D11C206043C01900231C2263
:109C600002A900F037FE002801D03570E5E7641C3A
:109C7000072CE8D3E1E7000008270020502000204F
:109C80008D9C01000E80000004260020FFB5554881
:109C90008FB00068189F1E46002851D0542F4FD80F
:109CA0006846FFF783FF002803D000221146FEF725
:109CB00081FF0024684604700471254605970696C6
:109CC000A9B20DAA484800F04DFD002806D108228F
:109CD0000DA90F98FEF724FC002819D06D1C072D44
:109CE000EED3684680780790FF2829D01098202569
:109CF000042810D03D481C21301AFEF7D7FB01275D
:109D000007282DD204A80290119800281AD021E02B
:109D100068468570E5E7542F03D0402069460871F6
:109D200001E06846057169460879032108436946E0
:109D3000087104A8029001A96846119AFEF746FF2F
:109D400013B0F0BD07993846884027491039496853
:109D50000842F5D0079801F03FF96846057138E0F0
:109D600020481C214038301AFEF7A0FB00280BD0F9
:109D70001C4D1821243D701BFEF798FB00281AD0BB
:109D8000402069460871DBE704A802906846057127
:109D9000447014480A940C300B904C380790684675
:109DA00080781C21484311494018089007A8069064
:109DB000182005900DE03021684601714470C7708D
:109DC00008480C38807A800703D428461821FEF70B
:109DD0009CFB109869460328087901D00221A5E769
:109DE0003843A5E70827002058200020042600203B
:109DF00070B5064618480D46007800280ED0174961
:109E0000002E0ED0002D0CD02868002809D0144C4C
:109E10002168002907D011480A3870BD0F48801FFB
:109E200070BD084670BD20600522691D201DFEF72B
:109E300053FB2879A072207A022140084000084391
:109E4000FB2210402072E0790123184308431040A0
:109E5000E0710020307070BD482000200E800000AE
:109E60000827002010B50E4900238A78CC78A2423A
:109E700012D0521CD2B28A70022A00D18B708A781A
:109E8000074B92001C339A58026048691018000270
:109E9000000A4861012010BD0360002010BD0000D1
:109EA0009C200020F7B5144C0025A76823691EE00C
:109EB00024215943C9194E68864202D9301A486094
:109EC00017E0801B751900264E600E750E699C46C2
:109ED0000B6AB646002E0AD0019E76193602360A63
:109EE0008E607646CE6016680E6261461160591C1F
:109EF000DED12361FEBD00009C20002010B5044689
:109F0000C0B2FFF739F9204610BD000000B585B09A
:109F10001120694608740B2216A104A87CDF0028D2
:109F200003D000221146FEF745FE002000901022CB
:109F3000694601900A803C224A808880FF20913047
:109F4000C88068467ADF002803D000221146FEF759
:109F500031FE0BA103C9039102900B4902A80860CE
:109F6000222068DF002803D000221146FEF722FEDF
:109F700005B000BD4E6F726469635F554152540075
:109F800031323334353600000C20002070B5094DD5
:109F900004460E46E868FEF7D1FF002809D128469E
:109FA00010300660446034432246A968E868FEF732
:109FB00083FF70BD78200020F8B505460D4E0C4695
:109FC000084671682840084208D06946B078FEF714
:109FD00069FE00280CD10098054084437068044253
:109FE00001D0012002E0054202D0002000F03CFB3D
:109FF000F8BD000060200020F8B51E4C2078002835
:10A0000037D02069002807D00026E068002805D056
:10A010000025002E04D013E00126F6E70125F8E71D
:10A02000684651DF052806D0002806D000221146D8
:10A03000FEF7C0FD04E0012602E021690098884790
:10A04000002D12D1608869460880A06861DF05286C
:10A0500006D0002806D000221146FEF7ABFD04E032
:10A06000012502E0E168A0688847002ED8D0002DC5
:10A07000CFD0F8BDC4200020418805480288914215
:10A0800004D34088814201D80120704700207047E6
:10A09000382000201048018CC9B2012917D1818CC9
:10A0A000090714D1018D09060A0F03D1828D12060A
:10A0B000120F0ED0090F012903D1828D1206120F43
:10A0C00007D0032903D1808D0006000F01D00020A6
:10A0D0007047012070470000C00F00F0800701D0DA
:10A0E000002070470120704710B50448017AC90765
:10A0F00002D00078FFF742FA10BD000014200020C3
:10A10000F8B5234801690091457833E02048E9001B
:10A11000C0680E1834782AE0182060437168641C07
:10A120000818B178E4B2A14200D1002401780229D4
:10A1300002D003291BD113E0154A406824219268FC
:10A1400041438F18397D002911D000F053FE0020C3
:10A1500038750CE024277843C0180275006A03E0C4
:10A160000B4900228B680869471CF3D1086170789D
:10A17000A042D1D128466D1EEDB20028C6D10448B8
:10A1800001690098814201D00120F8BD0020F8BD8E
:10A190009C200020F8B5044638480027016900914A
:10A1A00046785CE03548F100C2688D1851E0601CCB
:10A1B00007D0324A24209268604321468018046AFE
:10A1C00024E02878182141436A68401CC0B2521824
:10A1D0002870A978884200D12F70284B516824201C
:10A1E0009B684843C0181378012B34D1037D002BA2
:10A1F00031D193688360D368C36013690361526986
:10A20000C2611E4A5279002A00D087601B4B8268C7
:10A210005B6996469C46D31A1A02194B120A9A4257
:10A2200002D2C368D21808E0724663469A1A120234
:10A23000C368120A934202D99A1A426000E047604A
:10A2400087600122C7600275921E0262084600F014
:10A250009FFD601CABD1287869788842A7D1304631
:10A26000761EF6B200289DD104480169009881420B
:10A2700001D00120F8BD0020F8BD00009C20002086
:10A28000FFFF7F009CB06DA207CA002400941A92C1
:10A29000199118906C4B052204212046FEF7B2FD5F
:10A2A000002803D000221146FEF784FC67490120F4
:10A2B000FEF7C6FC002803D000221146FEF77AFC08
:10A2C000002348226249082000F0ACFC002803D09B
:10A2D00000221146FEF76EFC0094012568460194A9
:10A2E000057060DF002803D000221146FEF762FCF3
:10A2F000584800F08DFC002803D000221146FEF7DC
:10A3000059FC554E05AB301D07C807C36846048489
:10A310004F48FF2101315C3001904018039008A89C
:10A3200002910491009003234C4A01A905A8FEF76D
:10A3300039FE002803D000221146FEF73BFC002224
:10A3400047490320FFF7D4F8002803D00022114624
:10A35000FEF730FC0120FFF78BF8002803D0002225
:10A360001146FEF727FCFFF7E1FBFFF7CFFD3D4865
:10A370000090364869461430FEF7BAFF002803D033
:10A3800000221146FEF716FC30681B902F48052767
:10A390001430017818A8817330216846FEF7B5F8AB
:10A3A0000226684606708470C77030210CA8FEF73C
:10A3B000ACF810A805801BA811900CA96846FEF700
:10A3C000E9FE002803D000221146FEF7F3FB1C2112
:10A3D0006846FEF79AF80520C00301900F2000049C
:10A3E00002900094032168460173C48104741E48DE
:10A3F00005901E4806906846FEF7FAFE002803D036
:10A4000000221146FEF7D6FB1949C32208782843DB
:10A41000304310400870072048701020887018A939
:10A4200014A0FEF7D1F9FEF752FB48DF0028FCD05C
:10A4300000221146FEF7BEFBF7E70000537461727D
:10A44000742E2E2E0A00000050230020B825002074
:10A45000F4200020D592010090B1010065AF010009
:10A46000CD0C000047A5010045A601001D9A010082
:10A47000042000202573000070B5054600790E46C3
:10A48000801C1446C0B21178821C8A181F2A01D978
:10A490000C2070BD0A46491C2170401CB054207825
:10A4A000FF22411C2170325420788119288800F045
:10A4B0008DFD21784018C0B22070AA88002A09D0EA
:10A4C000A968002908D08019FEF706F820782979B4
:10A4D00040182070002070BD072070BDF8B51478BA
:10A4E0000746A01C15460E461F2803D87878801C06
:10A4F0001F2801D90C20F8BD1D20001B80B2694621
:10A50000864608803019801C7DDF0028F3D138781A
:10A51000022805D168460088704501D8092107E066
:10A5200078780821002801D0704501D96846008854
:10A53000421C3255641CE2B2B1542978801C0818C0
:10A5400028700020F8BD70B516460D46002405E0C1
:10A55000285DFEF711FE0028FAD1641CB442F7D33F
:10A560000A20FEF709FE0028FAD170BD70B5334C01
:10A57000054601886688324814293AD00CDC102937
:10A580001CD0112926D0132917D1002103460160C0
:10A59000221D30467FDF0AE017290ED0192936D058
:10A5A00052290AD100231A4619463046A9DF00284D
:10A5B00003D000221146FEF7FDFA70BD0720FEF71A
:10A5C00089FF002803D000221146FEF7F3FAA8887D
:10A5D000608070BD0020FEF77DFF002803D00022C0
:10A5E0001146FEF7E7FA0020C0436080FEF76FFADD
:10A5F00070BD0168002904D000231A46304682DF6E
:10A60000D5E700231A461946304682DFCFE7A879FE
:10A610000028EDD1FEF75EFF002803D0002211468E
:10A62000FEF7C8FA0120FEF723FF002803D000221E
:10A630001146FEF7BFFA3CDFB9E70000002000201A
:10A64000DC20002010B50078002809D105483B2106
:10A65000408876DF002803D000221146FEF7AAFAD0
:10A6600010BD00000020002010B51D4A1D49030048
:10A67000FEF7BAF805040B312027120048780128AC
:10A680001FD0022808D1032005E04878002804D014
:10A69000032801D10220487010BD134B042018601C
:10A6A000124B012018609368D2689A42F3D0FEF7EB
:10A6B00021F910BD4878012806D0022804D00328CB
:10A6C000F7D1FEF74FF910BD9068D1688142EED105
:10A6D000FEF736F910BD48780128E8D010BD00001B
:10A6E0003C27002060200020002500400020004082
:10A6F00070B505461C200B496843441820461130AC
:10A700000621FDF702FF20461021FDF7FEFEFF2186
:10A7100021740020A176C0432083284600F05CFC11
:10A7200070BD000004260020F0B50C4A00215368DB
:10A730001422504301240A4D03273F041E58224689
:10A740008A40164206D08A0052191668BE43166027
:10A7500016681660491C2029F0D3F0BD9020002017
:10A760000007005030B5124B1B78002B07D0002893
:10A7700007D0002A05D00468002C12D103E008207D
:10A7800030BD0E2030BD0B4B1D68002D09D0456833
:10A790001889414369185D894543586828188842DB
:10A7A00001D8072030BD14600020516030BD00008A
:10A7B0006C20002018280020F8B505461B480F46DD
:10A7C0000078002805D0002D05D02868002820D169
:10A7D00003E00820F8BD0E20F8BD154C00262068C7
:10A7E000002816D06089218948436168411868684B
:10A7F00081420ED9FFF772FC00280CD029686868E6
:10A80000090109194A680989801AFDF74FFE0029D4
:10A8100003D00720F8BD1020F8BD3B460022294692
:10A8200004200096FFF73CF8F8BD00006C200020E3
:10A830001828002010B507484469601C06D000F0B5
:10A840000BF801462046FDF731FE10BD0120000740
:10A85000406910BD0010001001200007006980B29F
:10A8600070470000F8B50024184D194EAC806C708C
:10A8700034707470B47027463846FFF701F87F1CB7
:10A880000A2FF9D36C80FFF7D5FF871EFFF7E4FF8F
:10A8900047430F48AF60AC80CC30046004818481B2
:10A8A000448108206870FFF7D7FF0746FFF7C2FF13
:10A8B000441EFFF7D1FF60433946FDF7F7FD28DF5F
:10A8C000002802D10121B1702970F8BD6C20002050
:10A8D0004C270020FFB5264881B000781F46164659
:10A8E0000D46002808D0002D09D00198002806D078
:10A8F0002868002818D104E0082005B0F0BD0E201B
:10A90000FBE71C4C206800280ED061892089626812
:10A91000414389186A68914206D9002E04D0B0429A
:10A9200002D3F119814201D90720E6E70198FFF728
:10A93000D5FB00281AD03846FFF7D0FB002815D0E9
:10A940006868FFF7CBFB002810D068683246C11951
:10A950000198FDF7C1FD00962868002200012458E7
:10A9600003212846019BA0470020C6E71020C4E72A
:10A970006C20002018280020F8B5374D04462878B0
:10A980000E4600282ED0002C2ED0002E2CD0206871
:10A99000002829D0FFF760FF0146A088814228D314
:10A9A000102826D3E088002823D0FFF743FF471E56
:10A9B000FFF752FF4743E088A1884843A968401841
:10A9C000874216D3FFF748FF0146E088A28850432C
:10A9D00081420BDAFFF740FFA188FDF767FD0029F0
:10A9E00007D103E00820F8BD0E20F8BD20798007CC
:10A9F00001D00720F8BD688801281BD03060174FB0
:10AA0000A9680201D019716041602168B950A1881C
:10AA10000181E1884181A088E188002648430446FD
:10AA2000761CB6B2FFF718FFA04205D2FFF714FF5D
:10AA3000241A02E00420F8BD0024FFF70DFFA968E6
:10AA40004018A860002CEBD168880101C9198E81DB
:10AA5000401C68800020F8BD6C20002018280020D1
:10AA600070B501240B49600408600B4940108860F0
:10AA7000094940398860094D6C602F20FDF7EAFCD8
:10AA8000AC60074D00242F206C61FDF7E3FC2C71B6
:10AA900070BD000080E100E0401301400010014063
:10AAA0009C20002070B500240546601C90B0000773
:10AAB000000F08A9103008940870601C0007000FF0
:10AAC000103048708878F9263040801C88701C212E
:10AAD00001A8FDF71AFD6946087910210843694667
:10AAE0000871029408A804940594079406902878A5
:10AAF00008A9887103206946888411200094087091
:10AB000048708878F7213040801C0840EF210840C9
:10AB1000012630436946887014210AA8FDF7F5FC28
:10AB200009A80A9068460B9069460E8614204C8648
:10AB300088862B4668880C330AAA01A9A2DF10B0C8
:10AB400070BD0000F0B500220123032636041F4625
:10AB50009740394212D0C5683D4203D101246404B4
:10AB60003D4301E03446BD43C560064D97007D1965
:10AB70002F68B7432F602F6827432F60521C202A6D
:10AB8000E5D3F0BD00070050F7B582B00298144637
:10AB9000806A0F46002833D00298002520300090AC
:10ABA00028E00298816A0C2068430E1821783079D9
:10ABB0004A1C2270C01C785420781622411C217037
:10ABC0003A542078C119308800F000FA21784018F2
:10ABD000C0B22070B288002A09D0B16800290FD015
:10ABE000C019FDF779FC20783179401820706D1C70
:10ABF0000098EDB2007BA842D3D8002005B0F0BD8C
:10AC00000720FBE710B508461146C046C04610BDF8
:10AC1000002803D00249C860002070470E2070470A
:10AC2000C420002070B5002901D08C0701D0072076
:10AC300070BD064C0125A16062800549636010DF8C
:10AC40000028F5D1257016202EDF70BDC42000200D
:10AC500005AC0100FFB581B0484C0E46039F049A35
:10AC60000546617803201743002903D1002F0DD03A
:10AC700001216170039AC9B2920000920B00FDF7A6
:10AC8000B3FD072C071B2E465D6C2C000221F0E75C
:10AC9000FFF7E2FD8708FFF7DFFD70430546FFF78A
:10ACA000C9FD461EFFF7D8FD70433A46294629DF05
:10ACB000002812D102210FE0304628DF00280CD1F5
:10ACC0000399002901D0032106E00499002917D136
:10ACD0002978042950D018E0617005B0F0BDFFF765
:10ACE000A9FD471EFFF7B8FD4743FFF7B5FD7043C9
:10ACF0003946039A29DF0028EFD10499002901D0B1
:10AD00000421E9E72978042925D00521E4E7FFF7A4
:10AD100091FD471EFFF7A0FD47436888391800984A
:10AD20000F18FFF799FD6988704341180098049A3D
:10AD30000818394629DF0028E4D0CEE7FFF78CFD5C
:10AD400000997043401869888A08296929DF00281A
:10AD5000C3D1002F10D00621BEE7FFF77DFD0646C8
:10AD6000FFF768FD451EFFF777FD68433146FDF7A5
:10AD70009DFB28DF0028B0D10721ADE76C20002023
:10AD800001200249000508607047000000E200E071
:10AD9000F0B5174F2421BC6841430D1939694A1C8D
:10ADA00009D024224A4316196B687268934204D86A
:10ADB000D21A726029623861F0BD0A4602E00A4682
:10ADC000396A9B1B4E1C0BD024264E4337197E68D4
:10ADD0009E42F4D324264E4336197768FF1A7760D3
:10ADE0006B60296224214A4311190862F0BD0000FA
:10ADF0009C20002070B5194C2269A56813461146A5
:10AE000006E0814207D00A46242671434919096A9F
:10AE10004E1CF6D170BD002EFCD08A420CD12420ED
:10AE200043435819006A2061401C05D10C4B012096
:10AE300098600023636160712420414348192423F2
:10AE400041685A43006A52191062421CE2D024221F
:10AE50005043401942685118416070BD9C20002049
:10AE600000100140F8B51D4C2569681C35D01C4800
:10AE7000002640686169401A07023F0A19E0242051
:10AE80004543A0682A185068B84214D8A3693F1AED
:10AE90008619156A002B09D0D16990699847002856
:10AEA00007D000221146FDF785FE02E09169D069C6
:10AEB0008847681CE3D1A178E078814206D1401C24
:10AEC000C0B2E070022801D10020E0700349000602
:10AED000800D1C310E50FFF753FFF8BD9C20002061
:10AEE0000015014070B58EB005461C216846FDF77F
:10AEF0000CFB694608780C21084369460870002459
:10AF000001940394049405940694287808A9887001
:10AF1000022069460884601C0007000F1030079467
:10AF2000087711204877887FF9210840F721801C95
:10AF30000840EF21084001263043694688771421F4
:10AF400009A8FDF7E2FA08A8099007A80A9069463F
:10AF50008E851420CC85088668882B1D09AAA2DF5F
:10AF60000EB070BD70B50178002909D0012901D05B
:10AF7000022904D1002240681146FDF71BFE70BD76
:10AF8000104C0F4D20782818FEF704F82078401C4C
:10AF9000C2B2A81822702038C07F0A2801D0142A13
:10AFA000EDD307490848FEF703FA082805D0002822
:10AFB00003D000221146FDF7FDFD0020207070BD7A
:10AFC0003C21002000200020CC2500200870000A31
:10AFD0004870022070470000012181400248426809
:10AFE0008A434260704700004820002038B5154968
:10AFF000154A488890420FD04A78144C521CD2B25D
:10B000004A70237B934208D3083175DF002803D0B0
:10B01000A169002900D0884738BD00254D70217CEA
:10B02000002907D03B2176DF002803D0A169002941
:10B0300000D0884761690029EED0684605708847CE
:10B0400038BD000030200020FFFF0000E825002070
:10B0500012494868C005C00D19D0103840B2002808
:10B0600007DA0207120F083A920892005118C969CC
:10B0700004E081080A4A8900891809688007C00E1F
:10B08000C1400806800F012803D0032803D0022006
:10B0900070470020704701207047000000ED00E07D
:10B0A00000E400E042788378521C934200D10022F1
:10B0B0000378934201D1002070470A6041684078CC
:10B0C0001822504308187047F8B51546069C1E46CE
:10B0D00007460222009400F00AF8002806D1334601
:10B0E000102229463846009400F001F8F8BDFFB55B
:10B0F00083B0074600200C9C8646267805463AE039
:10B100007868A90041180A88684682804988C18009
:10B110000022694601A865DF002810D16846017841
:10B120000598814226D17046002801D0002200E017
:10B1300002222078891841181F2902D90C2007B053
:10B14000F0BD7146002908D1401CC0B2411C069BCD
:10B15000049A21701A5401208646217806980A180C
:10B16000694601A865DF0028E9D169462078097899
:10B17000401820706D1C3888A842C1DC7046002839
:10B1800004D020780699801B401E88550020D6E701
:10B19000010000000B09080A0100000000509D009A
:10B1A0001100000012000000130000001400000055
:10B1B0001100030005940100120003000594010032
:10B1C000130003000594010014000300059401001E
:10B1D0009ECADC240EE5A9E093F3A3B50000406EFF
:10B1E00000B2010000200020DC0000000288010005
:10B1F000DCB20100DC2000204C0F000012880100AE
:10B200000000FFFF00000000000000000000000040
:10B21000000000000000000000000000000000002E
:10B22000000000000000000000000000000000001E
:10B23000000000000000000000000000000000000E
:10B2400000000000000000000000000000000000FE
:10B2500000000000000000000000000000000000EE
:10B2600001000000000000000000000000000000DD
:10B2700000000000000000000000000000000000CE
:10B2800000000000000000000000000000000000BE
:10B2900000000000000000000000000000000000AE
:10B2A000000000000000000000000000000000009E
:10B2B000000000000000000000000000000000008E
:10B2C000000000000000000000000000000000007E
:0CB2D00000000000000000000024F4005A
:040000050001844131
:00000001FF
