:020000021000EC
:10B0000000800020897F0200C97F0200CB7F020000
:10B010000000000000000000000000000000000030
:10B02000000000000000000000000000CD7F0200D2
:10B030000000000000000000CF7F0200D17F02006E
:10B04000D37F0200D37F020081FB0100297E020032
:10B05000D37F020000000000D9F80100D37F020076
:10B06000D37F0200D37F0200D37F0200D37F020090
:10B07000D37F0200D37F0200D37F0200D37F020080
:10B08000D37F0200BDBE0100D37F0200D37F020048
:10B0900099BF0100D37F0200F1790200D37F020043
:10B0A000D37F0200D37F02000000000000000000F8
:10B0B0000000000000000000000000000000000090
:10B0C00010B5064C2378002B07D1054B002B02D07E
:10B0D000044800E000BF0123237010BD8021002040
:10B0E00000000000E889020008B5084B002B03D0DF
:10B0F0000748084900E000BF07480368002B00D15B
:10B1000008BD064B002BFBD09847F9E70000000074
:10B11000E8890200842100206C210020000000004A
:10B12000164B002B00D1144B9D46402292029A1AD6
:10B13000924600218B460F461348144A121A00F01B
:10B1400067F80F4B002B00D098470E4B002B00D018
:10B1500098470020002104000D000D48002802D06F
:10B160000C4800E000BF00F02DF82000290000F09E
:10B1700059F800F011F8C0460000080000800020D7
:10B180000000000000000000802100203437002073
:10B190000000000000000000084B10B5041C002B4C
:10B1A00002D0002100E000BF054B1868836A002B25
:10B1B00000D09847201C00F033F8C0460000000083
:10B1C000448302000E4B70B500251E1C0D4CE41A82
:10B1D000A410A54204D0AB00F35898470135F8E716
:10B1E0000DF0A2F8084B00251E1C084CE41AA41010
:10B1F000A54204D0AB00F35898470135F8E770BD7D
:10B2000064210020642100206421002068210020A6
:10B21000031C8218934202D019700133FAE7704779
:10B22000FEE7C04630B583B003F028F9002854D1BA
:10B2300000F0B4FB6B46DC1D201C00F0C7FC00F0E6
:10B240003BFC207800F080FC2378002B3FD1A02528
:10B2500000F0C0FB032400F0F1FB0CF049FE00F00D
:10B2600005FC00F0DBF8002317200121ED05021C8E
:10B270001A41114204D01A1CC132FF3292005451BB
:10B280000133202BF3D1A025002318200121032412
:10B29000ED050133202B0BD0021C1A411142F8D0CE
:10B2A0001A1CC132FF32920001335451202BF3D1CA
:10B2B0000CF056FE00200121094A03F019F900F0B4
:10B2C000A7FC00F0F9F8C82004F05EF9F7E70020C9
:10B2D0000121044A03F00CF9B9E700F095FDA7E756
:10B2E00058830200488302000122F8B5404B041C39
:10B2F0001A7043681B780B2B48D014D8032B29D025
:10B30000052B26D1C3683B495B7800201A400A70A0
:10B310001B07394A9B0F13700121384A03F0E8F8E4
:10B32000E36859780DE0902B4CD0AB2B11D1C3685A
:10B33000002B59D001210020314A03F0D9F8E368ED
:10B340001979002003F0EEF8002001212D4A03F0C6
:10B35000CFF8F8BD002001212B4A03F0C9F8257A67
:10B36000237C6EB29E42EFDA284F002001213A1C66
:10B3700003F0BEF8E3680020995D013503F0D2F8D0
:10B38000EDB2237C6EB29E42EFDBDDE700200121AF
:10B390001F4A03F0ADF8257A237C6EB2B342D3DDA9
:10B3A0001A4F002001213A1C03F0A2F8E3680020A4
:10B3B000995D013503F0B6F8EDB2237C6EB29E4282
:10B3C000EFDBC1E7134A0020012103F091F8E368A5
:10B3D0000020197903F0A6F8012100200E4A03F09D
:10B3E00087F8E3685979ACE7037C002BB1D1A1E77A
:10B3F0009C210020A5210020A421002080830200A0
:10B40000C48302003089020094830200A8830200F2
:10B41000AC830200D4830200E883020030B58020B0
:10B42000A02500230121032485B0C003ED050133CD
:10B43000202B0BD0021C1A411142F8D01A1CC13229
:10B44000FF32920001335451202BF3D1A0228021EE
:10B45000A123D205C903DB00D15000230E490020EF
:10B46000535001210D4A11700D4A0E4913700E4AB6
:10B47000136003F02FF86A460C4B694631CB31C29A
:10B480001B680B4813600B4A0CF046FB002801D0E8
:10B4900000F0BAFC05B030BD0C0500009C21002076
:10B4A000A5210020F8830200A0210020688302006B
:10B4B00078830200E9B20100F0B55F464D4644468C
:10B4C0005646F0B487B06A460123137407335374A9
:10B4D00005AD023B2B700023414C424F23700023EB
:10B4E000381C0093291C01220CF0E2FB002801D03B
:10B4F0006DE020BF2378002BFBD00023381C237085
:10B5000004A9009302220CF0D3FB002801D064E0D0
:10B5100020BF2378002BFBD0334B0F269B46002304
:10B520009A469946052398466E4453462B804346D7
:10B5300033704B4623700223381C0093311C0122C8
:10B540002B1C0CF0B5FB002801D03DE020BF237878
:10B55000002BFBD05B461B78DBB2002BE5D16A46A3
:10B560002B8005331374002323700223381C0093AF
:10B5700004A901222B1C0CF09BFB002801D029E020
:10B5800020BF2378002BFBD0184B00201978C9B2BC
:10B5900002F0C8FF00200121154A02F0A9FFA022F5
:10B5A000144BD205D1588023DB031C1CA1208C43F3
:10B5B0000B401149C0001450535007B03CBC90469A
:10B5C0009946A246AB46F0BD00F01EFCBFE700F076
:10B5D0001BFC8FE700F018FCD3E700F015FC98E7A0
:10B5E0009C21002078830200A5210020A4210020B6
:10B5F00030890200040500000C05000076DF70476A
:10B600007ADF70477CDF7047A8DF704767DF7047DD
:10B610003CDF704748DF704708B500F0F5FB08BD18
:10B6200008B5084B1888084B984206D000210AF04C
:10B6300037FD0823021C9A4300D108BD00F0E4FB4B
:10B64000FBE7C046E0200020FFFF000008B50B1C10
:10B650000021002099540231044A02F049FF0020E1
:10B660000121034A02F044FF08BDC04644840200A1
:10B670003089020010B5041C02F0B6FD201C06F053
:10B6800063F910BD30B5041C85B006F0C5FA211C65
:10B69000474806F0EBFB201C0AF086FC201C06F055
:10B6A00069FA201C05F052F82388112B63D00AD9BF
:10B6B000512B22D0552B56D0152B35D0201C06F0FF
:10B6C000E9F805B030BD022B45D0102BF6D1012290
:10B6D000384B524207201A8004F090FD002863D1B5
:10B6E000A288354B35481A803549002200F004FF06
:10B6F0000028E3D000F088FBE0E7A379002BDDD041
:10B70000A27B043A022AD9D8022B00D001236A4630
:10B710001370C1235B009380274B69461888FFF79D
:10B7200073FF0028CAD0E5E7211C062268460831CD
:10B730000CF0E1FD00236A462048937100F058FFA9
:10B74000002801D000F060FB002002211D4A6B465A
:10B7500002F0CEFEB2E7184B00211888FFF756FF23
:10B760000028ABD0C6E7144B13211888FFF746FF1B
:10B770000028A3D0BEE701220F4B0E4D52421A8083
:10B780002888114B984200D198E70AF0F9FC00286C
:10B7900001D000F039FB002001210C4A02F0A8FE84
:10B7A00001235B422B8089E700F02EFB98E7C0461F
:10B7B000D8230020E2200020E02000207023002079
:10B7C0003333000070840200FFFF00005484020045
:10B7D00030B5037885B00E2B1AD8404A9B00D35859
:10B7E000041C9F46002001213D4A02F081FE0020FA
:10B7F00001213C4A02F07CFE3B4C13212088FFF7DC
:10B80000FDFE002801D000F0FFFA01235B422380F7
:10B8100005B030BD80680028FAD000F0F5FAF7E7EF
:10B82000002000F0F1FAF3E70020304902F052FE68
:10B830002F483049002200F05FFE002847D1A08841
:10B840000AF0DAFC1128E6D1E2E703AD4088291CB2
:10B850000AF042FC002837D12B785B0728D400205F
:10B860000121254A02F044FE1F4C244920880AF099
:10B8700073FC00282ED120881321FFF7BFFE00287B
:10B88000C6D0CAE7002303A90B7040880AF016FC53
:10B89000BEE702F091F90E28BAD00823021C9A43A1
:10B8A000B6D0BAE70AF00EFCB2E70CF059FBAFE7EE
:10B8B000608806F03BFA217A021C63880020009120
:10B8C0000F4902F007FEBAE700F09EFAC4E700F065
:10B8D0009BFAB4E700F098FACDE7C0460484020072
:10B8E0001085020028850200E020002080840200EC
:10B8F0007023002033330000A8840200E2200020DF
:10B90000D484020008B50378002B00D008BD054B95
:10B910003B211888FFF772FE0028F7D000F074FA78
:10B92000F4E7C046E020002008B5072826D019D942
:10B930000A2807D00E2804D115481649052206F01A
:10B94000C7FB08BD002004F059FC00281CD104F0FE
:10B95000F1FE002815D1FFF75BFE0028F1D000F0C2
:10B9600053FAEEE70428ECD10B4B13211888FFF7AC
:10B9700045FE0823021C9A43E3D0F0E70CF0FAFAE4
:10B98000DFE700F041FAE6E700F03EFADFE7C04605
:10B99000D82300203C850200E020002008B50020CC
:10B9A0000521094A002300F01BFD002809D10748A2
:10B9B0000021074A00F086FD002801D000F024FA9B
:10B9C00008BD00F021FAF2E7A8210020508502000E
:10B9D00021B601000F21012230B585B001AC2378DA
:10B9E000154D8B43134310220B401343281C237027
:10B9F0000CF092FC291C82B2201CFFF703FE0028E9
:10BA000017D102AC201C00210822FFF701FC0823FB
:10BA10002380483363800023A3809133FF33201CAD
:10BA2000E380FFF7EDFD002801D000F0EDF905B04F
:10BA300030BD00F0E9F9E4E74485020000B583B0C9
:10BA4000002101A80422FFF7E3FB064B064801A9E9
:10BA5000019306F03BFA002801D000F0D5F903B0BD
:10BA600000BDC0464DB60100D823002010B588B0F7
:10BA700001AC1C22201C0021FFF7CAFBA02292026D
:10BA80006260F02200231203A26003220193E3818B
:10BA90002374074B201C6361064B2273A36106F0DD
:10BAA0002DF8002801D000F0AFF908B010BDC04655
:10BAB00005B9010019B6010000B587B01D4904227F
:10BAC00068460CF018FC68461B49482200230BF01E
:10BAD00037FF00282AD10020012101AA0BF0A0FF86
:10BAE000002820D115480BF0B3FF002818D101A879
:10BAF0000BF0D4FF002810D111480BF065FF00288F
:10BB000008D110480BF06AFF002801D000F07CF942
:10BB100007B000BD00F078F9F3E700F075F9EBE746
:10BB200000F072F9E3E700F06FF9DBE700F06CF981
:10BB3000D1E7C0464084020090230020E81F002087
:10BB400085B6010075B6010010B582B0041C0AF07C
:10BB50003DFA002834D1002C2BD100210522684663
:10BB6000FFF756FB6B460121022203201B780B4393
:10BB7000DBB2134303406846037007234370093365
:10BB80008370C3780B431343C370037919430A438B
:10BB900002710AF073FA002808D10B480AF05AFA29
:10BBA000002801D000F030F902B010BD00F02CF9EF
:10BBB000F3E70AF0F3FA0028CFD000F025F9CCE73C
:10BBC00000F022F9C7E7C046D1B7010030B50E49F1
:10BBD00083B0051C0D4A032004F0DAFC002810D1C4
:10BBE0006B46DC1D0020211C04F00EFE002801D055
:10BBF00000F00AF92378023B5A4253412B7003B0FC
:10BC000030BD00F001F9EBE7CD0C000029B90100CF
:10BC100008B5FFF7FFFC002801D000F0F5F808BDDB
:10BC2000F8B54D465F4656464446F0B4224B197867
:10BC3000994600292AD0214B00259846204B214FB8
:10BC400001269A4603E00135EDB28D421ED24346ED
:10BC50001B68321C9C46EC00644420783B688240A0
:10BC60001342F0D093433B6003F02CFE331C227848
:10BC70005146934009680B40011C91408B420BD008
:10BC80004B4601351978EDB28D42E0D33CBC90466D
:10BC90009946A246AB46F8BD616863788B46002999
:10BCA000EED0591E4C424C41211A4B424B41101CC4
:10BCB000D9B2D847E4E7C046FC230020F82300208F
:10BCC0002024002024240020F8B5124D071C281C35
:10BCD00000F08EFC002807D10124BC400E4E3368D2
:10BCE000234202D0A3433360F8BD381C03F0EAFDC1
:10BCF0000A4A136800280BD0234313603368281CBA
:10BD00001C43074B00221968346000F0F5FBEBE799
:10BD1000A343F2E700240020242400202024002054
:10BD2000F4230020F0B54F464646C0B4141C071C4F
:10BD300083B00E1C0720042A04D803B00CBC904624
:10BD40009946F0BD03F0B2FC00282FD01A4B1B4AD5
:10BD50001F601B4B751E1E701A4BEDB21C6000233A
:10BD60001360194A1360002E1AD0184B01AC994683
:10BD700003230026984600E01D1C4246EB00FB18FA
:10BD80002270A670E6709A7818786270211C4A4674
:10BD900003F096FC0028D0D16B1EDBB2002DEBD156
:10BDA00000210B4A0B4800F08DFBC6E703F04AFC6C
:10BDB0000028CBD0C1E7C046F82300202024002073
:10BDC000FC230020F423002024240020C9BC01000F
:10BDD00021BC01005485020070B5094D2B78002B61
:10BDE0000BD00024074E3268E300985C012103F079
:10BDF00015FD2B780134A342F5D8002070BDC04654
:10BE0000FC230020F8230020002300B585B001AA00
:10BE10009060002103481380536000F005F805B0DE
:10BE200000BDC04601400000BFF34F8F034A044BE2
:10BE3000DA60BFF34F8FC046FDE7C0460400FA0545
:10BE400000ED00E080218023184A8902D150802231
:10BE5000D221174B520289005A5040395A500122C0
:10BE60002F205A600138C046C046C046C046C04672
:10BE7000C046C046C046C046C046C046C046F1D1D6
:10BE80009A6000230B4A2F2013600138C046C04639
:10BE9000C046C046C046C046C046C046C046C04672
:10BEA000C046C046F1D1044A1370704700E100E07B
:10BEB000001001402824002048240020A021F0B5D3
:10BEC000002347462B4A490080B453500431535055
:10BED00004315350043153504C39535004315350B2
:10BEE000254B1B68002B35D0244900265258244985
:10BEF000244F0C68141B00222402240A904602E0FE
:10BF0000002D18D02B1C1A68A24214D8A41AB618F7
:10BF10001A7CDD69002AF3D0424699691A745A697D
:10BF20003B68002B19D0101C98470028E8D0FFF779
:10BF30006BFF002DE6D1144B14491A780B789A4206
:10BF40000ED0134A9B009E5080218023114A490342
:10BF50005B00D15004BC9046F0BD081C9047CFE771
:10BF60000132D3B2022B01D00B70EAE700230B7031
:10BF7000E7E7C046001001402C2400200405000023
:10BF800028240020302400203C2400203D240020D0
:10BF90004024002000E100E0F0B55F4656464D46E3
:10BFA0004446F0B4B44BB54A1B68B54989B0019317
:10BFB00009781378994200D1B1E10133DBB2022B49
:10BFC00000D100231370AF4A9B009B58AA4A9946A0
:10BFD000019B4B441B021B0A136001230493AA4BD1
:10BFE00000241B689B46A94BD8461B781A1C029359
:10BFF000A74B944607931B6803939F4B1B680693BC
:10C00000A44B1B7805935B466646013EF2B294460C
:10C01000FF2A4FD06246D000039A924650440178DE
:10C020004578A942F0D04A00521887780131466815
:10C03000C9B27F1AB2467E1EB741D2007F42524437
:10C0400039401778022F0AD0032FEAD1002BE8D00D
:10C050001C74DB69002BFBD145789846E1E75668F4
:10C06000002B25D09E421AD01F1C00E0171CFA6935
:10C07000002AD6D09642F9D1321C3D1CBE4200D1D6
:10C08000EBE01768D269EA61002A06D013689A4685
:10C090005744176045784346C3E74578C1E7DE69F2
:10C0A0001A1C002E00D1DDE0B046331C151CE8E759
:10C0B0000023B6E76946774A097D181C11706E4A5D
:10C0C00006990393116041466F4A1160049A002A51
:10C0D00000D028E15B461B1A5A1E93410025DBB2B3
:10C0E0000493079B00271B68039E0693624B1B6803
:10C0F0009C46654B1B689A46664B1B780593664BBE
:10C10000019301239846029B013BDBB20293FF2B74
:10C1100000D18FE0069ADB0093469B44002D27D088
:10C120006968AB68281CED696246019C8A1A120294
:10C13000120AA24250D8D318424603604760876073
:10C140000274C761002E56D03168341C994204D362
:10C150005FE01168994263D2141CE2695B1A002AFD
:10C16000F7D10360331CC261E0611E1C002DD7D1E2
:10C170005B465A461B7852789A42C4D05946496861
:10C180005A0089465946D2180133DBB20B708978C0
:10C19000D2004A4499424AD011785068331C012990
:10C1A000E3D1037C99464946331C0029DDD19168CF
:10C1B0004160D36883601469C46052698261059AE2
:10C1C000002AB1D04A46002142606246019C8A1A88
:10C1D0001202120AA242AED96246511A0902090A93
:10C1E00099420CD242465B1A036047608760027432
:10C1F000C761002EA8D1031C82461E1CB6E7434629
:10C200000760476087600374C761002EF3D0002386
:10C210003168CB1A3360031CC66182461E1CA5E739
:10C22000C91A11600360C261331CE0619DE75B467F
:10C230001D70B1E75246144B1A60039BB3422FD1D5
:10C24000049B002B2CD10023124A137009B03CBC74
:10C2500090469946A246AB46F0BDDE693A1C002ED8
:10C2600000D021E701250D4B9D6000230696013685
:10C270009846151C059604E7282400203C2400203D
:10C280003D240020402400202C24002034240020C1
:10C29000382400203E240020FEFF7F0000100140D3
:10C2A000002E63D0484B49493568CC58484B494E1D
:10C2B0001B683078E21A1202120A033290460028F4
:10C2C00061D04246AA4200D22A1CA820D2181202EB
:10C2D0003E49130AC0003C4D0B504A591B1B121B10
:10C2E0001202120A1B0203321B0A9A42ABD94B59A3
:10C2F0000B502F200138C046C046C046C046C0463D
:10C30000C046C046C046C046C046C046C046F1D141
:10C3100080218023304A89025B00D15093E70023BB
:10C32000994604935BE600250021002448464646D2
:10C3300013E01A6882421CD8DE68801A89181C60D3
:10C34000DF69002E07D0DD611D1C019A9E608A18EE
:10C350001202120A5A603B1C3E1C002BE9D11F4BF3
:10C360001E600023039301330493BAE6FFF76AFDCE
:10C3700069E78146194903930E604946521A1A60CB
:10C3800001230493ADE68020D1274002BF00C851AD
:10C39000403FC851C02280270F48BF02520087503B
:10C3A000076001272F200F600138C046C046C046F5
:10C3B000C046C046C046C046C046C046C046C0464D
:10C3C000C046F1D137707CE7040500000010014041
:10C3D000282400204824002000E100E02C24002034
:10C3E000F8B54F464646C0B40326351C80460F1CA0
:10C3F000141C994615400720002D03D00CBC904614
:10C400009946F8BD002A44D0FFF71CFD4A46224B4E
:10C4100080201A60221C214B18321E70204B626053
:10C420001C607B00DB19DB00D218E260D318C0224D
:10C43000636125706570A77025726572A772257497
:10C440006574A774C524FF21164B40031D60164B6D
:10C4500052001D70154BA4001D70154B98501A59B1
:10C460008A433F390A431A51A122186040461149B4
:10C47000D2008850C42080001C580F4A2240C0249B
:10C48000240222431A500D4B0020CA580C4B1A604C
:10C49000B4E7034B1A60B1E73024002034240020B5
:10C4A000382400202C2400203C2400203D2400209F
:10C4B00000E100E000100140FF00FFFF0405000064
:10C4C0002824002010B50B4B1B68002B0BD0002A32
:10C4D00007D0002805D0036808201C7C002C04D05D
:10C4E00010BD0720FCE70820FAE759745A610020C4
:10C4F000F6E7C04638240020F0B5474680B4374BF5
:10C500001C68002C08D0002806D00723042905D871
:10C51000181C04BC9046F0BD0823F9E74369002BC2
:10C52000FAD00025437CA846012B2FD0EFF30583DA
:10C53000DB05DB0D1025002B2CD164196378A57861
:10C540005E1CF6B2AD1B6F1EBD416D422E402578BC
:10C55000B5421DD05D00EB186568DB00ED180423C3
:10C56000002DD5D0033B2B7068601D4B1D48C35870
:10C57000E960AB60434680212B6180236A611A4ADF
:10C580005B0049036670D1500023C1E78846CDE7C0
:10C590000423BDE7103BDEB275B2002D13DBAD08FE
:10C5A000114EC035AD00AD5903263340DB00DD40F0
:10C5B0002B069B0FDBB20025012BBED00835032BC9
:10C5C000BBD00835B9E70F23084D3340AC46083BD4
:10C5D0009B089B0063445D680323E6E73824002042
:10C5E000040500000010014000E100E018ED00E04B
:10C5F00030B52E4A031C12680820002A2ED0002BCA
:10C600002CD05969002929D000211974EFF3058134
:10C61000C905C90D1025002923D155196A78A978B3
:10C62000541CE4B2091B481E814149420C40297840
:10C63000A14214D051008A186968D2008C46624425
:10C640000420002A0AD00221536011708023802127
:10C650000020174A49035B006C70D15030BD0420A4
:10C66000FCE71039CCB260B2002813DB8008104C14
:10C67000C0308000005903242140C900C840010691
:10C68000890FC9B200250129C7D008350329C4D0B4
:10C690000835C2E70F210748214084460839890838
:10C6A0008900614448680321E6E7C0463824002039
:10C6B00000E100E018ED00E0F0B5EFF3108172B694
:10C6C0000A4B5A68002A0DD101248025084E5C606F
:10C6D0007459084F3C401C6077510270002900D10A
:10C6E00062B6F0BD01230370F8E7C0462C37002086
:10C6F00000E100E0FC06FFBC10B5084B5A68002AB8
:10C700000BD0002809D1EFF3108272B604491C68DF
:10C710000C605860002A00D162B610BD2C37002092
:10C7200000E100E0033083B230B50920FD2B00D9D1
:10C7300030BD114A1078002806D15489108920187C
:10C74000181880B2FF280DD9147C0720002CEFD1D7
:10C75000558B148B2C191C19A4B2FF2CE8D801247A
:10C76000063801E0002400200C8001015218518994
:10C7700000205B185381DBE79C240020F0B547467E
:10C7800080B443688846002B03D0334A11688B423B
:10C7900036D200234246138001339C462F49304E47
:10C7A00080234F68DB00FD1800230CE01A6801327B
:10C7B00011D09A881C88B24207D0002C05D09A6804
:10C7C0000468A24211D0002B17D05A88033292007D
:10C7D0009B18AB42EAD3434662461A806346103147
:10C7E000022B36D002239C46DAE743601D4B1B899F
:10C7F0000381012004BC9046F0BD3B1C0833E8E7F0
:10C8000052689342C5D89A07C3D1164A0189128942
:10C810009142BED1026899688A42BAD10F494A68EA
:10C82000934207D98020C00084466244934201D2DB
:10C8300000230AE04A6900209342DBD98021C90025
:10C840008C4662449342D5D2012342460120138094
:10C85000D0E70020CEE7C046702100209C240020B5
:10C86000FFFF0000BC240020F0B54D46444656466C
:10C870005F46F0B4CC4C89B0256F8146EE00731B47
:10C880009B00E218E35C9046062B00D97FE0C74985
:10C890009A008A589746002800D0EDE0C44F3B7BB1
:10C8A000002B00D1BAE23B783873072B6ED8C14A0F
:10C8B0009B00D3589F46002800D0DEE0721B9200F8
:10C8C000A1188B460979012900D1EBE2002900D19A
:10C8D000D2E202295BD1002203AF7A6062E0721BD0
:10C8E0009200A218101CB44F0830BB4641890901C0
:10C8F0008B444946002900D0DEE05A46118952682F
:10C9000089009146027A8944062A00D9FEE2AB49A1
:10C9100092008A589746002800D0C3E043461F790A
:10C92000012F00D1DDE2002F00D1CFE2022F00D194
:10C93000D6E0032F00D0E7E2A14FA24A39680223D4
:10C94000A14801F0B9FB3B689B4A9C46984B924634
:10C950005B881B01D2185168396061465160B98803
:10C96000118102225146BA804A465A5443461A71EE
:10C97000002844D0731B9B00E35C0120934903AF64
:10C980000A7882430A700E22924603E006230F22A1
:10C99000924603AF52467A6042461278023A012A22
:10C9A00000D875E0062B05D8894A9B00D3589F46CE
:10C9B00005233B700025874E7359002B01D0381C8E
:10C9C000984704350C2DF7D1236F0021D800C01AE9
:10C9D000800020181C22FEF71BFC636F002B09D07F
:10C9E0000321226F013B01320A4022676367002B5B
:10C9F00000D071E00421754A13788B43137009B09D
:10CA00003CBC90469946A246AB46F0BD00233B7025
:10CA1000D0E70423751BAD003B706519EB88BB8123
:10CA20000023FB81C6E70323751BAD003B7065192E
:10CA3000EB88BB812B89FB81EB68BB60BAE70223E3
:10CA4000751BAD0065193B702B89BB81AB88FB81E1
:10CA5000EB68BB602B7C063B594259413974A9E70E
:10CA60000123751BAD003B7065192B89BB81AB8819
:10CA7000FB81EB68BB609DE706230122924652468C
:10CA800003AF7A6042461278023A012A00D989E758
:10CA90004246917D504A106C08181064506C411A3F
:10CAA00051647FE70121494A03AF13788B43137028
:10CAB0000122012392466DE75946D0880989C21C9C
:10CAC00051185A4611815946528903AF121A033A36
:10CAD0004A81012292465DE70020FFF7C5FE8EE7FE
:10CAE000374B01229A461968374801F02DFB53460F
:10CAF0004A469F8043461A713AE77B882E4A1B01BB
:10CB0000D3189A89002A00D186E2052302223B70BD
:10CB10002B4B2D489A801968013A01F015FB82468B
:10CB20005346002B00D16AE71C236B4303AFE35C41
:10CB300030E7234B7A6899881B6889000320C9185D
:10CB40005388387003339BB21F4801F0B5FA824610
:10CB5000E6E7731B9F00E3199A461A1D1A48012342
:10CB6000494601F0A9FA022352461374002800D165
:10CB700045E70E2292463B5D5946721B9200A21871
:10CB8000D0880989C21C51185A46118159465289C8
:10CB9000121A033A4A81114A924500D19BE6F8E6FF
:10CBA0000E4A9246E8E7C046CC2400205885020091
:10CBB000BC240020748502009C240020948502007F
:10CBC000442500203C8602007021002060250020C2
:10CBD000B0850200642500204C2400201D1D0000AB
:10CBE000082249469146731B9F00E31999444A461F
:10CBF00004310123C84801F05FFAE35D033B594269
:10CC000059410622531A4A4613720028B1D1F6E65A
:10CC1000C24BC1485968C24A012301F04DFA0028AD
:10CC200000D0F0E10623751BAD0064192374E6E61D
:10CC30000023BA4803AF4360731B9B009A46E31876
:10CC40009B69391C0360FFF799FD002800D080E73D
:10CC500053460A221B5D92469CE6B248436C002B69
:10CC600000D156E10727026C013B4364731B511C42
:10CC70009B003940E71810239A46BA445346016492
:10CC80009988D30089004944814699441A584B46F3
:10CC9000A1489B8801F010FA4B469A8853469B881E
:10CCA000D318524693809379013BDBB29371002BEA
:10CCB00001D101333B74002800D1A0E6731B9B0017
:10CCC0000E22E35C924657E74946731B9F00E21928
:10CCD0000C3201230831904801F0EEF9E3199B7DF5
:10CCE0000322002B00D1023A731B9B00E1180A7447
:10CCF0000028E5D183E68C4A7B8893461B010622F7
:10CD00005B443A7059688448884A022301F0D4F998
:10CD1000824605E779687888002900D1A1E14A8830
:10CD200003329300CA18804B9B46030199465B4629
:10CD30004B445B689C468020C000604482425ED2C7
:10CD4000136801335BD07A4913889A4693888B42E3
:10CD50004CD05346002B49D0764B7A6099881B689B
:10CD60008900EBE607233B7000237B60714B6A4828
:10CD70001968714A022301F09FF98246D0E63B8987
:10CD8000694A01333B81002311787B803B734B421E
:10CD90004B41BB72127C53425341FB7201233B70E7
:10CDA000BB7A002B0BD00023BB725F4B9B469B8949
:10CDB000002B04D15B469B7B002B00D0A3E1FB7AC8
:10CDC000002B0BD00023FB72574B9B469B8B002BF9
:10CDD00004D15B469B7F002B00D05DE100233B70BC
:10CDE0007B807B60731B9B00E35C74E5538803339B
:10CDF0009B00D218904202D913680133A4D15B463C
:10CE00004B449B89002B00D07FE6614642480122BB
:10CE100001F09AF9042382463B7081E63B78072BA8
:10CE200000D9B3E545499A0089588F4601233B70E4
:10CE3000B6E7404A3C4913688B469C467B881B01F9
:10CE4000C9184868106060464860908808810221CF
:10CE5000918054E7374A7B6859889388CB1803330D
:10CE60009380022378883B70796858E7072B00D9B4
:10CE70008CE5334B9B589F465B46DB6803AF0393BF
:10CE800002AB04900590991C381CFFF777FC0A232D
:10CE90009A46002800D0C8E00222731B9B00E318CA
:10CEA0001A713DE6274B1B789B074FD402239A4605
:10CEB000254F381C00210822FEF7AAF953460A2BF9
:10CEC00000D02DE6731B9B00E35C04E5194B1A4A66
:10CED00019681148022301F0EFF80123424613714B
:10CEE00046E5114B9B461B78022B00D1C4E05B4604
:10CEF0001B7C022B00D1CDE00223124A11780B4398
:10CF0000BB4313700123E6E4012336E50F2292466A
:10CF100032E61B68FFDEC046702100204C25002051
:10CF2000448602004C2400209C2400203C86020001
:10CF3000FFFF00004425002048860200CC85020047
:10CF4000EC85020060250020582500206F4FBB882B
:10CF50000093012B15D86E4BAC469B46B246111C74
:10CF60006C485A46009B1B01D25C002A0CD001225F
:10CF7000009B009201339BB2BB80022BF1D165462E
:10CF800056460A239A4694E75B445B68802299469A
:10CF90003E68D2004A4401930D1CB14605E0396059
:10CFA0006619F68889469E4216D04B46002B55D00E
:10CFB0005988033189004944914220D20B680133DA
:10CFC0001DD08B880E88834201D0002EE7D14B887C
:10CFD00003339B00C918EFE701234F484F4A6546CA
:10CFE00001F06AF8002356469A46002801D00E2325
:10CFF0009A460122BB881B015B449A735EE70023BB
:10D00000291C3B60B3E70621731B9B00E2181174D7
:10D010000E22E35C9246AFE559683F48013201F0C9
:10D0200093F8042382463B707AE55A4679683A4879
:10D030008B88D3800B8813810123384A01F03CF898
:10D0400000239A46002801D00E339A4602AB5B8833
:10D050002F4A1B01D31801229A731DE70199083149
:10D06000AAE72B4B9B46030199465B464B445B6802
:10D070001A1C9C4608325EE600231F015B46DB1942
:10D080005968274A0223244801F016F800235A461B
:10D09000D3556DE40123F0E70122131C79687A80EF
:10D0A00000292AD04A881B01033292008A185B4467
:10D0B0005B6880209946C000484482421AD21368B7
:10D0C000013317D0134913889C4693888B4208D0AC
:10D0D0006346002B05D013487A6081888B00016875
:10D0E0002CE5538803339B00D218904202D9136871
:10D0F0000133E8D10848494689E65A461B01D2184F
:10D1000052680832D3E70022131CC7E758250020D5
:10D110009C240020FFFF00007021002044860200B4
:10D120003C8602004425002008B5081CFFF79CFB44
:10D1300008BDC04610B506490C220B78032B05D05C
:10D14000044A9C00A050002201330B70101C10BD3B
:10D150009824002064250020F0B556465F464D46D1
:10D1600044460023F0B49F4E8DB007930893099373
:10D170000A930B9333789A0711D500249A4D2B59B3
:10D18000002B01D007A8984704340C2CF7D10020BD
:10D190000DB03CBC90469946A246AB46F0BDDA07BE
:10D1A000F5D401221343337000F034FF8F4B1F6816
:10D1B0009B468F4B1C68082398468023DB00E018B1
:10D1C000C0231B019C46A4446346029300230193A1
:10D1D0000393884BA0449A46C146BC462268231C50
:10D1E000111E854A914204D121E00433984200D1B6
:10D1F000D9E01A680132F8D08023DB009846029B00
:10D200004444C14440449C42E8D15B4667461F60A9
:10D210006B461B790B20002BBAD0062B00D182E085
:10D220000B2B00D992E0754A9B00D3589F46636848
:10D23000734A934204D0734A934248D0231CD8E7E0
:10D24000039B71491B011A1C0493002390468B54C5
:10D250000B1C43441F1C5C600223002249463B8197
:10D2600000920A680223013221D0684A9046624641
:10D27000A446141C0FE08A68944200D2141C4A8809
:10D28000033295009B189BB249193B8181420BD216
:10D290000A68013208D08A880D88424501D0002DE5
:10D2A000E9D101220092EAE7231C64469C46564AD3
:10D2B000049B90466A46127843449A730222019B6B
:10D2C00013430193039B01339BB2039394E75346AB
:10D2D000022249461C609A800A680223013260D00B
:10D2E0006546A446494F8A880C88BA4205D0002C6E
:10D2F00003D08A68954200D2151C4A8803329400F4
:10D300009A1893B2524609199380814202D20A6850
:10D310000132E8D16446AC46022B42D00823019A80
:10D320001A43019268E70223327800241343012252
:10D330002D4D934333702B59002B01D007A89847EC
:10D3400004340C2CF7D122E7022305933048436FB5
:10D35000032B12D82F4A526C082A0ED80321026FD1
:10D360009A180A40D1008A1A01219200821811707D
:10D370006946097D01331171436733785A0700D537
:10D3800005E70422002013433370FFF76DFAFEE631
:10D3900000230593DAE703230593D7E701230593D9
:10D3A000D4E70423BBE7134B1B680093002B13D077
:10D3B0000225039A1449130188465D54022143440F
:10D3C00019815C601449531C9BB24A80039301226B
:10D3D000019B134301930FE70222064B1C609A80C6
:10D3E000F5E7C04660250020642500209424002035
:10D3F0007021002044250020DEC0ADDE0C86020036
:10D40000FE011EF1FF011EF19C240020FFFF000021
:10D41000CC2400204C240020BC24002030B505235F
:10D4200083B000280AD0002908D06B460D1C991D36
:10D43000041CFFF7A3F90A23002802D1181C03B02B
:10D4400030BD6B46DB88074A1B01D3189A89616897
:10D4500001329A81296063680C336B600123A372E7
:10D460000023EBE79C24002010B5052382B00028A0
:10D4700018D06B46991D041CFFF780F90A23002879
:10D4800010D06B46DA88094B12019A18918906234D
:10D490000832002906D0A07A002803D000230139E1
:10D4A0009180A372181C02B010BDC0469C240020BD
:10D4B00070B5194B1A780223920701D4181C70BD5D
:10D4C00003330028FAD0CA1C92B20433FD2AF5D8DF
:10D4D000124C2378002B10D166892389F318D318B6
:10D4E0009BB2FF2B09D8002500231B01E418B218BA
:10D4F0006281002305804180E0E7257C0723002D21
:10D50000DCD1668B258B75195519ADB2FF2DD5D899
:10D510000125063BE9E7C046602500209C24002049
:10D5200030B50F4B1A780223920701D4181C30BD76
:10D53000002813D002880233022AF7D809491201C1
:10D540008A185189448808320D1B032DEED400231C
:10D550000339091B518003804380E7E70523E5E792
:10D56000602500209C240020F0B55F4656464D46BD
:10D570004446F0B4824A89B0137802279C0707D446
:10D58000381C09B03CBC90469946A246AB46F0BD5B
:10D59000002945D00D887B4C0237A542F0D04C883D
:10D5A000002CEDD04C680F89A046002F00D1DFE0A1
:10D5B0002468A40736D14546032608350024B4461E
:10D5C000994604E063462E6808351E422AD101348C
:10D5D000A742F7D84446FF0004373D1C261D4B46A2
:10D5E0000024454437880836E419A4B2AE42F9D184
:10D5F000E51CADB20927FD2DC2D8634EA946377888
:10D60000002F08D175893789AC4667444F44BFB2B3
:10D61000FF2F00D8AFE0377C002F05D00727AFE7FA
:10D620000527ADE70327ABE7778BBC46378B67440D
:10D630004F44BFB2B84645460727FF2DA0D8012565
:10D640002F1C03954D466544ADB200953D016F46D4
:10D650003F88029575196F816F460D893D71A84607
:10D660003D790495494DAC4667462D6801353D60CE
:10D6700001950D88464F05954D88BB4649687F6FDB
:10D6800006950791B946032F4CD842494546496C47
:10D690008A460821491B8A4544D85F4603263F6FC6
:10D6A00069464F443740FD00ED1B0227AD005D4445
:10D6B0002F70EC800F8B8C8A01992C81E960694670
:10D6C0008989002469826946097C6C812C744C46E6
:10D6D000A97559460134AF80AE824C674146002996
:10D6E00031D02C490725096C079E0C1C294954444C
:10D6F0008C464146CF0038212C40E400E14664448A
:10D700008C46F719CC449A46834603E02C1C083615
:10D71000BE4210D0251C331C03CB03C56445F5D194
:10D720004C46F4E7029B08279C46009B66441C1B62
:10D73000033C748124E717495346496C58464144D9
:10D740000C1C14494C64002807D00021019C416046
:10D75000817211490460098901810027590700D5A8
:10D760000EE7042100200B431370FFF77DF807E755
:10D770000024032541E7002503952F1C62E7C046DE
:10D7800060250020FFFF00009C240020942400203E
:10D79000CC2400204C240020BC240020F0B55646A8
:10D7A0005F464D464446F0B4052685B0002A04D0B5
:10D7B000634C033E23789D0707D4301C05B03CBC66
:10D7C00090469946A246AB46F0BD002900D18AE0BA
:10D7D0000D885C4F0236BD42EFD04F880097002F76
:10D7E000EBD04E6802960989002917D03768019757
:10D7F000BF077AD1371C0026B4460336B246083735
:10D80000664690469C4604E052463B680837134201
:10D810006BD10136B142F7D863464246168801966D
:10D8200052889346484A94466646126801323260EE
:10D83000464EB146766FB046032E58D808277F1A59
:10D84000BC46434EB246766C039666454FD84F466B
:10D850003F6FBC46C444664603273740FE00F71BB3
:10D86000BF00BC46CC44674602263E706E463D81F2
:10D87000002536887D81BE805E460025FE806E468E
:10D880003D746546FA60B788A9756F820327AF8239
:10D8900045464F4601357D6700293DD055462F6CE2
:10D8A000039EBC466644351C07273D40CF00BC465E
:10D8B000029E3827B44493466246ED0057449C4686
:10D8C0005544D146B84600910190131C03E03D1C1D
:10D8D00008369E4216D02F1C321C03CA03C745458A
:10D8E000F5D14D46F4E7052667E7032665E7594677
:10D8F000019B184A1B01D3185A890826033A521A69
:10D900005A815AE755466D6C6346AC4655465A46B1
:10D910000099019861446964002806D000210260E2
:10D920000D4A416081721289028100265A0700D592
:10D9300043E70422002013432370FEF795FF3CE7E2
:10D9400060250020FFFF000094240020CC2400204C
:10D950004C2400209C240020BC240020F0B55F460D
:10D9600056464D464446F0B4052389B0002804D0FD
:10D970006F4F033B3E78B20707D4181C09B03CBC7C
:10D9800090469946A246AB46F0BD002900D1A2E0E0
:10D990000C88684A02339442EFD04A88002AECD0BF
:10D9A0004B680D899846002D00D1B7E01B689B0796
:10D9B00000D092E04246032408320023A446894660
:10D9C00005E06146146808320C4200D085E001335E
:10D9D0009D42F6D84346ED0004351A1D2B1C4946DE
:10D9E00000254344148808322D19ADB29A42F9D16A
:10D9F00006AB8846041C991D281CFEF793FE021CEA
:10DA0000031EBAD141464C48098906AB8A460168D3
:10DA1000DB88013101604046008801910290404658
:10DA20004088039020680490404640680590434831
:10DA30008446406F8046032851D84148514681466C
:10DA4000406C83460820401A834548D86146096FD8
:10DA50004144081C03210840C100081A032180002A
:10DA60006044017069464281042289894382818031
:10DA70006946049BC58002744546013A82828361EF
:10DA80005246634609890135018101998275C16059
:10DA90005D675346002B34D04B4607221B6C05981C
:10DAA0005B4413405246D5003822DB004A444B44C5
:10DAB0004519C846944601968B46029403E0131C10
:10DAC0000830A84214D01A1C011C50C950C263452A
:10DAD000F5D14346F4E705234FE703234DE7194A01
:10DAE0001B01D3185A89033A521B5A81082344E771
:10DAF0005B46019E01934B464A465B6C029C534435
:10DB000053640023019A6360A3720F4B22601B8948
:10DB100023810423334203D000232EE7002567E747
:10DB20001E4300203E70FEF79FFE002325E7C046FF
:10DB300060250020FFFF000094240020CC2400205A
:10DB40004C2400209C240020BC24002070B5164AE0
:10DB500002241378990701D4201C70BD13490234A4
:10DB60008842F9D0124E0434756F032DF4D8114950
:10DB7000496C0829F0D8316F053C69182140CC0068
:10DB8000611A0524890071180C700135043C0C7170
:10DB9000C880002475675907DED4042100200B4398
:10DBA0001370FEF761FED7E760250020FFFF00003D
:10DBB000CC2400204C24002038B5154A02241378C8
:10DBC000990701D4201C38BD12480634416F03293F
:10DBD000F8D8114D6D6C082DF4D80325046F0C197D
:10DBE0002C40E5002C1B06250131A400055541679A
:10DBF0000A490878002801D0012008730024590739
:10DC0000E0D4042100200B431370FEF72DFED9E76A
:10DC100060250020CC2400204C240020BC240020BF
:10DC2000F0B54D4644465F465646F0B49146344AF8
:10DC30008846117883B00222890707D4101C03B0EC
:10DC40003CBC90469946A246AB46F0BD4A46002AE7
:10DC500040D0002B3ED09A880192012A38D8294A18
:10DC6000294F9346002294465946019A12018C5C32
:10DC7000002C25D11C6803E01C60A58885422BD0B0
:10DC8000002C36D0594665880335AD0064198D18CF
:10DC90006E688021C9008A465644B4420ED221687B
:10DCA00001310BD0A5882188BD4201D00029E3D1E4
:10DCB00065880335AD006419B442F0D362461A603A
:10DCC0000121019A0191013292B29A80022ACBD1AC
:10DCD0000A22B3E70522B1E725884545D0D14A4657
:10DCE000A16811601B685360084B1B8913810022D7
:10DCF000A4E759468C186668341C0834C9E7C04646
:10DD0000602500209C240020FFFF0000BC24002090
:10DD1000F0B544465F4656464D46F0B4314B1C784C
:10DD20000223A40706D4181C3CBC90469946A24680
:10DD3000AB46F0BD002943D0002A41D093889846D5
:10DD4000012B3BD8284B294E9C460023994643463D
:10DD50001B019A46634654461B5D002B26D115686D
:10DD600004E013601C881D1C84422BD0002D32D08F
:10DD700064466B88544403339B00EB186568802429
:10DD8000E400A3465D449D420ED91C6801340BD0CB
:10DD90009C881F88B44201D0002FE2D15C880334F4
:10DDA000A4001B199D42F0D84B4613604346012442
:10DDB00001339BB29380A046022BC8D10A23B2E75D
:10DDC0000523B0E79B680B6013684B60084B1B8909
:10DDD0000B810023A7E7634653445D682B1C08337F
:10DDE000CDE7C046602500209C240020FFFF0000F6
:10DDF000BC240020F0B544465F4656464D46F0B47C
:10DE0000314B1C780223A40706D4181C3CBC904656
:10DE10009946A246AB46F0BD002943D0002A41D026
:10DE200093889846012B3BD8284B294E9C460023CB
:10DE3000994643461B019A46634654461B5D002B98
:10DE400026D1156804E013609C881D1C84422BD0E9
:10DE5000002D32D064466B88544403339B00EB188A
:10DE600065688024E400A3465D449D420ED91C6889
:10DE700001340BD09C881F88B44201D0002FE2D11E
:10DE80005C880334A4001B199D42F0D84B461360F4
:10DE90004346012401339BB29380A046022BC8D194
:10DEA0000A23B2E70523B0E79B680B6013684B6059
:10DEB000084B1B890B810023A7E7634653445D6829
:10DEC0002B1C0833CDE7C046602500209C24002091
:10DED000FFFF0000BC24002038B50523002807D030
:10DEE0000D1C041C00210C22FDF792F90023256073
:10DEF000181C38BD002805D0002903D00368002075
:10DF00000B6070470520FCE729DF704728DF70476A
:10DF100070B50D4C0023626D042A13D00021051C3E
:10DF20000E1C0320236DD31898424E4101326265C6
:10DF30001422704203405343E418201CFDF768F993
:10DF400001232C60181C70BD74250020F0B52F4BE8
:10DF500085B01D781C1C06231D4255D1043B2B4364
:10DF600023702B4B5A6D1F6D1E1C002A4CD014239E
:10DF70007B43F3181A79012A05D0022A20D1188987
:10DF8000FFF7C4FF12E01A8A598A521AFF2A01DCED
:10DF900092B201E08022520014237B43F318D86828
:10DFA0009B68890040185918FFF7AEFF112805D16A
:10DFB00002239D43DB181D43257025E0002823D054
:10DFC0000C2201A80021FDF723F914237B43F31849
:10DFD0001A79012A0AD0022A0FD1694601220A7150
:10DFE0001A895B894A81D31A0B8106E000226946AF
:10DFF0000A71DA681B8A02928B8114235F43F359FA
:10E0000001A89B680921984705B0F0BD7025002044
:10E0100074250020F0B55F4656464D464446F0B4A0
:10E02000214B5F697B1C39D0204B99461B789A465F
:10E03000DB072CD41E4B1F4C9846E41A240920D031
:10E04000002301259C4600266D4242460023002005
:10E05000AB4204D0517B814201D3081C1E1C01330A
:10E060001032A342F4D1330143441A7B5F60920221
:10E07000BF1A1F6001239B46DC44A44501D0351C18
:10E08000E3E7012352461A43131C4A46137000204B
:10E090003CBC90469946A246AB46F0BD80235B054A
:10E0A0005F69BF02C0E7C046001000107025002065
:10E0B0007021002080210020F0B51F1C1F4B041C84
:10E0C0001B7883B00D1C161C0120DB0711D5002C1A
:10E0D00011D01B4B01309C420BD31A4B9C4208D2EF
:10E0E000002A0AD0002D08D0331C2B4306209B07A2
:10E0F00005D003B0F0BD0220FBE70320F9E7236859
:10E1000001389D42F5D3BB006268EB189A42F0D308
:10E110000138002FEDD001A8FFF7FAFE031C0720FD
:10E12000002BE6D00122019B1C60019B1A719E60AE
:10E13000DD601F82FFF70AFF0020DAE7702500206C
:10E14000702100208021002070B51E4B041C1B781C
:10E1500082B00D1C161C0120DB070ED5002C0ED042
:10E16000194B01309C4208D3184B9C4205D2002920
:10E1700026D0AB050620002B03D002B070BD0220D4
:10E18000FBE7236801389D42F7D3B3026268EB18BE
:10E190009A42F2D30138002EEFD001A8FFF7B8FE63
:10E1A000031C0720002BE8D00222019BAD0A1C6053
:10E1B000019B1A711D819E81FFF7C8FE0020DCE7DC
:10E1C0000320DAE770250020702100208021002044
:10E1D000002804D0034B5B6D0360002070470320D0
:10E1E000FCE7C04674250020F0B556464D4644462F
:10E1F0005F46F0B49E4E9F4C337885B0256D9A07EC
:10E200003FD502285FD0032800D07EE09A4A1378D9
:10E210000133DBB21370032B00D876E000231370B8
:10E22000994601AB181C0C220021AF009846FCF760
:10E23000EFFF7B199B00E3181A79012A00D1E4E073
:10E24000022A07D1414601220A701A895B89CA80D5
:10E25000D31A8B80404608217D19AD0063599B6815
:10E260009847636D013B6365002B03D1022132782F
:10E270008A433270226D551C042D00D1E2E02565E1
:10E2800044E004221A4240D09343626D3370002A66
:10E2900012D00222AF00134333707B199B00E318A6
:10E2A0001A79012A3BD0022A55D11889FFF72EFE90
:10E2B000112846D000284ED105B03CBC9046994666
:10E2C000A246AB46F0BD00239A4652466A4BAF00C9
:10E2D0001A707B199B009946A1444B461B79012B70
:10E2E00061D0022B11D108234B449B464B464A4632
:10E2F0001B89013313815B465A465B8801339BB20D
:10E30000538092889A4200D187E0636D002BD3D06E
:10E31000AF007B199B00E3181A79012AC3D11A8A2E
:10E32000598A521AFF2A13DC92B27B199B00E31818
:10E33000D8689B68890040185918FFF7E5FD112837
:10E34000B8D1022233789343042213433370B3E7E6
:10E3500080225200E9E701AB181C0C2200219846EC
:10E36000FCF756FF7B199B00E3181A79012A11D09C
:10E37000022A07D1414601220A701A895B89CA80A4
:10E38000D31A8B807D19AD00635940469B680921E3
:10E39000984791E7002241460A704246D9681B8A95
:10E3A00051601381EEE74B46198A5B8ACA1AFF2A2D
:10E3B00029DD80225200D3187A1992009146A14497
:10E3C0004A469BB2538299429FD101AB181C00214F
:10E3D0000C229846FCF71CFF4B461B79012B40D0C2
:10E3E000022B09D10123424613704B461A895B89DF
:10E3F0004146D31A8B80CA807D19AD0063594046CF
:10E400009B6800212CE792B2D5E74246494611703D
:10E41000D9681B8A516013811CE701AB181C0021CD
:10E420000C229846FCF7F4FE4B461B79012B0DD0CD
:10E43000022BE1D10123424613704B461A895B46F9
:10E440005B88D5E70022002522655FE752464346F8
:10E450001A705A4652685A604B4642461B8A1381CC
:10E46000CAE70023424613704A464346D268F2E7A1
:10E470007025002074250020CC25002070B5104D9B
:10E4800082B02B780024002B02D0201C02B070BD7B
:10E4900001268023009600200A490B4ADB0000F089
:10E4A00053FC002801D00824EFE70094002007491E
:10E4B000074A102300F0AEFC0028F4D12E70E4E7E8
:10E4C000CD25002050860200D0250020588602006D
:10E4D000D02900200EB400B582B003AB02CB01AA54
:10E4E000019300F0F3FD02B008BC03B01847C0462A
:10E4F0000EB4F0B582B007AC40CC071C01940025E7
:10E500000434002E09DD231F1968381C01350194DD
:10E5100000F016FB0434B542F5D102B0F0BC08BCE3
:10E5200003B01847002330B583B001AA93700B11D4
:10E53000DDB22C1C3734092B00DC073C0F230B40C9
:10E54000191C14703731092B05D95170111C00F0BA
:10E55000F7FA03B030BD3033191CF6E7012303424C
:10E5600015D14210134214D18210134213D1C2109C
:10E57000134212D10211134211D14211134210D190
:10E58000821113420FD1C0110FD1094870470020EA
:10E59000FCE70120FAE70220F8E70320F6E7042071
:10E5A000F4E70520F2E70620F0E70720EEE7C04693
:10E5B000FFFF000010B5002819D0002917D00488EB
:10E5C000944215D04488944223D08488944222D027
:10E5D000C488944221D00489944220D04489944232
:10E5E0001FD0848994421ED0C08990421DD010BD96
:10E5F0000022002B06D0012393401A1C0B781A43EB
:10E600000A70F4E7012393401A1C0B7893430B70B4
:10E61000EDE70122EDE70222EBE70322E9E704221E
:10E62000E7E70522E5E70622E3E70722E1E7C04640
:10E63000F0B544465F4656464D46F0B483B00CAC48
:10E640002478002822D0002920D0002A1ED0058856
:10E650009D4200D1E1E045889D4200D1E8E08588F7
:10E660009D4200D1E6E0C5889D4200D1E4E00589E5
:10E670009D4200D1E2E045899D4200D1E0E08589DC
:10E680009D4200D1DEE0C089984206D003B03CBC78
:10E6900090469946A246AB46F0BD07200123834031
:10E6A0004842DBB2002C5DD103342040904200D9B7
:10E6B000101C042A00D9B6E0101CDC430D78E4B22B
:10E6C00025400D70012800D1C4E04D7825404D70E3
:10E6D000022800D1C2E08D7825408D70042800D03A
:10E6E000BAE0CD782C40CC7004248242CED0151AEA
:10E6F000AC46043DAD080135A946561EAD00A846FE
:10E70000361A022E19D91F023D1C1E041D432E432A
:10E710001F0637438346F8430025002682468B4474
:10E720005846475950460740584601364751043528
:10E730004E45F5D34444C445A8D0DB4308190578B9
:10E74000DBB21D400570601C82429FD90818057815
:10E7500002341D400570A24298D90C19227813404A
:10E76000237093E703242040904200D9101C042A10
:10E7700055D8101C0C781C430C70012866D04C78BE
:10E780001C434C7002285FD08C781C438C7004288A
:10E790005ED1CC781C43CC700424824200D175E752
:10E7A000151AAC46043DAD0801350195561EAD0065
:10E7B000A846361A022E1BD91E021E43B2465546E3
:10E7C0001F042F4300251E063743BA460026A946DC
:10E7D0000818574685592F430125AB46019DD9445A
:10E7E00087510436A945F4D34444C44500D14DE7CC
:10E7F0000D19287818432870601C824200D845E71C
:10E800000818057802341D430570A24200D83DE780
:10E810000C1922781343237038E700203EE70024C8
:10E820000028BDD0A6E70024002800D15FE744E718
:10E83000012033E7022031E703202FE704202DE7F2
:10E8400005202BE7062029E70224A6E70124A4E7F8
:10E850000324A2E7012448E7032446E7022444E70F
:10E8600010B5002819D00488944218D044889442E6
:10E870001AD08488944219D0C488944218D004894C
:10E88000944217D04489944216D08489944215D07A
:10E89000C3890020934213D010BD0020FCE7002361
:10E8A000194101200840F7E70123F9E70223F7E7C0
:10E8B0000323F5E70423F3E70523F1E70623EFE756
:10E8C0000723EDE730B50023002935D0D40702D562
:10E8D0000B8883800123940704D55C004D880419BC
:10E8E000A5800133540704D55C008D880419A580E8
:10E8F0000133140704D55C00CD880419A5800133C9
:10E90000D40604D55C000D890419A5800133940652
:10E9100004D55C004D890419A5800133540604D543
:10E920005C008D890419A5800133D21104D05A00EE
:10E93000C989821891800133036030BDF0B55F460C
:10E94000444656464D46F0B4774B83B098461B7804
:10E95000041C8B46171C002B21D141460222404645
:10E960000A614A61714A83628A6171498264714AAB
:10E97000C1618021C2641022C9004362C362836501
:10E9800002654365C36501626B49073009F0BCFC51
:10E9900040466A4909F0B8FC202342469371EFF3E0
:10E9A0001083012181F31088019363001E19F60082
:10E9B0004644F26A012A00D16DE0002A3DD0022AC5
:10E9C0002ED1002301349A4663001C19E300756AB6
:10E9D00099461DE0013C336A641BBC4200D93C1CD3
:10E9E0005B1B9C4200D91C1C43464B44586859464B
:10E9F0004019221C09F07FFC336A2D19EB1A5A1EAC
:10EA000093415B421D40A244A3443F1B756209D061
:10EA1000B46AAC42DED8336AE418013C641BDCE71C
:10EA200000239A46019B83F31088504603B03CBCF8
:10EA300090469946A246AB46F0BD321C2032B16AE0
:10EA40005268914254D901398A1A00218A46974264
:10EA5000E8D8202292461B19DB0043449A445246D0
:10EA600001341D6A566863001C19AD1BE400AF42F7
:10EA70004CD344446368594698192A1C09F03BFC5E
:10EA8000291C7E1B60685944321C09F034FC534633
:10EA9000BA465E60C6E7B26A706A824223D9013A1A
:10EAA000366A121A9246BA4200D9BA461D19ED00CA
:10EAB00045440134203563006F681C19E400F61BDF
:10EAC0004444B24519D363685946D819321C09F039
:10EAD00012FC5346311C9F1B606859443A1C09F0D4
:10EAE0000AFC6F609EE7366A911901390A1AD9E764
:10EAF000306A091801398A1AA7E760685946C019AF
:10EB00005246574409F0F7FB6F608BE7231C4344E0
:10EB10005868594680193A1C09F0EDFB5346BE1956
:10EB20005E60BA467EE7C046B436002060860200CA
:10EB3000F0290020E02900206C8602007086020087
:10EB4000F0B544465F4656464D46F0B4041C83B0CB
:10EB5000081C8A4609F0E0FB754B071C98461B7899
:10EB6000002B21D14146022240460A614A61714A86
:10EB700083628A6170498264704AC1618021C26483
:10EB80001022C9004362C362836502654365C365A1
:10EB900001626B49073009F0B7FB4046694909F04B
:10EBA000B3FB202342469371EFF31083012181F3DD
:10EBB0001088019363001E19F6004644F26A012A88
:10EBC00000D16DE0002A3DD0022A2ED1002301346D
:10EBD0009B4663001C19E300756A99461DE0013CE1
:10EBE000336A641BBC4200D93C1C5B1B9C4200D9AD
:10EBF0001C1C43464B44586851464019221C09F0DE
:10EC00007AFB336A2D19EB1A5A1E93415B421D4061
:10EC1000A344A2443F1B756209D0B46AAC42DED85B
:10EC2000336AE418013C641BDCE700239B46019B2C
:10EC300083F31088584603B03CBC90469946A246E0
:10EC4000AB46F0BD321C2032B16A5268914254D9B1
:10EC500001398A1A00218B469742E8D82022934630
:10EC60001B19DB0043449B445A4601341D6A566815
:10EC700063001C19AD1BE400AF424CD344446368ED
:10EC8000514698192A1C09F036FB291C7E1B606826
:10EC90005144321C09F02FFB5B46BB465E60C6E761
:10ECA000B26A706A824223D9013A366A121A9346CE
:10ECB000BA4200D9BB461D19ED0045440134203548
:10ECC00063006F681C19E400F61B4444B34519D374
:10ECD00063685146D819321C09F00DFB5B46311CA4
:10ECE0009F1B606851443A1C09F005FB6F609EE76A
:10ECF000366A911901390A1AD9E7306A09180139B7
:10ED00008A1AA7E760685146C0195A465F4409F05D
:10ED1000F2FA6F608BE7231C434458685146801910
:10ED20003A1C09F0E8FA5B46BE195E60BB467EE716
:10ED3000B436002060860200F0290020E02900207F
:10ED40006C86020070860200F0B5474680B42B4DF9
:10ED50001E1C2B7882B0041C8846171C002B29D05F
:10ED60002B69A34246D9EFF31083012181F3108868
:10ED700000220193002C0CD11419089BE4002C19DB
:10ED8000E362019B83F31088002002B004BC90462C
:10ED9000F0BD631C5A00D31842460021DB005A51D3
:10EDA000EB1862005F601319DB00EB1899621E62BA
:10EDB0005962E1E702222A616A61114A1149AA6196
:10EDC000AA64114AE9618021EA641022C900AB6299
:10EDD000EB626B62EB65AB6529626B652A650B497B
:10EDE000E81D09F091FA281C094909F08DFA202341
:10EDF000AB71B5E701204042C7E7C046B4360020FA
:10EE000060860200F0290020E02900206C860200C4
:10EE100070860200F0B5474680B4284D1E1C2B7842
:10EE200082B0041C8846171C002B24D06B69A342B7
:10EE300041D9EFF31083012181F31088002201935F
:10EE4000002C0CD11419089BE4002C19E365019BDC
:10EE500083F31088002002B004BC9046F0BD414608
:10EE600062001319DB00EB1899640021DF649965D7
:10EE70001E655965E6E702222A616A61104A114956
:10EE8000AA61AA64104AE9618021EA641022C900DB
:10EE9000AB62EB626B62EB65AB6529626B652A6501
:10EEA0000A49E81D09F030FA281C094909F02CFA32
:10EEB0002023AB71BAE701204042CCE7B4360020F2
:10EEC00060860200F0290020E02900206C86020004
:10EED00070860200F0B55F464D4656464446F0B493
:10EEE00083B01D1C0C9B061C8946171C9B46914237
:10EEF00000D2DBE0081C0124391C09F06BF8013456
:10EF00008742F9D90094AC4200D2009501230D9AB2
:10EF10001A40019203D15B46002B00D08CE0F368CD
:10EF20009A46002B7BDBB36898464B460124B146DA
:10EF30001E1C012D03D9013D7C43012DFBD8301C43
:10EF4000211C09F047F88742F6D9331C4E469946F2
:10EF50003B1C5D4D474698460AE05346002B00DABD
:10EF60009BE0201C414609F035F8041E00D194E0D6
:10EF70004846211C09F02EF8231C4A464343D31A65
:10EF8000994673687A1C295C9A420BD83368D95524
:10EF9000F368171C9A4601239C46E2445346F360EB
:10EFA0007368B2609F42D8D13A1C30693168FFF76C
:10EFB000C5FCB768B84239D00123B8465B42F3605C
:10EFC000019B002B2BD05B46002B28D0009B2024DC
:10EFD00000259B4523D942465F46984606E0F368E4
:10EFE000002B1CDB002F1AD0474518D97368511C21
:10EFF000013F994207D833689C540A1CF368B160FA
:10F000000133F36073689A42E9D130693168FFF7E0
:10F0100095FCB368984242D001235B42F36003B091
:10F020003CBC90469946A246AB46F0BD0023B36077
:10F03000F36800279A4690E70D9B20249B0731D464
:10F04000009B9B4500D86AE75A46AA46BB46B36870
:10F05000271C009D0C92141C06E0F268002ADEDBDF
:10F06000002C25D0AC4229D97268591C013C914230
:10F0700007D83268D754F36872680133F3600B1C09
:10F08000B1609A42E9D130693168FFF757FCB36843
:10F090009842C1D10023B360DFE7B84690E7B5607E
:10F0A00000229CE7002DCBD11034C9E7012429E7C9
:10F0B0005F4655469846A346924636E75F46554614
:10F0C000A34692462FE7C04678860200F0B5564622
:10F0D00044465F464D46F0B49DB00CAB07934023C9
:10F0E000089300239B4609930A930433924698465B
:10F0F0000C1C5E4604900B9023780134002B00D149
:10F100008CE0252B5CD1221C1378002702200821DB
:10F11000141C2B2B0BD02B2B0DD92D2B4CD0302B83
:10F120000ED1074301321378141C2B2BF3D1434625
:10F1300001321F43F7E7232B02D10F430132F2E7DD
:10F140001A1C303A0025092A00D9BAE0AA0055193C
:10F1500001346D00ED182378303D1A1C303A092A2D
:10F16000F4D9002291462E2B02D180E0237801347D
:10F170001A1C41468A43682AF8D0642B00D1F6E075
:10F1800055D9732B00D1B0E000D886E0752B00D0A4
:10F1900099E0534651461B6807A81A1D0A60196872
:10F1A0000A22009501974B46FFF794FE0A9E013410
:10F1B000002EA1DAB34622E0012301321F43B2E759
:10F1C0000999089A481C904221D8079A53540A9BDF
:10F1D000089A5E1C099002930A969042E8D10B9B14
:10F1E0000293079B0298191C0393FFF7A7FB099B47
:10F1F0000293984200D14BE101235B429B46584663
:10F200001DB03CBC90469946A246AB46F0BD8A4232
:10F21000E5D023780134002B00D072E7B346002EEE
:10F22000EDDD099A002A00D036E19344E7E7582B38
:10F230004CD0632B00D18AE0252BB8D109980899CE
:10F24000421C8A4200D81AE1021C8A42AFD10B9BB1
:10F250000293079B0298191C0393FFF76FFB099B0E
:10F26000029398426FD100230A9E09939FE7637827
:10F27000611C1A1C303A0C1C092A00D978E74A464E
:10F2800091008A1801345200D2182378303A191CA0
:10F2900030390929F4D991466AE7702B00D086E706
:10F2A000534651461B6807A81A1D0A6019680823AF
:10F2B00000930023102201930833FFF70BFE0A9EF0
:10F2C00075E700254DE7782B00D070E7534651468F
:10F2D0001B6807A81A1D0A6019681022009501977B
:10F2E0004B46FFF7F7FD0A9E61E7534651461B6800
:10F2F0001A1D0A601D680CE00798C1540A9B099208
:10F300005E1C089B0A9602939A420FD0002E00DAE8
:10F310004DE729780135002900D148E7099B089875
:10F320005A1C8242E8D98342F3D11A1C0B9B0293E8
:10F33000079B0298191C0393FFF700FB099B02939C
:10F34000984200D183E0012676420A962FE7534681
:10F3500051461B681A1D0A6009991868089B4A1CC7
:10F360009A427CD90A1C9A4200D020E76FE75346A4
:10F3700051461B681A1D0A601B68DA179818029319
:10F38000012350409B4609280ADDA3461C1C0A2184
:10F3900008F0B0FE01340928F9DC231C5C469B46CA
:10F3A000CB4558D3002D06D0029B002B02DB4346F1
:10F3B0003B4200D0013DBB075AD401233B4232D12E
:10F3C000002D30D05D452ED9301C099A5E4606E0EE
:10F3D000002800DAD5E0002D23D0B54221D9089BC2
:10F3E000511C013D994209D82020079B98540A1CC2
:10F3F0000A9B0991581C0393089B0A909A42E7D1F3
:10F400000B9B0393079B0398191C0593FFF796FA30
:10F41000099B0393984296D100230A9809930022EE
:10F42000D6E7B346061C029B002B3EDB43463B421D
:10F4300059D103233B40022B6ED00095019707A8BA
:10F4400002990A224B46FFF745FD0A9EAFE60023CC
:10F450000A9E09935AE7CB46002DACD0A4E7079B40
:10F4600058540A9B09925E1C02930A96089B7AE7FD
:10F470004B46002BD7D001233B42D4D1A0E70799BC
:10F480000B540A9B09925E1C02930A960899DCE6CB
:10F4900000230A9E09938BE604980CA9FFF74EFA05
:10F4A0000A9B099A9B469344A9E65B420293099BF7
:10F4B000089A591C914203D8079A03922D221AE008
:10F4C0009342B6D10B9B0393079B0398191C05939A
:10F4D000FFF734FA099B0393984200D033E70023E7
:10F4E0000A9E099311E0099B089A591C9142E7D89A
:10F4F000079A03922B220398C2540A9B089A5E1C17
:10F50000099103930A969142DCD0002E00DA4EE670
:10F5100003233B40022B90D14B46002B8DD1002D75
:10F520002DD0AB4589D2099A06E0002E00DA3EE6DE
:10F53000002D24D05D4580D9089B511C013D994286
:10F5400009D83020079B98540A1C0A9B09915E1C1D
:10F550000393089B0A969A42E7D10B9B0393079B60
:10F560000398191C0593FFF7E9F9099B0393984247
:10F5700000D0E8E600230A9E09930022D5E7002583
:10F580005BE7061C13E6C04682B00190019B002B8E
:10F5900014D0019B0A48013B01930138C046C04684
:10F5A000C046C046C046C046C046C046C046C0462B
:10F5B000C046C046F1D1019B002BEAD102B0704792
:10F5C000E7030000F0B5002820DBFF271B4B0322D8
:10F5D0009C463B1C8408C026C0B20240D200934027
:10F5E000A4006444B600A5599D438B013B40934061
:10F5F000191C2943A1511F2318401E3B8340C022E0
:10F60000181C0E4B520098501860F0BDFF260C4A93
:10F6100003249446321C0F23C0B20440E400A240ED
:10F620000340083B9B089B006344DD6995438A01C6
:10F630003240A240111C2943D961DCE700E100E01F
:10F6400000ED00E038B54425164C0820635D002B22
:10F6500000D038BD4022FF21013BA3540132A15408
:10F660000132A354236201326362A362E362236323
:10F670006363A363E3630238FC39A35423606360CC
:10F68000A360E36023616361A361E361FFF79AFF15
:10F690008021C123044A9B000906D1500123002088
:10F6A0006355D6E7F02D0020006000404423034A54
:10F6B000D05C431E9841C0B27047C046F02D002078
:10F6C000F0B5474680B4524C0825231820331E78E5
:10F6D0007F2E03D8281C04BC9046F0BDCD78AC46E4
:10F6E000002D36D02568013500D187E0042300269F
:10F6F0009846731C9D006759013733D0B31C984559
:10F7000025D99D00675901372CD0F31C98451ED987
:10F710009D006759013725D0331D984517D99D00A5
:10F72000675901371ED0731D984510D99D00675940
:10F73000013717D0B31D984509D99D006759013786
:10F7400010D00736B04502D9E369013308D004254B
:10F75000C0E72569013555D0082304269846C8E737
:10F7600007231C25625162462718DEB220373E70FF
:10F77000002A02D1E3183C3318708B78002B15D186
:10F78000031CA0254A78C133FF3392009B00ED058E
:10F790005A51CB78002B15D176B2A4193C340B7892
:10F7A00022789B0113432370002593E7A022D20502
:10F7B0009446E025022783006344ED005A59BA437A
:10F7C0005A51E6E7A22476B2124BB600F318E400D1
:10F7D0000A781D591049000229401951F8214901A0
:10F7E0000840061CC0211004021C301C89021D594F
:10F7F0000A4010432843185100256BE70026226079
:10F800001E70BAE7042522611D702E1C2B1CB1E767
:10F81000F02D002000600040FFE0FCFFF0B5264D19
:10F820002C182034227853B2032B18DDEB183C330C
:10F830001B789B09032B32D0012B39D0C025AD0298
:10F84000A023DB059C46E02380006044DB00C45815
:10F850001A492140C150C2582A43C250F0BD032A60
:10F86000FCD81748A227844601269A006244FF006C
:10F87000D0593043D0511A1C6046002740329200C4
:10F8800092B217500029E9D00022A2569200525994
:10F89000002AE3D0C1229E4092008650DEE7A223D8
:10F8A000A022DB00D205D258012383401A42C5D1E1
:10F8B0008025AD02C4E7C046F02D0020FFFFFCFF0D
:10F8C00000600040A223A022DB00D205D358C34031
:10F8D000181C012318407047F0B544465F46564651
:10F8E0004D46F0B49C4A87B013680024012B00D128
:10F8F000AEE09A4B1A68012A00D1B7E0984B1A681B
:10F90000012A00D1C2E0974B1A68012A00D1CDE04C
:10F910000022954B02921A68012A00D1D8E02307F1
:10F920000BD0E30700D5DFE0A30700D5EBE06307CA
:10F9300000D5F6E0230700D502E1002C06DB07B076
:10F940003CBC90469946A246AB46F0BD0023012739
:10F950000493C03399460126844D7F4200230393CC
:10F96000E023DB0000249846231C4033E95C4BB2C3
:10F9700001332CD0C9B24B46081C98433B1CC340F2
:10F980001E4224D08B0901932B1820331B785BB2C5
:10F990009B00EB589C46002B35D0331C83409A4685
:10F9A000019B032B35D0A023DB059B4643468200F9
:10F9B0005A44D3580592C022920213401B0C191CC2
:10F9C00053469346029A1A4212D1032926D0013493
:10F9D000042CC9D1039B002BB1D0A223A022DB00B1
:10F9E000D205D358029A9A42A9D0049F0293B5E750
:10F9F0000229ECD1019B032B16D06346002BE6D0E5
:10FA00000199E047E3E7019B032BE0D1331C8340DE
:10FA10009A465246049B13430493C4E7019B032B6D
:10FA2000EBD180239B029B4643460599CB589A46CF
:10FA300052464F4B134042468B508B585A461A43FE
:10FA4000131C42468B50039B0133DBB20393D4E774
:10FA5000C1214848890041580B4200D149E73F4B3A
:10FA600014601A680134012A00D047E7C1224149D5
:10FA70009200895802220A4200D13FE70021196012
:10FA8000374B14431A68012A00D03CE7C122394998
:10FA90009200895804220A4200D134E700211960FB
:10FAA000304B14431A68012A00D031E7C122314992
:10FAB0009200895808220A4200D129E70021144304
:10FAC00000221960284B02921A68012A00D026E70A
:10FAD00000221A6080231B061C43A022A223D20509
:10FAE000DB00D35802931AE7A223224ADB00D05846
:10FAF000D1581E4DC00489032B68C00E890F98474A
:10FB0000A30700D413E71C4B1A4A184DD058D158FC
:10FB1000C00489036B68C00E890F9847630700D43F
:10FB200008E7A323134ADB00D058D1580F4DC00477
:10FB30008903AB68C00E890F9847230700D4FCE601
:10FB40000C4A0E4B094DD058D158C0048903C00E41
:10FB5000890FEB689847F0E60061004004610040BF
:10FB6000086100400C6100407C610040F02D0020E5
:10FB7000FFFFFCFF00600040140500001C050000B2
:10FB8000C12210B5604B92009A5884B092054DD5B1
:10FB90005E4A1168002949D0002111608121C222EA
:10FBA0008900920099505A4B9A7E002A02D1012175
:10FBB000584A1160022269460A7090215248C900D1
:10FBC0004258425069460392DA7D68460A72DA6802
:10FBD000196801920022DA751A765B6898474E4AD6
:10FBE0001368002B10D04A4B988A997D81424FD9D7
:10FBF000002111609A8A9968895C9A8A013292B2CE
:10FC00009A82464B404AD150454B1A68002A0BD085
:10FC100000221A603E4B9A7E002A02D001213A4A05
:10FC20001160DA7D002A42D104B010BDC123364AEA
:10FC30009B00D3585B07D2D53A490B68002BCED036
:10FC4000334BD87D00283FD10860A321C90052580A
:10FC50005A7ED97D9142C2D11A7E002A41D19A7E24
:10FC6000002A02D101212B4A11608120C22226499B
:10FC7000800092008850002268460121DA755A7E81
:10FC800001700272DA68196801925B689847A6E70A
:10FC9000002010600029B7D06A46107011729A686F
:10FCA0009875196801925B6868469847ACE700222E
:10FCB00068460121DA755A7E01700272DA681968A5
:10FCC00001925B689847AFE700200860A320C0005E
:10FCD000597E1258D86842545A7E0132D2B25A76AE
:10FCE000B6E7DA751A69D968DA6000226C46587E80
:10FCF0001A765A760132207201912270196868468C
:10FD00005B6898476BE7C046002000402421004014
:10FD1000382E0020042000401C2100401C0500005B
:10FD20004421004008210040074B1A68082352076D
:10FD300001D4181C7047002804D0044B5B78036082
:10FD40000023F6E70E23F4E7202F0020542E002096
:10FD5000A02210B5064BD205D15880231B041C1CD1
:10FD6000A1208C430B400349C0001450535010BDD8
:10FD7000040500000C050000F8B54F464646041C7B
:10FD8000C0B4112809D0122839D0132839D014282A
:10FD900039D00CBC90469946F8BD0025012911D0F8
:10FDA00000291FD00229F4D16B005D191F4B5D198A
:10FDB0006E78002EEDD01E4B1B68002BE9D0301C56
:10FDC0009847E6E7194B6F00984642467B19D65C88
:10FDD00043445B78002B18D17F194744BA78154B00
:10FDE0005A55E6E71448FCF703FC104A6B005B1910
:10FDF000D318104A9B78565D9E42CAD1D9E7012597
:10FE0000CCE70225CAE70325C8E70C4B0A481B6864
:10FE10009900C9180A4B49001A1C9946FCF76CFB5B
:10FE20000028D9D14B461C70D6E7C046A02F002031
:10FE3000542F00209C2F0020582F0020502F0020EE
:10FE40004C2F0020F8B5C74B1B68DB0700D4F8BD6A
:10FE5000C54A1478172CFAD8C449A300CB589F463A
:10FE6000A022C34BD205D1588023DB031C1CA12048
:10FE70008C430B40BF49C00014505350BE4B00226E
:10FE80001B68BE489900C918FCF736FBDFE7A023C2
:10FE9000F021B84ADB05490499500021043A9950F1
:10FEA000D5E7A022B24BD205D1588023DB031C1C1E
:10FEB000A1208C430B40AF49C00014505350AE4BAF
:10FEC00000221968AD48FCF717FBC0E7AC4BA12036
:10FED0001968E0235B048B43A0210026F025C905A7
:10FEE000C000A44C0B50A24B0E51CB586D046B407C
:10FEF0008025AD032B4000D120E10D5003230E518E
:10FF0000082113709C4B00221B689C485943FCF746
:10FF1000F3FA9CE79A4BA1201968E0235B048B431A
:10FF2000A0210026F025C905C000924C0B50904B33
:10FF30000E51CB586D046B408025AD032B4000D192
:10FF400004E10D5004230E512821DAE7A023A12259
:10FF5000E021DB05D2004904802499500021854826
:10FF6000A40319501C50995071E7864D281CFCF7CA
:10FF70003FFB11231C1B00D1C7E0002800D0C4E0C8
:10FF800080237F4E1B043360012C10D0C8306421C5
:10FF9000604308F01FF8784B00221B684343281C7D
:10FFA000191CFCF7A9FAF02332685B041340A02265
:10FFB0007049D2055350A1230021DB00D15046E700
:10FFC0006F4BA1211A68F0235B049343A022C90060
:10FFD000D20553500021674BD15038E7684BA12020
:10FFE0001968E0235B048B43A0210027F026C90594
:10FFF000C000604D0B505E4B4F51CB5876047340A0
:020000022000DC
:100000008026B603334000D18EE00E504F51022CB3
:1000100000D1A0E02821147074E7A023A122C02100
:10002000DB05D2004904C024995000215148E40363
:1000300019501C5099500AE7A023A122D021DB05BA
:10004000D20049048024995000214A48E403195001
:100050001C509950FBE6A023F021A122DB054904A6
:10006000D20099500021434A9950F0E6E022444BD7
:1000700052041B68A1219A43A023C900DB058024F8
:100080005A5000223B48A4031A501C505A50DEE636
:100090003B4BA1201968E0235B048B43A021002681
:1000A000F025C905C000334C0B50314B0E51CB58D5
:1000B0006D046B408025AD032B403CD00D500E519C
:1000C000052313702C4B002219682C484900FCF7BB
:1000D00013FABCE62A4BA1201968E0235B048B438A
:1000E000A0210026F025C905C000224C0B50204B52
:1000F0000E51CB586D046B408025AD032B4022D0B0
:100100000D500E5106231370D9E6F0231C4A5B04F0
:100110001168A1200B40A021C000C9050B5000238D
:1001200014480B50136092E64E510B50022C15D020
:1001300004211470E6E60D510B50C1E70D510B5030
:1001400002210323DDE60D510B50DBE70D510B506F
:1001500004210423D5E612211470D3E60221147081
:10016000D0E6C046482F0020782F00208886020065
:10017000040500000C050000502F0020242F002053
:10018000442F00207C2F002008B50378112B06D0C7
:10019000122B12D0132B12D0142B12D008BD002317
:1001A0005A00D318084AD31858780028F6D0074BBD
:1001B0001B68002BF2D09847F0E70123F0E70223F9
:1001C000EEE7113BECE7C046A02F0020542F0020A3
:1001D000002303280DD8A223A022DB00D205D25889
:1001E000054B8000C0580123834093435A1E93411E
:1001F000DBB200200B7070474C87020070B5DB4B00
:10020000041C1B680020DB0700D470BD172CFCD831
:10021000D74AA300D3589F46A022D64BD205D15827
:100220008023DB031C1CA1208C430B40D249C0005F
:1002300014505350D14B00221B68D1489900C91863
:10024000FCF75AF9E1E7A022CA4BD205D158802326
:10025000DB031C1CA1208C430B40C749C000145079
:100260005350C64B00221968C548FCF745F9CCE746
:10027000C44D281CFCF7BCF911231C1B00D14CE118
:10028000002800D049E18023BF4E1B043360012CBD
:1002900010D0C8306421604307F09CFEB74B0022A9
:1002A0001B684343281C191CFCF726F9F02332680D
:1002B0005B041340A022B049D2055350A123002172
:1002C000DB00D150A1E7A023F021A122DB054904E6
:1002D000D20099500021A84A002099501222AB4B1D
:1002E0001A7092E7A023A122E021DB05D200490485
:1002F000802499500021A048A40319501C50995003
:100300001322A24B00201A707FE7A023F0219A4A03
:10031000DB05490499500021043A99509B4B002079
:100320001C7072E7984BA1211A68F0235B04934379
:10033000A022C900D205535000238F4900205350FA
:10034000924A137061E7904BA1211A68E0235B0485
:100350009343A0220026F025D205C90086485350B9
:10036000844B1650D3586D046B408025AD032B4051
:1003700000D1E9E055501650022C00D1F1E02821BF
:10038000824B1C707D4B00221B687D485943FCF753
:10039000B3F83AE7A023F021774ADB0549049950E6
:1003A0000021043A99500C22784B00201A702CE757
:1003B000A023A122D021DB05D2004904802499503A
:1003C00000216D48E40319501C50995014226F4BC2
:1003D00000201A7019E76C4BA1211A68E0235B0416
:1003E0009343A0220025F024D205C900624853504F
:1003F000604B1550D358640463408024A403234009
:1004000000D199E054501550082103221AE05E4BA8
:10041000A1211A68E0235B049343A0220025F02465
:10042000D205C90054485350524B1550D358640458
:1004300063408024A403234000D18BE05450282142
:1004400015500422514B1A709CE7E0224E4B520487
:100450001B68A1219A43A023C900DB0580245A50C0
:1004600000224548A4031A501C505A50474B0732EB
:100470001A700020C9E6A023A122C021DB05D2000A
:100480004904C024995000213B48E40319501C50F2
:10049000995015223D4B00201A70B6E63A4BA12127
:1004A0001A68E0235B049343A0220025F024D205C0
:1004B000C900314853502F4B1550D3586404634042
:1004C0008024A40323403CD05450155005222F4BC8
:1004D0002B481A70294B002219684900FCF70CF8C8
:1004E00093E6294BA1211A68E0235B049343A022E1
:1004F0000025F024D205C9001F4853501D4B15504C
:10050000D358640463408024A403234026D054506D
:10051000155006221D4B1A70A3E6F0231A4A5B04FD
:100520001168A1240B40A021E400C9050B51002350
:10053000114C0B51136068E61450535002210322F2
:1005400080E714505350C1E715505350022C0AD085
:10055000042115E714505350042172E714505350EE
:10056000D7E712210CE702210AE7C046482F0020F6
:10057000E8860200040500000C050000502F002052
:10058000242F00207C2F0020442F0020782F0020D3
:10059000234B10B51960234B041C1860224B1A60C2
:1005A000830712D50D22214B21481A700132DA70CF
:1005B00001329A7101325A724A080421FBF7B2FBE8
:1005C000002820D0E30703D41CE0C3070ED5002089
:1005D000A023F022A1210024DB055204C9005A50B7
:1005E00014495C500C315A5000280BD1124800219C
:1005F000124AFBF767FF002804D111480121114A74
:10060000FBF760FF10BDFBF7E7FB0028DAD10E48CF
:1006100000210E4AFBF756FFE307E5D5D8E7C046B1
:10062000502F0020482F0020542F0020A02F002002
:10063000608702000C0500005C87020045FE010097
:100640008087020051FD01004887020089010200F5
:10065000031C0720032B00D97047012A13D001295E
:1006600017D0002908D0022919D15800C3180D4805
:10067000C3185A700020EFE75800C3180948C31880
:100680009A700020E8E700220129E8D11A1C0D32F7
:10069000D2B258000349C3185A540020DCE707209F
:1006A000DAE7C046A02F0020E0231D4ADB00D25825
:1006B0001C4B1A400023C10701D5C0239B021343E2
:1006C000E0221749D2008B50174B9A58154B1A400D
:1006D0000023810701D5C0239B021343E022124966
:1006E000D2008B50114B9A580E4B1A4000234107F1
:1006F00001D5C0239B021343E0220C49D2008B504A
:100700000B4B9A58074B1A400023010701D5C02311
:100710009B021343E0220649D20000208B50704711
:1007200044000050FFFFFCFF480000504C00005008
:100730005000005008B50320FFF7B6FF031C00204F
:10074000002B02D0062B00D0181C08BD10B5038862
:10075000102B08D0112B05D1294A1368013B1360D7
:10076000002B07D010BD264C2368002B11D001337D
:100770002360F7E7002002210122FFF769FF00282C
:100780002BD0072829D01F4B1B68002BEAD0984795
:10079000E8E7002000210122FFF75AFF002808D0D7
:1007A000072806D0174B1B68002B00D098472368FA
:1007B000DDE7012002210722FFF74AFF002801D0D0
:1007C0000728EFD1002002210422FFF741FF002873
:1007D000EDD00728E6D12368C9E7012002210722CE
:1007E000FFF736FF002801D00728CCD100200021D8
:1007F0000A22FFF72DFF0028B4D00728C3D1B1E7A4
:10080000B02F0020AC2F002010B5244B82B00C1E5E
:10081000186018D06B460020991DFFF7D9FC0028FE
:1008200001D002B010BD6B460130D91DFFF7D0FCDE
:100830000028F6D16B46DB79002B29D16B469B79DA
:10084000002B28D12370164B1B68002B01D00020F1
:10085000E7E7002002210122FFF7FAFE002801D07D
:100860000728DED1012002210722FFF7F1FE002830
:1008700001D00728D5D1002000210A22FFF7E8FE89
:100880000028E4D0C31F5A1E93415B421840C8E7BA
:1008900002232370D7E70B232370D4E7AC2F00206B
:1008A000B02F002071DF704772DF704779DF70472B
:1008B0007DDF704765DF7047F0B50488051C83B0A5
:1008C0000720012C04D01488A01C984202D90C20C7
:1008D00003B0F0BD2E78012E04D16E7802363619A1
:1008E000B342F4D3023B1C1B6B460F1CA4B2081886
:1008F000991D161CDC80FFF7DBFF0028E8D12B7860
:10090000022B18D0012B11D0231C0821FE2BDED87E
:100910003288581CB85432880020013292B232809A
:10092000B954328801329B183380D1E76B789C42EE
:10093000EBD2231CE9E76B46DB8809219C42E5D218
:10094000231CE2E7F0B55F46564644464D46F0B4F8
:1009500085B09A460EAB80CB061C1B8800919B4647
:100960003B88904601930388002B5BD00023994677
:1009700002AB0024DD1C03E033880134A3422ADDEE
:100980007368A1009C460422614403A807F0B3FCED
:1009900003A8291C0022FFF78DFF002826D12B7801
:1009A0004345E9D14B46002B27D043463A88D3181C
:1009B0005B4539DC524403A8291CFFF77BFF002864
:1009C00014D13B882A780134D3183B8001239946FF
:1009D0003388A342D4DC4B46002B23D03B88019ABA
:1009E000013B9B1A9BB20C20FF2B18D905B03CBCD5
:1009F00090469946A246AB46F0BD42463B889A18BF
:100A000002325A4510DC69465246013309789BB2DE
:100A10003B80D1543A88013292B23A80CAE7111C25
:100A2000524653540020E1E70C20DFE7F0B55F4663
:100A300056464D464446031C0020F0B417881080EB
:100A4000586B87B0002800D16FE10478022F18D9C5
:100A50000220112508701088013080B210800D54DA
:100A60001088013080B210800C5414880134A4B274
:100A70001480186B002800D177E0251C1235BD4288
:100A800007D90C2007B03CBC90469946A246AB461D
:100A9000F0BD11250D551488013D0134A4B2148018
:100AA0000D5514880134A4B21480C57B0D551488EB
:100AB0000134A4B21480857B0D5514880134A4B28E
:100AC0001480457B0D5514880134A4B21480057B35
