:020000021000EC
:10B0000000800020116802005168020053680200AD
:10B010000000000000000000000000000000000030
:10B020000000000000000000000000005568020061
:10B03000000000000000000057680200596802008C
:10B040005B6802005B680200DDEE01005B680200E5
:10B050005B6802000000000089E601005B680200F6
:10B060005B6802005B6802005B6802005B680200CC
:10B070005B6802005B6802005B6802005B680200BC
:10B080005B68020019BC01005B6802005B6802009B
:10B09000F5BC01005B680200816702005B6802008A
:10B0A0005B6802005B680200000000000000000016
:10B0B0000000000000000000000000000000000090
:10B0C000054B0648033310B51B1A062B03D9044B56
:10B0D000002B00D0984710BD702100207021002067
:10B0E000000000000648074910B5091A8910CB0F67
:10B0F0005918491003D0044B002B00D0984710BDBD
:10B1000070210020702100200000000010B5074CC5
:10B110002378002B09D1FFF7D3FF054B002B02D07A
:10B12000044800E000BF0123237010BD80210020EF
:10B1300000000000BC6E0200094B10B5002B03D0CC
:10B140000849094800E000BF08480368002B02D105
:10B15000FFF7C8FF10BD064B002BF9D09847F7E763
:10B160000000000084210020BC6E02006C21002041
:10B1700000000000164B002B00D1144B9D464022CE
:10B1800092029A1A924600218B460F461348144A9F
:10B19000121A00F067F80F4B002B00D098470E4BA7
:10B1A000002B00D098470020002104000D000D481E
:10B1B000002802D00C4800E000BF00F02DF820006D
:10B1C000290000F00BFA00F011F8C046000008005A
:10B1D000008000200000000000000000802100200E
:10B1E000A03000200000000000000000084B10B557
:10B1F0000400002B02D0002100E000BF054B1868BE
:10B20000836A002B00D09847200000F033F8C04636
:10B2100000000000D06902000E4B70B500251E0032
:10B220000D4CE41AA410A54204D0AB00F358984783
:10B230000135F8E70BF0BEFB084B00251E00084C5B
:10B24000E41AA410A54204D0AB00F3589847013586
:10B25000F8E770BD642100206421002064210020F3
:10B260006821002003008218934202D01970013334
:10B27000FAE77047FEE7C04676DF70477ADF70472F
:10B280007CDF7047A8DF704767DF70473CDF70479F
:10B2900048DF704710B500F029FC10BD002310B541
:10B2A00002208B540A00044902F082FD0349012068
:10B2B00002F07EFD10BDC046146A0200DC6A020086
:10B2C00010B5084B1888084B984206D0002109F0A9
:10B2D0008BFD082302009A4300D110BD00F006FC4C
:10B2E000FBE7C046E0200020FFFF000010B504008F
:10B2F00002F0DAFB200005F0A9FA10BD30B5040019
:10B3000085B005F033FC2100454805F059FD2000CB
:10B3100009F0EEFC200005F0D7FB200004F0C4FB90
:10B320002388112B62D00AD9512B22D0552B55D00E
:10B33000152B35D0200005F019FA05B030BD022BD1
:10B3400044D0102BF6D10122364B524207201A80EE
:10B3500004F000F9002860D1A288334B33491A80E9
:10B360003348002200F0B2FF0028E3D000F0BEFB1B
:10B37000E0E7A379002BDDD0A27B043A022AD9D8DA
:10B38000022B00D001236A461370C1235B00938017
:10B39000254B69461888FFF775FF0028CAD0E5E7F6
:10B3A00021000622083168460BF0F3FA00236A46B2
:10B3B0001F48937101F00CF8002801D000F096FBB3
:10B3C0006A461C49022002F0F3FCB3E7164B002149
:10B3D0001888FFF759FF0028ACD0C7E7124B13219C
:10B3E0001888FFF749FF0028A4D0BFE701220E4BC1
:10B3F0000C4D52421A8028880F4B98429AD009F07F
:10B4000063FD002801D000F071FB0C49012002F01F
:10B41000CFFC01235B422B808CE700F067FB9BE7AE
:10B4200064230020E2200020E020002033330000CD
:10B4300080230020406A0200FFFF0000246A02000F
:10B4400030B5037883B004000E2B17D8354A9B0023
:10B45000D3589F463449012002F0AAFC3349012009
:10B4600002F0A6FC324C13212088FFF705FF0028CC
:10B4700001D000F03BFB01235B42238003B030BDD1
:10B4800080680028FAD000F031FBF7E7002000F0D8
:10B490002DFBF3E700222749274800F017FF00287B
:10B4A0003AD1A08809F04CFD1128EAD1E6E701ADB8
:10B4B0004088290009F0B4FC00282AD12B785B07CA
:10B4C000EFD41E49012002F073FC194C1C4920885E
:10B4D00009F0E6FC002822D120881321FFF7CCFEDA
:10B4E0000028CBD0CFE7002301A90B70408809F0DA
:10B4F00089FCC3E702F0B0F80E28BFD00823020091
:10B500009A43BBD0BFE709F081FCB7E700F0EAF946
:10B51000B4E700F0EBFAD1E700F0E8FAC1E700F099
:10B52000E5FAD9E7D46902007C6A0200946A020055
:10B53000E02000203333000080230020506A020006
:10B54000E220002010B50378002B00D010BD054B81
:10B550003B211888FFF790FE0028F7D000F0C6FACC
:10B56000F4E7C046E020002010B5072826D019D9FE
:10B570000A2807D00E2804D105221549154805F0E0
:10B5800045FD10BD002003F0E5FF00281CD104F0AC
:10B590007DFA002815D1FFF779FE0028F1D000F0E0
:10B5A000A5FAEEE70428ECD10B4B13211888FFF71E
:10B5B00063FE082302009A43E3D0F0E700F09CF911
:10B5C000DFE700F093FAE6E700F090FADFE7C04625
:10B5D000A86A020064230020E020002030B589B072
:10B5E00002F0BEFB002801D000F080FA0023814A5F
:10B5F0000521002000F0DEFD002801D000F076FAE1
:10B600007D4A00217D4800F047FE002801D000F06F
:10B610006DFA7B4A7B49032004F066F9002801D0CB
:10B6200000F064FA01AC2100002004F09BFA00282D
:10B6300001D000F05BFA04227349684625780BF0CC
:10B64000A8F900234822714968460BF045F8002804
:10B6500001D000F04BFA2200012100200BF0A8F8E5
:10B66000002801D000F042FA69480BF0B9F8002830
:10B6700001D000F03BFA20000BF0BCF8002801D00C
:10B6800000F034FA63480BF067F8002801D000F0AE
:10B690002DFA61480BF06AF8002801D000F026FA74
:10B6A00009F038FB002801D000F020FA022D00D16B
:10B6B00097E0052200212000FFF7D4FD012102229E
:10B6C000042023780B43DBB21343DBB20343072090
:10B6D00003402370072363700933A370E3782000CD
:10B6E0000B431343E370237919430A43227109F092
:10B6F00069FB002801D000F0F9F9484809F04EFB39
:10B70000002801D000F0F2F9022D03D144490120B4
:10B7100002F04EFB6B460F2101221B78414D8B43FB
:10B72000134310220B4013436A46280013700BF09A
:10B7300039F9290082B26846FFF7A2FD002801D03E
:10B7400000F0D4F9082200212000FFF78BFD082328
:10B750002380483363800023A3809133FF3320008C
:10B76000E380FFF78BFD002801D000F0BFF9002136
:10B7700004222000FFF776FD2B4B21002B4801937C
:10B7800005F04CFB002801D000F0B0F900F072F891
:10B790001C2200212000FFF765FDA02292026260BA
:10B7A000F02200231203A26003220193E381237499
:10B7B0001F4B200063611F4B2273A36105F048F902
:10B7C000002801D000F092F900F08CF81A4901200D
:10B7D00002F0EEFAFFF75CFD0028FBD000F086F9DE
:10B7E000F8E709F07FFB002800D162E700F07EF95E
:10B7F0005FE7C0469C210020C1B20100E06A020060
:10B8000069B50100CD0C0000106A0200A0230020E1
:10B81000E81F0020FDB20100EDB2010041B40100BB
:10B82000B06A0200C06A02009DB2010064230020D9
:10B8300045B5010095B20100D06A020010B5032899
:10B8400012D004280AD0002800D010BD002003F038
:10B8500081FE0028F9D000F049F9F6E7042003F052
:10B8600079FE0028F1D0F6E7022003F073FE0028ED
:10B87000EBD0F0E7F0B5A9B00CAD382200212800DC
:10B88000FFF7F0FC022301241AAE2B703822043398
:10B8900000213000AC70EB70FFF7E4FC34820F4BFA
:10B8A00003AC2422002120007361FFF7DBFC282376
:10B8B00023610A3B6361AA330127E36100232773F5
:10B8C0002776220000933100054B280004F088FE03
:10B8D000002801D000F00AF929B0F0BDE4200020D2
:10B8E0003DB8010010B5032004F01CFF002801D072
:10B8F00000F0FCF810BDC04610B504F0D7FF0823D7
:10B9000002009A4301D000F0F1F810BDF0B54E46A8
:10B9100057464546E0B4214B1978994600292AD06C
:10B920001F4B002598461F4B1F4F01269A4603E0E8
:10B930000135EDB28D421ED243461B6832009C4653
:10B94000EC00644420783B6882401342F0D093437B
:10B950003B6002F08FFE3300227851469340096825
:10B960000B40010091408B420AD04B4601351978BB
:10B97000EDB28D42E0D31CBC90469946A246F0BD84
:10B980006368002BF1D0617801394C424C41211A97
:10B990004C424C411000E1B29847E6E7F02300200A
:10B9A000EC2300201424002018240020F8B5124DA8
:10B9B0000700280000F00CFD002807D10124BC403E
:10B9C0000E4E3368234202D0A3433360F8BD3800E3
:10B9D00002F050FE0A4A136800280BD0234313607C
:10B9E000336800221C43074B28001968346000F0BC
:10B9F0006DFCEBE7A343F2E7F423002018240020BA
:10BA000014240020E8230020F0B54F464646C0B479
:10BA10001400070083B00E000720042A04D803B0E6
:10BA20000CBC90469946F0BD02F016FD00282FD0C0
:10BA30001A4B1B4A1F601B4B751E1E701A4BEDB232
:10BA40001C6000231360194A1360002E1AD0184B93
:10BA500001AC994603230026984600E01D004246AB
:10BA6000EB00FB182270A670E6709A781878627066
:10BA700021004A4602F0FAFC0028D0D16B1EDBB24E
:10BA8000002DEBD10B4A00210B4800F005FCC6E766
:10BA900002F0AEFC0028CBD0C1E7C046EC2300206A
:10BAA00014240020F0230020E82300201824002084
:10BAB000ADB901000DB90100E46A020070B5094D8D
:10BAC0002B78002B0BD00024074E3268E300985CE3
:10BAD000012102F07BFD2B780134A342F5D8002030
:10BAE00070BDC046F0230020EC230020002300B5E9
:10BAF00085B001AA9060002103481380536000F0D4
:10BB000005F805B000BDC04601400000BFF34F8FEF
:10BB1000034A044BDA60BFF34F8FC046FDE7C046CF
:10BB20000400FA0500ED00E010B500290DD009234E
:10BB3000002A01D1180010BD541E2240FAD18260A3
:10BB400001608480C2600023F4E70E23F2E7C04660
:10BB5000030010B59C888068DA68121A04209442A9
:10BB600000D210BDDA68002014401A681155DA6856
:10BB70000132DA60F5E7C04610B58468C268030098
:10BB80000520944200D110BD98689A880240186838
:10BB9000825C00200A709A6801329A60F3E7C0461E
:10BBA00080218023184A8902D1508022D221174B4C
:10BBB000520289005A5040395A5001222F205A60AF
:10BBC0000138C046C046C046C046C046C046C04612
:10BBD000C046C046C046C046C046F1D19A60002368
:10BBE0000B4A2F2013600138C046C046C046C046ED
:10BBF000C046C046C046C046C046C046C046C04615
:10BC0000F1D1044A1370704700E100E000100140D8
:10BC10001C2400203C240020A021F0B5002347462E
:10BC20002B4A490080B453500431535004315350CF
:10BC3000043153504C39535004315350254B1B6839
:10BC4000002B35D02449002652582449244F0C6833
:10BC5000141B00222402240A904602E0002D18D072
:10BC60002B001A68A24214D8A41AB6181A7CDD69EF
:10BC7000002AF3D0424699691A745A693B68002B2E
:10BC800019D0100098470028E8D0FFF72FFF002DAB
:10BC9000E6D1144B14491A780B789A420ED0134A05
:10BCA0009B009E5080218023114A49035B00D150A4
:10BCB00004BC9046F0BD08009047CFE70132D3B2F4
:10BCC000022B01D00B70EAE700230B70E7E7C046B8
:10BCD0000010014020240020040500001C24002046
:10BCE000242400203024002031240020342400208B
:10BCF00000E100E0F0B55F4656464D464446F0B4DC
:10BD0000C24BC34A1B68C3498BB0059309781378AB
:10BD1000994200D154E10133DBB2022B00D1002360
:10BD20001370BD4A9B009B58B84A9A46059B5344E2
:10BD30001B021B0A136001230193B84B00241B68EC
:10BD40009B46B74B5A461B78914619008846039389
:10BD5000B44B47461B68013F0493AC4B1B680893E8
:10BD6000B14B1B7807930023099306931E00FBB287
:10BD70009846FF2B32D04346D800049B9C461300C4
:10BD800060440178457800961A00A9421FD04668A1
:10BD90004A00B446521886780131D200C9B26244D2
:10BDA0008E4200D1EBE01678022E00D1C5E0032EC2
:10BDB000EAD1002BE8D01C74DB69002BFBD10133E6
:10BDC00045780093002399461A00A942DFD14746DF
:10BDD000013FFBB2009E9846FF2BCCD10292002E71
:10BDE00000D0F1E0069B002B02D0884B089A1A6025
:10BDF000099B002B03D06A468B4B127F1A70019B64
:10BE0000002B00D02AE15B46029A00259B1A5A1E9D
:10BE10009341DBB205937D4B00271B6802999C463A
:10BE20007E4B1B689B46804B1B7806930023019337
:10BE30007E4B994601230093039B013BDBB20393A6
:10BE4000FF2B00D1F6E0049ADB0092460E009A44E4
:10BE5000002D28D06A68A9682C00ED696346D31AC2
:10BE60001B021B0A4B4552D86A4612785B182360A6
:10BE70006760A7602274E761002E58D031683000F7
:10BE8000994205D3B6E01168994200D3A0E01000B2
:10BE9000C2695B1A002AF6D1E26132002360C461F4
:10BEA0001600002DD6D153461A785B7831009342A4
:10BEB000C2D0514649685300884651469B1801320A
:10BEC000D2B20A708978DB004344914200D19AE0F3
:10BED000197832000129E3D15C68227C9046414602
:10BEE00032000029DCD19A686260D968A1601869C3
:10BEF000E0605B69A361069B002BAFD04346002244
:10BF000063606346D31A1B021B0A4B45ACD96346D8
:10BF10009A1A1202120A8A4261D28B1A6A4612785F
:10BF200023606760A7602274E761002EA6D122001B
:10BF30000123A34601931600B3E75668002B30D0C7
:10BF40009E421ED0009A1F00944602E0964206D000
:10BF50001700FA69002AF9D16246009214E7654693
:10BF60000095BA420FD01568D269FA61002A16D03E
:10BF700013689C466544156045784B4604E70021EC
:10BF800011E71A001F00DE69002E0CD00125009574
:10BF90001568D269B1463300FA61002AE8D14578C4
:10BFA000F2E60023F0E60125214B9D6009950795F7
:10BFB0000695002500230895013599460095D2E79E
:10BFC00000239A460193B8E64A46144B1A6009E7E3
:10BFD000C91A1160E26123603200C46160E76B46F8
:10BFE0001B7827606760A7602374E761002E9ED0EE
:10BFF00000233168CB1A336022000123E661A34697
:10C00000019316004DE75246157061E71C2400208D
:10C01000302400203124002034240020202400205B
:10C02000282400202C24002032240020FEFF7F0042
:10C0300000100140019B002B00D09DE0029B994223
:10C0400036D1059B002B33D10023534A13700BB01C
:10C050003CBC90469946A246AB46F0BD4F4B0024EF
:10C0600018680025029B00210026574615E01A6833
:10C07000BA4200D984E0D868BF1A89181E60DC690A
:10C08000002807D0DD611D00059A98605218120241
:10C09000120A5A6023002000019C002BE7D1002CDB
:10C0A00001D03E4B18600023029301330593B2E6A2
:10C0B000002900D15DE00B6839489846394B3A4D6C
:10C0C000C4583A4B2E781B68E11A0902090A033159
:10C0D000002E2DD042468A4200D20A00A820D21853
:10C0E00012022F49130AC0002E4D0B504A591B1B38
:10C0F000121B1202120A1B0203321B0A9A42A3D914
:10C100004B590B502F200138C046C046C046C04690
:10C11000C046C046C046C046C046C046C046C046EF
:10C12000F1D180218023224A89025B00D1508BE724
:10C130008026D1277602BF00C651403FC651C0229B
:10C1400080271B4EBF025200B750376001260660A1
:10C150002F200138C046C046C046C046C046C04633
:10C16000C046C046C046C046C046C046F1D12E704B
:10C17000B0E7FFF715FD67E75A46084B1A605DE721
:10C18000BA46002C01D0054908605146521A1A607F
:10C190000293012305933EE6322400202024002050
:10C1A00000100140040500003C2400201C24002055
:10C1B00000E100E0F8B54F464646C0B4032635001E
:10C1C00080460F001400994615400720002D03D02B
:10C1D0000CBC90469946F8BD002A44D0FFF7E0FC1D
:10C1E0004A46224B80201A602200214B18321E70D2
:10C1F000204B62601C607B00DB19DB00D218E26020
:10C20000D318C022636125706570A77025726572AE
:10C21000A77225746574A774C524FF21164B4003CB
:10C220001D60164B52001D70154BA4001D70154B60
:10C2300098501A598A433F390A431A51A12218606B
:10C2400040461149D2008850C42080001C580F4A33
:10C250002240C024240222431A500D4B0020CA5809
:10C260000C4B1A60B4E7034B1A60B1E7242400209A
:10C27000282400202C24002020240020302400200A
:10C280003124002000E100E000100140FF00FFFF2A
:10C29000040500001C24002010B50B4B1B68002B6C
:10C2A0000BD0002A07D0002805D0036808201C7C8A
:10C2B000002C04D010BD0720FCE70820FAE75974D1
:10C2C0005A610020F6E7C0462C240020F0B547460E
:10C2D00080B43A4B1C68002C08D0002806D00723F5
:10C2E000042905D8180004BC9046F0BD0823F9E7DE
:10C2F0004369002BFAD0437C012B49D000239C4694
:10C30000EFF30583DB05DB0D1025002B26D1641927
:10C3100063785F1CFEB2A778B7423DD02778B7425A
:10C3200038D05D00ED186368ED009846454404235D
:10C33000002DD7D0033B2B706860214B2148C35898
:10C34000E960AB60634680212B6180236A611E4AED
:10C350005B0049036670D1500023C3E7103BDFB296
:10C360007DB2002D1ADB0326AD08174FC035AD0096
:10C37000ED593340DF002B00FB409B093340DBB21B
:10C380000025012BC3D00835032BC0D00835BEE7EC
:10C390008C46B5E70423A5E70026BFE70F230B4D26
:10C3A0003B40A8460325083B9B089B0043445B6831
:10C3B0002F40FF00FB409B092B40E0E72C2400208E
:10C3C000040500000010014000E100E018ED00E06D
:10C3D00010B5304A03001168082000292BD0002B2B
:10C3E00029D05A69002A26D000221A74EFF3058258
:10C3F000D205D20D0830002A1ED109184A78887853
:10C40000541CE4B2A04232D00878A0422DD0500093
:10C4100082184868D200844662440420002A0AD068
:10C420000238107053604C708023802100201A4A1B
:10C4300049035B00D15010BD103AD4B260B200285D
:10C4400017DB8008144CC0308000005903242240C0
:10C45000D200D04082092240D2B20020012ACCD0A2
:10C460000830032AC9D00830C7E70420E3E70024D6
:10C47000CAE70F220948224084460320083A92085E
:10C480009200624452680440E400E2409209024093
:10C49000E2E7C0462C24002000E100E018ED00E0B7
:10C4A000F0B5EFF3108172B60A4B5A68002A0DD12D
:10C4B00001248025084E5C607459084F3C401C6084
:10C4C00077510270002900D162B6F0BD01230370DC
:10C4D000F8E7C0469830002000E100E0FC06FFBC11
:10C4E00010B5084B5A68002A0BD0002809D1EFF389
:10C4F000108272B604491C680C605860002A00D192
:10C5000062B610BD9830002000E100E0F8B5284C7C
:10C5100063686188002B44D05A88264F03320E018D
:10C5200092009A18BB1959688023DB00C818824210
:10C5300021D2136801331ED01F4D9388AB4211D016
:10C540001388002B0ED003201C4B626099881B6857
:10C55000890059185388207003339BB2184801F0A2
:10C56000EBF9F8BD538803339B00D218824202D204
:10C5700013680133E1D1BE19B389002B0AD005231A
:10C58000022223700D4B0E489A801968013A01F07F
:10C590002DFAE6E701220A4801F028FA0423237065
:10C5A000DFE7044F0E01BB1959680A000832BBE7E8
:10C5B000C0240020A0240020FFFF00004825002008
:10C5C00070210020F0B5474680B443688C46002BAC
:10C5D00003D0314A11688B4235D2002362460127CD
:10C5E0002E492F4D138080234E68DB00F418002362
:10C5F0000DE01A68013212D09A88AA4209D01A882E
:10C60000002A06D09A6890460268904513D0002B05
:10C610000ED05A88033292009B189C42E9D8634698
:10C620001F800137BFB21031032FDCD1002007E09B
:10C6300033000833F1E743601A4B1B890381012063
:10C6400004BC9046F0BD52689342C6D89A07C4D144
:10C65000144A018912899142BFD1026899688A42BD
:10C66000BBD10E494A68934207D98020C00080465A
:10C670004244934201D200230AE04A6900209342D7
:10C68000DED98021C900884642449342D8D2012392
:10C69000624601201380D3E770210020A0240020EF
:10C6A000FFFF0000C0240020F0B54D465F4656460F
:10C6B0004446F0B48C469988914601294BD8294AC2
:10C6C000294F92460022904654460A01A45C002C51
:10C6D0003CD11C685244002C3FD065885668033515
:10C6E000AD0064198025ED00AB465E44A6422BD90F
:10C6F0002568013528D0A588BD421FD02588002D8A
:10C700001CD01C60002803D0A6880588AE42E2D168
:10C710006546002D03D026882D88AE42DBD14A46DF
:10C720000020A16811601B685360104B1B891381A6
:10C730003CBC90469946A246AB46F0BD65880335A1
:10C74000AD006419B442D3D342461A60013189B2B4
:10C7500099800229B8D10A20EAE7566834000834E3
:10C76000C0E7C046A0240020FFFF0000C024002036
:10C77000F0B544465F4656464D46F0B4C24C87B0CD
:10C78000256F0600EF007B1B9B00E218E35C9046E0
:10C79000062B28D8BD499A008A589746002800D011
:10C7A000F5E0BB4B99461B7B002B00D19DE24B462D
:10C7B00018731B78072B00D995E2B64A9B00D35813
:10C7C0009F46002800D0E3E0781B80008146A1440A
:10C7D0004A461279012A00D1BDE2002A00D1A1E225
:10C7E000022A00D131E10F22924601AEAA4A9245B7
:10C7F00000D1D4E05246726042461278023A012AD1
:10C8000000D82AE1062B60D8A44A9B00D3589F4643
:10C81000A3487A1B81469200A218518A09018944D3
:10C82000002E00D0C8E04846494640680989824643
:10C83000127C89008A44062A00D93CE39949920077
:10C840008A589746002800D0ACE043461B799946A9
:10C85000012B00D19DE2002B00D18FE2022B00D1F1
:10C8600005E1032B00D087E28F4B904A9946494659
:10C87000022309688E4801F05FF84B461B68494661
:10C880009C46834B864A5B8892461B019B465A44D2
:10C8900053680B60634653608B88138102225346B2
:10C8A0008A805A46D65443461E71002832D07B1BDC
:10C8B0009B00E35C01207F4901AE0A7882430A7045
:10C8C0000E22924692E70523337000257A4F7B595A
:10C8D000002B01D03000984704350C2DF7D1236F81
:10C8E0001C22D800C01A800020180021FEF7BAFCD4
:10C8F000636F002B09D00321226F013B01320A40F4
:10C9000022676367002B00D0A3E00421694A1378F3
:10C910008B43137007B03CBC90469946A246AB4689
:10C92000F0BD04237D1BAD0065193370EB88B38126
:10C930000023F381C9E703237D1BAD006519337024
:10C94000EB88B3812B89F381EB68B360BDE70223E9
:10C950007D1BAD00651933702B89B381AB88F381E2
:10C96000EB68B3602B7C063B594259413174ACE70C
:10C9700001237D1BAD00651933702B89B381AB8812
:10C98000F381EB68B360A0E7002333709DE70623D3
:10C9900001229246404A01AE924500D02AE7002289
:10C9A00072602FE70121434A01AE13788B43137065
:10C9B00001220123924619E7D0884A461289C11CF8
:10C9C00051184A4611814946528901AE121A033A5A
:10C9D0004A810122924609E74B464A461B890133A8
:10C9E0001381002313732E4A11784B424B41494661
:10C9F0008B72127C53425341CB7201230B704B4616
:10CA00009B7A002B0AD000234A469372244B9A89C2
:10CA1000002A03D19B7B002B00D043E24B46DB7AFC
:10CA2000002B0AD000234A46D3721D4B9A8B002A52
:10CA300003D19B7F002B00D03BE200234A461370BA
:10CA4000538053607B1B9B00E35C134A01AE92460C
:10CA5000CCE60020FFF78CFE5CE74246917D174A4A
:10CA6000106C40181064506C411A5164CAE60E4BA9
:10CA700001229A4619680E4800F0B8FF53464A460C
:10CA80009A8043461E7110E7D0240020E86A020015
:10CA9000C0240020046B02001D1D0000246B020056
:10CAA000A0240020406B020048250020B86B020043
:10CAB000702100205C2500208824002040240020D4
:10CAC0004B465B88D54A1B01D3189A89002A00D1AE
:10CAD0009AE105234A4613700222D14BD1489A802D
:10CAE0001968013A00F082FF82465346002B00D1BC
:10CAF00010E71C236B4301AEE35C7BE64B4603204F
:10CB00004E465A68C64B99881B6889005918538845
:10CB1000307003339BB2C34800F00EFF8246E4E757
:10CB20007E1BB600A3199B461A1D51460123BD4822
:10CB300000F002FF02235A461374002800D1E9E6F0
:10CB40000E229246335D7A1B9200A218D0884A4684
:10CB50001289C11C51184A4611814946528901AEB9
:10CB6000121A033A4A8141E6AF4A9246EBE77E1B2E
:10CB7000B600A3191A0051469B460832043101231E
:10CB8000A84800F0D9FEA35DDA1E514251410622A9
:10CB9000521A59460A74002800D1BBE60E2292466A
:10CBA000D1E7A24BA24A59689E48012300F0C4FE77
:10CBB000002800D021E106237D1BAD0064192374F9
:10CBC000A8E60023994801AE43607B1B9B009B466F
:10CBD000E3189B6931000360FFF7F4FC00289FD144
:10CBE0005B460A221B5D924600E6924A536C002B7C
:10CBF00000D1E2E00726116C013B481CC9005364D8
:10CC000053189B4630407E1BB600A61910648A5804
:10CC1000B18A9B8889005144824800F08DFE5B46B2
:10CC2000B28A9B88D318B382B37D013BDBB2B37564
:10CC3000002B01D101333374002800D16AE60E22A3
:10CC40007B1B9B00E35C92467DE751467E1BB60052
:10CC5000A2190C32012308317248A61900F06CFEAB
:10CC6000B37D0122002B00D002327B1B9B00E11818
:10CC70000A74002800D14DE6E35C8FE74A4607239B
:10CC8000137000235360664B6B4A19686548022392
:10CC900000F052FE824628E74B46614A5B6859889D
:10CCA0009388CB180333938002234A461370FFF70F
:10CCB0002DFC82465346002B00D12BE61C236B43F0
:10CCC00001AEE35C92E54B465B88544E1B010622A5
:10CCD0004946F6180A7002237168584A514800F014
:10CCE0002BFE824601E706237DE54B461B78072B8A
:10CCF000F9D853499A008A58974601234A46137037
:10CD00007DE6474A454E13689C464B465B881B01AF
:10CD1000F1184868106060464860908808810221D8
:10CD20009180D4E701AE0C2200213000FEF79AFA80
:10CD30004B46DB68300001936B46991CFFF742FCC1
:10CD40000A239A46002800D080E002227B1B9B0029
:10CD5000E3181A71C9E63B4B1B789B072FD40223BB
:10CD60009A46394B9B46082200215846FEF77AFA2C
:10CD700053460A2B9ED165E601239BE5284B2E4A9C
:10CD800019682848022300F0D7FD01234246137199
:10CD90008BE5224E3378022B74D0337C022B00D1EA
:10CDA0007EE00223274A01AE11780B4349468B43AC
:10CDB00013701D4A0123924618E51B68FFDE4846A2
:10CDC000214B01AE0630320000219B46FFF76CFC80
:10CDD0008246031EC7D171680133154A114800F01D
:10CDE000ABFD002801D00E239A465B469B880B4A78
:10CDF0001B01D31801229A73BAE706217B1B9B0003
:10CE0000E2181174E35CC9E659680132054800F084
:10CE1000EDFD04234A468246137066E6A0240020F6
:10CE200048250020702100201D1D000050250020F5
:10CE3000AC6B020040240020B06B0200B86B020013
:10CE40005C6B02005C250020982400204A46716833
:10CE50001A488B88D3800B8813810123184A00F06D
:10CE60006BFD0E239A460300581E834152465B42D7
:10CE70001A406B465B889246124A1B01D318012266
:10CE80009A7362E700231B019946F31859680E4A0A
:10CE900002230A4800F050FD00234A46B35404E53B
:10CEA0000123F0E700234A465380FFF72FFB824619
:10CEB00000E70123F7E70F22924644E670210020A5
:10CEC000AC6B0200A0240020B86B020010B5080073
:10CED000FFF74EFC10BDC046F0B55F464D465646C6
:10CEE0004446F0B487B0019000930B894D689B468F
:10CEF000002B00D1E0E02868800700D083E02E00FE
:10CF000000240836032004E037680836074200D0C2
:10CF100079E00134A342F7D8002A00D19AE0A9466B
:10CF20009C4614885288694F3B68013302933B60EA
:10CF300000239A46009B032B00D185E0644B5F6F72
:10CF4000032F50D808255E46AD1BA8466148406CAB
:10CF50000390404547D803200E88049649880D0069
:10CF6000196F7918014088464646C900891B890017
:10CF70005918CA806A46128A6E460A8100224A817E
:10CF800052460A74624636788A750E70059A029E79
:10CF900001378D80CE604C8288828A615F675B46F4
:10CFA000002B39D04B4A039D126C2B00944607226C
:10CFB00063441340474A494694465A466746DB0055
:10CFC000D4006344E0460C193837B44603E013003C
:10CFD00008318C4219D01A00080060C860C2BB42F8
:10CFE000F5D14346F4E73C4B24011C196389033B0C
:10CFF0009A1A62810824200007B03CBC90469946EA
:10D00000A246AB46F0BD0324F5E763460293314BDD
:10D01000304A5B6C5B445364019B002B08D01A00C0
:10D0200000230299536093722C4B11601B8913816A
:10D030002B4B00241A785107DDD4042100200A4329
:10D040001A70FFF795FBD6E7019B1B680593042335
:10D050009A4673E70022DE0004362C1DAE192388A1
:10D060000834D21892B2B442F9D1D51CADB2092419
:10D07000FD2DC0D8184E3478002C06D17389348920
:10D080001C192C19A4B2FF2C1CD9377C0724002FA3
:10D09000B1D1738B378BDF19EF19BFB2FF2FAAD82D
:10D0A0000127063C3F015D19F61975810B899C46E5
:10D0B0009B464B68994636E7002A00D02FE70022AE
:10D0C0000325D7E700240027ECE7C04660250020B1
:10D0D000D024002040240020A0240020C0240020D0
:10D0E0005C25002010B506490C220B78032B05D0D7
:10D0F000044A9C00A050002201330B70100010BDA8
:10D100009424002088240020F0B55F4656464D4602
:10D110004446F0B48DB01422002107A8FEF7A2F80F
:10D120009F4F3B789A0711D500249E4D2B59002B19
:10D1300001D007A8984704340C2CF7D100200DB07B
:10D140003CBC90469946A246AB46F0BDDA07F5D402
:10D15000012213433B7000F09DFB934B1E68934BE1
:10D160001C68082398468023DB00E018C0231B01BD
:10D170009C46A444634602930023009301930393C7
:10D180008B4BA0449B4622682300111E894A914282
:10D1900004D122E00433984200D1DEE01A68013263
:10D1A000F8D08023DB009C46029B6444E04460444A
:10D1B000A342E8D1009B002B00D0EEE06B461B7928
:10D1C0000B20002BBBD0062B00D186E00B2B00D907
:10D1D00096E0794A9B00D3589F466368774A93420A
:10D1E00004D0774A934246D02300D7E7039B754982
:10D1F0001B011A000493944600238B5461440A00D7
:10D20000022300254C6041461381AA460D68022383
:10D21000013521D06C4DA446A9461C00130011E035
:10D220008A68B24202D91600012200924D88EA1C97
:10D230009500A21894B249191C8181420BD20A6848
:10D24000013208D08A884A4502D00A88002AE7D1EC
:10D2500001229246EAE764465A4A049B94465246A3
:10D2600063449A730222019B13430193039B01338E
:10D270009BB2039395E75B46022241461C609A806D
:10D280000A680223013200D185E0A4464E4D040015
:10D29000180002E00B68013315D08B88AB4208D030
:10D2A0000B88002B05D08B68B34202D91E000123E6
:10D2B00000934B88DA1C9300C9185B46821890B221
:10D2C0009880A142E6D30300082220006446022B86
:10D2D00041D0019B1343019363E702233A78002472
:10D2E000134301222F4D93433B702B59002B01D048
:10D2F00007A8984704340C2CF7D11FE700230593A7
:10D300003248436F032B12D8314A526C082A0ED888
:10D310000321026F9A180A40D1008A1A0121920053
:10D32000821811706946097D0133117143673B789A
:10D330005A0700D502E70422002013433B70FFF791
:10D3400017FAFBE602230593DAE703230593D7E7F1
:10D3500001230593D4E7043ABBE7154B1B680493FC
:10D36000002B13D00225039A164913018C465D54F5
:10D370000221634419815C601649531C9BB24A80A8
:10D3800003930122019B134301930AE70222084BF6
:10D390001C609A80F5E704229BE7034B1E600DE7B3
:10D3A0005C250020882400206025002070210020BA
:10D3B00048250020DEC0ADDE7C6B0200FE011EF1C0
:10D3C000FF011EF1A0240020FFFF0000D024002058
:10D3D00040240020C024002030B5040083B00D009C
:10D3E0000520002C0AD0002908D06B462000991D8A
:10D3F000FFF7E8F803000A20002B01D103B030BD8D
:10D400006B46DB88074A1B01D3189A896168013291
:10D410009A812960636800200C336B600123A3723A
:10D42000ECE7C046A024002010B5040082B005201F
:10D43000002C08D06B462000991DFFF7C3F80300AD
:10D440000A20002B01D102B010BD6B46DB88084AD0
:10D450001B01D3189A890438002AF4D0A17A002934
:10D46000F1D0013A9A8100230020A372EBE7C04675
:10D47000A024002070B5194B1A780223920701D41A
:10D48000180070BD03330028FAD0CA1C92B20433CE
:10D49000FD2AF5D8124D2B78002B10D16C892B89E1
:10D4A000E318D3189BB2FF2B09D8002600231B01D9
:10D4B000EB1812195A81068041800023E0E72C7C8A
:10D4C0000723002CDCD16C8B2E8BA6199619B6B2D3
:10D4D000FF2ED5D80126063BE9E7C0465C25002093
:10D4E000A024002030B50F4B1A780223920701D4F4
:10D4F000180030BD002812D002880233022AF7D863
:10D50000094912018A18518944880D1B032DEFD453
:10D5100000230339091B518103804380E8E7052379
:10D52000E6E7C0465C250020A024002010B50C4B87
:10D530001A780223920701D4180010BD00290DD0DB
:10D540000C88084A02339442F6D04A88002AF3D065
:10D55000023B0022FFF7C0FC0300EDE70523EBE7E9
:10D560005C250020FFFF000070B50523002A04D0D1
:10D570000B4B1C780223A40701D4180070BD0029AE
:10D580000CD00D88074C0233A542F6D04C88002CF5
:10D59000F3D0023BFFF7A0FC0300EEE70523ECE726
:10D5A0005C250020FFFF000010B50523002804D0F3
:10D5B0000C4B1A780223920701D4180010BD0029E1
:10D5C0000DD00C88084A02339442F6D04A88002ACB
:10D5D000F3D0013B0022FFF77FFC0300EDE70523BA
:10D5E000EBE7C0465C250020FFFF000070B5164A3F
:10D5F00002241378990701D4200070BD1349023426
:10D600008842F9D0124E0434716F0329F4D8114DB9
:10D610006D6C082DF0D80325346F0C192C40E500F3
:10D620002C1B0525A400341925700131043D2571FA
:10D63000E080716700245907DED4042100200B43E9
:10D640001370FFF795F8D7E75C250020FFFF000077
:10D65000D02400204024002070B5154A02241378FD
:10D66000990701D4200070BD12480634416F032988
:10D67000F8D8114D6D6C082DF4D80325046F0C19E2
:10D680002C40E5002C1B06250131A40005554167FF
:10D690000A490878002801D001200873002459079E
:10D6A000E0D4042100200B431370FFF761F8D9E7A1
:10D6B0005C250020D024002040240020C02400202D
:10D6C00030B583B06C4601AD29800A49E080097805
:10D6D00006340220890701D403B030BD002A06D0E9
:10D6E000002B04D029002000FEF7DEFFF4E7052020
:10D6F000F2E7C0465C25002030B583B06B46D88089
:10D700000A489C1D05780220AB0701D403B030BD48
:10D71000002908D0002A06D0130000200A002100AA
:10D72000FEF7C2FFF2E70520F0E7C0465C250020C7
:10D7300030B583B06B46D8800A489C1D057802201E
:10D74000AB0701D403B030BD002908D0002A06D0B1
:10D75000130020000A000021FEF7A6FFF2E70520D3
:10D76000F0E7C0465C25002070B504000D000520E0
:10D77000002C06D00C2200212000FDF773FD0020B4
:10D78000256070BD002805D0002903D00368002063
:10D790000B6070470520FCE729DF704728DF7047E2
:10D7A00070B50B4C0500626D0020042A0FD0236D6C
:10D7B000D318032B00D903000132626514225343AE
:10D7C000E41800212000FDF74DFD01202C6070BD04
:10D7D0006825002070B52D4C84B0636D002B10D0EF
:10D7E000256DAE0073199B00E3181A79012A0AD03F
:10D7F000022A25D11889FFF7D1FF112815D000285A
:10D800001ED104B070BD1A8A588A121AFF2A14DC7D
:10D8100092B273199B00E3189968DB6880000918BD
:10D820001818FFF7B9FF1128E9D1022218490B781F
:10D830009343042213430B70E3E780225200E8E78E
:10D840000C22002101A8FDF70DFD73199B00E318C0
:10D850001A79012A11D0022A07D1694601220A71D8
:10D860001A895B894A81D31A0B817519AD006359F6
:10D8700009219B6801A89847C3E7002269460A71FD
:10D88000DA681B8A02928B81EFE7C0466825002088
:10D8900064250020F0B55F4656464D464446F0B438
:10D8A000214B5F697B1C39D0204B9A461B789946E7
:10D8B000DB072CD41E4B1F4C9846E41A240920D0B9
:10D8C000002301259C4600266D424246002300208D
:10D8D0009D4204D0517B814201D308001E000133D8
:10D8E00010329C42F4D1330143441A7B5F609202B0
:10D8F000BF1A1F6001239B46DC44644501D03500FC
:10D90000E3E701234A461A431300524613700020EE
:10D910003CBC90469946A246AB46F0BD80235B05D1
:10D920005F69BF02C0E7C0460010001064250020F8
:10D930007021002080210020F0B54F464646C0B43B
:10D94000274E9946337883B0050088461700012496
:10D95000DB0711D5002817D0224B013498420BD396
:10D96000214B984208D2002A0CD04346002B09D004
:10D970003B4306249B0709D0200003B00CBC904613
:10D980009946F0BD0324F7E70224F5E72B68013C34
:10D990009845F1D34B466A689B0043449A42EBD3C7
:10D9A0004B46013C002BE7D001A8FFF7F9FE0334FA
:10D9B0000028E1D00122019B00241D60019B1A7107
:10D9C0004246DA604A461A8206229F603378134242
:10D9D000D2D1043A13433370FFF7FCFECCE7C046C4
:10D9E000642500207021002080210020F0B54746EA
:10D9F00080B4244E82B0337805000F009046012495
:10DA0000DB070ED5002813D01F4B0134984208D3F2
:10DA10001E4B984205D2002908D0BB050624002BD6
:10DA200008D0200002B004BC9046F0BD0324F8E703
:10DA30000224F6E72B68013C9F42F2D343466A6812
:10DA40009B02FB189A42ECD34346013C002BE8D0E2
:10DA500001A8FFF7A5FE03340028E2D0019B0221B4
:10DA60001D604346019ABF0A9381117117810622F6
:10DA7000337800241342D4D10B433370FFF7AAFE4E
:10DA8000CFE7C046642500207021002080210020BF
:10DA9000002804D0034B5B6D036000207047032017
:10DAA000FCE7C04668250020F0B54E46454657467F
:10DAB000E0B4A24DA24C2B7884B0266D9A0743D5D2
:10DAC000022800D1A5E0032800D074E09D4A137815
:10DAD0000133DBB21370032B00D86CE0002313700A
:10DAE000984601AB0C2218000021B7009946FDF7BB
:10DAF000B9FBBB199B00E3181A79012A00D1D5E0C4
:10DB0000022A07D1494601220A701A895B89CA8014
:10DB1000D31A8B800821BE19B600A3599B684846CA
:10DB20009847636D013B6365002B00D0E3E0022161
:10DB30002A788A432A70226D01322265042A34D160
:10DB400000220026226537E004221A4233D0934394
:10DB5000626D2B70002A28D00222B7001343BA1935
:10DB60009200A2182B701179BB199B00E3180129B0
:10DB70002ED1508ABB199B00E3181A8A121AFF2A69
:10DB800000DD6EE092B2BB199B00E3189968DB6878
:10DB9000800009181818FFF7FFFD11285ED1022236
:10DBA0002B789343042213432B7004B01CBC904683
:10DBB0009946A246F0BD636D002BF6D0B700BA19A6
:10DBC0009200A218BB1911799B00E3180129D0D04B
:10DBD00002293ED001AB0C22180000219946FDF726
:10DBE00041FBBB199B00E3181A79012A3CD0022A99
:10DBF00007D1494601220A701A895B89CA80D31A63
:10DC00008B80BE19B600A35909219B6848469847E6
:10DC1000CBE700239A4652464A4BB7001A70BB190D
:10DC20009B009846A04443461B79012B25D0022B2C
:10DC3000C1D1434642461B890133138153890133C5
:10DC40009BB2538192899A4238D0636D002BACD03D
:10DC500043461889FFF7A2FD1128A0D00028A4D0C0
:10DC6000B8E7802252008EE7002249460A704A46F1
:10DC7000D9681B8A51601381C3E74346198A588AC1
:10DC80000B1AFF2B10DD80225200BB199B00984617
:10DC9000A0444346801880B25882814232D0636DDE
:10DCA000002B00D066E780E79AB2EEE74A4641468D
:10DCB0001170D9681B8A516013812BE701AB1800E2
:10DCC0000C2200219946FDF7CDFA43461B79012B22
:10DCD0002FD0022B09D101234A46137043464946EF
:10DCE0001A895B89CA80D31A8B80BE19B600A359E2
:10DCF00000219B6813E7226D561C2665042E00D177
:10DD00001EE75BE701AB18000C2200219946FDF7E6
:10DD1000A9FA43461B79012BDBD100234A46137035
:10DD20004B464246D2685A6043464A461B8A138194
:10DD3000DBE74B4652461A70F3E7C04664250020E5
:10DD400068250020C025002010B50378022B02D0E2
:10DD5000012B00D010BD4068FDF7C8FEFAE7C046B1
:10DD600070B50E4C88B023780020002B14D101A888
:10DD700002000B4B62CB62C20A4B012504930A4B93
:10DD80000A4A069380239B000793FE3BFF3B04A9AE
:10DD9000059500F07DFA257008B070BDC5270020FC
:10DDA000C06B0200C4270020C425002049DD01000B
:10DDB0000FB4F0B583B008AD80CD00260195002FDB
:10DDC0000FDD04352B1F1C6801952078002805D035
:10DDD000013400F0AFFA20780028F9D10136B742BB
:10DDE000EFD103B0F0BC08BC04B0184701230342D4
:10DDF00015D14210134214D18210134213D1C21014
:10DE0000134212D10211134211D14211134210D107
:10DE1000821113420FD1C0110FD109487047002061
:10DE2000FCE70120FAE70220F8E70320F6E70420E8
:10DE3000F4E70520F2E70620F0E70720EEE7C0460A
:10DE4000FFFF000010B5002819D0002917D0048862
:10DE5000944224D04488944223D08488944222D08F
:10DE6000C488944221D00489944220D044899442A9
:10DE70001FD0848994421ED0C089904200D010BD2A
:10DE80000720002B05D0012383400A7813430B7031
:10DE9000F5E7012282400B7893430B70EFE70020F7
:10DEA000EFE70120EDE70220EBE70320E9E704209C
:10DEB000E7E70520E5E70620E3E7C046F0B544467E
:10DEC0005F4656464D46F0B483B00CAC247800282B
:10DED00022D0002920D0002A1ED005889D4200D1E2
:10DEE000E1E045889D4200D1E8E085889D4200D16F
:10DEF000E6E0C5889D4200D1E4E005899D4200D15D
:10DF0000E2E045899D4200D1E0E085899D4200D153
:10DF1000DEE0C089984206D003B03CBC90469946EA
:10DF2000A246AB46F0BD0720012383404842DBB246
:10DF3000002C5DD103342040904200D91000042A07
:10DF400000D9B6E01000DC430D78E4B225400D7036
:10DF5000012800D1C4E04D7825404D70022800D141
:10DF6000C2E08D7825408D70042800D0BAE0CD78CD
:10DF70002C40CC7004248242CED0151AAC46043D0D
:10DF8000AD080135A946561EAD00A846361A022E28
:10DF900019D91F023D001E041D432E431F0637439F
:10DFA0008346F8430025002682468B44584647594D
:10DFB0005046074058460136475104354E45F5D383
:10DFC0004444C445A8D0DB4308190578DBB21D40A2
:10DFD0000570601C82429FD90818057802341D40E4
:10DFE0000570A24298D90C1922781340237093E748
:10DFF00003242040904200D91000042A55D8100074
:10E000000C781C430C70012866D04C781C434C7073
:10E0100002285FD08C781C438C7004285ED1CC78A9
:10E020001C43CC700424824200D175E7151AAC461B
:10E03000043DAD0801350195561EAD00A846361ABF
:10E04000022E1BD91E021E43B24655461F042F4303
:10E0500000251E063743BA460026A946081857462B
:10E0600085592F430125AB46019DD944875104367C
:10E07000A945F4D34444C44500D14DE70D1928788F
:10E0800018432870601C824200D845E708180578BC
:10E0900002341D430570A24200D83DE70C192278D6
:10E0A0001343237038E700203EE700240028BDD04A
:10E0B000A6E70024002800D15FE744E7012033E70A
:10E0C000022031E703202FE704202DE705202BE76E
:10E0D000062029E70224A6E70124A4E70324A2E7F7
:10E0E000012448E7032446E7022444E7002819D026
:10E0F0000388934218D0438893421BD0838893426D
:10E100001AD0C388934219D00389934218D0438907
:10E11000934217D08389934216D0C389002093423B
:10E1200014D070470020FCE70023194101230800A8
:10E130001840F6E70123F8E70223F6E70323F4E7A4
:10E140000423F2E70523F0E70623EEE70723ECE7D5
:10E1500030B50023002935D0D40702D50B88838041
:10E160000123940704D55C004D880419A580013370
:10E17000540704D55C008D880419A5800133140769
:10E1800004D55C00CD880419A5800133D40604D5DC
:10E190005C000D890419A5800133940604D55C0048
:10E1A0004D890419A5800133540604D55C008D897E
:10E1B0000419A5800133D21104D05A00C9898218EC
:10E1C00091800133036030BD30B5047885B0012CF7
:10E1D00019D0022C34D0002C01D005B030BD274D11
:10E1E000274C29002000FDF7C7FC002823D0A26897
:10E1F000E3689A42F1D1032302AA1370214B100065
:10E200001B689847E9E743681F4D19782800FDF718
:10E210009FFC002822D1AA68EB689B1A012B25D00D
:10E22000A968AA88EB685B1A9A42D6D301211748DD
:10E2300000F0B0FDD1E70121280000F049FDD6E74C
:10E2400002AB1C70C368012110480193039300F0D6
:10E25000A1FD0C4B02A81B689847BEE702AB1C70DF
:10E26000084B03901B6802A89847D9E702AB1870C7
:10E27000044B02A81B689847D2E7C046C827002075
:10E28000D4270020CC270020E4270020D02700201E
:10E29000F0B51E00214B050089B00C001A60072064
:10E2A000002906D08A881E480968FDF73DFC002831
:10E2B00001D009B0F0BDA289A1681A48FDF734FC6D
:10E2C0000028F6D16A46184B684692CB92C292CB90
:10E2D00092C212CB12C2AB6806932B7906775A1EF4
:10E2E000934103756B790E22591E8B415B421A4094
:10E2F0004275EB780293AB7803932B7801936B789C
:10E3000000930A4900F052FC0028D2D100F0D0FD61
:10E310000121074800F03EFDCBE7C046CC27002096
:10E32000E4270020D4270020CC6B0200C9E10100C3
:10E33000D027002070B50D4D01002800FDF708FC26
:10E34000041E01D0200070BD00F01CFD0028F9D192
:10E35000074E28003100FDF70FFC0028F2D1012103
:10E36000300000F0B5FC0400ECE7C046D4270020E4
:10E37000C8270020F0B500281EDBFF261A4B370007
:10E380009C4603238208C025C0B20340DB008901FC
:10E390009F403140994092006244AD005459BC43C3
:10E3A000214351511F23C02118401E3B83400E4A78
:10E3B000490053501360F0BDFF250C4A2E009446CF
:10E3C00003220F23C0B20240D200890196402940A7
:10E3D00091400340083B9B089B006344DC69B443C5
:10E3E0002143D961DEE7C04600E100E000ED00E036
:10E3F00070B54425164C0820635D002B00D070BD1D
:10E400004022FF21013BA3540132A1540132A35405
:10E41000236201326362A362E36223636363A363E3
:10E42000E363FC390238A35423606360A360E360B4
:10E4300023616361A361E361FFF79CFF8021C12336
:10E44000044A9B000906D150012300206355D6E7FA
:10E45000F4270020006000404423034AD05C431EA0
:10E460009841C0B27047C046F4270020F0B5474637
:10E4700080B4534C0825231820331E787F2E03D8F0
:10E48000280004BC9046F0BDCD78AC46002D36D0B7
:10E490002568013500D188E0042300269846731CC6
:10E4A0009D006759013733D0B31C984525D99D008D
:10E4B000675901372CD0F31C98451ED99D00675928
:10E4C000013725D0331D984517D99D00675901376D
:10E4D0001ED0731D984510D99D006759013717D07C
:10E4E000B31D984509D99D006759013710D00736EB
:10E4F000B04502D9E369013308D00425C0E7256996
:10E50000013557D0082304269846C8E707231C2561
:10E51000625162462718DEB220373E70002A02D1CF
:10E52000E3183C3318708B78002B15D10300A0251D
:10E530004A78C133FF3392009B00ED055A51CB78E6
:10E54000002B15D176B2A4193C340B7822789B01AC
:10E5500013432370002593E7A022D2059446E025BB
:10E56000022783006344ED005A59BA435A51E6E743
:10E57000144A0B789446A22176B2B6006644C900CC
:10E580007458114A000222407250F8225201104081
:10E590000500C0221804030028009202745813409A
:10E5A00018432043705000256AE7002522601D7043
:10E5B0000026B8E7042522611D702E002B00AFE76E
:10E5C000F427002000600040FFE0FCFFF0B5264D7E
:10E5D0002C182034227853B2032B18DDEB183C336F
:10E5E0001B789B09032B32D0012B39D0C021890223
:10E5F000A023DB059C46E02380006044DB00C45878
:10E600001A4A2240C250C2580A43C250F0BD032ADF
:10E61000FCD81748A227844601269A006244FF00CE
:10E62000D0593043D0511A00604600274032920042
:10E6300092B217500029E9D00022A25692005259F6
:10E64000002AE3D09E40C1239B00C650DEE7A223F0
:10E65000A022DB00D205D258012383401A42C5D143
:10E6600080218902C4E7C046F4270020FFFFFCFF99
:10E6700000600040A222A0210300D200C9058858F2
:10E68000D840012318407047F0B54D465F465646C6
:10E690004446F0B4B24A83B013680025012B00D180
:10E6A0006AE1B04B1A68012A00D173E1AE4B1A68D7
:10E6B000012A00D17EE1AD4B1A68012A00D189E11F
:10E6C000AB4B00271A68012A00D194E12B070BD02D
:10E6D000EB0700D5B5E1AB0700D5C1E16B0700D56D
:10E6E000CCE12B0700D5D8E1002D06DB03B03CBC04
:10E6F00090469946A246AB46F0BD002301259946B7
:10E7000040339B46B8469B4C6D425B46E15C4BB246
:10E7100001332BD0C9B2C023080098432B0001223B
:10E72000C34000271A4222D0231820331B788909BE
:10E730005BB29B00E358002B00D1EAE08240170057
:10E74000032900D1EAE0A026F605B446E0268200BF
:10E750006244F6009659B603B60FB44646463742B1
:10E7600000D0AFE06646032E00D14EE100274123E2
:10E77000E15C4BB201332ED0C9B2C02308009843EC
:10E780002B000122C3401A4225D08B090093231885
:10E7900020331B785BB29B00E358002B00D1CBE009
:10E7A00082409446009A032A00D1CBE0A026F605C9
:10E7B000B246E02682005244F60096591100B60394
:10E7C000B60FB24642466646164200D087E0524631
:10E7D000032A00D16DE14223E15C4BB201332DD01D
:10E7E000C9B2C023080098432B000122C3401A423B
:10E7F00024D08B090093231820331B785BB29B0035
:10E80000E358002B00D18DE082409446009A032A01
:10E8100000D18CE0A026F605B246E02682005244E4
:10E82000F60096591100B603B60FB2464246664648
:10E83000164262D15246032A00D178E14323E15CBB
:10E840004BB2013326D0C9B2C02308009843C5405B
:10E85000BF3B2B421ED0221820321278890952B2B7
:10E860009200A258002A72D083401D00032972D062
:10E87000A026F605B446E02683006344F6009E59C0
:10E88000B603B60FB4464646354211D16546032D50
:10E8900000D12BE1002F00D128E7A223A022DB002A
:10E8A000D205D358984500D120E74D4698462CE72D
:10E8B0006546022DEED1032900D161E1002AE9D09D
:10E8C0009047E7E76646022E00D04FE7032900D1C4
:10E8D0004AE10027002B00D149E7984747E7524615
:10E8E000022A00D077E7009A032A00D140E1002BEA
:10E8F00000D170E7009998476DE75246022A9DD1F2
:10E90000009A032A00D137E1002B97D0009998474D
:10E9100094E7032900D02AE7824017004A463A4389
:10E92000914610E70099032988D1824094464A46CF
:10E930006646324391466DE70099032900D04AE7C5
:10E94000824094464A466646324391462EE7032962
:10E95000A0D183401D004B462B43994688E7C04613
:10E960000061004004610040086100400C6100400B
:10E970007C610040F4270020C12183488900415870
:10E980000B4200D18DE6814B15601A680135012AD2
:10E9900000D08BE6C1227C499200895802220A42AB
:10E9A00000D183E600211960794B15431A68012ACA
:10E9B00000D080E6C12274499200895804220A429C
:10E9C00000D178E600211960724B15431A68012ABC
:10E9D00000D075E6C1226C499200895808220A428B
:10E9E00000D16DE6002119606B4B15431A680027B2
:10E9F000012A00D06AE61F6080231B061D43A02267
:10EA0000A223D205DB00D75860E6032900D060E7D7
:10EA10008026B6020096E026F6009659B2465F4E72
:10EA2000B446564667463E40E027FF00D651D659C9
:10EA3000B4466746009E3E43E027FF00D6510127BB
:10EA400048E7A223504ADB00D058D158544C8903E0
:10EA5000C0042368890FC00E9847AB0700D43DE679
:10EA6000504B494A4E4CD058D158C0048903636872
:10EA7000890FC00E98476B0700D432E6A323424AA1
:10EA8000DB00D058D158464C8903C004A368890FD5
:10EA9000C00E98472B0700D426E63B4A424B404C19
:10EAA000D058D158C0048903890FC00EE368984735
:10EAB0001AE6009A032A00D019E7802292020192F6
:10EAC000E022D2009246354E8A58013732409446B1
:10EAD000524666468E508A58FFB294466646019A60
:10EAE00032439446524666468E5000E7032900D0D2
:10EAF000E4E68025AD020095E025ED005E59013782
:10EB0000B246264EFFB2B446564665462E40350004
:10EB1000E026F6009D519D59009E2E433500E026CB
:10EB2000F6009D51002A00D1B7E69047B2E6009A60
:10EB3000032A00D0E8E6802292020192E022D2006D
:10EB40009246164E8A5801373240944652466646DF
:10EB50008E508A58FFB294466646019A32439446D4
:10EB6000524666468E50CFE6C026B602009652E761
:10EB7000C02292020192A3E7C02292020192DDE735
:10EB8000C025AD020095B7E7006000400461004079
:10EB9000086100400C6100407C610040FFFFFCFF09
:10EBA000F4270020140500001C050000F0B55746AE
:10EBB0004E464546E0B43C4C0300E27E0820002A65
:10EBC00004D01CBC90469946A246F0BD002B67D0ED
:10EBD000186801328240A020A125C005ED004251F5
:10EBE000A94603251A68AA46C132FF329200155081
:10EBF00000255A68AC46C132FF32920015509F6919
:10EC00002A4A2B4D57515D7DA84647461D7D3D4301
:10EC1000284FD5515D681F68A846274D5751474674
:10EC2000264D57511D7D012D19D19F683E00E027CB
:10EC30007F00B8464644B70066463E50DE68B540A1
:10EC40004E4685515646DD68C135FF35AD002E5024
:10EC50004E46D8689D689051A220C00015501A6990
:10EC60006160226000290DD0197F0023144A1548E5
:10EC70001360154A1360C1230C4A9B00D050022038
:10EC8000FFF778FBA0230421084ADB00D1500023C2
:10EC90000122E3752376A375E276A376002090E740
:10ECA00080220A4B920096E73C280020002000407A
:10ECB000240500006C0500000C0500001405000090
:10ECC0001C2100408000020044210040EC6B020047
:10ECD000F0B5264A0400937D1120002B00D0F0BD32
:10ECE0000125917522482349938294600B60056049
:10ECF0000B60938AE05C938A1F4C01339BB2938232
:10ED00001E4BE0505068002801D00020E7E70027A4
:10ED100026001D000130FF30947D938AA34203D367
:10ED200012E0938A834202D00B68002BF9D0938AB9
:10ED30008342F2D00F60938A9468E45C938A013333
:10ED40009BB293827451E7E78023918A5B009942DA
:10ED50000AD008490B68002BFCD001210020084B89
:10ED6000196000239375BAE70F20FAE73C280020CA
:10ED7000082000401C210040002000401C0500002D
:10ED80000C200040024B987D431E9841C0B2704752
:10ED90003C280020F0B5474680B43F4B5A68002A13
:10EDA00005D08126C2243D4DB600A4002E51DC7D45
:10EDB000002C0CD01C7E002C1CD0002A66D0812197
:10EDC000C123364A89009B00D15011200FE0D9752C
:10EDD000997ED8605C761C76002925D0002A0DD05B
:10EDE0008121C12300202D4A89009B00D15004BC01
:10EDF0009046F0BD18611976002AF1D1284D294EB0
:10EE00002A60264A284C9446A322D20090463268B3
:10EE100021682868002910D1002826D1002AF6D0C0
:10EE200000220320DA75E2E71E4A11601E4A1160D3
:10EE300001211A4A11605A68D0E7002AF0D100284F
:10EE400015D1DA7D2060002A15D16246414652581C
:10EE50005A7ED97D9142DAD80022DA759B7E002B4A
:10EE600016D001220D4B1A60C1E7002AD8D100222A
:10EE70000F20DA75BBE7474661465A7EC959DF68FD
:10EE8000B9545A7E0132D2B25A76E1E71120AEE788
:10EE90000122064B1A60AAE73C280020002000400F
:10EEA000442100402421004008210040042000406B
:10EEB000064A937E002B07D105490B6005490B607C
:10EEC000054901330B6093767047C0463C2800200B
:10EED000242100400821004000200040C12210B53C
:10EEE000604B92009A5884B092054DD55E4A1168E5
:10EEF000002949D0002111608121C222890092009D
:10EF000099505A4B9A7E002A02D10121584A116029
:10EF1000022269460A7090215248C9004258425064
:10EF200069460392DA7D68460A72DA6819680192C6
:10EF30000022DA751A765B6898474E4A1368002BF0
:10EF400010D04A4B988A997D81424FD90021116097
:10EF50009A8A9968895C9A8A013292B29A82464B5F
:10EF6000404AD150454B1A68002A0BD000221A6043
:10EF70003E4B9A7E002A02D001213A4A1160DA7D86
:10EF8000002A42D104B010BDC123364A9B00D35899
:10EF90005B07D2D53A490B68002BCED0334BD87DD6
:10EFA00000283FD10860A321C90052585A7ED97D5C
:10EFB0009142C2D11A7E002A41D19A7E002A02D102
:10EFC00001212B4A11608120C22226498000920033
:10EFD0008850002268460121DA755A7E017002725B
:10EFE000DA68196801925B689847A6E7002010600C
:10EFF0000029B7D06A46107011729A68987519681E
:10F0000001925B6868469847ACE700226846012198
:10F01000DA755A7E01700272DA68196801925B68CB
:10F020009847AFE700200860A320C000597E12581F
:10F03000D86842545A7E0132D2B25A76B6E7DA75AF
:10F040001A69D968DA6000226C46587E1A765A76B8
:10F050000132207201912270196868465B689847F6
:10F060006BE7C04600200040242100403C280020DF
:10F07000042000401C2100401C05000044210040E9
:10F0800008210040074B1A680823520701D41800D2
:10F090007047002804D0044B5B7803600023F6E738
:10F0A0000E23F4E72429002058280020A02210B5C0
:10F0B000064BD205D15880231B041C00A1208C4391
:10F0C0000B400349C0001450535010BD040500000C
:10F0D0000C050000F8B54F4646460400C0B41128A0
:10F0E00009D0122839D0132839D0142839D00CBCB3
:10F0F00090469946F8BD0025012911D000291FD05E
:10F100000229F4D16B005D191F4B5D196E78002E3A
:10F11000EDD01E4B1B68002BE9D030009847E6E786
:10F12000194B6F00984642467B19D65C43445B7886
:10F13000002B18D17F194744BA78154B5A55E6E78A
:10F140001448FDF745F9104A6B005B19D318104AB3
:10F150009B78565D9E42CAD1D9E70125CCE70225AE
:10F16000CAE70325C8E70C4B0A4899460B4B4A46A9
:10F170001B689900C9184900FDF7A8F80028D9D1E3
:10F180004B461C70D6E7C046A42900205C2900200D
:10F1900054290020602900204829002058290020F7
:10F1A000F8B5C64B1B68DB0700D4F8BDC44A147819
:10F1B000172CFAD8C349A300CB589F46A022C24BB4
:10F1C000D205D1588023DB031C00A1208C430B40C7
:10F1D000BE49C00014505350BD4B00221B68BD48AF
:10F1E0009900C918FDF772F8DFE7A023F021B74AAC
:10F1F000DB05490499500021043A9950D5E7A02233
:10F20000B14BD205D1588023DB031C00A1208C43D5
:10F210000B40AE49C00014505350AD4B002219684A
:10F22000AC48FDF753F8C0E7AB4BA1201968E023C9
:10F230005B048B43A0210026F025C905C000A34C28
:10F240000B50A14B0E51CB586D046B408025AD0384
:10F250002B4000D129E10D5003230E5108211370DA
:10F260009B4B00221B689B485943FDF72FF89CE7F6
:10F27000994BA1201968E0235B048B43A021002651
:10F28000F025C905C000914C0B508F4B0E51CB5847
:10F290006D046B408025AD032B4000D100E10D5083
:10F2A00004230E512821DAE7A023A122E021DB0567
:10F2B000D20049048024995000218448A4031950A5
:10F2C0001C50995071E7854D2800FDF781F81123F6
:10F2D0001C1B00D1C9E0002800D0C6E080237E4E70
:10F2E0001B043360012C10D0C8306421604307F048
:10F2F000B5FA774B00221B68434328001900FCF73E
:10F30000E5FFF02332685B041340A0226F49D20569
:10F310005350A1230021DB00D15046E76E4BA121C1
:10F320001A68F0235B049343A022C900D20553500E
:10F330000021664BD15038E7674BA1201968E023C4
:10F340005B048B43A0210027F026C905C0005F4D58
:10F350000B505D4B4F51CB58760473408026B6035B
:10F36000334000D190E00E504F512821022C79D02B
:10F37000147075E7A023A122C021DB05D200490447
:10F38000C024995000215148E40319501C50995051
:10F390000BE7A023A122D021DB05D2004904802461
:10F3A000995000214948E40319501C509950FCE63B
:10F3B000A023F021A122DB054904D20099500021AD
:10F3C000424A9950F1E6E022434B52041B68A121C6
:10F3D0009A43A023C900DB0580245A5000223B48F1
:10F3E000A4031A501C505A50DFE63B4BA120196869
:10F3F000E0235B048B43A0210026F025C905C00053
:10F40000324C0B50304B0E51CB586D046B40802565
:10F41000AD032B4041D00D500E51052313702C4BE2
:10F42000002219682B484900FCF750FFBDE62A4B23
:10F43000A1201968E0235B048B43A0210026F0255E
:10F44000C905C000214C0B501F4B0E51CB586D0409
:10F450006B408025AD032B402CD00D500E51062360
:10F460001370DAE616391470FAE6F0231A4A5B04D0
:10F470001168A1200B40A021C000C9050B5000233A
:10F4800012480B50136090E64E510B500421022C91
:10F4900000D06DE702391470E2E60D510B50BCE765
:10F4A0000D510B5004210423D9E60D510B500221BC
:10F4B0000323D4E60D510B50D1E7C046502900205C
:10F4C000802900200C6C0200040500000C050000DF
:10F4D00058290020282900204C29002084290020B8
:10F4E00010B50378112B06D0122B12D0132B12D08B
:10F4F000142B12D010BD00235A00D318084AD31879
:10F5000058780028F6D0074B1B68002BF2D098479C
:10F51000F0E70123F0E70223EEE7113BECE7C046FA
:10F52000A42900205C290020002303280DD8A22351
:10F53000A022DB00D205D258054B8000C058012321
:10F54000834093435A1E9341DBB200200B707047F7
:10F55000D06C020070B5DB4B04001B680020DB0799
:10F5600000D470BD172CFCD8D74AA300D3589F46AF
:10F57000A022D64BD205D1588023DB031C00A1204A
:10F580008C430B40D249C00014505350D14B002241
:10F590001B68D1489900C918FCF798FEE1E7A02242
:10F5A000CA4BD205D1588023DB031C00A1208C4319
:10F5B0000B40C749C00014505350C64B0022196875
:10F5C000C548FCF783FECCE7C44D2800FCF700FFDC
:10F5D00011231C1B00D14CE1002800D049E18023FD
:10F5E000BF4E1B043360012C10D0C830642160432F
:10F5F00007F034F9B74B00221B6843432800190079
:10F60000FCF764FEF02332685B041340A022B0498B
:10F61000D2055350A1230021DB00D150A1E7A02344
:10F62000F021A122DB054904D20099500021A84A0B
:10F63000002099501222AB4B1A7092E7A023A1220E
:10F64000E021DB05D2004904802499500021A04824
:10F65000A40319501C5099501322A24B00201A7079
:10F660007FE7A023F0219A4ADB0549049950002145
:10F67000043A99509B4B00201C7072E7984BA121D3
:10F680001A68F0235B049343A022C900D2055350AB
:10F6900000238F4900205350924A137061E7904B2A
:10F6A000A1211A68E0235B049343A0220026F025E1
:10F6B000D205C90086485350844B1650D3586D0468
:10F6C0006B408025AD032B4000D1E9E0555016502A
:10F6D0002821022C00D1F2E0824B1C707D4B0022CD
:10F6E0001B687D485943FCF7F1FD3AE7A023F02160
:10F6F000774ADB05490499500021043A99500C22BD
:10F70000784B00201A702CE7A023A122D021DB0522
:10F71000D20049048024995000216D48E403195017
:10F720001C50995014226F4B00201A7019E76C4B33
:10F73000A1211A68E0235B049343A0220025F02452
:10F74000D205C90062485350604B1550D358640429
:10F7500063408024A403234000D199E05450155005
:10F76000082103221AE05E4BA1211A68E0235B0402
:10F770009343A0220025F024D205C90054485350D9
:10F78000524B1550D358640463408024A403234093
:10F7900000D18DE05450282115500422514B1A708D
:10F7A0009CE7E0224E4B52041B68A1219A43A02300
:10F7B000C900DB0580245A5000224548A4031A5092
:10F7C0001C505A50474B07321A700020C9E6A0233C
:10F7D000A122C021DB05D2004904C0249950002198
:10F7E0003B48E40319501C50995015223D4B002012
:10F7F0001A70B6E63A4BA1211A68E0235B049343E2
:10F80000A0220025F024D205C900314853502F4BC7
:10F810001550D358640463408024A40323403CD093
:10F820005450155005222F4B2B481A70294B00229B
:10F8300019684900FCF74AFD93E6294BA1211A6893
:10F84000E0235B049343A0220025F024D205C900E5
:10F850001F4853501D4B1550D358640463408024F7
:10F86000A403234028D05450155006221D4B1A7073
:10F87000A3E6F0231A4A5B041168A1240B40A021DF
:10F88000E400C9050B510023114C0B51136068E6CD
:10F89000145053500221032280E714505350C1E703
:10F8A000155053500421022C00D015E7023913E7FC
:10F8B00014505350042170E714505350D5E71639B3
:10F8C0000AE7C046502900206C6C020004050000C5
:10F8D0000C05000058290020282900208429002038
:10F8E0004C29002080290020234B10B51960234BA0
:10F8F00004001860224B1A60830712D50D22214B99
:10F9000021481A700132DA7001329A7101325A724A
:10F910004A080421FCF778F8002820D0E30703D434
:10F9200010BD0020E3070DD5A023F022A121002463
:10F93000DB055204C9005A5014495C500C315A502E
:10F940000028EDD1124A00211248FCF7A5FC00283E
:10F95000E6D1114A01211148FCF79EFCE0E7FCF7D3
:10F96000ADF80028DAD10E4A00210E48FCF794FCCD
:10F97000E307D9D4E4E7C0465829002050290020E5
:10F980005C290020A4290020E46C02000C05000082
:10F99000A1F10100E06C0200ADF00100046D020075
:10F9A000E1F40100CC6C020003000720032B00D916
:10F9B0007047012A13D0012917D0002908D0022945
:10F9C00019D15800C3180D48C3185A700020EFE72A
:10F9D0005800C3180948C3189A700020E8E70022AD
:10F9E0000129E8D11A000D32D2B258000349C318D8
:10F9F0005A540020DCE70720DAE7C046A42900209B
:10FA0000E0231D4ADB00D2581C4B13400022C107E3
:10FA100001D5C02292021343E0221749D2008B5035
:10FA2000174B9A58154B13400022810701D5C0226D
:10FA300092021343E0221249D2008B50114B9A5884
:10FA40000E4B13400022410701D5C02292021343FE
:10FA5000E0220C49D2008B500B4B9A58074B1340B5
:10FA60000022010701D5C02292021343E022064979
:10FA7000D20000208B50704744000050FFFFFCFF75
:10FA8000480000504C0000505000005010B50320BA
:10FA9000FFF7B6FF0023002802D0031E062B01D07B
:10FAA000180010BD0023FBE710B50388102B08D009
:10FAB000112B05D1294A1368013B1360002B07D095
:10FAC00010BD264C2368002B11D001332360F7E7CB
:10FAD000012202210020FFF767FF00282BD0072812
:10FAE00029D01F4B1B68002BEAD09847E8E701227A
:10FAF00000210020FFF758FF002808D0072806D073
:10FB0000174B1B68002B00D098472368DDE70722BE
:10FB100002210120FFF748FF002801D00728EFD17C
:10FB2000042202210020FFF73FFF0028EDD0072824
:10FB3000E6D12368C9E7072202210120FFF734FF3D
:10FB4000002801D00728CCD10A2200210020FFF78D
:10FB50002BFF0028B4D00728C3D1B1E7B429002077
:10FB6000B029002010B5234B82B00C1E186018D0AD
:10FB70006B460020991DFFF7D7FC002801D002B08A
:10FB800010BD6B460130D91DFFF7CEFC0028F6D121
:10FB90006B46DB79002B26D16B469B79002B25D158
:10FBA0002370154B1B68002B01D00020E7E70122D2
:10FBB00002210020FFF7F8FE002801D00728DED13F
:10FBC000072202210120FFF7EFFE002801D00728BD
:10FBD000D5D10A2200210020FFF7E6FE0028E4D05C
:10FBE0000728CCD1E1E702232370DAE70B23237047
:10FBF000D7E7C046B0290020B429002071DF704744
:10FC000072DF704779DF70477DDF704765DF7047CF
:10FC1000F0B55F4656464D464446F0B485B09A4628
:10FC20000EAB80CB06001B8800919B463B8801935E
:10FC30000388002B64D000230E97994602ABDD1C8D
:10FC40000E9B00241700984603E033880134A3423A
:10FC50002CDD7368A1009C460422614403A806F0D1
:10FC600098FE0022290003A8FFF7D0FF002829D121
:10FC70002B78BB42E9D14B46002B2AD043461A8849
:10FC8000D3195B453EDC5244290003A8FFF7BEFFB1
:10FC9000002817D143462A781B880134D3184246DE
:10FCA0001380012399463388A342D2DC4B46474652
:10FCB000002B25D03B88019A013B9B1A9BB20C205C
:10FCC000FF2B1AD905B03CBC90469946A246AB46DC
:10FCD000F0BD43461B88DA1902325A4512DC42460F
:10FCE000013369469BB2138052460978D15443468A
:10FCF0001A88013292B21A80C5E711005246535455
:10FD00000020DFE70C20DDE7F0B55F4656464D46A4
:10FD100044460023F0B417881380436B87B0060075
:10FD20000D001400002B00D19BE1022F00D890E1C0
:10FD30001A7802230B701121238801339BB2238090
:10FD4000E954238801339BB22380EA54238801338A
:10FD50009BB22380326B002A00D170E0190012316F
:10FD6000B94200D975E11121E954238801390133E1
:10FD70009BB22380E954238801339BB22380D17B3B
:10FD8000E954238801339BB22380917BE954238873
:10FD900001339BB22380517BE954238801339BB20A
:10FDA0002380117BE954238801339BB22380D17ACD
:10FDB000E954238801339BB22380917AE954238844
:10FDC00001339BB22380517AE954238801339BB2DB
:10FDD0002380117AE954238801339BB22380D1799F
:10FDE000E954238801339BB223809179E954238815
:10FDF00001339BB223805179E954238801339BB2AC
:10FE000023801179E954238801339BB22380D17870
:10FE1000E954238801339BB223809178E9542388E5
:10FE200001339BB223805178E954238801339BB27C
:10FE300023801278EA54238801339BB223802E2238
:10FE4000B25C002A00D00EE12D22B25C002A00D064
:10FE50002BE1B278002A00D054E1F278002A14D0C5
:10FE6000D91CB94200D9F4E00221E95423880139B0
:10FE700001339BB22380E954238801339BB2238052
:10FE8000EA54238801339BB223807268002A14D07D
:10FE9000D91CB94200D9DCE002211278E954238848
:10FEA000083101339BB22380E954238801339BB28C
:10FEB0002380EA542388013323803389002B00D028
:10FEC0009CE1338A002B00D0B2E1338B002B00D0B1
:10FED000C8E1336A002B4BD022880C20911D934639
:10FEE000B94200D9B6E0198805388A46052900D8F4
:10FEF000B0E0BC496A468C46D4446146D181D18980
:10FF00008C46B94988468C4500D8A3E059888C4670
:10FF1000052900D89EE0B3496144D18189B24145A9
:10FF200000D897E0B1498A4504D08C4502D0E2451B
:10FF300000D98FE005215A46A95422880D3101329B
:10FF400092B22280A9542288013292B2228019886A
:10FF5000AA181170090A51702288023292B22280C6
:10FF60005988AB181970090A597023880233238005
:10FF7000736A9846002B30D09A882188131D5B182D
:10FF80000C20BB4266D8931CFE2B63D803326A5404
:10FF9000FF22238801339BB22380EA544246238800
:10FFA00001339BB223801288EB181A70120A5A7020
:10FFB0004246238802339BB223809288002A0CD0C9
:10FFC000414689680538002944D0E81806F0E1FC6C
:10FFD000434622889B88D31823802C23F35C002B74
:10FFE00000D0B0E033780020002B33D032880720D7
:10FFF000012A2FD02288901CB8422AD8012B04D184
:020000022000DC
:10000000737802339B189F4223D3023FBA1A04AF7E
:1000100093B22818390098463B80FFF7F5FD002879
:1000200018D13378022B00D142E1012B00D1DFE05F
:1000300043460821FE2B0CD822885E1CAE54228831
:10004000013292B22280A954228801329B18238067
:1000500000E00C2007B03CBC90469946A246AB4657
:10006000F0BD002376E6D91C0C20B942F2D802215B
:10007000E9542388103001339BB22380E85423884D
:1000800001339BB22380022A00D10CE100D805E1A4
:10009000032A00D10AE1042A00D0FDE00322EA5439
:1000A000238801339BB22380CEE609330C20BB4268
:1000B000D0D804A8FFF7A2FD0028CBD108222388BE
:1000C0000921EA542388133201339BB22380EA5476
:1000D00002AB9C462088153A013080B220806144F2
:1000E000281806F056FC238802AA0633127A9BB21F
:1000F0002380002A00D00122EA54238801339BB2D6
:100100002380A6E604330C20BB42A3D804A8FFF743
:1001100079FD00289ED103222388EA5423881632D1
:1001200001339BB22380EA54238802AA01339BB295
:1001300012892380EB181A70120A5A70238802332E
:100140009BB2238089E6B36A9846002B00D1A3E0D6
:100150009B880233FE2B00D97BE7002291461632A2
:1001600092461632208893460CE04B46B26A5B00FA
:1001700090464B449B00984443469B880233FE2B99
:1001800000D966E7524601332B54238801339BB2D2
:100190002380EA544246238801339BB2238012888D
:1001A000EB181A70120A5A7043462088023080B247
:1001B00020809A88002A0BD0996800296CD02818D2
:1001C00006F0E7FB434620889B88C01880B2208059
:1001D0004B460133DBB299465B46F35C4B45C4D8D2
:1001E00000E7C0467FF3FFFF7DF30000FFFF000044
:1001F0007378984500D31CE743461AE708239846CE
:10020000B044019700942B00022202214046FFF7E0
:10021000FFFC002800D01DE7019700942B0010225E
:1002200006214046FFF7F4FC002800D012E748E61C
:1002300010239846B044019700942B00022203211A
:100240004046FFF7E5FC002800D003E70197009443
:100250002B00102207214046FFF7DAFC002800D0CF
:10026000F8E632E618239846B044019700942B0034
:10027000022214214046FFF7CBFC002800D0E9E61B
:10028000019700942B00102215214046FFF7C0FC77
:10029000002800D0DEE61CE60720DBE6012AFBD1C1
:1002A0000022EA54FCE60122EA54F9E6E954F7E6B2
:1002B0003B880921984500D3BCE64346B9E6C046D1
:1002C00030B593B01F236A460C009380D38000287A
:1002D00022D0C3785B071CD501AA02A9FFF714FD41
:1002E00002AD002816D1002C19D0E378002B10D1D4
:1002F0006B460AA99A1D2000FFF706FD002809D1C8
:100300006B469B790AAA694628000979FFF778FCB1
:1003100000E0072013B030BD90800025E3E76B4676
:100320000022DC800023EEE773DF704774DF704744
:1003300070B5A14E86B0072200213000FAF792FF77
:100340009E4C6378002B42D1A3789D4D002B00D0AA
:100350009CE02B78012B00D1BEE0022B41D1A37889
:10036000002B17D07378002B00D022E1B378002B3C
:1003700000D01EE1F378002B00D01AE13379002B76
:1003800000D016E17379002B00D012E1B379002B75
:1003900000D00EE103232B70237B002B00D0EBE079
:1003A00004232B70237E002B00D1FAE0854B1A68C2
:1003B000002A28D02378002B25D0834B1B78002BD4
:1003C00021D10121814B0720197090471EE07C4DFF
:1003D0002B78012B5DD0A278002A00D1DDE0022B22
:1003E00057D0227B002A01D1032BD9D0227E002AAC
:1003F00002D1042B00D1D4E0724A1268002A02D044
:10040000033B012BD6D90022704B1A701822002111
:100410006846FAF727FF00236A46137013722A789A
:1004200001930393022A00D178E03DD9032A00D139
:1004300081E0042A22D16B46A28B1A82228C5A8236
:10044000634B1A79002A00D198E02278002A00D163
:1004500098E05D4A1278002A00D093E06946039341
:10046000042302325B480A720021C370FFF728FFA1
:1004700000282FD10622584B1A702A78002A1CD146
:10048000504B1B68002B21D1002023E02B78012B3F
:10049000A5D14C4A1268002A00D187E001214F4BB8
:1004A00008201970904754E7012AE7D169464B822A
:1004B0000B82494B01960A701A706846FFF734FFA9
:1004C000002807D13F4B1B68002BDDD0424A107833
:1004D0009847002006B070BD6278002A17D0727865
:1004E000002A00D082E7B278002A00D07EE7F278B6
:1004F000002A00D07AE73279002A00D076E77279B4
:10050000002A00D072E7B279002A00D06EE70223F9
:100510002B70A378002B00D024E73BE7012369462A
:100520000B706B46218901965982694663680B827C
:10053000294B1A70C1E76B46A28A5A82228A1A8214
:10054000234B1A79002A21D02278002A21D01E4A72
:100550001278002A1DD169460393042302321D48F4
:100560000A720021C370FFF7ABFE0028B2D105224A
:10057000194B1A702A7881E703233DE71A7B002A7A
:1005800000D062E70422144B1A7096E71A7B002A07
:10059000DAD10322104B1A708FE7022B00D020E72C
:1005A000F8E600230C4A2B7013702CE70B490A70F5
:1005B000D0E6022320E7C046282A0020302A002067
:1005C000C82A0020FC290020232A0020A72A002076
:1005D000782A0020B8290020DC2A0020C92A00201F
:1005E000F8B504000E000E20002C00D17BE0002A9C
:1005F00079D000203C4908703C490B6006993C4B7F
:1006000019603C490B0023CA23C323CA23C323CA4E
:1006100023C3072200213848FAF724FE374B384A13
:10062000384D1A60384A00219A6028003822FAF7BB
:1006300019FE237822002B70A3781032AB70E37878
:10064000EB7063786B702B00103303CA03C32B006D
:10065000103A083303CA03C32B000832183303CA05
:1006600003C3636A002B11D0284B294F6B62616A68
:100670009F600A881A8088889880002806D0002306
:100680008A68D25CFA5401338342F9D1A36A002B01
:1006900014D0204B204FAB62A06A9F608188998064
:1006A00002881A800023002905D08268D25CFA549F
:1006B00001338B42F9D12C23E25CEA54236A002BEC
:1006C00006D0164B2B62226A5188598012881A80F4
:1006D0006368002B03D0124B6B6063686B60310062
:1006E0002800FFF7EDFDF8BDC82A0020FC290020F6
:1006F000242A0020302A0020282A0020782A0020DE
:10070000542A0020B8290020A82A0020F02900201F
:10071000042A0020D02A0020882A0020CC2A002089
:10072000742A00200F4B00B51870002383B001A875
:100730000193FEF7A7FC08280DD0002805D1019BE6
:10074000002B02D1FFF7F4FD03E001220020064B4D
:100750001A7003B000BD01A8FDF79AF90028EED089
:10076000F0E7C046C82A0020002A002000B5038810
:1007700083B0112B21D01B2B0AD0102B01D003B03A
:1007800000BD837D012BFAD18288294B1A80F6E7C0
:10079000027A002AF3D127490B78022B45D040D9A1
:1007A000032B2AD0042BEAD1234B1A70234B1B684E
:1007B000002BE4D000209847E1E70023204A137083
:1007C0001B4A818812889142D9D10121194A01A876
:1007D00011700193FEF756FC082818D000281CD190
:1007E000019B002B19D1FFF7A3FD0028C7D0154BA3
:1007F0001B68002BC3D09847C1E70F480370042340
:1008000001A80B700192FEF73DFC0828E6D101A873
:10081000FDF73EF90028E3D0E5E701220A4B1A7004
:10082000ADE7012BABD10223EAE70323E8E7C0469B
:10083000E8200020C82A0020DC2A0020FC29002013
:10084000232A0020242A0020002A002010B5023884
:1008500082B0012803D8134C2378002B01D102B0B9
:1008600010BD002301A823700193FEF70BFC08289C
:1008700011D000280CD1019B002B09D1FFF758FDA6
:100880000028ECD0084B1B68002BE8D09847E6E71F
:1008900001232370E3E701A8FDF7FAF80028EAD066
:1008A000ECE7C046002A0020242A002010B51E4B89
:1008B00082B01B78002B29D01C4C2378002B25D12B
:1008C0001B4B1B78002B03D0FFF730FD00281ED1F7
:1008D00001231848237000210533C370FFF7F0FC93
:1008E000002814D1019001A8FEF7CCFB082815D0F0
:1008F00000280ED1019B002B0BD1FFF719FD00281A
:1009000004D00D4B1B68002B00D09847002002B08C
:1009100010BD0122094B00201A70F8E701A8FDF76D
:10092000B7F80028E6D0E8E7302A0020232A002084
:10093000C82A0020B8290020242A0020002A0020EC
:1009400075DF704776DF70477ADF70477BDF70476F
:1009500010B5184B82B01888174B984214D0174A1C
:10096000174C13780133DBB21370217B99420DD2FF
:1009700000231370237C002B12D16369002B03D05A
:10098000002201A80270984702B010BD0D49FFF780
:10099000D7FF0028F8D0A369002BF5D09847F3E7DC
:1009A0003B21FFF7CFFF0028E7D0A369002BE4D05D
:1009B0009847E2E7282B0020FFFF0000E82A0020EC
:1009C000EC2A00202C2B002030B51B4B1B4A5B88E7
:1009D000118883B099420FD852889A420CD3184B91
:1009E0005B69002B03D0012201A802709847154CC7
:1009F0000023237003B030BD124C2378002B08D0A5
:100A00000F4B5B69002BF3D0002201A802709847BE
:100A1000EEE70D4B0A4D1B78002B0BD0A968002286
:100A20000A48FBF753FC0028E2D0AB69002BDFD06B
:100A30009847DDE76968F2E7E02A00202C2B0020C8
:100A4000EC2A0020DD2A0020E82A0020082B0020C4
:100A5000164902000B0070B532CA32C332CA32C323
:100A600012681A600022124B01681A70002916D011
:100A7000104C0832200005F08CFF2000FFF764FFC7
:100A800000280BD101220C4B52421A8000220B4B42
:100A900000211A700A480B4AFBF7FEFB70BD05489F
:100AA000FFF754FF0028EDD0F8E7C046EC2A0020FD
:100AB000DD2A00202C2B0020282B0020E82A0020F3
:100AC000086D02005109020010B50388112B31D0C6
