:020000021000EC
:10C00000008000206DFE0100B5FE0100B7FE0100BA
:10C010000000000000000000000000000000000020
:10C02000000000000000000000000000B9FE010058
:10C030000000000000000000BBFE0100BDFE01008A
:10C04000BFFE0100BFFE0100F9D80100BFFE0100E4
:10C05000BFFE01000000000069D20100BFFE010028
:10C06000BFFE0100BFFE0100BFFE0100BFFE0100D8
:10C07000BFFE0100BFFE0100BFFE0100BFFE0100C8
:10C08000BFFE0100D5C40100BFFE0100BFFE0100DC
:10C09000B5C50100BFFE010091F90100BFFE01001E
:10C0A000BFFE0100BFFE0100000000000000000014
:10C0B0000000000000000000000000000000000080
:10C0C000054B0648033310B51B1A062B03D9044B46
:10C0D000002B00D0984710BD782800207828002039
:10C0E000000000000648074910B5091A8910CB0F57
:10C0F0005918491003D0044B002B00D0984710BDAD
:10C1000078280020782800200000000010B5074C97
:10C110002378002B09D1FFF7D3FF054B002B02D06A
:10C12000044800E000BF0123237010BD78280020E0
:10C13000000000002C110200094B10B5002B03D0A9
:10C140000849094800E000BF08480368002B02D1F5
:10C15000FFF7C8FF10BD064B002BF9D09847F7E753
:10C16000000000007C2800202C110200782800200C
:10C1700000000000164B002B00D1144B9D464022BE
:10C1800092029A1A924600218B460F461348144A8F
:10C19000121A03F0DAFE0F4B002B00D098470E4B1B
:10C1A000002B00D098470020002104000D000D480E
:10C1B000002802D00C4800E000BF03F097FE2000EA
:10C1C000290003F021FD03F07BFEC04600000800BB
:10C1D00000800020000000000000000078280020FF
:10C1E000C03000200000000000000000F0B54E4606
:10C1F00057464546E0B4214B1978994600292AD084
:10C200001F4B002598461F4B1F4F01269A4603E0FF
:10C210000135EDB28D421ED243461B6832009C466A
:10C22000EC00644420783B6882401342F0D0934392
:10C230003B6001F00FF833002278514693400968C3
:10C240000B40010091408B420AD04B4601351978D2
:10C25000EDB28D42E0D31CBC90469946A246F0BD9B
:10C260006368002BF1D0617801394C424C41211AAE
:10C270004C424C411000E1B29847E6E79C28002070
:10C2800098280020C0280020C4280020F8B5124DAE
:10C290000700280000F0FEFC002807D10124BC4064
:10C2A0000E4E3368234202D0A3433360F8BD3800FA
:10C2B00000F0D0FF0A4A136800280BD02343136014
:10C2C000336800221C43074B28001968346000F0D3
:10C2D0005DFCEBE7A343F2E7A0280020C428002080
:10C2E000C028002094280020F0B54F464646C0B430
:10C2F0001400070083B00E000720042A04D803B0FE
:10C300000CBC90469946F0BD00F096FE00282FD058
:10C310001A4B1B4A1F601B4B751E1E701A4BEDB249
:10C320001C6000231360194A1360002E1AD0184BAA
:10C3300001AC994603230026984600E01D004246C2
:10C34000EB00FB182270A670E6709A78187862707D
:10C3500021004A4600F07AFE0028D0D16B1EDBB2E5
:10C36000002DEBD10B4A00210B4800F0F5FBC6E78E
:10C3700000F02EFE0028CBD0C1E7C0469828002050
:10C38000C02800209C28002094280020C4280020D9
:10C390008DC20100EDC10100140F020070B5094DFE
:10C3A0002B78002B0BD00024074E3268E300985CFA
:10C3B000012100F0FBFE2B780134A342F5D80020C8
:10C3C00070BDC0469C28002098280020BFF34F8FE6
:10C3D000024A034BDA60BFF34F8FFEE70400FA0511
:10C3E00000ED00E010B500290DD00923002A01D18D
:10C3F000180010BD541E2240FAD182600160848072
:10C40000C2600023F4E70E23F2E7C046030010B534
:10C410009C888068DA68121A0420944200D210BD09
:10C42000DA68002014401A681155DA680132DA60BF
:10C43000F5E7C04610B58468C26803000520944241
:10C4400000D110BD98689A8802401868825C00206C
:10C450000A709A6801329A60F3E7C046802180230F
:10C46000184A8902D1508022D221174B52028900EA
:10C470005A5040395A5001222F205A600138C04684
:10C48000C046C046C046C046C046C046C046C0467C
:10C49000C046C046C046F1D19A6000230B4A2F2007
:10C4A00013600138C046C046C046C046C046C046BC
:10C4B000C046C046C046C046C046C046F1D1044A48
:10C4C0001370704700E100E000100140C828002010
:10C4D000E8280020A021F0B5002347462C4A490057
:10C4E00080B45350043153500431535004315350ED
:10C4F0004C39535004315350264B1B68002B37D016
:10C500002549002652582549254F0C68141B002246
:10C510002402240A904602E0002D1AD02B001A684B
:10C52000A24216D8A41AB6181A7CDD69002AF3D0E4
:10C53000424699691A745A693B68002B1BD0100057
:10C5400098470028E8D000220021FFF73FFF002D88
:10C55000E4D1144B14491A780B789A420ED0134A3E
:10C560009B009E5080218023114A49035B00D150DB
:10C5700004BC9046F0BD08009047CDE70132D3B22D
:10C58000022B01D00B70EAE700230B70E7E7C046EF
:10C5900000100140CC28002004050000C82800201D
:10C5A000D0280020DC280020DD280020E028002002
:10C5B00000E100E0F0B55F4656464D464446F0B413
:10C5C000C24BC34A1B68C3498BB0059309781378E3
:10C5D000994200D154E10133DBB2022B00D1002398
:10C5E0001370BD4A9B009B58B84A9A46059B53441A
:10C5F0001B021B0A136001230193B84B00241B6824
:10C600009B46B74B5A461B789146190088460393C0
:10C61000B44B47461B68013F0493AC4B1B6808931F
:10C62000B14B1B7807930023099306931E00FBB2BE
:10C630009846FF2B32D04346D800049B9C461300FB
:10C6400060440178457800961A00A9421FD04668D8
:10C650004A00B446521886780131D200C9B2624409
:10C660008E4200D1EBE01678022E00D1C5E0032EF9
:10C67000EAD1002BE8D01C74DB69002BFBD101331D
:10C6800045780093002399461A00A942DFD1474616
:10C69000013FFBB2009E9846FF2BCCD10292002EA8
:10C6A00000D0F1E0069B002B02D0884B089A1A605C
:10C6B000099B002B03D06A468B4B127F1A70019B9B
:10C6C000002B00D02AE15B46029A00259B1A5A1ED5
:10C6D0009341DBB205937D4B00271B6802999C4672
:10C6E0007E4B1B689B46804B1B780693002301936F
:10C6F0007E4B994601230093039B013BDBB20393DE
:10C70000FF2B00D1F6E0049ADB0092460E009A441B
:10C71000002D28D06A68A9682C00ED696346D31AF9
:10C720001B021B0A4B4552D86A4612785B182360DD
:10C730006760A7602274E761002E58D0316830002E
:10C74000994205D3B6E01168994200D3A0E01000E9
:10C75000C2695B1A002AF6D1E26132002360C4612B
:10C760001600002DD6D153461A785B7831009342DB
:10C77000C2D0514649685300884651469B18013241
:10C78000D2B20A708978DB004344914200D19AE02A
:10C79000197832000129E3D15C68227C9046414639
:10C7A00032000029DCD19A686260D968A1601869FA
:10C7B000E0605B69A361069B002BAFD0434600227B
:10C7C00063606346D31A1B021B0A4B45ACD9634610
:10C7D0009A1A1202120A8A4261D28B1A6A46127897
:10C7E00023606760A7602274E761002EA6D1220053
:10C7F0000123A34601931600B3E75668002B30D0FF
:10C800009E421ED0009A1F00944602E0964206D037
:10C810001700FA69002AF9D16246009214E76546CA
:10C820000095BA420FD01568D269FA61002A16D075
:10C8300013689C466544156045784B4604E7002123
:10C8400011E71A001F00DE69002E0CD001250095AB
:10C850001568D269B1463300FA61002AE8D14578FB
:10C86000F2E60023F0E60125214B9D60099507952E
:10C870000695002500230895013599460095D2E7D5
:10C8800000239A460193B8E64A46144B1A6009E71A
:10C89000C91A1160E26123603200C46160E76B462F
:10C8A0001B7827606760A7602374E761002E9ED025
:10C8B00000233168CB1A336022000123E661A346CE
:10C8C000019316004DE75246157061E7C828002015
:10C8D000DC280020DD280020E0280020CC280020D3
:10C8E000D4280020D8280020DE280020FEFF7F006A
:10C8F00000100140019B002B00D09DE0029B99425B
:10C9000036D1059B002B33D10023534A13700BB053
:10C910003CBC90469946A246AB46F0BD4F4B002426
:10C9200018680025029B00210026574615E01A686A
:10C93000BA4200D984E0D868BF1A89181E60DC6941
:10C94000002807D0DD611D00059A98605218120278
:10C95000120A5A6023002000019C002BE7D1002C12
:10C9600001D03E4B18600023029301330593B2E6D9
:10C97000002900D15DE00B6839489846394B3A4DA3
:10C98000C4583A4B2E781B68E11A0902090A033190
:10C99000002E2DD042468A4200D20A00A820D2188A
:10C9A00012022F49130AC0002E4D0B504A591B1B6F
:10C9B000121B1202120A1B0203321B0A9A42A3D94B
:10C9C0004B590B502F200138C046C046C046C046C8
:10C9D000C046C046C046C046C046C046C046C04627
:10C9E000F1D180218023224A89025B00D1508BE75C
:10C9F0008026D1277602BF00C651403FC651C022D3
:10CA000080271B4EBF025200B750376001260660D8
:10CA10002F200138C046C046C046C046C046C0466A
:10CA2000C046C046C046C046C046C046F1D12E7082
:10CA3000B0E7FFF713FD67E75A46084B1A605DE75A
:10CA4000BA46002C01D0054908605146521A1A60B6
:10CA50000293012305933EE6DE280020CC28002027
:10CA60000010014004050000E8280020C82800202C
:10CA700000E100E0F8B54F464646C0B40326350055
:10CA800080460F001400994615400720002D03D062
:10CA90000CBC90469946F8BD002A44D0FFF7DEFC56
:10CAA0004A46224B80201A602200214B18321E7009
:10CAB000204B62601C607B00DB19DB00D218E26057
:10CAC000D318C022636125706570A77025726572E6
:10CAD000A77225746574A774C524FF21164B400303
:10CAE0001D60164B52001D70154BA4001D70154B98
:10CAF00098501A598A433F390A431A51A1221860A3
:10CB000040461149D2008850C42080001C580F4A6A
:10CB10002240C024240222431A500D4B0020CA5840
:10CB20000C4B1A60B4E7034B1A60B1E7D028002021
:10CB3000D4280020D8280020CC280020DC28002081
:10CB4000DD28002000E100E000100140FF00FFFFB1
:10CB500004050000C828002010B50B4B1B68002BF3
:10CB60000BD0002A07D0002805D0036808201C7CC1
:10CB7000002C04D010BD0720FCE70820FAE7597408
:10CB80005A610020F6E7C046D8280020F0B5474695
:10CB900080B43A4B1C68002C08D0002806D007232C
:10CBA000042905D8180004BC9046F0BD0823F9E715
:10CBB0004369002BFAD0437C012B48D000239C46CC
:10CBC0002F4B10255B68DB05DB0D26D164196378DC
:10CBD0005F1CFEB2A778B7423DD02778B74238D065
:10CBE0005D00ED186368ED00984645440423002D70
:10CBF000D8D0033B2B706860224B2348C358E960B0
:10CC0000AB60634680212B6180236A611F4A5B0011
:10CC100049036670D1500023C4E7103BDFB27DB2F8
:10CC2000002D1ADB0326AD08184FC035AD00ED59B5
:10CC30003340DF002B00FB409B093340DBB2002573
:10CC4000012BC3D00835032BC0D00835BEE78C4676
:10CC5000B6E70423A6E70026BFE70F230C4D3B40B1
:10CC6000A8460325083B9B089B0043445B682F4074
:10CC7000FF00FB409B092B40E0E7C046D82800207E
:10CC800000ED00E0040500000010014000E100E0BC
:10CC900018ED00E010B52F4A0300116808200029A4
:10CCA0002AD0002B28D05A69002A25D000221A74D5
:10CCB000294A08305268D205D20D1ED109184A7887
:10CCC0008878541CE4B2A04232D00878A0422DD01B
:10CCD000500082184868D200844662440420002A2A
:10CCE0000AD00238107053604C70802380210020DD
:10CCF0001A4A49035B00D15010BD103AD4B260B259
:10CD0000002817DB8008154CC03080000059032430
:10CD10002240D200D04082092240D2B20020012A13
:10CD2000CCD00830032AC9D00830C7E70420E3E795
:10CD30000024CAE70F220A48224084460320083A0A
:10CD400092089200624452680440E400E240920972
:10CD50000240E2E7D828002000ED00E000E100E01A
:10CD600018ED00E070B516000C008D18002A05DDE6
:10CD70002078013400F0DAF8AC42F9D1300070BD0F
:10CD800010B50C00200000F0B7F80528FAD00120FB
:10CD900010BDC04630B5047885B0012C19D0022CE6
:10CDA00034D0002C01D005B030BD254D254C2900D4
:10CDB0002000FFF73FFB002823D0A268E3689A42D7
:10CDC000F1D1032302AA13701F4B10001B68984770
:10CDD000E9E743681D4D19782800FFF717FB002885
:10CDE0001ED1AA68EB689B1A012B21D0AA68EB68B8
:10CDF0009B1AAA889342D6D80121154800F0EEFC70
:10CE0000D1E70121280000F08FFCD6E702AB1C70AF
:10CE1000C36802A8019303930B4B1B689847C2E7B2
:10CE200002AB1C70084B03901B6802A89847DDE713
:10CE300002AB1870044B02A81B689847D6E7C0469F
:10CE4000EC280020F8280020F028002008290020E5
:10CE5000F4280020F0B51E00214B050089B00C001D
:10CE60001A600720002906D08A881E480968FFF743
:10CE7000B9FA002801D009B0F0BDA289A1681A480A
:10CE8000FFF7B0FA0028F6D16A46184B684692CBF5
:10CE900092C292CB92C212CB12C2AB6806932B798C
:10CEA00006775A1E934103756B790E22591E8B41EA
:10CEB0005B421A404275EB780293AB7803932B7870
:10CEC00001936B7800930A4900F0A6FB0028D2D1A9
:10CED00000F0FCFC0121074800F080FCCBE7C046D5
:10CEE000F028002008290020F8280020180F020050
:10CEF00095CD0100F428002070B50A4C0500A1680A
:10CF0000A288E3685B1A9A4204D029002000FFF748
:10CF100091FA70BD0121044800F060FC0028F4D0B3
:10CF20000520F6E708290020F428002010B50400A9
:10CF300006480121047000F0F7FB112800D010BD55
:10CF400021000348FFF762FAF9E7C04618290020DC
:10CF5000F8280020F0B500281EDBFF261A4B37000A
:10CF60009C4603238208C025C0B20340DB00890130
:10CF70009F403140994092006244AD005459BC43F7
:10CF8000214351511F23C02118401E3B83400E4AAC
:10CF9000490053501360F0BDFF250C4A2E00944603
:10CFA00003220F23C0B20240D200890196402940DB
:10CFB00091400340083B9B089B006344DC69B443F9
:10CFC0002143D961DEE7C04600E100E000ED00E06A
:10CFD00070B54425164C0820635D002B00D070BD51
:10CFE0004022FF21013BA3540132A1540132A3543A
:10CFF000236201326362A362E36223636363A36318
:10D00000E363FC390238A35423606360A360E360E8
:10D0100023616361A361E361FFF79CFF8021C1236A
:10D02000044A9B000906D150012300206355D6E72E
:10D030001C290020006000404423034AD05C431EAA
:10D040009841C0B27047C0461C290020F0B5474641
:10D0500080B4534C0825231820331E787F2E03D824
:10D06000280004BC9046F0BDCD78AC46002D36D0EB
:10D070002568013500D188E0042300269846731CFA
:10D080009D006759013733D0B31C984525D99D00C1
:10D09000675901372CD0F31C98451ED99D0067595C
:10D0A000013725D0331D984517D99D0067590137A1
:10D0B0001ED0731D984510D99D006759013717D0B0
:10D0C000B31D984509D99D006759013710D007361F
:10D0D000B04502D9E369013308D00425C0E72569CA
:10D0E000013557D0082304269846C8E707231C2596
:10D0F000625162462718DEB220373E70002A02D104
:10D10000E3183C3318708B78002B15D10300A02551
:10D110004A78C133FF3392009B00ED055A51CB781A
:10D12000002B15D176B2A4193C340B7822789B01E0
:10D1300013432370002593E7A022D2059446E025EF
:10D14000022783006344ED005A59BA435A51E6E777
:10D15000144A0B789446A22176B2B6006644C90000
:10D160007458114A000222407250F82252011040B5
:10D170000500C022180403002800920274581340CE
:10D1800018432043705000256AE7002522601D7077
:10D190000026B8E7042522611D702E002B00AFE7A2
:10D1A0001C29002000600040FFE0FCFFF0B5264D88
:10D1B0002C182034227853B2032B18DDEB183C33A3
:10D1C0001B789B09032B32D0012B39D0C021890257
:10D1D000A023DB059C46E02380006044DB00C458AC
:10D1E0001A4A2240C250C2580A43C250F0BD032A14
:10D1F000FCD81748A227844601269A006244FF0003
:10D20000D0593043D0511A00604600274032920076
:10D2100092B217500029E9D00022A256920052592A
:10D22000002AE3D09E40C1239B00C650DEE7A22324
:10D23000A022DB00D205D258012383401A42C5D177
:10D2400080218902C4E7C0461C290020FFFFFCFFA3
:10D2500000600040A222A0210300D200C905885826
:10D26000D840012318407047F0B557464E46454612
:10D27000E0B4D44A00241368012B00D1C1E0D24BA2
:10D280001A68012A00D1CAE0D04B1A68012A00D1DD
:10D29000D5E0CF4B1A68012A00D1E0E0CD4B002544
:10D2A0001A68012A00D1EBE023070BD0E30700D571
:10D2B000FCE0A30700D508E1630700D513E12307CD
:10D2C00000D5E7E0002C04DB1CBC90469946A24642
:10D2D000F0BD4023C04CE15C4BB201331ED0C9B25B
:10D2E000C02308009843231820331B785BB29B00AF
:10D2F0001E59002E12D0A0230127DB059C46E023F7
:10D30000874082006244DB00D35889099B039B0F4E
:10D310003D4200D10FE1022B00D173E14123E15CDA
:10D320004BB201331ED0C9B2C02308009843231862
:10D3300020331B785BB29B001E59002E12D0A02315
:10D340000127DB059C46E023874082006244DB0026
:10D35000D35889099B039B0F3D4200D1D3E0022B98
:10D3600000D143E14223E15C4BB201331ED0C9B28C
:10D37000C02308009843231820331B785BB29B001E
:10D380001E59002E12D0A0230127DB059C46E02366
:10D39000874082006244DB00D35889099B039B0FBE
:10D3A0003D4200D1F6E0022B00D125E14323E15CB0
:10D3B0004BB2013300D187E7C9B2C02308009843BC
:10D3C000231820331B785BB29B001E59002E00D11E
:10D3D0007AE7A0230124DB059C46E02384408200F9
:10D3E0006244DB00D35889099B039B0F254200D17F
:10D3F000BDE0022B00D067E7032900D108E1B04768
:10D4000062E7C1217548890041580B4200D136E7D7
:10D410006D4B14601A680134012A00D034E7C12230
:10D420006E499200895802220A4200D12CE700215D
:10D430001960664B14431A68012A00D029E7C122FB
:10D4400066499200895804220A4200D121E700214E
:10D4500019605F4B14431A68012A00D01EE7C122ED
:10D460005E499200895808220A4200D116E700213D
:10D470001960584B14431A680025012A00D013E79D
:10D480001D6080231B061C43A022A223D205DB00C3
:10D49000D55809E7514A524BD058D1584E4B8903C1
:10D4A000C004890FC00EDB6898470BE7A2234B4AE4
:10D4B000DB00D058D158484B8903C0041B68890F42
:10D4C000C00E9847A30700D4F6E6464B434AD0580F
:10D4D000D158414B8903C0045B68890FC00E98473F
:10D4E000630700D4EBE6A3233C4ADB00D058D158B5
:10D4F000394B8903C0049B68890FC00E98472307E6
:10D5000000D4DFE6C6E7032B00D02BE7032910D1B8
:10D5100080239B029C46E023DB009946324FD35880
:10D520001F404B46D750D75863463B431F004B46DE
:10D53000D750B04716E7032B00D0EFE6032914D1EC
:10D5400080239B029A46E023DB00D7589946B846D1
:10D55000254FBC46474663461F403B004F46D351CC
:10D56000D35957461F434B46D750B047D6E6032BF7
:10D5700000D0A9E6032900D041E78027BF02E023BD
:10D58000DB00D458184D2540D550D4583C43D450D6
:10D59000B04799E6032B00D008E7032910D1802378
:10D5A0009B029C46E023DB0099460F4FD3581F4057
:10D5B0004B46D750D75863463B431F004B46D75086
:10D5C000B047F3E60061004004610040086100409C
:10D5D0000C6100407C6100401C290020006000407C
:10D5E0001C05000014050000FFFFFCFF0329A0D16B
:10D5F000C0239B029C468EE70329E1D1C0239B02F6
:10D600009C46CFE70329B0D1C0239B029A469AE7F4
:10D61000C027BF02B3E7C046F0B557464E46454661
:10D62000E0B4394C0300A27D0820002A04D01CBCC1
:10D6300090469946A246F0BD002B62D01A68A02001
:10D640000325C132FF32C005920015500122AA46BF
:10D650001D68AA40A125ED004251A94600255A683F
:10D66000AC46C132FF32920015509E69274A284DC0
:10D6700056515D7DA84646461D7D3543254E955144
:10D680005D681E68A846244D56514646234D5651A6
:10D690001D7D012D1AD19E683700E0267600B04628
:10D6A0004744BE0067463750C137FF37B846574634
:10D6B000DE684644B6003750DE68B5404E468551B8
:10D6C000D8689D689051A220C00015501A69616009
:10D6D0002260002908D0197FC12311480B4A9B0002
:10D6E000D0500220FFF736FCA0230421074ADB00BC
:10D6F000D15000230122E374A374A2756375002046
:10D7000095E70922074B9AE7642900200020004092
:10D71000240500006C0500000C0500001405000045
:10D7200080000200380F0200F0B5264A0400937C06
:10D730001120002B00D0F0BD01259174224823490F
:10D74000138294600B6005600B60138AE05C138A9F
:10D750001F4C01339BB213821E4BE05050680028CF
:10D7600001D00020E7E7002726001D000130FF3030
:10D77000947C138A9C4203D812E0138A834202D01D
:10D780000B68002BF9D0138A8342F2D00F60138A02
:10D790009468E45C138A01339BB213827451E7E707
:10D7A0008023118A5B0099420AD008490B68002B3C
:10D7B000FCD001210020084B196000239374BAE7C4
:10D7C0000F20FAE764290020082000401C210040B7
:10D7D000002000401C0500000C200040F0B547462A
:10D7E00080B4344B1122DC7C002C03D0100004BC2C
:10D7F0009046F0BD5A7DD974D8601C75002A0AD0B5
:10D800005A68002A0FD08121C1232B4A89009B002E
:10D81000D1500022EAE729490A6029490A6001211A
:10D82000254A1160ECE7244A244E9446A322D200F4
:10D830009046234C234D316820682A6800280BD17C
:10D84000002A28D10029F6D000221E490A601B496F
:10D850000A60DA740332C9E70029F5D1002A1CD125
:10D86000474660462260197DC059DF687854197DAB
:10D87000D87C0131C9B21975197D8842DBD81149AC
:10D880000A600E490A60DA745B7D002B0DD001211D
:10D89000094B1960AAE70029D6D1002209490A607C
:10D8A00006490A60DA740F32A0E70121064B1960BD
:10D8B0009CE7C0466429002000200040242100404D
:10D8C000082100404421004004200040064A537DC6
:10D8D000002B07D105490B6005490B600549013351
:10D8E0000B6053757047C046642900202421004016
:10D8F0000821004000200040C12210B5514B920089
:10D900009A5884B092054CD54F4A1168002948D0E6
:10D91000002111608121C2228900920099504B4B55
:10D920005A7D002A02D10121494A1160022269462A
:10D930000A7090214348C9004258425069460392F8
:10D94000DA7C68460A72DA68196801920022DA7491
:10D950005B6898473F4A1368002B10D03B4B188AEE
:10D96000997C814251D9002111601A8A9968895C99
:10D970001A8A013292B21A82374B324AD150374B4F
:10D980001A68002A0BD000221A60304B5A7D002AF8
:10D9900002D001212B4A1160DA7C002A44D104B064
:10D9A00010BDC123274A9B00D3585B07D2D52C4B0F
:10D9B00019680029CED00021A3241960234BE4006C
:10D9C000187DD96812590A541A7DD87C0132D2B216
:10D9D0001A751A7D9042BDD15A7D002A02D10120CC
:10D9E0001B4A10608124C2221648A4009200845071
:10D9F0006C461A7D01202272002220700191DA7497
:10DA0000196868465B689847A4E700201060002901
:10DA1000B5D06A46107011729A68987419680192AC
:10DA20005B6868469847AAE768461A7D012102723A
:10DA3000DA680170019200221968DA745B6898470D
:10DA4000ADE7C046002000402421004064290020AA
:10DA5000042000401C2100401C050000442100401F
:10DA600008210040074B1A680823520701D4180008
:10DA70007047002804D0044B5B7803600023F6E76E
:10DA80000E23F4E7482A00207C290020A02210B5AC
:10DA9000064BD205D15880231B041C00A1208C43C7
:10DAA0000B400349C0001450535010BD0405000042
:10DAB0000C050000F8B54F4646460400C0B41128D6
:10DAC00009D0122839D0132839D0142839D00CBCE9
:10DAD00090469946F8BD0025012911D000291FD094
:10DAE0000229F4D16B005D191F4B5D196E78002E71
:10DAF000EDD01E4B1B68002BE9D030009847E6E7BD
:10DB0000194B6F00984642467B19D65C43445B78BC
:10DB1000002B18D17F194744BA78154B5A55E6E7C0
:10DB20001448FFF7B7F8104A6B005B19D318104A76
:10DB30009B78565D9E42CAD1D9E70125CCE70225E4
:10DB4000CAE70325C8E70C4B0A4899460B4B4A46DF
:10DB50001B689900C9184900FFF718F80028D9D1A7
:10DB60004B461C70D6E7C046C82A0020802A0020F9
:10DB7000782A0020842A0020702A00207C2A002095
:10DB8000F8B5C64B1B68DB0700D4F8BDC44A14784F
:10DB9000172CFAD8C349A300CB589F46A022C24BEA
:10DBA000D205D1588023DB031C00A1208C430B40FD
:10DBB000BE49C00014505350BD4B00221B68BD48E5
:10DBC0009900C918FEF7E2FFDFE7A023F021B74A6A
:10DBD000DB05490499500021043A9950D5E7A02269
:10DBE000B14BD205D1588023DB031C00A1208C430C
:10DBF0000B40AE49C00014505350AD4B0022196881
:10DC0000AC48FEF7C3FFC0E7AB4BA1201968E02387
:10DC10005B048B43A0210026F025C905C000A34C5E
:10DC20000B50A14B0E51CB586D046B408025AD03BA
:10DC30002B4000D129E10D5003230E510821137010
:10DC40009B4B00221B689B485943FEF79FFF9CE7B4
:10DC5000994BA1201968E0235B048B43A021002687
:10DC6000F025C905C000914C0B508F4B0E51CB587D
:10DC70006D046B408025AD032B4000D100E10D50B9
:10DC800004230E512821DAE7A023A122E021DB059D
:10DC9000D20049048024995000218448A4031950DB
:10DCA0001C50995071E7854D2800FEF7F3FF1123B2
:10DCB0001C1B00D1C9E0002800D0C6E080237E4EA6
:10DCC0001B043360012C10D0C8306421604303F082
:10DCD00059F8774B00221B68434328001900FEF7D0
:10DCE00055FFF02332685B041340A0226F49D20530
:10DCF0005350A1230021DB00D15046E76E4BA121F8
:10DD00001A68F0235B049343A022C900D205535044
:10DD10000021664BD15038E7674BA1201968E023FA
:10DD20005B048B43A0210027F026C905C0005F4D8E
:10DD30000B505D4B4F51CB58760473408026B60391
:10DD4000334000D190E00E504F512821022C79D061
:10DD5000147075E7A023A122C021DB05D20049047D
:10DD6000C024995000215148E40319501C50995087
:10DD70000BE7A023A122D021DB05D2004904802497
:10DD8000995000214948E40319501C509950FCE671
:10DD9000A023F021A122DB054904D20099500021E3
:10DDA000424A9950F1E6E022434B52041B68A121FC
:10DDB0009A43A023C900DB0580245A5000223B4827
:10DDC000A4031A501C505A50DFE63B4BA12019689F
:10DDD000E0235B048B43A0210026F025C905C00089
:10DDE000324C0B50304B0E51CB586D046B4080259C
:10DDF000AD032B4041D00D500E51052313702C4B19
:10DE0000002219682B484900FEF7C0FEBDE62A4BE8
:10DE1000A1201968E0235B048B43A0210026F02594
:10DE2000C905C000214C0B501F4B0E51CB586D043F
:10DE30006B408025AD032B402CD00D500E51062396
:10DE40001370DAE616391470FAE6F0231A4A5B0406
:10DE50001168A1200B40A021C000C9050B50002370
:10DE600012480B50136090E64E510B500421022CC7
:10DE700000D06DE702391470E2E60D510B50BCE79B
:10DE80000D510B5004210423D9E60D510B500221F2
:10DE90000323D4E60D510B50D1E7C046742A00206D
:10DEA000A42A0020580F0200040500000C05000001
:10DEB0007C2A00204C2A00206C2A0020A82A00205E
:10DEC00010B50378112B06D0122B12D0132B12D0C1
:10DED000142B12D010BD00235A00D318084AD318AF
:10DEE00058780028F6D0074B1B68002BF2D09847D3
:10DEF000F0E70123F0E70223EEE7113BECE7C04631
:10DF0000C82A0020802A0020002303280DD8A2233D
:10DF1000A022DB00D205D258054B8000C058012357
:10DF2000834093435A1E9341DBB200200B7070472D
:10DF30001C10020070B5DB4B04001B680020DB07DF
:10DF400000D470BD172CFCD8D74AA300D3589F46E5
:10DF5000A022D64BD205D1588023DB031C00A12080
:10DF60008C430B40D249C00014505350D14B002277
:10DF70001B68D1489900C918FEF708FEE1E7A02206
:10DF8000CA4BD205D1588023DB031C00A1208C434F
:10DF90000B40C749C00014505350C64B00221968AB
:10DFA000C548FEF7F3FDCCE7C44D2800FEF772FE2E
:10DFB00011231C1B00D14CE1002800D049E1802333
:10DFC000BF4E1B043360012C10D0C8306421604365
:10DFD00002F0D8FEB74B00221B684343280019000B
:10DFE000FEF7D4FDF02332685B041340A022B04951
:10DFF000D2055350A1230021DB00D150A1E7A0237B
:10E00000F021A122DB054904D20099500021A84A41
:10E01000002099501222AB4B1A7092E7A023A12244
:10E02000E021DB05D2004904802499500021A0485A
:10E03000A40319501C5099501322A24B00201A70AF
:10E040007FE7A023F0219A4ADB054904995000217B
:10E05000043A99509B4B00201C7072E7984BA12109
:10E060001A68F0235B049343A022C900D2055350E1
:10E0700000238F4900205350924A137061E7904B60
:10E08000A1211A68E0235B049343A0220026F02517
:10E09000D205C90086485350844B1650D3586D049E
:10E0A0006B408025AD032B4000D1E9E05550165060
:10E0B0002821022C00D1F2E0824B1C707D4B002203
:10E0C0001B687D485943FEF761FD3AE7A023F02124
:10E0D000774ADB05490499500021043A99500C22F3
:10E0E000784B00201A702CE7A023A122D021DB0559
:10E0F000D20049048024995000216D48E40319504E
:10E100001C50995014226F4B00201A7019E76C4B69
:10E11000A1211A68E0235B049343A0220025F02488
:10E12000D205C90062485350604B1550D35864045F
:10E1300063408024A403234000D199E0545015503B
:10E14000082103221AE05E4BA1211A68E0235B0438
:10E150009343A0220025F024D205C900544853500F
:10E16000524B1550D358640463408024A4032340C9
:10E1700000D18DE05450282115500422514B1A70C3
:10E180009CE7E0224E4B52041B68A1219A43A02336
:10E19000C900DB0580245A5000224548A4031A50C8
:10E1A0001C505A50474B07321A700020C9E6A02372
:10E1B000A122C021DB05D2004904C02499500021CE
:10E1C0003B48E40319501C50995015223D4B002048
:10E1D0001A70B6E63A4BA1211A68E0235B04934318
:10E1E000A0220025F024D205C900314853502F4BFE
:10E1F0001550D358640463408024A40323403CD0CA
:10E200005450155005222F4B2B481A70294B0022D1
:10E2100019684900FEF7BAFC93E6294BA1211A6858
:10E22000E0235B049343A0220025F024D205C9001B
:10E230001F4853501D4B1550D3586404634080242D
:10E24000A403234028D05450155006221D4B1A70A9
:10E25000A3E6F0231A4A5B041168A1240B40A02115
:10E26000E400C9050B510023114C0B51136068E603
:10E27000145053500221032280E714505350C1E739
:10E28000155053500421022C00D015E7023913E732
:10E2900014505350042170E714505350D5E71639E9
:10E2A0000AE7C046742A0020B80F020004050000E7
:10E2B0000C0500007C2A00204C2A0020A82A0020FF
:10E2C0006C2A0020A42A0020234B10B51960234B90
:10E2D00004001860224B1A60830712D50D22214BCF
:10E2E00021481A700132DA7001329A7101325A7281
:10E2F0004A080421FDF7F8FF002820D0E30703D4E3
:10E3000010BD0020E3070DD5A023F022A121002499
:10E31000DB055204C9005A5014495C500C315A5064
:10E320000028EDD1124A00211248FEF715FC002802
:10E33000E6D1114A01211148FEF70EFCE0E7FEF795
:10E340002DF80028DAD10E4A00210E48FEF704FC11
:10E35000E307D9D4E4E7C0467C2A0020742A0020D1
:10E36000802A0020C82A0020341002000C0500007A
:10E3700081DB01002C1002008DDA01003010020058
:10E38000C1DE01001810020003000720032B00D992
:10E390007047012A13D0012917D0002908D002297B
:10E3A00019D15800C3180D48C3185A700020EFE760
:10E3B0005800C3180948C3189A700020E8E70022E3
:10E3C0000129E8D11A000D32D2B258000349C3180E
:10E3D0005A540020DCE70720DAE7C046C82A0020AC
:10E3E000E0231D4ADB00D2581C4B13400022C1071A
:10E3F00001D5C02292021343E0221749D2008B506C
:10E40000174B9A58154B13400022810701D5C022A3
:10E4100092021343E0221249D2008B50114B9A58BA
:10E420000E4B13400022410701D5C0229202134334
:10E43000E0220C49D2008B500B4B9A58074B1340EB
:10E440000022010701D5C02292021343E0220649AF
:10E45000D20000208B50704744000050FFFFFCFFAB
:10E46000480000504C0000505000005010B50320F0
:10E47000FFF7B6FF0023002802D0031E062B01D0B1
:10E48000180010BD0023FBE710B50388102B08D03F
:10E49000112B05D1294A1368013B1360002B07D0CB
:10E4A00010BD264C2368002B11D001332360F7E701
:10E4B000012202210020FFF767FF00282BD0072848
:10E4C00029D01F4B1B68002BEAD09847E8E70122B0
:10E4D00000210020FFF758FF002808D0072806D0A9
:10E4E000174B1B68002B00D098472368DDE70722F5
:10E4F00002210120FFF748FF002801D00728EFD1B3
:10E50000042202210020FFF73FFF0028EDD007285A
:10E51000E6D12368C9E7072202210120FFF734FF73
:10E52000002801D00728CCD10A2200210020FFF7C3
:10E530002BFF0028B4D00728C3D1B1E7D82A002088
:10E54000D42A002010B5234B82B00C1E186018D0BE
:10E550006B460020991DFFF7D7FC002801D002B0C0
:10E5600010BD6B460130D91DFFF7CEFC0028F6D157
:10E570006B46DB79002B26D16B469B79002B25D18E
:10E580002370154B1B68002B01D00020E7E7012208
:10E5900002210020FFF7F8FE002801D00728DED175
:10E5A000072202210120FFF7EFFE002801D00728F3
:10E5B000D5D10A2200210020FFF7E6FE0028E4D092
:10E5C0000728CCD1E1E702232370DAE70B2323707D
:10E5D000D7E7C046D42A0020D82A002071DF704730
:10E5E00072DF704779DF70477DDF704765DF704706
:10E5F000F0B55F4656464D464446F0B485B09A465F
:10E600000EAB80CB06001B8800919B463B88019394
:10E610000388002B64D000230E97994602ABDD1CC3
:10E620000E9B00241700984603E033880134A34270
:10E630002CDD7368A1009C460422614403A801F00C
:10E640007BFC0022290003A8FFF7D0FF002829D176
:10E650002B78BB42E9D14B46002B2AD043461A887F
:10E66000D3195B453EDC5244290003A8FFF7BEFFE7
:10E67000002817D143462A781B880134D318424614
:10E680001380012399463388A342D2DC4B46474688
:10E69000002B25D03B88019A013B9B1A9BB20C2092
:10E6A000FF2B1AD905B03CBC90469946A246AB4612
:10E6B000F0BD43461B88DA1902325A4512DC424645
:10E6C000013369469BB2138052460978D1544346C0
:10E6D0001A88013292B21A80C5E71100524653548B
:10E6E0000020DFE70C20DDE7F0B55F4656464D46DB
:10E6F00044460023F0B417881380436B87B00600AC
:10E700000D001400002B00D19BE1022F00D890E1F6
:10E710001A7802230B701121238801339BB22380C6
:10E72000E954238801339BB22380EA5423880133C0
:10E730009BB22380326B002A00D170E019001231A5
:10E74000B94200D975E11121E95423880139013317
:10E750009BB22380E954238801339BB22380D17B71
:10E76000E954238801339BB22380917BE9542388A9
:10E7700001339BB22380517BE954238801339BB240
:10E780002380117BE954238801339BB22380D17A03
:10E79000E954238801339BB22380917AE95423887A
:10E7A00001339BB22380517AE954238801339BB211
:10E7B0002380117AE954238801339BB22380D179D5
:10E7C000E954238801339BB223809179E95423884B
:10E7D00001339BB223805179E954238801339BB2E2
:10E7E00023801179E954238801339BB22380D178A7
:10E7F000E954238801339BB223809178E95423881C
:10E8000001339BB223805178E954238801339BB2B2
:10E8100023801278EA54238801339BB223802E226E
:10E82000B25C002A00D00EE12D22B25C002A00D09A
:10E830002BE1B278002A00D054E1F278002A14D0FB
:10E84000D91CB94200D9F4E00221E95423880139E6
:10E8500001339BB22380E954238801339BB2238088
:10E86000EA54238801339BB223807268002A14D0B3
:10E87000D91CB94200D9DCE002211278E95423887E
:10E88000083101339BB22380E954238801339BB2C2
:10E890002380EA542388013323803389002B00D05E
:10E8A0009CE1338A002B00D0B2E1338B002B00D0E7
:10E8B000C8E1336A002B4BD022880C20911D93466F
:10E8C000B94200D9B6E0198805388A46052900D82A
:10E8D000B0E0BC496A468C46D4446146D181D189B6
:10E8E0008C46B94988468C4500D8A3E059888C46A7
:10E8F000052900D89EE0B3496144D18189B24145E0
:10E9000000D897E0B1498A4504D08C4502D0E24551
:10E9100000D98FE005215A46A95422880D310132D1
:10E9200092B22280A9542288013292B222801988A0
:10E93000AA181170090A51702288023292B22280FC
:10E940005988AB181970090A59702388023323803B
:10E95000736A9846002B30D09A882188131D5B1863
:10E960000C20BB4266D8931CFE2B63D803326A543A
:10E97000FF22238801339BB22380EA544246238836
:10E9800001339BB223801288EB181A70120A5A7056
:10E990004246238802339BB223809288002A0CD0FF
:10E9A000414689680538002944D0E81801F0C4FAC6
:10E9B000434622889B88D31823802C23F35C002BAA
:10E9C00000D0B0E033780020002B33D0328807200D
:10E9D000012A2FD02288901CB8422AD8012B04D1BA
:10E9E000737802339B189F4223D3023FBA1A04AFB5
:10E9F00093B22818390098463B80FFF7F5FD0028B0
:10EA000018D13378022B00D142E1012B00D1DFE095
:10EA100043460821FE2B0CD822885E1CAE54228867
:10EA2000013292B22280A954228801329B1823809D
:10EA300000E00C2007B03CBC90469946A246AB468D
:10EA4000F0BD002376E6D91C0C20B942F2D8022191
:10EA5000E9542388103001339BB22380E854238883
:10EA600001339BB22380022A00D10CE100D805E1DA
:10EA7000032A00D10AE1042A00D0FDE00322EA546F
:10EA8000238801339BB22380CEE609330C20BB429E
:10EA9000D0D804A8FFF7A2FD0028CBD108222388F4
:10EAA0000921EA542388133201339BB22380EA54AC
:10EAB00002AB9C462088153A013080B22080614428
:10EAC000281801F039FA238802AA0633127A9BB279
:10EAD0002380002A00D00122EA54238801339BB20C
:10EAE0002380A6E604330C20BB42A3D804A8FFF77A
:10EAF00079FD00289ED103222388EA542388163208
:10EB000001339BB22380EA54238802AA01339BB2CB
:10EB100012892380EB181A70120A5A702388023364
:10EB20009BB2238089E6B36A9846002B00D1A3E00C
:10EB30009B880233FE2B00D97BE7002291461632D8
:10EB400092461632208893460CE04B46B26A5B0030
:10EB500090464B449B00984443469B880233FE2BCF
:10EB600000D966E7524601332B54238801339BB208
:10EB70002380EA544246238801339BB223801288C3
:10EB8000EB181A70120A5A7043462088023080B27D
:10EB900020809A88002A0BD0996800296CD0281808
:10EBA00001F0CAF9434620889B88C01880B22080B3
:10EBB0004B460133DBB299465B46F35C4B45C4D808
:10EBC00000E7C0467FF3FFFF7DF30000FFFF00007A
:10EBD0007378984500D31CE743461AE70823984604
:10EBE000B044019700942B00022202214046FFF717
:10EBF000FFFC002800D01DE7019700942B00102295
:10EC000006214046FFF7F4FC002800D012E748E652
:10EC100010239846B044019700942B000222032150
:10EC20004046FFF7E5FC002800D003E70197009479
:10EC30002B00102207214046FFF7DAFC002800D005
:10EC4000F8E632E618239846B044019700942B006A
:10EC5000022214214046FFF7CBFC002800D0E9E651
:10EC6000019700942B00102215214046FFF7C0FCAD
:10EC7000002800D0DEE61CE60720DBE6012AFBD1F7
:10EC80000022EA54FCE60122EA54F9E6E954F7E6E8
:10EC90003B880921984500D3BCE64346B9E6C04607
:10ECA00030B593B01F236A460C009380D3800028B0
:10ECB00022D0C3785B071CD501AA02A9FFF714FD77
:10ECC00002AD002816D1002C19D0E378002B10D10A
:10ECD0006B460AA99A1D2000FFF706FD002809D1FE
:10ECE0006B469B790AAA694628000979FFF778FCE8
:10ECF00000E0072013B030BD90800025E3E76B46AD
:10ED00000022DC800023EEE773DF704774DF70477A
:10ED100070B59A4E86B007220021300001F015F937
:10ED2000974C6378002B25D0964D2B78012B45D03E
:10ED3000A278002A40D1022B50D103232B70237BD1
:10ED4000002B00D001E104232B70237E002B00D187
:10ED50000FE18D4B1A68002A52D02378002B4FD038
:10ED60008A4B1B78002B4BD10121894B072019704E
:10ED7000904748E0A378834D002B29D02B78022BB5
:10ED80001CD0012B2AD102232B70A378002BD4D0C6
:10ED90007378002B0ED1B378002B0BD1F378002BB6
:10EDA00008D13379002B05D17379002B02D1B379C7
:10EDB000002BC2D002231CE0022B0FD1724A126832
:10EDC000002A00D1D2E00121724B0820197090472F
:10EDD0002B78012B00D16DE0022BD6D0227B002AAC
:10EDE00001D1032BAFD0227E002A02D1042B00D107
:10EDF000BFE0654A1268002A02D0033B012BACD960
:10EE00000022634B1A7018220021684601F09DF819
:10EE100000236A46137013722A7801930393022A1F
:10EE200065D02FD9032A00D16EE0042A22D16B4687
:10EE3000A28B1A82228C5A82574B1A79002A00D14F
:10EE400085E02278002A00D185E0504A1278002A15
:10EE500000D080E069460393042302324F480A72CF
:10EE60000021C370FFF71CFF002821D106224C4B64
:10EE70001A702A78002A0ED1434B1B68002B13D13D
:10EE8000002015E0012AF5D169464B820B82444BE4
:10EE900001960A701A706846FFF736FF002807D1FE
:10EEA000394B1B68002BEBD03D4A10789847002067
:10EEB00006B070BD6278002A00D164E77278002A3B
:10EEC00000D096E7B278002A00D092E7F278002AC4
:10EED00000D08EE73279002A00D08AE77279002AC2
:10EEE00000D086E7B279002A00D14CE781E7012300
:10EEF00069460B706B4621890196598269466368A1
:10EF00000B82274B1A70C6E76B46A28A5A82228A66
:10EF10001A82214B1A79002A21D02278002A21D086
:10EF20001A4A1278002A1DD169460393042302323B
:10EF30001A480A720021C370FFF7B2FE0028B7D149
:10EF40000522174B1A702A7894E7032351E71A7B9E
:10EF5000002A00D075E70422114B1A709BE71A7B38
:10EF6000002ADAD103220E4B1A7094E709490A707D
:10EF70002FE700230A4A2B70137041E74C2B002027
:10EF8000542B0020EC2B0020202B0020472B0020AE
:10EF9000CB2B0020ED2B00209C2B0020DC2A002016
:10EFA000002C0020F8B504000E000E20002C00D12B
:10EFB0007BE0002A79D000203C4908703C490B6076
:10EFC00006993C4B19603C490B0023CA23C323CA52
:10EFD00023C323CA23C307220021384800F0B5FF0A
:10EFE000374B384A384D1A60384A00219A60280059
:10EFF000382200F0AAFF237822002B70A378103269
:10F00000AB70E378EB7063786B702B00103303CA3E
:10F0100003C32B00103A083303CA03C32B00083282
:10F02000183303CA03C3636A002B11D0284B294F3E
:10F030006B62616A9F600A881A80888898800028BD
:10F0400006D000238A68D25CFA5401338342F9D196
:10F05000A36A002B14D0204B204FAB62A06A9F60A4
:10F060008188998002881A800023002905D082684F
:10F07000D25CFA5401338B42F9D12C23E25CEA547E
:10F08000236A002B06D0164B2B62226A51885980C6
:10F0900012881A806368002B03D0124B6B60636880
:10F0A0006B6031002800FFF7FBFDF8BDEC2B002062
:10F0B000202B0020482B0020542B00204C2B00201C
:10F0C0009C2B0020782B0020DC2A0020CC2B002059
:10F0D000142B0020282B0020F42B0020AC2B002028
:10F0E000F02B0020982B002010B500240B4B82B091
:10F0F000187001A80194FEF7B5FC082809D0002873
:10F1000005D1019B002B05D00122054B1A7002B0DE
:10F1100010BD0194FFF7FCFDF9E7C046EC2B002081
:10F12000242B002030B5038883B0112B21D0192B5C
:10F130000AD0102B01D003B030BD037D012BFAD1D2
:10F1400082882D4B1A80F6E78479002CF3D12B4B63
:10F150001D78022D4ED038D9032D23D0042DEAD1AD
:10F16000274B1C70274B1B68002BE4D000209847CE
:10F17000E1E70024244B1C701F4B82881B889A42B5
:10F18000D9D101251D4B01A81D700194FEF76AFC21
:10F19000082824D0002827D1019B002B20D01B4B0E
:10F1A0001D70C8E7164A1570042201A81A70019450
:10F1B000FEF758FC082812D0002815D1019B002B1F
:10F1C0000ED00122114B1A70B5E7012DB3D10222E6
:10F1D00001A81A700194FEF745FC0828DAD10194C1
:10F1E000FFF796FD0028A6D0094B1B68002BA2D084
:10F1F0009847A0E70322D8E700280020EC2B002046
:10F20000002C0020202B0020472B0020242B002046
:10F21000482B002030B5184B83B01B78002B22D030
:10F22000164C2378002B1ED1154B1B78002B1DD1BB
:10F2300001252570002401A80194FEF713FC08287D
:10F2400007D000280AD1019B002B03D00D4B1D7065
:10F250000AE00194FFF75CFD002804D00A4B1B680C
:10F26000002B00D09847002003B030BDFFF74EFDC3
:10F270000028DDD0F8E7C046542B0020472B0020A3
:10F28000EC2B0020242B0020482B002075DF70473A
:10F2900076DF70477ADF70477BDF704710B5184B19
:10F2A00082B01888174B984214D0174A174C13781D
:10F2B0000133DBB21370217B99420DD2002313700E
:10F2C000237C002B12D16369002B03D0002201A8FC
:10F2D0000270984702B010BD0D49FFF7D7FF002814
:10F2E000F8D0A369002BF5D09847F3E73B21FFF74F
:10F2F000CFFF0028E7D0A369002BE4D09847E2E7CE
:10F300004C2C0020FFFF00000C2C0020102C0020B3
:10F31000502C002030B51B4B1B4A5B88118883B0F2
:10F3200099420FD852889A420CD3184B5B69002B34
:10F3300003D0012201A802709847154C00232370C6
:10F3400003B030BD124C2378002B08D00F4B5B6903
:10F35000002BF3D0002201A802709847EEE70D4B76
:10F360000A4D1B78002B0BD0A96800220A48FDF734
:10F370000DFC0028E2D0AB69002BDFD09847DDE719
:10F380006968F2E7042C0020502C0020102C00208B
:10F39000012C00200C2C00202C2C002016490200EF
:10F3A0000B0070B532CA32C332CA32C312681A6057
:10F3B0000022124B01681A70002916D0104C083236
:10F3C000200000F0B9FD2000FFF764FF00280BD1FA
:10F3D00001220C4B52421A8000220B4B00211A7062
:10F3E0000A480B4AFDF7B8FB70BD0548FFF754FF0C
:10F3F0000028EDD0F8E7C046102C0020012C00209A
:10F40000502C00204C2C00200C2C0020541002000A
:10F410009DF2010010B50388112B35D021D9122B94
:10F4200017D0502B1CD1214CC288E3899A4217D1A6
:10F43000C38B022B14D11E33C35CDB070ED41C48D4
:10F44000FDF728FC00280BD0A369002B08D09847B3
:10F4500006E0811D0822174800F06EFDFFF75AFFF5
:10F4600010BD102BFCD101008288134B16311A807D
:10F470001048082200F060FD0022104B1A700B4B60
:10F48000DB89002BECD1E9E701220B4B52421A80B9
:10F4900000220A4B06481A70FDF7FCFB0028DFD05B
:10F4A000024B9B69002BDBD09847D9E7102C00203A
:10F4B0002C2C0020042C00204C2C00200C2C002094
:10F4C000A0DF7047A2DF7047A6DF704763DF704799
:10F4D00010B5002808D0002906D00B88112B15D0B4
:10F4E000502B02D0102B0ED010BDCB88028A9A422E
:10F4F00010D082889A42F7D18369002BF4D0CA8B4E
:10F5000020319847F0E78B888382EDE701235B4247
:10F510008382E9E7CA8B022AEBD12023CA5C1F3B16
:10F52000134002D001238375DEE78375DCE7C04614
:10F53000F0B54D465F46444656461023F0B495B0AC
:10F5400004000D0010227B4904A899460E2700F004
:10F55000F3FC002C0ED0002D0CD001235B42A382C3
:10F560002B682100A361002304A8A375FFF7AEFF59
:10F57000071E07D0380015B03CBC90469946A246FD
:10F58000AB46F0BD237802A98B700123A21C012099
:10F590000B80FFF795FF071EECD103220021684680
:10F5A00000F0D3FC6B460F221B7892469343012256
:10F5B00093465A4613435246134010229046424601
:10F5C00013436A4613705378524693435A46134383
:10F5D00052461340424613436A46537093780622BC
:10F5E0009343043A13436A460DAD937000211C22E5
:10F5F000280000F0AAFC42462B7801AE13432B7082
:10F600006B466A466B6123780021937303233000B5
:10F61000938103226F60EF602F61AF6100F095FC72
:10F6200052463378002193435A46134352461340BF
:10F630004246134352463370737808A893435A46A0
:10F640001343524613404246134306227370B37865
:10F650009343043A1343DBB2063293434A4693433F
:10F660005A4613431422B37000F06FFC03AB0893A7
:10F6700001226B461A8514225F859A8523006088D3
:10F680000C3308AA29000996FFF71CFF071E00D0BB
:10F6900070E71C220021280000F057FC08232A787C
:10F6A00000211343042213436A462B702378300051
:10F6B00093730223938103226F60EF602F616F6168
:10F6C000AF6100F042FC52463378002193435A4622
:10F6D00013435246134042461343524633707378E5
:10F6E00008A893435A4613435246134042461343D5
:10F6F00006227370B3789343043A1343DBB20632A5
:10F7000093434A4693435A4613431422B37000F07E
:10F710001CFC03AB089301226B461A8514225F85FB
:10F720009A856088231D08AA29000996FFF7CAFE5A
:10F7300007001FE75810020070B586B06B46040042
:10F740000D00DA80002809D0828A114B08209A42E5
:10F7500002D0A37D002B03D106B070BD0E20FBE7C5
:10F760006B46DB880138142BF6D802AE102200213C
:10F77000300000F0EAFBA389A08A33806B46063391
:10F78000B36001233100F560B370FFF79DFEE3E73E
:10F79000FFFF00001D4B1B78012B00D070471C4B56
:10F7A0001B681B07FAD1F0221A4B1B68134018D1B3
:10F7B000194B1B6813421CD0154B1B681B07EDD15E
:10F7C000F022144B1B681340402BE7D1124B1B68EF
:10F7D0001342E3D1C12380220121DB00D205D150A5
:10F7E000DCE7102B01D0302BEAD10B4B1B68134206
:10F7F000E6D10A4A0A4B1A6080220A4B12021A60AA
:10F80000024B1B78012BD7D0C8E7C046E00F00F0B1
:10F81000E40F00F0E80F00F0EC0F00F0DFFF07C08E
:10F8200004050040186C00402EDF704751DF704720
:10F8300010DF704761DF704710B50800110000E06D
:10F8400000BF10BDF0B557464E464546E0B4344BB8
:10F85000344E1D6899466B425D41334BEDB21C68D6
:10F86000984663425C4182B0E4B2304FB246002D0C
:10F8700013D0002C40D13C68338801A920000B80B4
:10F88000FFF7D8FF052837D000282AD00022002112
:10F89000FCF79CFD0024002DEBD101A8FFF7C6FF6B
:10F8A00005280DD0002822D000220021FCF78EFD73
:10F8B000002C27D0012401A8FFF7B8FF0528F1D1BB
:10F8C000002C19D153466A461B8801A99380174B17
:10F8D0001C682000FFF7AEFF05280DD00125002889
:10F8E000D4D1434620001B6898470024D3E74B46F9
:10F8F00001981B689847DBE702B01CBC904699460C
:10F90000A246F0BD6A46074B01A91B889380074BAE
:10F910001C682000FFF78EFF0528B5D10124CAE737
:10F92000602C00205A2C0020642C00205C2C00202D
:10F9300070B504000720002901D08D0700D070BDEC
:10F9400009480160094920000A80094A09491360F1
:10F95000FFF76EFF0028F2D10122074B16301A7014
:10F96000FFF762FFEBE7C0465C2C00205A2C00201A
:10F97000682C002039F80100582C0020002803D002
:10F98000024B1860002070470E20FCE7642C00201A
:10F9900010B50A4B1B68002B08D09847002800D1EF
:10F9A00010BD00220021FCF711FDF9E7044B1B7884
:10F9B000002BF5D0FFF746FFF2E7C046682C002089
:10F9C000582C002076DF70477ADF70477CDF704765
:10F9D0007FDF7047A9DF704760DF70473CDF70470B
:10F9E00048DF704710B500220021FCF7EFFC10BD86
:10F9F00070B50D0016000024002A07D0285DFDF721
:10FA000095FA0028FAD10134B442F7D30A20FDF761
:10FA10008DFA0028FAD170BD10B50378002B00D004
:10FA200010BD064B3B211888FFF7CCFF0028F7D00C
:10FA300000220021FCF7CAFCF2E7C046082800209B
:10FA400010B50400FFF7E6FC21002448FFF740FD55
:10FA50002388112B2DD021D9132B11D0522B08D153
:10FA60001F4B0022188800210023FFF7B3FF002856
:10FA70000FD12000FFF756FB2000FEF705FD10BD5B
:10FA8000174B0022188885210023FFF7A1FF0028CB
:10FA9000EFD000220021FCF799FCEAE7102BE8D117
:10FAA0000720FEF747FA002812D1A2880C4B1A80D3
:10FAB000DFE70020FEF73EFA002804D10122084BC0
:10FAC00052421A80D5E700220021FCF77FFCF5E7BF
:10FAD00000220021FCF77AFCE7E7C046B42D0020A5
:10FAE0000828002010B5072820D00A2810D00428A4
:10FAF00000D010BD144B13211888FFF763FF0823B3
:10FB000002009A43F5D000220021FCF75FFCF0E7E9
:10FB10000020FEF70FFA002810D1FEF7A7FC0028FE
:10FB200007D1FFF75BFF0028E3D0ECE7FFF772FB9C
:10FB3000E5E700220021FCF749FCF2E70022002162
:10FB4000FCF744FCE9E7C0460828002070B50378BC
:10FB5000012B03D0002B07D0022B04D140680022D8
:10FB60000021FCF733FC70BD104C114D2078281893
:10FB7000FDF7C2F922780132D2B2AB18013B1B78F3
:10FB800022700A2B01D0132AEDD992B2290009481C
:10FB9000FFF7D2FD082302009A4303D00022002180
:10FBA000FCF714FC00232370DDE7C046D02D0020B5
:10FBB0009C300020B42D002010B5002807D0032869
:10FBC00004D10138FEF7B6F900280DD110BD002090
:10FBD000FEF7B0F900280CD1FEF748FC00280DD143
:10FBE000FFF7FCFE0028F1D000220021FCF7EEFB1D
:10FBF000ECE700220021FCF7E9FBEDE70022002101
:10FC0000FCF7E4FBECE7C046F0B5474680B4AAB089
:10FC100002AF3A00834B03CB03C21B88052113803C
:10FC200000200023804AFCF725FF002803D0002293
:10FC30000021FCF7CBFB0EAD2A007C4B13CB13C28B
:10FC40007B4B7C4A1C9380231CAC5B006360A260EE
:10FC5000E360794AFD3B21002800FDF7FBF800280E
:10FC600003D000220021FCF7B1FB744A7449032041
:10FC7000FEF72AFB002803D000220021FCF7A6FB98
:10FC800021000020FEF75EFC002803D000220021A6
:10FC9000FCF79CFB002348226A490820FFF748FE36
:10FCA000002803D000220021FCF790FB082200214D
:10FCB000200000F04AF9002301226360237820002D
:10FCC00093432370FFF788FE002803D00022002111
:10FCD000FCF77CFB5C48FFF751FE002803D00022B4
:10FCE0000021FCF773FB0F2101222B78574E8B4329
:10FCF000134310220B40134330002B7000F048F9DF
:10FD0000310082B22800FFF761FE002803D00022F4
:10FD10000021FCF75BFB08220021200000F015F910
:10FD2000102323802C3363800023A3809133FF337F
:10FD30002000E380FFF748FE002803D000220021C6
:10FD4000FCF744FB00210422200000F0FEF8404BA9
:10FD5000210040481C93FFF7EBFB002803D0002252
:10FD60000021FCF733FB38220021280000F0EDF8D9
:10FD700002232B7000239846AB7005233822002104
:10FD80002000EB7000F0E1F8012305AE2382324B36
:10FD9000242200213000636100F0D7F8012333737F
:10FDA0004023336174337361434632000093210072
:10FDB0002A4B2800FFF7F6F8002803D00022002184
:10FDC000FCF704FB1C220021200000F0BEF8A0225A
:10FDD00092026260F02200231203A26003221C93AD
:10FDE000E38123741E4B200063611E4B2273A361C9
:10FDF000FFF7D4FA002803D000220021FCF7E6FA2E
:10FE00003900194800F0AAF80320FFF76DF900281F
:10FE100003D1FFF7E5FD0028FBD000220021FCF70D
:10FE2000D5FAF6E784100200D42D002068100200F5
:10FE30006C2C00209C2F00204DFB0100E5FA0100F6
:10FE4000CD0C00006C2D002041FA0100741002005E
:10FE5000F1F90100B42D002004280020B9FB0100B5
:10FE600019FA0100E5F901008010020003210A4897
:10FE700002680A430260094802680A4302600849AE
:10FE8000084A094B9B1A03DD043BC858D050FBDCE1
:10FE900006488047064800472405004054050040B6
:10FEA00034110200002800207828002095F7010076
:10FEB00075C10100FEE7FEE7FEE7FEE7FEE7FEE7AD
:10FEC000084B10B50400002B02D0002100E000BF59
:10FED000054B1868836A002B00D09847200001F07A
:10FEE0000BF8C04600000000941002000E4B70B5E5
:10FEF00000251E000D4CE41AA410A54204D0AB004E
:10FF0000F35898470135F8E700F0F8FF084B002553
:10FF10001E00084CE41AA410A54204D0AB00F3580C
:10FF200098470135F8E770BD702800207028002040
:10FF30007028002074280020002310B59A4203D0B6
:10FF4000CC5CC4540133F9E710BD0300821893421E
:10FF500002D019700133FAE7704700000FB40B4B61
:10FF600013B51C68002C05D0A369002B02D120001A
:10FF700000F058F805AB049AA1682000019300F046
:10FF800063F916BC08BC04B01847C0466C280020B2
:10FF90000023C25C0133002AFBD1581E70470000C9
:10FFA00010B5024900F0B0F810BDC0464D0B02007C
:10FFB000002310B5040003604360836081814366C1
:10FFC000C281036143618361190008225C30FFF73D
:10FFD000BCFF054B24626362044BA362044BE362E3
:10FFE000044B236310BDC046C5070200ED070200A5
:10FFF000250802005108020070B568254B1E5D43BC
:020000022000DC
:100000000E002900743100F0A1F8041E08D0002170
:100010002A00016046600C30A0606832FFF795FF4F
:10002000200070BD836913B50400002B28D18364C0
:10003000C3640365134B144A1B68826201939842A0
:1000400001D101238361200000F020F860602000CE
:1000500000F01CF8A060200000F018F80022E0601A
:1000600004216068FFF7A4FF01220921A068FFF7BF
:100070009FFF02221221E068FFF79AFF0123A3618C
:1000800013BDC04694100200A1FF0100F8B51D4B3E
:1000900006001D68AB69002B02D12800FFF7C2FFE4
:1000A0004835AC686B68013B05D40C22A75E002F75
:1000B00010D06834F7E72B68002B01D02D68F0E7EB
:1000C00004213000FFF798FF28600028F6D10C23A8
:1000D000336016E0012320005B42E3810233A381F9
:1000E00067662760A760676027616761A7615C300A
:1000F00008223900FFF729FF20006763A763A76480
:10010000E764F8BD94100200F7B50400070000266C
:1001100001914834002C16D06368A5680093009BB9
:10012000013B00930DD4AB89012B08D90E22AB5EA5
:10013000013304D029003800019B984706436835F5
:10014000EDE72468E6E73000FEBD0000032370B54C
:10015000CD1C9D43083506000C2D01D20C2505E071
:10016000002D03DA0C230020336040E0A942F9D8C7
:100170001F4B1C681A002100002913D00B685B1B61
:100180000DD40B2B02D90B60CC181EE08C4202D18F
:10019000636813601AE04B6863600C0016E00C00A3
:1001A0004968E9E7134C2368002B03D1300000F0C5
:1001B000F7FA20602900300000F0F2FA431CD1D099
:1001C0000323C41C9C43A0420AD1256020000722BF
:1001D0000B30231D9043C31A09D05A42E25006E067
:1001E000211A300000F0DCFA431CEED1BAE770BDF2
:1001F000B4300020B0300020936810B5013B93600C
:10020000002B05DA9469A34208DBCBB20A2B05D098
:100210001368581C10601970C8B201E000F01EFB92
:1002200010BDF8B506000F001400D518AC4208D078
:1002300021783A003000FFF7DFFF0134431CF5D18D
:1002400000E00020F8BD0000F0B59FB006000F00F0
:1002500002920593002804D08369002B01D1FFF797
:10026000E1FE7F4B9F4201D1776808E07D4B9F42C2
:1002700001D1B76803E07C4B9F4200D1F768BB898E
:100280001B070AD53B69002B07D0002306AD6B6125
:1002900020336B761033AB763DE03900300000F050
:1002A00049FB0028F1D001204042D6E0059A111DFB
:1002B00012680591002A00DA7FE009920134237860
:1002C0002E2B00D18DE021780322684800F0D0FC6D
:1002D000002807D0654B2A68C01A40238340134387
:1002E0002B6001342178631C062261480293297631
:1002F00000F0BEFC002800D19DE05E4B002B00D03A
:1003000090E00722059B07339343083305936B69FD
:10031000039A9B186B61029C2378002B04D1029BEB
:10032000E31A049312D003E0252BF8D00134F3E74D
:10033000049B029A39003000FFF773FF431C00D181
:1003400086E06A69049B944663446B612378002BC2
:100350007ED00122002352426A6002A95432521810
:1003600001342B60EB60AB601370AB652178052224
:10037000414800F07DFC002808D03F4B2A68C01A95
:100380000123834013432B600134EFE72B68DA0627
:1003900004D55322202102A8121811701A0704D57F
:1003A00053222B2102A81218117022782A2A00D178
:1003B0007CE7099B00200A2105E05242EA60022204
:1003C00013432B607AE72278303A092A04D84B434A
:1003D00001349B180120F6E7002800D16FE709934C
:1003E0006DE763782A2B0AD1059B02341A1D1B681E
:1003F0000592002B01DA01235B42079363E7002398
:100400000A201A0001346B6021783039092904D898
:100410004243013452180123F6E7002B00D152E782
:10042000079250E705AB00933A00144B29003000C7
:1004300000E000BF07E005AB00933A000F4B290036
:10044000300000F08BF80390039B013300D05EE78F
:10045000BB895B0600D526E70B981FB0F0BDC046F0
:1004600098100200B8100200D8100200FE1002001E
:100470000211020000000000F81002002302020036
:10048000F7B5170001938A680B6900900C0093423E
:1004900000DA130022003B6043321278002A01D0B8
:1004A00001333B6023689B0602D53B6802333B6007
:1004B000062523681D401ED0230043331B785A1E97
:1004C0009341226892061CD53020E1184331087010
:1004D00021005A1C45310978A218433202331170A9
:1004E0000FE022000123193201990098089EB047BD
:1004F000431C0ED00135E3683A689B1A9D42F0DB3D
:10050000DAE72200019943320098089DA847431C6E
:1005100002D10120404220E006232068E1683A68C9
:1005200003400025042B03D18D1AEB43DB171D403C
:10053000A3682269934201DD9B1AED180027BD4292
:100540000AD0220001231A3201990098089EB04770
:10055000431CDED00137F2E70020FEBDF0B58BB0C2
:1005600006920A0043320793059004920A7E0C001B
:10057000109B6E2A00D1ABE011D8632A22D009D893
:10058000002A00D1B5E0582A00D0C5E045310A70F4
:10059000814A4FE0642A1DD0692A1BD0BCE0732A2F
:1005A00000D1AAE009D86F2A29D0702A00D0B3E080
:1005B000202209680A43226037E0752A1FD0782A72
:1005C00033D0A9E00E001A684236111D1960136875
:1005D0003370A4E021681A68080606D4490604D5D9
:1005E000111D19600023D55E02E0111D1960156808
:1005F000002D3BDA2D23049A6D42137036E02168FA
:100600001A68080606D4490604D51568111D196034
:10061000ADB202E0111D196015685F4B227E039395
:1006200008276F2A1DD00A271BE0220078214532B7
:1006300011705A4A19680392081D226818600D68E3
:10064000100602D4500600D5ADB2D30702D5202340
:100650001A4322601027002D03D1202322689A43D9
:1006600022602300002243331A7002E00A274A4B1B
:1006700003936368A360002B09DB04222168914384
:100680002160002D05D1049E002B11D07BE0002DB0
:1006900079D0049E2800390000F0FAFB039B013E4C
:1006A0005B5C28003370390000F06CFB051EF1D153
:1006B000082F09D12368DB0706D5636822699342B6
:1006C00002DC3023013E3370049B9B1B23612BE033
:1006D00009681A68080607D4490605D5111D19606E
:1006E0001368A28A1A8004E0111D196013686269F8
:1006F0001A600023049E236116E01A68111D196018
:10070000166800216268300000F0B2FA002801D0BB
:10071000801B6060636803E026004236327001236C
:1007200023610023049A1370079B09AA00932100F8
:10073000069B0598FFF7A4FE431C02D1012040420E
:1007400027E02369320006990598079DA847431CB6
:10075000F4D0236800259B070FD4099BE0689842DA
:1007600017DA180015E022000123193206990598BE
:10077000079EB047431CE1D00135E368099A9B1AF4
:100780009D42F0DBE9E72600039B42361B7833707D
:100790008EE70BB0F0BDC046091102001A1102002D
:1007A000002370B5064C05000800236000F096FB9E
:1007B000431C03D12368002B00D02B6070BDC046C2
:1007C000BC30002070B50C000E25495F00F0A2FA85
:1007D000002803DB636D1B18636503E0A289024BED
:1007E0001340A38170BDC046FFEFFFFFF8B51F00A7
:1007F0008B8905000C001600DB0505D50E23C95EAC
:100800000022022300F0CEF9A289054B28001340F4
:10081000A38132000E23E15E3B0000F077F8F8BDC3
:10082000FFEFFFFF70B50C000E25495F00F0BAF92D
:10083000A389421C03D1054A1340A38104E080220E
:1008400052011343A381606570BDC046FFEFFFFFF7
:1008500010B50E23C95E00F0E1F810BDF8B5050033
:100860000F001400002804D08369002B01D1FFF78A
:10087000D9FB234B9C4201D16C6808E0214B9C4280
:1008800001D1AC6803E0204B9C4200D1EC68A36925
:10089000A360A3891B070AD52369002B07D023680F
:1008A0002269FEB2981A636998420FDB08E02100C2
:1008B000280000F03FF80028F1D0012040421DE060
:1008C0002100280000F042F90028F6D1A368013089
:1008D000013BA36023685A1C22601F706369984221
:1008E00005D0A3893000DB0708D50A2E06D12100E8
:1008F000280000F02BF90028DFD13000F8BDC046F9
:1009000098100200B8100200D810020070B505005F
:10091000080011000022064C22601A00FCF722FA9F
:10092000431C03D12368002B00D02B6070BDC04650
:10093000BC300020354B70B51D6806000C00002D42
:1009400005D0AB69002B02D12800FFF76BFB304BC1
:100950009C4201D16C6808E02E4B9C4201D1AC68EE
:1009600003E02D4B9C4200D1EC68A3899AB2110799
:1009700023D4D10607D40922012032603732134331
:10098000A381404240E0530713D5616B002908D092
:1009900023004433994202D0300000F075F900235F
:1009A00063632422A3899343A381002363602369A3
:1009B00023600822A3891343A3812369002B0BD151
:1009C000A023A2899B00134080229200934203D06F
:1009D0002100300000F0FAF80123A289134005D06D
:1009E0000023A36063695B42A36103E0910700D425
:1009F0006369A36000202369834205D1130603D5F0
:100A000040231A43A281013870BDC0466C280020E3
:100A100098100200B8100200D8100200002370B530
:100A2000064C05000800236000F038FA431C03D18F
:100A30002368002B00D02B6070BDC046BC30002066
:100A4000F7B58A8905000C0013075AD44B68002BB0
:100A500002DC0B6C002B19DDE76A002F16D0002397
:100A60002E682B6080235B011A4001D0606D14E07A
:100A70000123216A2800B847431C0ED12B68002BA4
:100A80000BD01D2B01D0162B02D12E6000205AE076
:100A90004022A3891343A38155E0A3895B0706D5B0
:100AA0006368C01A636B002B01D0236CC01A00234B
:100AB0000200216A2800E76AB847A389421C06D1D0
:100AC00029681D293AD8204ACA40D20736D50022C3
:100AD000626022692260DB0405D5431C02D12B68C9
:100AE000002B00D16065616B2E600029CED0230001
:100AF0004433994202D0280000F0C6F80020606319
:100B000021E00F69002FC1D00B680F60DB1B019340
:100B10000023920700D14B69A36003E0019B3F18BB
:100B20001B1A0193019B002BB0DD019B3A00216A47
:100B30002800A66AB0470028F0DCA38940220120E3
:100B40001343A3814042FEBD010040200B6970B5F4
:100B500005000C00002B01D100201CE0002804D06F
:100B60008369002B01D1FFF75DFA0B4B9C4201D149
:100B70006C6808E0094B9C4201D1AC6803E0084B6B
:100B80009C4200D1EC680C22A35E002BE4D0210033
:100B90002800FFF755FF70BD98100200B810020042
:100BA000D810020070B50500080011000022064CA4
:100BB00022601A0000F08AF9431C03D12368002B3D
:100BC00000D02B6070BDC046BC300020F0B58B89D2
:100BD00091B006000C009B0726D40E23C95E0029A5
:100BE00004DA8023A5891D4010D10CE001AA00F091
:100BF000A5F80028F5DBF023029D1B021D401A4BCF
:100C0000ED186B425D418027FF0001E00025402781
:100C100039003000FFF79AFA00280CD1A3899A0511
:100C20001FD402221343A38123004733236023618F
:100C30000123636115E080220C4BB362A38920601D
:100C40001343A38120616761002D0AD00E23E15E6A
:100C5000300000F085F8002803D00122A389134357
:100C6000A38111B0F0BDC04600E0FFFFA1FF01006D
:100C7000C9B28218904204D003788B4202D001306E
:100C8000F8E700207047000030B500293ED0043955
:100C90000B68002B00DAC9181D4A13681400002BDA
:100CA00002D14B60116031E08B420DD90A6888187F
:100CB000834203D118685B6882180A604B60216028
:100CC00024E08A4203D813005A68002AF9D11D682B
:100CD0005C198C420BD10968691858181960824256
:100CE00014D110685268411819605A600EE08C42A5
:100CF00002D90C23036009E008680C18A24203D152
:100D000014685268201808604A60596030BDC046B7
:100D1000B430002070B50500080011000022064C18
:100D200022601A00FCF72CF8431C03D12368002B27
:100D300000D02B6070BDC046BC300020002370B5D1
:100D4000064C050008001100236000F0AFF8431CBA
:100D500003D12368002B00D02B6070BDBC30002075
:100D6000002370B5064C05000800236000F0A6F8CB
:100D7000431C03D12368002B00D02B6070BDC046FC
:100D8000BC300020002243088B4274D303098B42FD
:100D90005FD3030A8B4244D3030B8B4228D3030C4B
:100DA0008B420DD3FF22090212BA030C8B4202D3ED
:100DB0001212090265D0030B8B4219D300E0090A15
:100DC000C30B8B4201D3CB03C01A5241830B8B421E
:100DD00001D38B03C01A5241430B8B4201D34B0307
:100DE000C01A5241030B8B4201D30B03C01A52416C
:100DF000C30A8B4201D3CB02C01A5241830A8B42F1
:100E000001D38B02C01A5241430A8B4201D34B02D9
:100E1000C01A5241030A8B4201D30B02C01A52413D
:100E2000CDD2C3098B4201D3CB01C01A52418309F1
:100E30008B4201D38B01C01A524143098B4201D32B
:100E40004B01C01A524103098B4201D30B01C01A56
:100E50005241C3088B4201D3CB00C01A52418308D0
:100E60008B4201D38B00C01A524143088B4201D3FD
:100E70004B00C01A5241411A00D20146524110465D
:100E80007047FFE701B5002000F006F802BDC0463C
:100E90000029F7D076E770477047C04658220120F6
:100EA000014B40421A607047BC300020582201209C
:100EB000014B40421A607047BC3000205822024B60
:100EC00000201A607047C046BC3000205822012024
:100ED000014B40421A607047BC300020044A13683E
:100EE000002B03D01818106018007047014BF9E769
:100EF000B8300020C0300020FEE7C046F8B5C0463C
:100F0000F8BC08BC9E467047F8B5C046F8BC08BCA3
:100F10009E467047A0280020090000000B0000003A
:100F20000A000000080000000000000000000000AF
:100F300000509D0003000000090000000B000000AD
:100F40000A0000000800000000000000000000008F
:100F500000509D0003000000FCDC010018DD0100D2
:100F600018DD010008DC010050DC0100CADD0100D1
:100F70000EDE0100A6DD0100DEDB01009CDB0100CE
:100F8000DEDB01009CDB0100CADB0100A6DC010006
:100F9000A6DC0100A6DC0100A6DC0100A6DC010045
:100FA00090DD010088DC010072DD010054DD0100EC
:100FB000CADB0100CADB01005CE001007EE0010049
:100FC0007EE001000EE1010046E10100D4E10100F4
:100FD0001AE2010082E101007EDF010050DF010022
:100FE0007EDF010050DF0100CCE00100A8DF01003E
:100FF000A8DF0100A8DF0100A8DF0100A8DF0100D1
:10100000FEDF01001CE00100E8E00100AEE10100AC
:1010100042E0010042E00100842A002011000000AB
:101020001200000013000000140000004C2A0020F1
:10103000A82A002011000300B5DA01001200030005
:10104000B5DA010013000300B5DA01001400030053
:10105000B5DA01002C2C00209ECADC240EE5A9E0A4
:1010600093F3A3B50000406E0C0D080A00000000C9
:1010700000509D004E6F726469635F554152540089
:101080002573000053746172742E2E2E0A00000026
:10109000430000000C2800200000000000000000B9
:1010A0000000000000000000000000000000000040
:1010B0000000000000000000000000000000000030
:1010C0000000000000000000000000000000000020
:1010D0000000000000000000000000000000000010
:1010E0000000000000000000000000000000000000
:1010F0000000000000000000232D302B2000686C51
:101100004C0065666745464700303132333435362A
:101110003738394142434445460030313233343563
:0C11200036373839616263646566000090
:08112C0048B0FF7F0100000044
:10113400FFFF000001000200FFFF000000000000AC
:1011440098100200B8100200D8100200000000003D
:1011540000000000000000000000000090100200E9
:10116400000000000000000000000000000000007B
:10117400000000000000000000000000000000006B
:10118400000000000000000000000000000000005B
:101194000000000000000000000000000C280020F7
:0811A40039C101000DC1010079
:040000031000FE6D7E
:00000001FF
