:020000021000EC
:10B00000008000204D2F0200952F0200972F020094
:10B010000000000000000000000000000000000030
:10B02000000000000000000000000000992F020056
:10B0300000000000000000009B2F02009D2F020076
:10B040009F2F02009F2F0200B1D101009F2F02000D
:10B050009F2F02000000000001CE01009F2F020080
:10B060009F2F02009F2F02009F2F02009F2F0200A0
:10B070009F2F02009F2F02009F2F02009F2F020090
:10B080009F2F020061C101009F2F02009F2F02002D
:10B090003DC201009F2F0200252E02009F2F0200BB
:10B0A0009F2F02009F2F0200000000000000000000
:10B0B0000000000000000000000000000000000090
:10B0C000054B0648033310B51B1A062B03D9044B56
:10B0D000002B00D0984710BD8C1F00208C1F002033
:10B0E000000000000648074910B5091A8910CB0F67
:10B0F0005918491003D0044B002B00D0984710BDBD
:10B100008C1F00208C1F00200000000010B5074C91
:10B110002378002B09D1FFF7D3FF054B002B02D07A
:10B12000044800E000BF0123237010BD8C1F0020E5
:10B1300000000000EC360200094B10B5002B03D0D4
:10B140000849094800E000BF08480368002B02D105
:10B15000FFF7C8FF10BD064B002BF9D09847F7E763
:10B1600000000000901F0020EC3602008C1F002021
:10B1700000000000164B002B00D1144B9D464022CE
:10B1800092029A1A924600218B460F461348144A9F
:10B19000121A00F067F80F4B002B00D098470E4BA7
:10B1A000002B00D098470020002104000D000D481E
:10B1B000002802D00C4800E000BF00F02DF820006D
:10B1C000290004F0A7FA00F011F8C04600000800BA
:10B1D0000080002000000000000000008C1F002004
:10B1E000E83300200000000000000000084B10B50C
:10B1F0000400002B02D0002100E000BF054B1868BE
:10B20000836A002B00D09847200000F033F8C04636
:10B2100000000000F83202000E4B70B500251E0041
:10B220000D4CE41AA410A54204D0AB00F358984783
:10B230000135F8E708F052F8084B00251E00084CCD
:10B24000E41AA410A54204D0AB00F3589847013586
:10B25000F8E770BD841F0020841F0020841F002099
:10B26000881F002003008218934202D01970013316
:10B27000FAE77047FEE7C046F0B544465F465646DB
:10B280004D46F0B4744B83B098461B7804008A4650
:10B290001700002B21D14146022240460A614A6133
:10B2A0006E4A83628A616E4982646E4AC1618021FE
:10B2B000C2641022C9004362C362836502654365AC
:10B2C000C36501626849073007F0F8FF67494046E7
:10B2D00007F0F4FF202342469371EFF3108301211E
:10B2E00081F3108865002E19F60046440193F36A35
:10B2F000012B6BD0002B3DD0022B2CD1002301342D
:10B300009B4663001C19E300756A99461BE0013BEC
:10B31000346A5B1BBB4200D93B00641B9C4200D9D2
:10B320001C0043464B44586851464019220007F020
:10B33000BCFF336A2D19A344A2443F1B9D4217D082
:10B340007562002F09D0B36AAB42E0D8346A1B198A
:10B35000013B5B1BDEE700239B46019B83F31088C8
:10B36000584603B03CBC90469946A246AB46F0BD59
:10B370000025E5E7B26A736A9A4253D9013AD31AB3
:10B38000002293469F42E8D82D19ED0045446B6A90
:10B3900001349B465A462B6A9E1A63001C19E4002E
:10B3A0004444B7424CD3636832005B4418005146B2
:10B3B00007F07BFFBB1B310098461A0051446068C0
:10B3C00007F073FF4346BB466B62C6E7B36A726A17
:10B3D000934222D9013B316A9B1ABB469F4200D956
:10B3E0009B462D19ED000134454463006E6A1C191B
:10B3F000E4008F1B4444BB4519D363683A00981995
:10B40000514607F052FF5B463900DE1B514460682D
:10B41000320007F04AFF6E629FE7316A5B18013B1A
:10B420009B1ADAE7316A5218013AD31AA8E7606822
:10B430005A46801951465E4407F037FF6E628CE72A
:10B4400060683A005844514607F02FFF5B46F818F1
:10B450006862BB4681E7C04670330020FC320200C0
:10B46000B81F0020A81F0020083302000C33020080
:10B47000F0B544465F4656464D46F0B4040083B0EE
:10B4800008008A4607F022FF724B070098461B7897
:10B49000002B21D14146022240460A614A616E4A90
:10B4A00083628A616D4982646D4AC1618021C26490
:10B4B0001022C9004362C362836502654365C365A8
:10B4C00001626849073007F0F9FE6749404607F016
:10B4D000F5FE202342469371EFF31083012181F39F
:10B4E000108865002E19F60046440193F36A012B7B
:10B4F0006BD0002B3DD0022B2CD1002301349B4676
:10B5000063001C19E300756A99461BE0013B346A2D
:10B510005B1BBB4200D93B00641B9C4200D91C0052
:10B5200043464B44586851464019220007F0BDFE7F
:10B53000336A2D19A344A2443F1B9D4217D0756264
:10B54000002F09D0B36AAB42E0D8346A1B19013B23
:10B550005B1BDEE700239B46019B83F31088584664
:10B5600003B03CBC90469946A246AB46F0BD0025D0
:10B57000E5E7B26A736A9A4253D9013AD31A0022B4
:10B5800093469F42E8D82D19ED0045446B6A01347B
:10B590009B465A462B6A9E1A63001C19E4004444D9
:10B5A000B7424CD3636832005B441800514607F041
:10B5B0007CFEBB1B310098461A005144606807F0BE
:10B5C00074FE4346BB466B62C6E7B36A726A934237
:10B5D00022D9013B316A9B1ABB469F4200D99B4648
:10B5E0002D19ED000134454463006E6A1C19E40016
:10B5F0008F1B4444BB4519D363683A0098195146E0
:10B6000007F053FE5B463900DE1B51446068320090
:10B6100007F04BFE6E629FE7316A5B18013B9B1A95
:10B62000DAE7316A5218013AD31AA8E760685A4635
:10B63000801951465E4407F038FE6E628CE7606800
:10B640003A005844514607F030FE5B46F8186862ED
:10B65000BB4681E770330020FC320200B81F002097
:10B66000A81F0020083302000C330200F0B5474643
:10B6700080B42B4D1E002B7882B004008846170042
:10B68000002B29D02B69A34246D9EFF31083012167
:10B6900081F3108800220193002C0CD11419089B0F
:10B6A000E4002C19E362019B83F31088002002B0B0
:10B6B00004BC9046F0BD631C5A00D31842460021DA
:10B6C000DB005A51EB1862005F601319DB00EB18C6
:10B6D00099621E625962E1E702222A616A61114A97
:10B6E0001149AA61AA64114AE9618021EA64102221
:10B6F000C900AB62EB626B62EB65AB6529626B659F
:10B700002A650B49E81D07F0D9FD0A49280007F012
:10B71000D5FD2023AB71B5E701204042C7E7C04605
:10B7200070330020FC320200B81F0020A81F002048
:10B73000083302000C330200F0B5474680B4284DB0
:10B740001E002B7882B0040088461700002B24D0FE
:10B750006B69A34241D9EFF31083012181F3108873
:10B7600000220193002C0CD11419089BE4002C1921
:10B77000E365019B83F31088002002B004BC90466F
:10B78000F0BD414662001319DB00EB1899640021FB
:10B79000DF6499651E655965E6E702222A616A61E0
:10B7A000104A1149AA61AA64104AE9618021EA6439
:10B7B0001022C900AB62EB626B62EB65AB6529627C
:10B7C0006B652A650A49E81D07F078FD09492800DC
:10B7D00007F074FD2023AB71BAE701204042CCE7AB
:10B7E00070330020FC320200B81F0020A81F002088
:10B7F000083302000C330200F0B55F464D46564652
:10B800004446F0B483B01D000C9B06008946170027
:10B810009B46914200D2E4E008000124390007F081
:10B82000BFFB01348742F9D90094AC4200D20095A5
:10B8300001230D9A1A40019203D15B46002B00D0E0
:10B840008CE0F3689A46002B7BDBB36898464B4646
:10B850000124B1461E00012D03D9013D7C43012D79
:10B86000FBD82100300007F09BFB8742F6D933005C
:10B870004E4699463B005C4D474698460AE0534683
:10B88000002B00DA9DE02000414607F089FB041EF2
:10B8900000D196E04846210007F082FB03004A46AB
:10B8A0006343D31A994673687A1C9A420CD82B5C6E
:10B8B0003168CB55F36817009A4601239C46E24451
:10B8C0005346F3607368B2609F42D8D13A00316842
:10B8D0003069FFF7D1FCB768B84239D00123B846C8
:10B8E0005B42F360019B002B2BD05B46002B28D0E2
:10B8F000009B202400255B4523D242465F469846A4
:10B9000006E0F368002B1CDB002F1AD0474518D93E
:10B910007368511C013F994207D833689C540A0050
:10B92000F368B1600133F36073689A42E9D131681A
:10B930003069FFF7A1FCB368984244D001235B4211
:10B94000F36003B03CBC90469946A246AB46F0BDBE
:10B950000023B360F36800279A4690E70D9B2024EC
:10B960009B0733D4009B9B4500D86AE7B368AA467F
:10B970001A005B46009DBB460C9327001C0006E0A6
:10B98000F368002BDDDB002C25D0AC4223D9736893
:10B99000511C013C994207D833689F540A00F36850
:10B9A000B1600133F36073689A42E9D1316830695C
:10B9B000FFF762FCB3689842C0D100230022B36055
:10B9C000DEE7B8468EE7B56000229AE71034002D16
:10B9D000C8D0103CC6E75F4655469046A3469A46F7
:10B9E00035E7012420E7C04614330200F0B556467F
:10B9F0005F4644464D46F0B49FB00EAB09934023DA
:10BA00000A9300230B930C939B4604330E0092463B
:10BA1000984606900D9033780136002B5BD0252B8D
:10BA200066D1337800270221082234002B2B0BD05B
:10BA30002B2B0DD92D2B57D0302B0ED10F43013688
:10BA4000337834002B2BF3D1434601361F43F7E7FD
:10BA5000232B02D117430136F2E71A00303A0025B2
:10BA6000092A0AD8AA00551901346D00ED18237867
:10BA7000303D1A00303A092AF4D900262E2B02D183
:10BA800085E0237801341A0041468A43682AF8D0B9
:10BA9000642B00D100E159D9732B00D19FE000D86D
:10BAA00089E0752B00D0CDE0534651461B6809A8AC
:10BAB0001A1D0A6019680A22330001970095FFF7E2
:10BAC0009BFE0C9B9B46661C5B46002B32DB33784F
:10BAD0000136002BA3D15B46002B2BDD0B9A002AED
:10BAE00000D071E1934425E0012301361F43A7E70D
:10BAF0000B990A9A481C904224D8099A535401225F
:10BB000094460C9B0A9A039363440B909B460C93B8
:10BB10009042D9D1099B03930D9B0399180004937C
:10BB2000FFF7AAFB0B9B0393984200D147E1012347
:10BB30005B429B4658461FB03CBC90469946A24685
:10BB4000AB46F0BD914200D065E7E3E7582B7CD0CF
:10BB5000632B00D183E0252BB5D10B980A99421CA9
:10BB60008A4200D81DE102008A42ACD1099B0393AE
:10BB70000D9B039918000493FFF77EFB0B9B039327
:10BB800098425AD100230B930C9B9B469BE763780A
:10BB9000611C1A00303A0C00092A00D973E7B20080
:10BBA000961901347600F6182378303E1A00303AA0
:10BBB000092AF4D967E7702B00D084E75346514631
:10BBC0001B681A1D0A60196800230193083300934B
:10BBD000102209A8FFF710FE0C9B9B4673E7534603
:10BBE000514658461B681A1D0A601D6829780135A0
:10BBF000002910D00B9B0A9E5A1CB2420DD80998FE
:10BC0000C1540C9B0B92581C0A9B0C9003939A42B4
:10BC100006D00028EADA834655E7B342E6D11A0097
:10BC2000099B03930D9B039918000493FFF724FBD2
:10BC30000B9B0393984200D1A4E001235B420C9339
:10BC40009B4640E7782B00D03DE7534651461B68A2
:10BC50001A1D0A601968019700953300B8E753462A
:10BC6000524618680B99031D13600A9B4A1C9A429E
:10BC700000D9A2E0099B0393036803984354012170
:10BC80008C460C9B0B92039363449B460C930A9B3C
:10BC90009A4200D017E769E7534651461B681A1DC0
:10BCA0000A601B68DA1798180393012350409946DD
:10BCB00009280ADDA1461C000A2107F0FBF901341E
:10BCC0000928F9DC23004C46994604964E4563D377
:10BCD000002D06D0039B002B02DB43463B4200D0E5
:10BCE000013DBB0752D401233B4236D1002D34D055
:10BCF000049BAB4231D2202358460B9AB346994657
:10BD0000049E05E0002886DB002D24D0AE4222D21E
:10BD10000A9B511C013D994209D84846099B9854F9
:10BD20000A000C9B0B91581C05930A9B0C909A429D
:10BD3000E8D1099B05930D9B059918000793FFF720
:10BD40009BFA0B9B0593984200D076E700230C9852
:10BD50000B930022D6E75E468346039B002B3CDB19
:10BD600043463B425ED103233B40022B74D0330059
:10BD7000019700950A22039909A8FFF73DFD0C9B46
:10BD80009B46A0E600230C980B9342E7002EE4D0DC
:10BD900001233B42E1D1A9E74B460493002DA0D0FB
:10BDA00098E709990B5401218C460C9B0B92039345
:10BDB00063449B460C930A99D6E60A0068E7002381
:10BDC0000B930C9B9B467FE60EA90698FFF754FA4F
:10BDD0000C9B0B9A9B469344ACE65B4203930B9BF4
:10BDE0000A9A591C914209D8099A05922D22059860
:10BDF000C2540C9B0B9105932C3A21E09342B2D193
:10BE0000099B05930D9B059918000793FFF734FADA
:10BE10000B9B0593984200D00FE700230B930C9BDC
:10BE20009B4614E00B9B0A9A591C9142E6D8099A4A
:10BE300005922B220598C2540C9B0B9105932A3A2C
:10BE400094460A9A63449B460C939142D8D05B4631
:10BE5000002B00DA37E686E7002E88D1002D32D09D
:10BE6000049BAB4283D230230B9A9946594607E094
:10BE700000292ADB002D26D0049BAB4200D376E7B5
:10BE80000A9B501C013D984209D84946099B995488
:10BE900002000C9B0B90591C05930A9B0C919A4233
:10BEA000E6D1099B05930D9B059918000793FFF7B1
:10BEB000E3F90B9B0593984200D0BEE600230C9952
:10BEC0000B930022D4E7002551E78B46FBE5C046E3
:10BED000F0B54E4657464546E0B4214B1978994691
:10BEE00000292AD01F4B002598461F4B1F4F0126C3
:10BEF0009A4603E00135EDB28D421ED243461B68DF
:10BF000032009C46EC00644420783B688240134237
:10BF1000F0D093433B6000F069FF33002278514634
:10BF2000934009680B40010091408B420AD04B4678
:10BF300001351978EDB28D42E0D31CBC904699468C
:10BF4000A246F0BD6368002BF1D0617801394C4204
:10BF50004C41211A4C424C411000E1B29847E6E7AF
:10BF6000C0230020BC230020E4230020E82300207D
:10BF7000F8B5124D0700280000F0D0FC002807D1CA
:10BF80000124BC400E4E3368234202D0A3433360E9
:10BF9000F8BD380000F02AFF0A4A136800280BD0C9
:10BFA00023431360336800221C43074B28001968A1
:10BFB000346000F02FFCEBE7A343F2E7C42300203A
:10BFC000E8230020E4230020B8230020F0B54F46EA
:10BFD0004646C0B41400070083B00E000720042AB0
:10BFE00004D803B00CBC90469946F0BD00F0F0FDBB
:10BFF00000282FD01A4B1B4A1F601B4B751E1E704A
:10C000001A4BEDB21C6000231360194A1360002E16
:10C010001AD0184B01AC994603230026984600E03D
:10C020001D004246EB00FB182270A670E6709A785D
:10C030001878627021004A4600F0D4FD0028D0D163
:10C040006B1EDBB2002DEBD10B4A00210B4800F038
:10C05000C7FBC6E700F088FD0028CBD0C1E7C0468B
:10C06000BC230020E4230020C0230020B8230020AC
:10C07000E823002071BF0100D1BE0100243302007B
:10C0800070B5094D2B78002B0BD00024074E326879
:10C09000E300985C012100F055FE2B780134A342A7
:10C0A000F5D8002070BDC046C0230020BC2300206E
:10C0B000BFF34F8F024A034BDA60BFF34F8FFEE7A7
:10C0C0000400FA0500ED00E0002300B585B001AAE8
:10C0D00090600021034813805360FFF7E9FF05B02B
:10C0E00000BDC0460140000080218023184A89021B
:10C0F000D1508022D221174B520289005A50403928
:10C100005A5001222F205A600138C046C046C0460E
:10C11000C046C046C046C046C046C046C046C046EF
:10C12000C046F1D19A6000230B4A2F2013600138DA
:10C13000C046C046C046C046C046C046C046C046CF
:10C14000C046C046C046C046F1D1044A137070478D
:10C1500000E100E000100140EC2300200C2400204E
:10C16000A021F0B5002347462B4A490080B4535024
:10C170000431535004315350043153504C3953500F
:10C1800004315350254B1B68002B35D02449002621
:10C1900052582449244F0C68141B00222402240AFC
:10C1A000904602E0002D18D02B001A68A24214D845
:10C1B000A41AB6181A7CDD69002AF3D042469969A0
:10C1C0001A745A693B68002B19D010009847002850
:10C1D000E8D0FFF779FF002DE6D1144B14491A7807
:10C1E0000B789A420ED0134A9B009E5080218023E8
:10C1F000114A49035B00D15004BC9046F0BD0800D1
:10C200009047CFE70132D3B2022B01D00B70EAE79F
:10C2100000230B70E7E7C04600100140F023002028
:10C2200004050000EC230020F4230020002400205B
:10C23000012400200424002000E100E0F0B55F4666
:10C2400056464D464446F0B4C24BC34A1B68C349E8
:10C250008BB0059309781378994200D154E10133EA
:10C26000DBB2022B00D100231370BD4A9B009B5808
:10C27000B84A9A46059B53441B021B0A13600123CC
:10C280000193B84B00241B689B46B74B5A461B785A
:10C290009146190088460393B44B47461B68013FFB
:10C2A0000493AC4B1B680893B14B1B780793002396
:10C2B000099306931E00FBB29846FF2B32D04346EB
:10C2C000D800049B9C461300604401784578009692
:10C2D0001A00A9421FD046684A00B4465218867810
:10C2E0000131D200C9B262448E4200D1EBE016782F
:10C2F000022E00D1C5E0032EEAD1002BE8D01C7439
:10C30000DB69002BFBD1013345780093002399466C
:10C310001A00A942DFD14746013FFBB2009E984672
:10C32000FF2BCCD10292002E00D0F1E0069B002B17
:10C3300002D0884B089A1A60099B002B03D06A46EA
:10C340008B4B127F1A70019B002B00D02AE15B46B9
:10C35000029A00259B1A5A1E9341DBB205937D4B2E
:10C3600000271B6802999C467E4B1B689B46804BAE
:10C370001B780693002301937E4B9946012300937B
:10C38000039B013BDBB20393FF2B00D1F6E0049A41
:10C39000DB0092460E009A44002D28D06A68A968F6
:10C3A0002C00ED696346D31A1B021B0A4B4552D879
:10C3B0006A4612785B1823606760A7602274E761A1
:10C3C000002E58D031683000994205D3B6E011688C
:10C3D000994200D3A0E01000C2695B1A002AF6D18E
:10C3E000E26132002360C4611600002DD6D15346AD
:10C3F0001A785B7831009342C2D0514649685300A5
:10C40000884651469B180132D2B20A708978DB0007
:10C410004344914200D19AE0197832000129E3D1D6
:10C420005C68227C9046414632000029DCD19A6843
:10C430006260D968A1601869E0605B69A361069BCE
:10C44000002BAFD04346002263606346D31A1B0221
:10C450001B0A4B45ACD963469A1A1202120A8A4249
:10C4600061D28B1A6A46127823606760A7602274D3
:10C47000E761002EA6D122000123A34601931600F6
:10C48000B3E75668002B30D09E421ED0009A1F00A2
:10C49000944602E0964206D01700FA69002AF9D1C4
:10C4A0006246009214E765460095BA420FD01568BF
:10C4B000D269FA61002A16D013689C46654415605B
:10C4C00045784B4604E7002111E71A001F00DE699A
:10C4D000002E0CD0012500951568D269B1463300B5
:10C4E000FA61002AE8D14578F2E60023F0E601255A
:10C4F000214B9D6009950795069500250023089519
:10C50000013599460095D2E700239A460193B8E693
:10C510004A46144B1A6009E7C91A1160E2612360A8
:10C520003200C46160E76B461B7827606760A760D4
:10C530002374E761002E9ED000233168CB1A33604C
:10C5400022000123E661A346019316004DE75246FF
:10C55000157061E7EC230020002400200124002056
:10C5600004240020F0230020F8230020FC230020D6
:10C5700002240020FEFF7F0000100140019B002BE1
:10C5800000D09DE0029B994236D1059B002B33D110
:10C590000023534A13700BB03CBC90469946A24608
:10C5A000AB46F0BD4F4B002418680025029B0021CC
:10C5B0000026574615E01A68BA4200D984E0D868C8
:10C5C000BF1A89181E60DC69002807D0DD611D00D4
:10C5D000059A986052181202120A5A60230020002D
:10C5E000019C002BE7D1002C01D03E4B18600023AA
:10C5F000029301330593B2E6002900D15DE00B6898
:10C6000039489846394B3A4DC4583A4B2E781B68F6
:10C61000E11A0902090A0331002E2DD042468A424E
:10C6200000D20A00A820D21812022F49130AC00013
:10C630002E4D0B504A591B1B121B1202120A1B02D1
:10C6400003321B0A9A42A3D94B590B502F200138B1
:10C65000C046C046C046C046C046C046C046C046AA
:10C66000C046C046C046C046F1D180218023224A40
:10C6700089025B00D1508BE78026D1277602BF006C
:10C68000C651403FC651C02280271B4EBF025200F8
:10C69000B7503760012606602F200138C046C046DB
:10C6A000C046C046C046C046C046C046C046C0465A
:10C6B000C046C046F1D12E70B0E7FFF715FD67E721
:10C6C0005A46084B1A605DE7BA46002C01D005496E
:10C6D00008605146521A1A600293012305933EE600
:10C6E00002240020F0230020001001400405000077
:10C6F0000C240020EC23002000E100E0F8B54F46B8
:10C700004646C0B40326350080460F001400994603
:10C7100015400720002D03D00CBC90469946F8BD6B
:10C72000002A44D0FFF7E0FC4A46224B80201A60E2
:10C730002200214B18321E70204B62601C607B006F
:10C74000DB19DB00D218E260D318C02263612570C8
:10C750006570A77025726572A77225746574A774D9
:10C76000C524FF21164B40031D60164B52001D705F
:10C77000154BA4001D70154B98501A598A433F3928
:10C780000A431A51A122186040461149D20088502C
:10C79000C42080001C580F4A2240C0242402224397
:10C7A0001A500D4B0020CA580C4B1A60B4E7034BCB
:10C7B0001A60B1E7F4230020F8230020FC230020B6
:10C7C000F0230020002400200124002000E100E0EC
:10C7D00000100140FF00FFFF04050000EC230020D3
:10C7E00010B50B4B1B68002B0BD0002A07D000287C
:10C7F00005D0036808201C7C002C04D010BD072045
:10C80000FCE70820FAE759745A610020F6E7C046B1
:10C81000FC230020F0B5474680B43A4B1C68002C3E
:10C8200008D0002806D00723042905D8180004BC26
:10C830009046F0BD0823F9E74369002BFAD0437C0A
:10C84000012B48D000239C462F4B10255B68DB054D
:10C85000DB0D26D1641963785F1CFEB2A778B7425E
:10C860003DD02778B74238D05D00ED186368ED0001
:10C87000984645440423002DD8D0033B2B706860B4
:10C88000224B2348C358E960AB60634680212B618B
:10C8900080236A611F4A5B0049036670D150002300
:10C8A000C4E7103BDFB27DB2002D1ADB0326AD08D2
:10C8B000184FC035AD00ED593340DF002B00FB4071
:10C8C0009B093340DBB20025012BC3D00835032B75
:10C8D000C0D00835BEE78C46B6E70423A6E700269D
:10C8E000BFE70F230C4D3B40A8460325083B9B08A0
:10C8F0009B0043445B682F40FF00FB409B092B409B
:10C90000E0E7C046FC23002000ED00E00405000045
:10C910000010014000E100E018ED00E010B52F4AE2
:10C9200003001168082000292AD0002B28D05A695A
:10C93000002A25D000221A74294A08305268D205EC
:10C94000D20D1ED109184A788878541CE4B2A0424E
:10C9500032D00878A0422DD0500082184868D2000A
:10C96000844662440420002A0AD0023810705360C2
:10C970004C708023802100201A4A49035B00D1506B
:10C9800010BD103AD4B260B2002817DB8008154CF5
:10C99000C0308000005903242240D200D0408209D8
:10C9A0002240D2B20020012ACCD00830032AC9D0BC
:10C9B0000830C7E70420E3E70024CAE70F220A484B
:10C9C000224084460320083A92089200624452684A
:10C9D0000440E400E24092090240E2E7FC23002028
:10C9E00000ED00E000E100E018ED00E070B5104D52
:10C9F00082B02B780024002B02D0200002B070BD42
:10CA0000012680230096DB000A4A0B490020FEF72E
:10CA10002DFE002801D00824EFE700941023074AD8
:10CA200007490020FEF788FE0028F4D12E70E4E7C5
:10CA30002028002020240020283302001024002079
:10CA4000303302000EB400B582B003AB02CB01AAB2
:10CA50000193FEF7CBFF02B008BC03B01847C046F5
:10CA60000EB4F0B582B007AC40CC070001940025AD
:10CA70000434002E09DD231F1968380001350194A4
:10CA8000FEF7F6FC0434AE42F5D102B0F0BC08BCAF
:10CA900003B018470B7B002B04D101220B680271F5
:10CAA000036070474B680022F9E7C04610B5027971
:10CAB0000300002A08D048681C688A68011B91425C
:10CAC0000CD9A018186008E004688A680868211A60
:10CAD000914207D8012218601A7110BD0022186017
:10CAE0001A71FAE7A01A1860F7E7C046F0B50028F7
:10CAF0001EDBFF261A4B37009C4603238208C02505
:10CB0000C0B20340DB0089019F4031409940920050
:10CB10006244AD005459BC43214351511F23C021ED
:10CB200018401E3B83400E4A490053501360F0BD2D
:10CB3000FF250C4A2E00944603220F23C0B2024068
:10CB4000D20089019640294091400340083B9B0850
:10CB50009B006344DC69B4432143D961DEE7C046EE
:10CB600000E100E000ED00E070B54425164C08201F
:10CB7000635D002B00D070BD4022FF21013BA35418
:10CB80000132A1540132A354236201326362A362D1
:10CB9000E36223636363A363E363FC390238A35452
:10CBA00023606360A360E36023616361A361E36169
:10CBB000FFF79CFF8021C123044A9B000906D15046
:10CBC000012300206355D6E72428002000600040A0
:10CBD0004423034AD05C431E9841C0B27047C0460C
:10CBE00024280020F0B5474680B4534C082523186C
:10CBF00020331E787F2E03D8280004BC9046F0BD59
:10CC0000CD78AC46002D36D02568013500D188E0BE
:10CC1000042300269846731C9D006759013733D0C2
:10CC2000B31C984525D99D00675901372CD0F31CBA
:10CC300098451ED99D006759013725D0331D984569
:10CC400017D99D00675901371ED0731D984510D91B
:10CC50009D006759013717D0B31D984509D99D002C
:10CC60006759013710D00736B04502D9E36901335F
:10CC700008D00425C0E72569013557D008230426CC
:10CC80009846C8E707231C25625162462718DEB282
:10CC900020373E70002A02D1E3183C3318708B789D
:10CCA000002B15D10300A0254A78C133FF33920031
:10CCB0009B00ED055A51CB78002B15D176B2A41903
:10CCC0003C340B7822789B0113432370002593E7B3
:10CCD000A022D2059446E025022783006344ED009C
:10CCE0005A59BA435A51E6E7144A0B789446A2219E
:10CCF00076B2B6006644C9007458114A0002224058
:10CD00007250F822520110400500C022180403009E
:10CD10002800920274581340184320437050002595
:10CD20006AE7002522601D700026B8E7042522610D
:10CD30001D702E002B00AFE724280020006000406B
:10CD4000FFE0FCFFF0B5264D2C182034227853B2BA
:10CD5000032B18DDEB183C331B789B09032B32D0D7
:10CD6000012B39D0C0218902A023DB059C46E0239A
:10CD700080006044DB00C4581A4A2240C250C258A6
:10CD80000A43C250F0BD032AFCD81748A2278446A4
:10CD900001269A006244FF00D0593043D0511A0056
:10CDA000604600274032920092B217500029E9D025
:10CDB0000022A25692005259002AE3D09E40C1237D
:10CDC0009B00C650DEE7A223A022DB00D205D2588A
:10CDD000012383401A42C5D180218902C4E7C0469D
:10CDE00024280020FFFFFCFF00600040A222A021B9
:10CDF0000300D200C9058858D84001231840704765
:10CE0000F0B557464E464546E0B4D44A0024136870
:10CE1000012B00D1C1E0D24B1A68012A00D1CAE02F
:10CE2000D04B1A68012A00D1D5E0CF4B1A68012AED
:10CE300000D1E0E0CD4B00251A68012A00D1EBE0DB
:10CE400023070BD0E30700D5FCE0A30700D508E1DA
:10CE5000630700D513E1230700D5E7E0002C04DBCE
:10CE60001CBC90469946A246F0BD4023C04CE15CF4
:10CE70004BB201331ED0C9B2C02308009843231817
:10CE800020331B785BB29B001E59002E12D0A023CA
:10CE90000127DB059C46E023874082006244DB00DB
:10CEA000D35889099B039B0F3D4200D10FE1022B10
:10CEB00000D173E14123E15C4BB201331ED0C9B212
:10CEC000C02308009843231820331B785BB29B00D3
:10CED0001E59002E12D0A0230127DB059C46E0231B
:10CEE000874082006244DB00D35889099B039B0F73
:10CEF0003D4200D1D3E0022B00D143E14223E15C6B
:10CF00004BB201331ED0C9B2C02308009843231886
:10CF100020331B785BB29B001E59002E12D0A02339
:10CF20000127DB059C46E023874082006244DB004A
:10CF3000D35889099B039B0F3D4200D1F6E0022B99
:10CF400000D125E14323E15C4BB2013300D187E7F7
:10CF5000C9B2C02308009843231820331B785BB262
:10CF60009B001E59002E00D17AE7A0230124DB0587
:10CF70009C46E023844082006244DB00D358890948
:10CF80009B039B0F254200D1BDE0022B00D067E739
:10CF9000032900D108E1B04762E7C1217548890043
:10CFA00041580B4200D136E76D4B14601A680134CA
:10CFB000012A00D034E7C1226E499200895802222A
:10CFC0000A4200D12CE700211960664B14431A680D
:10CFD000012A00D029E7C12266499200895804221B
:10CFE0000A4200D121E7002119605F4B14431A68FF
:10CFF000012A00D01EE7C1225E499200895808220A
:10D000000A4200D116E700211960584B14431A68F0
:10D010000025012A00D013E71D6080231B061C4356
:10D02000A022A223D205DB00D55809E7514A524B72
:10D03000D058D1584E4B8903C004890FC00EDB680D
:10D0400098470BE7A2234B4ADB00D058D158484BF6
:10D050008903C0041B68890FC00E9847A30700D43A
:10D06000F6E6464B434AD058D158414B8903C00499
:10D070005B68890FC00E9847630700D4EBE6A323D3
:10D080003C4ADB00D058D158394B8903C0049B6817
:10D09000890FC00E9847230700D4DFE6C6E7032BAD
:10D0A00000D02BE7032910D180239B029C46E0236C
:10D0B000DB009946324FD3581F404B46D750D758C4
:10D0C00063463B431F004B46D750B04716E7032B40
:10D0D00000D0EFE6032914D180239B029A46E02377
:10D0E000DB00D7589946B846254FBC4647466346AD
:10D0F0001F403B004F46D351D35957461F434B4621
:10D10000D750B047D6E6032B00D0A9E6032900D0BC
:10D1100041E78027BF02E023DB00D458184D2540AB
:10D12000D550D4583C43D450B04799E6032B00D097
:10D1300008E7032910D180239B029C46E023DB00F3
:10D1400099460F4FD3581F404B46D750D758634688
:10D150003B431F004B46D750B047F3E60061004009
:10D1600004610040086100400C6100407C610040A7
:10D1700024280020006000401C0500001405000069
:10D18000FFFFFCFF0329A0D1C0239B029C468EE732
:10D190000329E1D1C0239B029C46CFE70329B0D1EC
:10D1A000C0239B029A469AE7C027BF02B3E7C04656
:10D1B000C12210B5604B92009A5884B092054DD5AB
:10D1C0005E4A1168002949D0002111608121C222E4
:10D1D0008900920099505A4B9A7E002A02D101216F
:10D1E000584A1160022269460A7090215248C900CB
:10D1F0004258425069460392DA7D68460A72DA68FC
:10D20000196801920022DA751A765B6898474E4ACF
:10D210001368002B10D04A4B988A997D81424FD9D0
:10D22000002111609A8A9968895C9A8A013292B2C7
:10D230009A82464B404AD150454B1A68002A0BD07F
:10D2400000221A603E4B9A7E002A02D001213A4AFF
:10D250001160DA7D002A42D104B010BDC123364AE4
:10D260009B00D3585B07D2D53A490B68002BCED030
:10D27000334BD87D00283FD10860A321C900525804
:10D280005A7ED97D9142C2D11A7E002A41D19A7E1E
:10D29000002A02D101212B4A11608120C222264995
:10D2A000800092008850002268460121DA755A7E7B
:10D2B00001700272DA68196801925B689847A6E704
:10D2C000002010600029B7D06A46107011729A6869
:10D2D0009875196801925B6868469847ACE7002228
:10D2E00068460121DA755A7E01700272DA6819689F
:10D2F00001925B689847AFE700200860A320C00058
:10D30000597E1258D86842545A7E0132D2B25A76A7
:10D31000B6E7DA751A69D968DA6000226C46587E79
:10D320001A765A7601322072019122701968684685
:10D330005B6898476BE7C04600200040242100400E
:10D340006C280020042000401C2100401C05000027
:10D35000442100400821004029DF704728DF704742
:10D36000F0B5564644465F464D46F0B4534E85B040
:10D370003478012C66D0002C4CD0022C15D0032C14
:10D380000CD14F4B1868FFF7E9FF002806D0112891
:10D3900060D108234B4A11680B43136005B03CBCB5
:10D3A00090469946A246AB46F0BD464B9A461B684E
:10D3B0000393454B99461B789D00ED188023AD00E3
:10D3C0005B0519694D442F690904090C38009B4617
:10D3D00005F0E6FD3A4B804618605B461969E8881F
:10D3E000013F0904C019090C05F0DAFD80452CD075
:10D3F0000323039C9C4353461C60344B1B68002B47
:10D4000002D10233234241D00022314B1A7000F086
:10D41000F3FAC3E72F4B1C602F4B1C602A4B5A7842
:10D42000002ABBD01A7891008A1892009B18D988DC
:10D430002A4A1B791160032B25D0042B23D0012B02
:10D44000ACD1337000F07AFCA8E70123039A9A4329
:10D450001443D0E71C4D2B789C00E3189C002A193C
:10D46000140053691179D2680C345500AA181B4D69
:10D4700092002D6800951A4D555902002000A847CA
:10D48000042333708AE700F02DF887E7104A4046FE
:10D490001370FFF763FF002800D17FE7112804D144
:10D4A00008231C4353461C6078E74B461B789C00BE
:10D4B000E4184B46A4001A19D2E7C046622900209E
:10D4C0005429002070290020882800206429002089
:10D4D00063290020742900205C2900206C29002089
:10D4E00078290020F0B55F4656464D464446F0B4D4
:10D4F0005B4B5C481A78802691008A1892009B1832
:10D50000DF681D697A00D219920082181489508947
:10D510005268604380469044DA881B89140099461B
:10D52000514B92469B4600235A467605316983B09B
:10D5300009044C441360090C2800641905F0B6FD79
:10D5400000295CD133699BB29A4542D0A04500D1F5
:10D5500074E0022F3DD02800316948440904090CC9
:10D5600005F0A4FD414B8908196031690904090CD3
:10D57000200005F09BFD002925D080256D05296937
:10D580002B696A4699464346D380D08889B205F014
:10D5900007FD6A464B46A6B2D3800700D18830000B
:10D5A00005F0FEFCBFB280B287423DD02C692969EC
:10D5B000300089B205F07AFD5B462404240C89B260
:10D5C000641AA4081C600222294B1A70FFF7C8FED7
:10D5D0000EE080235B05196928000904090C05F099
:10D5E000DFFC0322234B1860214B1A70FFF7B8FEB3
:10D5F00003B03CBC90469946A246AB46F0BD022F14
:10D60000E7D02800316948440904090C05F04EFDB3
:10D61000164B890819603169A045A7D10222144B25
:10D620001A70FFF79DFEE3E7434624041B041B0C1E
:10D63000240C1C1B5B46A4081C60C4E74B46002B53
:10D64000C7D0022FC5D02800316948440904090C0D
:10D6500005F02CFD054B890819603369B3E7C04616
:10D6600088280020782900205829002064290020DB
:10D670006229002054290020082170B50C00244A9A
:10D6800082B013681C4009D08B431360214B224A9F
:10D690001B789B009B58984702B070BD1F4D2B789C
:10D6A0009800C31898002A18117904292AD010006C
:10D6B0005369D2680C305600B218194E9200366881
:10D6C0000096184E96590022B04701212A789300FF
:10D6D0009B189B00EB181C71DC80D9601C615C619D
:10D6E0001C816B780132013BD2B26B700A2A06D0E2
:10D6F0002A7000220C4B1A70FFF732FECCE7002391
:10D700002B70F6E70122084B1A70FFF729FEC3E7DA
:10D710007029002063290020383302008828002067
:10D720006C2900207829002062290020802230B551
:10D730005205234B14691B682404013B240C5C43F1
:10D74000204B83B05869431C37D011690904090C78
:10D7500005F026FC80235B0519691B4B0904013881
:10D76000090C41431A682000FFF7F6FD002806D097
:10D77000112806D10823154A11680B43136003B022
:10D7800030BD134D2B789C00E3189C002A1914001F
:10D7900053691179D2680C345500AA180D4D9200C6
:10D7A0002D6800950C4D555902002000A847042211
:10D7B0000A4B1A70FFF7D4FDE1E75069CAE7C0468B
:10D7C0005429002000100010642900207029002036
:10D7D000882800206C290020782900206229002058
:10D7E00030B5244B83B05869431C3FD080235B0580
:10D7F00019690904090C05F0D3FB8022520513694D
:10D800001D4C11691269090424681B0492B2090CA9
:10D8100001381B0C920861435843FFF79DFD002817
:10D8200006D0112806D10823144A11680B4313604F
:10D8300003B030BD124D2B789C00E3189C002A19D0
:10D84000140053691179D2680C345500AA180D4D93
:10D8500092002D6800950C4D555902002000A847F4
:10D8600004220A4B1A70FFF77BFDE1E780235B057A
:10D870005869C2E7001000105429002070290020C8
:10D88000882800206C2900207829002062290020A7
:10D89000F0B58027284C7F05237839699A00D31882
:10D8A0009B00E3181A89DD881B69AD18ED1809047F
:10D8B00083B0090C280005F0F9FB204B0E005869D5
:10D8C000431C37D039690904090C05F069FB802332
:10D8D0005B051B69411E1B041B0C5943184A89191F
:10D8E00012682800FFF738FD002806D0112806D15D
:10D8F0000823144A11680B43136003B0F0BD257868
:10D90000AB005D19AD006219140053691179D2683A
:10D910000C345500AA180C4D92002D6800950B4D43
:10D92000555902002000A8470422094B1A70FFF73E
:10D9300017FDE2E77869CAE7882800200010001088
:10D9400058290020702900206C2900207829002007
:10D9500062290020082330B51F4D83B02C68234274
:10D9600014D1A30702D501231C432C6002221B4BB8
:10D970001A701B4B1868FFF7F1FC002804D011281F
:10D980000DD108231C432C6003B030BD9C43134BC6
:10D99000144A1B782C609B009B589847F4E7124D63
:10D9A0002B789C00E3189C002A1914005369117904
:10D9B000D2680C345500AA180C4D92002D680095C1
:10D9C0000B4D555902002000A8470422094B1A703C
:10D9D000FFF7C6FCD8E7C046702900206329002065
:10D9E0005429002038330200882800206C290020A8
:10D9F000782900206229002030B5224B83B0586975
:10DA0000431C3BD080235B0519690904090C05F010
:10DA1000C7FA80225205136911691B041B0C0138D7
:10DA200009045843090C05F0BBFAFFF797FC0028DE
:10DA300006D0112806D10823134A11680B4313603E
:10DA400003B030BD114D2B789C00E3189C002A19BF
:10DA5000140053691179D2680C345500AA180C4D82
:10DA600092002D6800950B4D555902002000A847E3
:10DA70000422094B1A70FFF773FCE1E780235B0572
:10DA80005869C6E70010001070290020882800207F
:10DA90006C2900207829002062290020082370B515
:10DAA0002B4D82B02C68234209D09C43294B2A4A33
:10DAB0001B782C609B009B58984702B070BD0122D8
:10DAC000244B1A70254B5869431C3CD080235B05BE
:10DAD00019690904090C05F063FA802252051369DB
:10DAE0001F4E11691269090436681B0492B2090CB1
:10DAF00001381B0C920871435843FFF72DFC002896
:10DB0000DBD0112803D108231C432C60D5E7154D29
:10DB10002B789C00E3189C002A1914005369117992
:10DB2000D2680C345500AA180F4D92002D6800954C
:10DB30000E4D555902002000A84704220C4B1A70C4
:10DB4000FFF70EFCB9E780235B055869C5E7C046BF
:10DB500070290020632900203833020000100010D3
:10DB600054290020882800206C29002078290020D2
:10DB700062290020F0B54D4644465F465646F0B453
:10DB8000644B85B01D68984608231A002A409146C8
:10DB900000D076E0604F3C78A30003931B199B00F4
:10DBA000FB181A69561EDA881B89B618F6188023E6
:10DBB0005B051969594B1B689A46002B44D1584B99
:10DBC0001B689B4680235B05196930000904090C1A
:10DBD00005F0E6F9834566D353465CD0002B5CD153
:10DBE000039B9C466444A4003A19117904296CD023
:10DBF00010005369D2680C305400A218494C9200AE
:10DC000024680094484C14590022A04751463A78A1
:10DC100093009B189B00FB1819715146D980012174
:10DC2000D960514619615961514619817B78013299
:10DC3000013BD2B27B700A2A4DD03A7000223B4B96
:10DC40001A70FFF78DFB15E0354B09041B68090CB2
:10DC500030009B4605F0A4F95845B3D14A46344BF1
:10DC60001A6001231D4343464A461D60314B1A701A
:10DC7000FFF7C2FE05B03CBC90469946A246AB46B3
:10DC8000F0BD9D4343461D602A4B2B4A1B789B00E9
:10DC90009B589847EEE7002B05D00322254B1A70BE
:10DCA000FFF7F6FDE6E70022214B58461A60214BAC
:10DCB00002321A70FFF752FB0028DBD011280DD179
:10DCC00008231D4343461D60D4E70122174B1A70F9
:10DCD000FFF746FBCEE700233B70AFE73B789A00A7
:10DCE000D2189200BC182700E268636921795400B9
:10DCF000A2180C4C0C372468920000940A4C14595A
:10DD000002003800A0470422084B1A70FFF728FBD6
:10DD1000B0E7C0467029002088280020582900203C
:10DD2000542900206C290020782900206229002035
:10DD3000642900206329002038330200F0B54F46E3
:10DD40004646C0B48027444E7F0534783969A50023
:10DD50002B199B00F318DA8889B283B08A421AD84B
:10DD6000188959691B699208C018FFF7F5FA00284D
:10DD700006D011282FD10823384A11680B431360AD
:10DD80002C19A4003419E288354B1A6003B00CBC7E
:10DD900090469946F0BD3D6959692D042D0C551BDF
:10DDA00018893A691B6992B2C0189208491940193A
:10DDB000FFF7D2FA002806D011282BD10823274AD2
:10DDC00011680B43136080235B051B69244A1B0405
:10DDD0001B0C1360DAE73778BB00DF19BF00F219BC
:10DDE000536911791700D268994653009C461D4B20
:10DDF00062441B68920000931B4B0C37D3580200FF
:10DE0000984638004B46C0470422184B1A70FFF75B
:10DE1000A7FAB5E73478A3001C19A400321914003E
:10DE200053691179D2680C345500AA180D4D92002F
:10DE30002D6800950C4D555902002000A84704227A
:10DE40000A4B1A70FFF78CFA80235B051B69044AA2
:10DE50001B041B0C136099E7882800207029002000
:10DE60005C2900206C2900207829002062290020EC
:10DE7000F0B546464F460823C0B4704E83B03468B0
:10DE800023426DD16E4B1A68571C1F606D4B1D6885
:10DE9000002D28D16C4B1D7899468023A800451988
:10DEA0005B051969AB0098464D4645442B6909044A
:10DEB000581EEB88090CC0182B89C01805F070F8A3
:10DEC000874265D3614B60D01F68002F00D17BE093
:10DED00001231A00224050D11C435D4B34601A705C
:10DEE000FFF78AFD44E00421594B197080235B053C
:10DEF0001F693F043F0C5743564A5069421C42D0A9
:10DF000019690904090C05F04BF880235B051969B0
:10DF100001380904090C41432A003800FFF71CFAB4
:10DF2000002825D011284BD0474D2B789C00E318B2
:10DF30009C002A19140053691179D2680C345500D9
:10DF4000AA18454D92002D680095444D5559020080
:10DF50002000A8470422424B1A70FFF701FA07E09D
:10DF60009C433B4B3F4A1B7834609B009B5898472F
:10DF700003B00CBC90469946F0BD0322344B1A7096
:10DF8000FFF786FCF4E75869BFE71B68002B9FD1B9
:10DF900002222F4B38001A70FFF7E0F90028E7D073
:10DFA00011280DD04B461B789A00D2184B46920090
:10DFB0009D182A000C3214006B692979EA68BEE7C3
:10DFC00008231C433460D3E7297904292CD0424626
:10DFD0004A440C321000EA686B695400A2181E4CC7
:10DFE0009200246800941D4C14590022A0474B460F
:10DFF00001211A7893009B189B004B44D9601F7134
:10E00000DF801F615F611F814B4649465B780132AB
:10E01000013BD2B24B700A2A0CD00A700022104B7E
:10E020001A70FFF79DF9A3E701220D4B1A70FFF755
:10E0300097F99DE700230B70F0E7C0467029002098
:10E040005429002064290020882800205829002015
:10E0500063290020001000106C290020782900207E
:10E06000622900203833020030B5154B83B01868A0
:10E07000FFF774F9002806D0112806D10823114AA9
:10E0800011680B43136003B030BD0F4D2B789C001B
:10E09000E3189C002A19140053691179D2680C34D2
:10E0A0005500AA18094D92002D680095084D555944
:10E0B00002002000A8470422064B1A70E3E7C0467E
:10E0C0005429002070290020882800206C29002075
:10E0D0007829002062290020F0B557464E46454673
:10E0E000E0B4984608AB1B8894469A461C4B04241F
:10E0F0005F781E000A2F2DD01B78FC18092C00DD3C
:10E100000A3C142254433419207160466061200097
:10E110000C30914624C924C041465246E1802281F8
:10E120000024104A013711787770A14212D14D4670
:10E130005D437319D8880C491B790860032B07D0FD
:10E14000042B05D0012B05D11370FFF7F7FD01E07B
:10E15000FFF7C8F920001CBC90469946A246F0BDC6
:10E1600088280020622900206C290020F0B546464E
:10E170004F46C0B4734D04262C7883B02300B343BC
:10E180000ED0022811D003280AD108216E4A136844
:10E1900019425DD0022C54D0032C4DD0012C4BD011
:10E1A00003B00CBC90469946F0BD022C49D0032C1C
:10E1B0005DD0012CF4D10821634A136819423BD188
:10E1C000624E33789800C3189800614B32181F686C
:10E1D000D388DF1BBFB2D780002F00D08AE05369FD
:10E1E00011791000D268994653009C46594B6244FD
:10E1F0001B6892000093584B0C30D358002298466D
:10E200004B46C047327893009B189B00F3181F7150
:10E21000DF80DC601F615F611F8173780132013B29
:10E22000D2B2737032700A2A01D1002333700023F6
:10E230002B70FFF795F8B3E78B431360FFF790F867
:10E24000AEE7464B464A1B789B009B589847A7E78A
:10E25000444A136801331360032B4ED0022CEDD1D6
:10E260003E4B414A1B789B009B58984798E70821F2
:10E27000354A13681942DFD13C4B344E1A68347862
:10E28000571C1F6080235B051969A30098461B1962
:10E290009B00F3181A690904501EDA881B8980183C
:10E2A000C018090C04F07CFE8742C7D344D0444414
:10E2B000A40032191179042939D034192000536986
:10E2C000D2680C305400A218224C920024680094AA
:10E2D000214C14590022A0470021012032789300DC
:10E2E0009B189B00F3181971D980D8601961596186
:10E2F000198192E7FFF722FD52E7144803789A004C
:10E30000D3189A00841822000C321000E268636966
:10E3100021795400A2180F4C9200246800940E4CEE
:10E3200014590D22A0472E70FFF71AF838E7012381
:10E330002B70FFF715F833E70D4B1B68002BB6D198
:10E340007CE7C04662290020702900208828002030
:10E350005C2900206C2900207829002063290020F6
:10E360004C33020074290020383302005429002065
:10E370005829002010B500202C2400220121464BF2
:10E3800018551434185502341A5302341A531034E1
:10E39000185502341A530234D96018761962596339
:10E3A0009964D9651A705A701A71DA801A615A61C3
:10E3B0001A815A835A629A629A83DA859A63DA6377
:10E3C0001A86DA641A651A665A661A531034185592
:10E3D00002341A5302341A531034185502341A53A3
:10E3E0000634195104341A5104341A510C3C1A538E
:10E3F0001034185502341A530634195104341A5182
:10E4000004341A510C3C1A531034185502341A5360
:10E410000634195104341A5104341A510C3C1A535D
:10E4200010341855BA201A52063019501967C331E2
:10E430005A5004315A500C395A679A675A52174B3E
:10E440001A80174B5869431C22D080235B05196939
:10E450000904090C04F0A4FD80235B051B69023844
:10E460001B041B0C58430F4B0021186000230E4A5D
:10E47000002013600D4A1360138153810C4A117000
:10E480000C4A13600C4A136004220C4B1A6010BD36
:10E4900080235B055869DFE7882800206029002079
:10E4A000001000106829002054290020782900203D
:10E4B00062290020742900205C2900207029002096
:10E4C000F8B54F464646C0B4314B04001B680D00FA
:10E4D00008205B0703D40CBC90469946F8BD002C7D
:10E4E00052D0002950D02368002B4DD080225205F5
:10E4F0001369A6889BB201389E42ECD80F2EEAD948
:10E50000E388002BE7D0734399462249224B0F68DA
:10E5100058698846B944431C38D011690904090C6C
:10E5200004F03EFD80225205136901381B041B0CC8
:10E53000434307209945CED8B307CCD1174B0338B6
:10E540001E889946012EC6D00C23C0C573431448BB
:10E550002568C1184F601D50A58801360D81E088DF
:10E5600048816843136911699BB2C018013889B2A8
:10E57000146904F09FFD4346A4B26043C7191F60AD
:10E580004B4600201E80A6E70E20A4E75069C9E78D
:10E590007029002068290020001000106029002048
:10E5A0007829002030B5114B1C680823640701D47A
:10E5B000180030BD002806D0002A04D00368002BC4
:10E5C00003D00723F4E70E23F2E7094C2568002D5A
:10E5D000F7D0258940686943091860894543606818
:10E5E0002D18A942EDD213605160E1E77029002097
:10E5F00078290020F0B5474680B41D4C05002468FA
:10E6000082B00820640703D402B004BC9046F0BD79
:10E6100000292BD0002D29D02C680138002CF3D1F3
:10E62000144C2668002EEFD06E686789B0462689A4
:10E630007743B4466668BC19A045E5D2002AE3D00A
:10E640009445E1D3D418A445DEDB09308C07DBD137
:10E6500003242342D8D146462642D5D100930F3811
:10E6600013000A002900FFF737FDCDE70E20CBE7A6
:10E670007029002078290020F0B5474680B41D4C51
:10E680000500246882B00820640703D402B004BCEB
:10E690009046F0BD00292BD0002D29D02C680138E0
:10E6A000002CF3D1144C2668002EEFD06E686789D9
:10E6B000B04626897743B4466668BC19A045E5D2C2
:10E6C000002AE3D09445E1D3D418A445DEDB093019
:10E6D0008C07DBD103242342D8D146462642D5D12C
:10E6E00000930C3813000A002900FFF7F5FCCDE772
:10E6F0000E20CBE77029002078290020F0B54F4686
:10E700004646C0B41700264A83B0126806000D00C2
:10E710000824520705D4200003B00CBC904699464B
:10E72000F0BD002906D0002804D00C68002C03D0CE
:10E730000724F0E70E24EEE71A4A90461268002AF2
:10E74000F6D0424610895289496842439146424672
:10E75000526894464A4662449142E9D2002FE7D07B
:10E76000B842E5D3FA189042E2DBB20701D0102498
:10E77000D1E703221342FAD10A409146F7D1591842
:10E780003A00300004F091FD0C232A6800975343AF
:10E7900042460221D758280033004A46B847BAE714
:10E7A0007029002078290020F0B546464F46C0B4B5
:10E7B000224B83B01B6805000E0008245B0705D4BC
:10E7C000200003B00CBC90469946F0BD002833D021
:10E7D0000368013C002BF3D1194B1A68002AEFD0D3
:10E7E00042685F8990461A89586857433F18914696
:10E7F000B845E5D2434609349B07E1D143461100B1
:10E80000181A04F053FC093C0029D9D149463000BC
:10E8100004F04CFC89B20029D2D1002ED0D043465E
:10E82000F3189F42CCD3002233000092290003202A
:10E83000FFF752FC0400C3E70E24C1E77029002053
:10E8400078290020074B1A680823520701D41800C2
:10E850007047002804D0044B5B7803600023F6E780
:10E860000E23F4E77029002088280020A02210B58C
:10E87000064BD205D15880231B041C00A1208C43D9
:10E880000B400349C0001450535010BD0405000054
:10E890000C050000F8B54F4646460400C0B41128E8
:10E8A00009D0122839D0132839D0142839D00CBCFB
:10E8B00090469946F8BD0025012911D000291FD0A6
:10E8C0000229F4D16B005D191F4B5D196E78002E83
:10E8D000EDD01E4B1B68002BE9D030009847E6E7CF
:10E8E000194B6F00984642467B19D65C43445B78CF
:10E8F000002B18D17F194744BA78154B5A55E6E7D3
:10E900001448FEF70BF8104A6B005B19D318104A35
:10E910009B78565D9E42CAD1D9E70125CCE70225F6
:10E92000CAE70325C8E70C4B0A4899460B4B4A46F1
:10E930001B689900C9184900FDF76CFF0028D9D160
:10E940004B461C70D6E7C046002A0020A4290020B0
:10E95000B8290020BC290020B0290020B4290020BB
:10E96000F8B5C64B1B68DB0700D4F8BDC44A147861
:10E97000172CFAD8C349A300CB589F46A022C24BFC
:10E98000D205D1588023DB031C00A1208C430B400F
:10E99000BE49C00014505350BD4B00221B68BD48F7
:10E9A0009900C918FDF736FFDFE7A023F021B74A29
:10E9B000DB05490499500021043A9950D5E7A0227B
:10E9C000B14BD205D1588023DB031C00A1208C431E
:10E9D0000B40AE49C00014505350AD4B0022196893
:10E9E000AC48FDF717FFC0E7AB4BA1201968E02347
:10E9F0005B048B43A0210026F025C905C000A34C71
:10EA00000B50A14B0E51CB586D046B408025AD03CC
:10EA10002B4000D129E10D5003230E510821137022
:10EA20009B4B00221B689B485943FDF7F3FE9CE774
:10EA3000994BA1201968E0235B048B43A021002699
:10EA4000F025C905C000914C0B508F4B0E51CB588F
:10EA50006D046B408025AD032B4000D100E10D50CB
:10EA600004230E512821DAE7A023A122E021DB05AF
:10EA7000D20049048024995000218448A4031950ED
:10EA80001C50995071E7854D2800FDF747FF112371
:10EA90001C1B00D1C9E0002800D0C6E080237E4EB8
:10EAA0001B043360012C10D0C8306421604304F093
:10EAB00077FA774B00221B68434328001900FDF7C3
:10EAC000A9FEF02332685B041340A0226F49D205EF
:10EAD0005350A1230021DB00D15046E76E4BA1210A
:10EAE0001A68F0235B049343A022C900D205535057
:10EAF0000021664BD15038E7674BA1201968E0230D
:10EB00005B048B43A0210027F026C905C0005F4DA0
:10EB10000B505D4B4F51CB58760473408026B603A3
:10EB2000334000D190E00E504F512821022C79D073
:10EB3000147075E7A023A122C021DB05D20049048F
:10EB4000C024995000215148E40319501C50995099
:10EB50000BE7A023A122D021DB05D20049048024A9
:10EB6000995000214948E40319501C509950FCE683
:10EB7000A023F021A122DB054904D20099500021F5
:10EB8000424A9950F1E6E022434B52041B68A1210E
:10EB90009A43A023C900DB0580245A5000223B4839
:10EBA000A4031A501C505A50DFE63B4BA1201968B1
:10EBB000E0235B048B43A0210026F025C905C0009B
:10EBC000324C0B50304B0E51CB586D046B408025AE
:10EBD000AD032B4041D00D500E51052313702C4B2B
:10EBE000002219682B484900FDF714FEBDE62A4BA8
:10EBF000A1201968E0235B048B43A0210026F025A7
:10EC0000C905C000214C0B501F4B0E51CB586D0451
:10EC10006B408025AD032B402CD00D500E510623A8
:10EC20001370DAE616391470FAE6F0231A4A5B0418
:10EC30001168A1200B40A021C000C9050B50002382
:10EC400012480B50136090E64E510B500421022CD9
:10EC500000D06DE702391470E2E60D510B50BCE7AD
:10EC60000D510B5004210423D9E60D510B50022104
:10EC70000323D4E60D510B50D1E7C046AC29002048
:10EC8000DC29002060330200040500000C050000B0
:10EC9000B429002084290020A8290020E029002090
:10ECA00010B50378112B06D0122B12D0132B12D0D3
:10ECB000142B12D010BD00235A00D318084AD318C1
:10ECC00058780028F6D0074B1B68002BF2D09847E5
:10ECD000F0E70123F0E70223EEE7113BECE7C04643
:10ECE000002A0020A4290020002303280DD8A223F5
:10ECF000A022DB00D205D258054B8000C05801236A
:10ED0000834093435A1E9341DBB200200B7070473F
:10ED10002034020070B5DB4B04001B680020DB07C9
:10ED200000D470BD172CFCD8D74AA300D3589F46F7
:10ED3000A022D64BD205D1588023DB031C00A12092
:10ED40008C430B40D249C00014505350D14B002289
:10ED50001B68D1489900C918FDF75CFDE1E7A022C6
:10ED6000CA4BD205D1588023DB031C00A1208C4361
:10ED70000B40C749C00014505350C64B00221968BD
:10ED8000C548FDF747FDCCE7C44D2800FDF7C6FD9B
:10ED900011231C1B00D14CE1002800D049E1802345
:10EDA000BF4E1B043360012C10D0C8306421604377
:10EDB00004F0F6F8B74B00221B6843432800190003
:10EDC000FDF728FDF02332685B041340A022B04910
:10EDD000D2055350A1230021DB00D150A1E7A0238D
:10EDE000F021A122DB054904D20099500021A84A54
:10EDF000002099501222AB4B1A7092E7A023A12257
:10EE0000E021DB05D2004904802499500021A0486C
:10EE1000A40319501C5099501322A24B00201A70C1
:10EE20007FE7A023F0219A4ADB054904995000218D
:10EE3000043A99509B4B00201C7072E7984BA1211B
:10EE40001A68F0235B049343A022C900D2055350F3
:10EE500000238F4900205350924A137061E7904B72
:10EE6000A1211A68E0235B049343A0220026F02529
:10EE7000D205C90086485350844B1650D3586D04B0
:10EE80006B408025AD032B4000D1E9E05550165072
:10EE90002821022C00D1F2E0824B1C707D4B002215
:10EEA0001B687D485943FDF7B5FC3AE7A023F021E4
:10EEB000774ADB05490499500021043A99500C2205
:10EEC000784B00201A702CE7A023A122D021DB056B
:10EED000D20049048024995000216D48E403195060
:10EEE0001C50995014226F4B00201A7019E76C4B7C
:10EEF000A1211A68E0235B049343A0220025F0249B
:10EF0000D205C90062485350604B1550D358640471
:10EF100063408024A403234000D199E0545015504D
:10EF2000082103221AE05E4BA1211A68E0235B044A
:10EF30009343A0220025F024D205C9005448535021
:10EF4000524B1550D358640463408024A4032340DB
:10EF500000D18DE05450282115500422514B1A70D5
:10EF60009CE7E0224E4B52041B68A1219A43A02348
:10EF7000C900DB0580245A5000224548A4031A50DA
:10EF80001C505A50474B07321A700020C9E6A02384
:10EF9000A122C021DB05D2004904C02499500021E0
:10EFA0003B48E40319501C50995015223D4B00205A
:10EFB0001A70B6E63A4BA1211A68E0235B0493432A
:10EFC000A0220025F024D205C900314853502F4B10
:10EFD0001550D358640463408024A40323403CD0DC
:10EFE0005450155005222F4B2B481A70294B0022E4
:10EFF00019684900FDF70EFC93E6294BA1211A6818
:10F00000E0235B049343A0220025F024D205C9002D
:10F010001F4853501D4B1550D3586404634080243F
:10F02000A403234028D05450155006221D4B1A70BB
:10F03000A3E6F0231A4A5B041168A1240B40A02127
:10F04000E400C9050B510023114C0B51136068E615
:10F05000145053500221032280E714505350C1E74B
:10F06000155053500421022C00D015E7023913E744
:10F0700014505350042170E714505350D5E71639FB
:10F080000AE7C046AC290020C03302000405000096
:10F090000C050000B429002084290020E02900206C
:10F0A000A8290020DC290020234B10B51960234B30
:10F0B00004001860224B1A60830712D50D22214BE1
:10F0C00021481A700132DA7001329A7101325A7293
:10F0D0004A080421FCF77AFF002820D0E30703D474
:10F0E00010BD0020E3070DD5A023F022A1210024AC
:10F0F000DB055204C9005A5014495C500C315A5077
:10F100000028EDD1124A00211248FDF769FB0028C2
:10F11000E6D1114A01211148FDF762FBE0E7FCF757
:10F12000AFFF0028DAD10E4A00210E48FDF758FB48
:10F13000E307D9D4E4E7C046B4290020AC29002075
:10F14000A4290020002A0020343402000C0500000D
:10F1500061E90100543402006DE8010058340200F6
:10F16000A1EC01003034020003000720032B00D97A
:10F170007047012A13D0012917D0002908D002298D
:10F1800019D15800C3180D48C3185A700020EFE772
:10F190005800C3180948C3189A700020E8E70022F5
:10F1A0000129E8D11A000D32D2B258000349C31820
:10F1B0005A540020DCE70720DAE7C046002A002086
:10F1C000E0231D4ADB00D2581C4B13400022C1072C
:10F1D00001D5C02292021343E0221749D2008B507E
:10F1E000174B9A58154B13400022810701D5C022B6
:10F1F00092021343E0221249D2008B50114B9A58CD
:10F200000E4B13400022410701D5C0229202134346
:10F21000E0220C49D2008B500B4B9A58074B1340FD
:10F220000022010701D5C02292021343E0220649C1
:10F23000D20000208B50704744000050FFFFFCFFBD
:10F24000480000504C0000505000005010B5032002
:10F25000FFF7B6FF0023002802D0031E062B01D0C3
:10F26000180010BD0023FBE710B50388102B08D051
:10F27000112B05D1294A1368013B1360002B07D0DD
:10F2800010BD264C2368002B11D001332360F7E713
:10F29000012202210020FFF767FF00282BD007285A
:10F2A00029D01F4B1B68002BEAD09847E8E70122C2
:10F2B00000210020FFF758FF002808D0072806D0BB
:10F2C000174B1B68002B00D098472368DDE7072207
:10F2D00002210120FFF748FF002801D00728EFD1C5
:10F2E000042202210020FFF73FFF0028EDD007286D
:10F2F000E6D12368C9E7072202210120FFF734FF86
:10F30000002801D00728CCD10A2200210020FFF7D5
:10F310002BFF0028B4D00728C3D1B1E7102A002062
:10F320000C2A002010B5234B82B00C1E186018D098
:10F330006B460020991DFFF7D7FC002801D002B0D2
:10F3400010BD6B460130D91DFFF7CEFC0028F6D169
:10F350006B46DB79002B26D16B469B79002B25D1A0
:10F360002370154B1B68002B01D00020E7E701221A
:10F3700002210020FFF7F8FE002801D00728DED187
:10F38000072202210120FFF7EFFE002801D0072805
:10F39000D5D10A2200210020FFF7E6FE0028E4D0A4
:10F3A0000728CCD1E1E702232370DAE70B2323708F
:10F3B000D7E7C0460C2A0020102A002076DF7047CD
:10F3C00078DF70477ADF70477CDF704780DF7047F7
:10F3D000A8DF704767DF70473CDF704748DF704742
:10F3E00010B5FCF771FE10BD10B50A490A48FDF7CB
:10F3F0005DFBC1B2094801F00FFB082302009A43EC
:10F4000007D0074B984204D0064B984201D0FCF736
:10F410005BFE10BD4C2C0020442C0020B42C00209E
:10F42000043000000134000010B50400FEF79EFE19
:10F43000200001F065F910BD10B5040084B003F0A0
:10F440007BF82100334802F063FB2100324801F0D1
:10F45000C7F9200001F0E8FB2000FFF705FF238833
:10F46000152B41D012D8022B36D0102B09D10720F2
:10F47000FFF750FC002801D0FCF726FEA288274B9E
:10F480001A80200001F0C4F804B010BD162B1AD069
:10F49000512BF6D1A379002BF3D0A27A043A022A99
:10F4A000EFD8022B00D001236A461370C1235B0002
:10F4B00093801A4B69461888FFF78AFF0028E0D02E
:10F4C000FCF702FEDDE7A379022BDAD1A088144A0B
:10F4D0000221FFF77BFFD4E7104B00211888FFF7CC
:10F4E00079FF0028CDD0EBE70622A11D684603F086
:10F4F000DCFE00236A460B489371FDF70FFA0028E3
:10F5000001D0FCF7E1FD6B46074A02210020FDF720
:10F51000A7FAB6E7802C0020B42C00206E1F002034
:10F52000701F0020602C00205C34020010B50378AE
:10F53000002B00D010BD054B3B211888FFF73EFF84
:10F540000028F7D0FCF7C0FDF4E7C0466E1F00208E
:10F5500030B5114B83B01A88104B9A420BD06B46D2
:10F560000F4DDC1D2100280002F0ACFF00280CD15B
:10F570002378002B01D003B030BD280002F074FFC7
:10F580000028F8D0FCF7A0FDF5E7FCF79DFD2378F7
:10F59000002BF0D1F1E7C0466E1F0020FFFF0000F6
:10F5A000B02C002030B58DB007284ED041D90A28A4
:10F5B0002FD00E282BD1072301A90B70294B012234
:10F5C0008B800C230B7212334B7227480F3B8B72CC
:10F5D000EE338B7303888A710B829BB2CA718A7473
:10F5E000CA741A00002417328C818C8292B21F4C8C
:10F5F00015B2A5422CDC02801D4A13780333DBB21E
:10F600003B2B00D900231B48137002F0EFFA0DB01A
:10F6100030BD0020FFF77EFB002820D1FFF716FE4B
:10F62000002819D1FFF7D8FE0028F0D0FCF74CFDD8
:10F63000EDE70428EBD1104B13211888FFF7BEFE2D
:10F64000082302009A43E2D0F0E701F083F8F7E7DD
:10F650009C3BFF3B0380CFE7FCF736FDE2E7FCF77E
:10F6600033FDDBE7DC070000801F0020AB03000058
:10F670006C1F0020802C00206E1F002070B5104CE5
:10F6800015000E0004220100200003F00EFE002DE4
:10F690000FD13378112B0AD1A378FF2B07D080210B
:10F6A000002289020748FDF7B5F8002805D100209F
:10F6B00070BD2800FCF708FDEBE7FCF705FDF6E759
:10F6C000B02C0020602C002010B5FCF7FDFC10BD14
:10F6D00010B5002807D0032804D10138FFF71AFB22
:10F6E00000280DD110BD0020FFF714FB00280AD11F
:10F6F000FFF7ACFD002809D1FFF76EFE0028F1D01E
:10F70000FCF7E2FCEEE7FCF7DFFCF1E7FCF7DCFCE2
:10F71000F2E7C04670B5A4B0FDF768F9002801D043
:10F72000FCF7D2FC0023CB4A05210020FCF7E6FFC2
:10F73000002801D0FCF7C8FCC74A0121C748FDF7E3
:10F740004FF8002801D0FCF7BFFCC54A0021C5488E
:10F75000FDF746F8002801D0FCF7B6FCC24AC349C1
:10F760000320FFF7A1FC002801D0FCF7ADFC14AC8E
:10F7700021000020FFF7D6FD002801D0FCF7A4FCF3
:10F7800026784822023E73425E41B9490023082090
:10F79000F6B203F009FB002801D0FCF795FC22002B
:10F7A0000121002003F056FB002801D0FCF78CFC5F
:10F7B000B04803F067FB002801D0FCF785FC20006F
:10F7C00003F086FB002801D0FCF77EFCAA4803F07A
:10F7D00015FB002801D0FCF777FCA84803F018FBC4
:10F7E000002801D0FCF770FC0BAD2E70FEF7C2FDB7
:10F7F000002801D0FCF768FC280002F05BFD00281F
:10F8000001D0FCF761FC5520052200216844FBF77C
:10F8100029FD01236279210013430722A2710932D5
:10F82000E271974A9748149201222271DE32134006
:10F8300002221343C3221340637102F0D7FD002854
:10F8400001D0FCF741FC0F2101222B788E4E8B4317
:10F85000134310220B40134330002B7003F036FD8E
:10F86000310082B22800FFF7AFFD002801D0FCF77D
:10F870002BFC8020C000FFF7A3FD002801D0FCF77F
:10F8800023FC082200212000FBF7ECFC0823238046
:10F89000483363800023A3809133FF332000E3804B
:10F8A000FFF790FD002801D0FCF70EFC3822002164
:10F8B0002000FBF7D7FC0223012623700333E370FB
:10F8C000023B2382714B2422002128006361A67031
:10F8D000FBF7C8FC28232B618C336B6100232E734C
:10F8E0002A00009300216A4B200000F0D1FD00287F
:10F8F00001D0FCF7E9FB03AE0C2200213000FBF73E
:10F90000B1FC644A0023726042223100FF32624837
:10F9100003933281B37201F003FF002801D0FCF79A
:10F92000D3FB142200212800FBF79CFC0F220121AD
:10F9300010206B7B93430B43134003436B73AB7BF0
:10F9400093430B4313400343AB730023EB732B7CB4
:10F95000934319430A40024300232A7401220B9364
:10F96000AB60290064334D482A712B7300F06AFFA5
:10F97000002801D0FCF7A8FB402200212000FBF763
:10F9800071FC4749200002F0DDF9464918A802F051
:10F99000D9F955214448454A069007913C210F204A
:10F9A0000892012206AB2363635C83431343102256
:10F9B00003401343635400223D232000E25401F02E
:10F9C000F1F9002801D0FCF77FFB51233849394871
:10F9D0000B6013334B60633B8B600B73FDF75AF87E
:10F9E0001C2200212000FBF73DFCA0229202626055
:10F9F000F02200231203A26003221493E3812374F4
:10FA00002D4B200063612D4B2273A36101F0D0F8D0
:10FA1000002801D0FCF758FBA0210022C902284889
:10FA2000FCF7F8FE002801D0FCF74EFB032000F0A5
:10FA3000D1FD002801D0FCF747FB224A012100201C
:10FA4000FDF70EF8FFF7CAFC0028FBD0FCF73CFBE3
:10FA5000F8E7C0467C2A0020E9F30100A834020040
:10FA600051F50100AC340200A5F50100CD0C0000F9
:10FA7000142A0020001E002039F4010029F401009E
:10FA80007DF601005C2C00206C340200601F002019
:10FA9000D1F60100C9F60100802C0020B42C002012
:10FAA0007C3402009034020055AA55AAEEBBEE0049
:10FAB0004C2C0020442C00202DF50100E1F3010026
:10FAC0005C2A00209834020071DF704772DF7047B3
:10FAD00079DF70477DDF704765DF7047F0B55F46BF
:10FAE00056464D464446F0B485B09A460EAB80CBA0
:10FAF00006001B8800919B463B8801930388002BDE
:10FB000064D000230E97994602ABDD1C0E9B0024A7
:10FB10001700984603E033880134A3422CDD736854
:10FB2000A1009C460422614403A803F0BEFB00220E
:10FB3000290003A8FFF7D0FF002829D12B78BB426A
:10FB4000E9D14B46002B2AD043461A88D3195B458E
:10FB50003EDC5244290003A8FFF7BEFF002817D15E
:10FB600043462A781B880134D31842461380012368
:10FB700099463388A342D2DC4B464746002B25D01A
:10FB80003B88019A013B9B1A9BB20C20FF2B1AD990
:10FB900005B03CBC90469946A246AB46F0BD4346F4
:10FBA0001B88DA1902325A4512DC42460133694693
:10FBB0009BB2138052460978D15443461A880132C9
:10FBC00092B21A80C5E71100524653540020DFE775
:10FBD0000C20DDE7F0B55F4656464D46444600230F
:10FBE000F0B417881380436B87B006000D00140033
:10FBF000002B00D19BE1022F00D890E11A7802235C
:10FC00000B701121238801339BB22380E954238890
:10FC100001339BB22380EA54238801339BB22380B3
:10FC2000326B002A00D170E019001231B94200D9BC
:10FC300075E11121E9542388013901339BB22380F6
:10FC4000E954238801339BB22380D17BE954238874
:10FC500001339BB22380917BE954238801339BB20B
:10FC60002380517BE954238801339BB22380117B8D
:10FC7000E954238801339BB22380D17AE954238845
:10FC800001339BB22380917AE954238801339BB2DC
:10FC90002380517AE954238801339BB22380117A5F
:10FCA000E954238801339BB22380D179E954238816
:10FCB00001339BB223809179E954238801339BB2AD
:10FCC00023805179E954238801339BB22380117931
:10FCD000E954238801339BB22380D178E9542388E7
:10FCE00001339BB223809178E954238801339BB27E
:10FCF00023805178E954238801339BB22380127802
:10FD0000EA54238801339BB223802E22B25C002A5E
:10FD100000D00EE12D22B25C002A00D02BE1B27897
:10FD2000002A00D054E1F278002A14D0D91CB9423C
:10FD300000D9F4E00221E9542388013901339BB250
:10FD40002380E954238801339BB22380EA5423881B
:10FD500001339BB223807268002A14D0D91CB942A7
:10FD600000D9DCE002211278E954238808310133FC
:10FD70009BB22380E954238801339BB22380EA5449
:10FD80002388013323803389002B00D09CE1338A00
:10FD9000002B00D0B2E1338B002B00D0C8E1336AD6
:10FDA000002B4BD022880C20911D9346B94200D9DC
:10FDB000B6E0198805388A46052900D8B0E0BC4964
:10FDC0006A468C46D4446146D181D1898C46B94972
:10FDD00088468C4500D8A3E059888C46052900D870
:10FDE0009EE0B3496144D18189B2414500D897E092
:10FDF000B1498A4504D08C4502D0E24500D98FE054
:10FE000005215A46A95422880D31013292B222802E
:10FE1000A9542288013292B222801988AA1811703E
:10FE2000090A51702288023292B222805988AB1896
:10FE30001970090A5970238802332380736A98461F
:10FE4000002B30D09A882188131D5B180C20BB42F0
:10FE500066D8931CFE2B63D803326A54FF22238892
:10FE600001339BB22380EA544246238801339BB27C
:10FE700023801288EB181A70120A5A70424623889F
:10FE800002339BB223809288002A0CD041468968B5
:10FE90000538002944D0E81803F007FA43462288C1
:10FEA0009B88D31823802C23F35C002B00D0B0E078
:10FEB00033780020002B33D032880720012A2FD03E
:10FEC0002288901CB8422AD8012B04D173780233BF
:10FED0009B189F4223D3023FBA1A04AF93B228184B
:10FEE000390098463B80FFF7F5FD002818D133789C
:10FEF000022B00D142E1012B00D1DFE04346082173
:10FF0000FE2B0CD822885E1CAE542288013292B29D
:10FF10002280A954228801329B18238000E00C2003
:10FF200007B03CBC90469946A246AB46F0BD0023C4
:10FF300076E6D91C0C20B942F2D80221E954238874
:10FF4000103001339BB22380E854238801339BB2E5
:10FF50002380022A00D10CE100D805E1032A00D158
:10FF60000AE1042A00D0FDE00322EA542388013389
:10FF70009BB22380CEE609330C20BB42D0D804A824
:10FF8000FFF7A2FD0028CBD1082223880921EA54DB
:10FF90002388133201339BB22380EA5402AB9C4680
:10FFA0002088153A013080B220806144281803F07F
:10FFB0007CF9238802AA0633127A9BB22380002A96
:10FFC00000D00122EA54238801339BB22380A6E6A5
:10FFD00004330C20BB42A3D804A8FFF779FD002806
:10FFE0009ED103222388EA542388163201339BB220
:10FFF0002380EA54238802AA01339BB2128923800A
:020000022000DC
:10000000EB181A70120A5A70238802339BB22380AD
:1000100089E6B36A9846002B00D1A3E09B8802339F
:10002000FE2B00D97BE7002291461632924616320B
:10003000208893460CE04B46B26A5B0090464B44E6
:100040009B00984443469B880233FE2B00D966E709
:10005000524601332B54238801339BB22380EA5448
:100060004246238801339BB223801288EB181A7012
:10007000120A5A7043462088023080B220809A8843
:10008000002A0BD0996800296CD0281803F00DF9CC
:10009000434620889B88C01880B220804B4601339D
:1000A000DBB299465B46F35C4B45C4D800E7C046DB
:1000B0007FF3FFFF7DF30000FFFF0000737898459A
:1000C00000D31CE743461AE708239846B04401973B
:1000D00000942B00022202214046FFF7FFFC00287B
:1000E00000D01DE7019700942B0010220621404606
:1000F000FFF7F4FC002800D012E748E610239846EA
:10010000B044019700942B00022203214046FFF7E0
:10011000E5FC002800D003E7019700942B00102293
:1001200007214046FFF7DAFC002800D0F8E632E667
:1001300018239846B044019700942B000222142102
:100140004046FFF7CBFC002800D0E9E60197009479
:100150002B00102215214046FFF7C0FC002800D0DC
:10016000DEE61CE60720DBE6012AFBD10022EA548A
:10017000FCE60122EA54F9E6E954F7E63B88092156
:10018000984500D3BCE64346B9E6C04630B593B0C7
:100190001F236A460C009380D380002822D0C378A6
:1001A0005B071CD501AA02A9FFF714FD02AD0028C8
:1001B00016D1002C19D0E378002B10D16B460AA978
:1001C0009A1D2000FFF706FD002809D16B469B7998
:1001D0000AAA694628000979FFF778FC00E00720A1
:1001E00013B030BD90800025E3E76B460022DC8031
:1001F0000023EEE773DF704774DF704770B59A4EE7
:1002000086B0072200213000FBF72CF8974C63786A
:10021000002B25D0964D2B78012B45D0A278002AB3
:1002200040D1022B50D103232B70237B002B00D015
:1002300001E104232B70237E002B00D10FE18D4BB5
:100240001A68002A52D02378002B4FD08A4B1B7893
:10025000002B4BD10121894B07201970904748E0B2
:10026000A378834D002B29D02B78022B1CD0012B97
:100270002AD102232B70A378002BD4D07378002BC3
:100280000ED1B378002B0BD1F378002B08D1337942
:10029000002B05D17379002B02D1B379002BC2D08A
:1002A00002231CE0022B0FD1724A1268002A00D1EF
:1002B000D2E00121724B0820197090472B78012B56
:1002C00000D16DE0022BD6D0227B002A01D1032B76
:1002D000AFD0227E002A02D1042B00D1BFE0654AB4
:1002E0001268002A02D0033B012BACD90022634BD9
:1002F0001A70182200216846FAF7B4FF00236A46F4
:10030000137013722A7801930393022A65D02FD9B0
:10031000032A00D16EE0042A22D16B46A28B1A82F6
:10032000228C5A82574B1A79002A00D185E0227814
:10033000002A00D185E0504A1278002A00D080E0DF
:1003400069460393042302324F480A720021C370A6
:10035000FFF71CFF002821D106224C4B1A702A7887
:10036000002A0ED1434B1B68002B13D1002015E04F
:10037000012AF5D169464B820B82444B01960A70E3
:100380001A706846FFF736FF002807D1394B1B6803
:10039000002BEBD03D4A10789847002006B070BD86
:1003A0006278002A00D164E77278002A00D096E7CC
:1003B000B278002A00D092E7F278002A00D08EE7C7
:1003C0003279002A00D08AE77279002A00D086E7C5
:1003D000B279002A00D14CE781E7012369460B700E
:1003E0006B46218901965982694663680B82274BC7
:1003F0001A70C6E76B46A28A5A82228A1A82214B59
:100400001A79002A21D02278002A21D01A4A12789B
:10041000002A1DD169460393042302321A480A7246
:100420000021C370FFF7B2FE0028B7D10522174B99
:100430001A702A7894E7032351E71A7B002A00D028
:1004400075E70422114B1A709BE71A7B002ADAD158
:1004500003220E4B1A7094E709490A702FE7002314
:100460000A4A2B70137041E73C2D0020442D0020D8
:10047000DC2D0020102D0020372D0020BB2D00206A
:10048000DD2D00208C2D0020CC2C0020F02D002014
:10049000F8B504000E000E20002C00D17BE0002AED
:1004A00079D000203C4908703C490B6006993C4BD0
:1004B00019603C490B0023CA23C323CA23C323CAA0
:1004C00023C3072200213848FAF7CCFE374B384ABD
:1004D000384D1A60384A00219A6028003822FAF70D
:1004E000C1FE237822002B70A3781032AB70E37822
:1004F000EB7063786B702B00103303CA03C32B00BF
:10050000103A083303CA03C32B000832183303CA56
:1005100003C3636A002B11D0284B294F6B62616AB9
:100520009F600A881A8088889880002806D0002357
:100530008A68D25CFA5401338342F9D1A36A002B52
:1005400014D0204B204FAB62A06A9F6081889980B5
:1005500002881A800023002905D08268D25CFA54F0
:1005600001338B42F9D12C23E25CEA54236A002B3D
:1005700006D0164B2B62226A5188598012881A8045
:100580006368002B03D0124B6B6063686B603100B3
:100590002800FFF7FBFDF8BDDC2D0020102D00200A
:1005A000382D0020442D00203C2D00208C2D0020D3
:1005B000682D0020CC2C0020BC2D0020042D002014
:1005C000182D0020E42D00209C2D0020E02D00207F
:1005D000882D002010B500240B4B82B0187001A8A4
:1005E0000194FEF72FF9082809D0002805D1019BB6
:1005F000002B05D00122054B1A7002B010BD0194EA
:10060000FFF7FCFDF9E7C046DC2D0020142D00208B
:1006100030B5038883B0112B21D0192B0AD0102BB1
:1006200001D003B030BD037D012BFAD182882D4B60
:100630001A80F6E78479002CF3D12B4B1D78022D1C
:100640004ED038D9032D23D0042DEAD1274B1C706E
:10065000274B1B68002BE4D000209847E1E70024DB
:10066000244B1C701F4B82881B889A42D9D10125CC
:100670001D4B01A81D700194FEF7E4F8082824D052
:10068000002827D1019B002B20D01B4B1D70C8E7F1
:10069000164A1570042201A81A700194FEF7D2F8C8
:1006A000082812D0002815D1019B002B0ED0012262
:1006B000114B1A70B5E7012DB3D1022201A81A70AF
:1006C0000194FEF7BFF80828DAD10194FFF796FDF0
:1006D0000028A6D0094B1B68002BA2D09847A0E7A2
:1006E0000322D8E7821F0020DC2D0020F02D0020FF
:1006F000102D0020372D0020142D0020382D002033
:1007000030B5023883B0012803D8104C2378002B71
:1007100001D103B030BD002501A825700195FEF779
:1007200091F8082807D000280AD1019B002B03D09C
:1007300001232370EDE70195FFF760FD0028E8D065
:10074000034B1B68002BE4D09847E2E7142D0020F0
:10075000382D002030B5184B83B01B78002B22D0E9
:10076000164C2378002B1ED1154B1B78002B1DD166
:1007700001252570002401A80194FEF763F80828DC
:1007800007D000280AD1019B002B03D00D4B1D7010
:100790000AE00194FFF732FD002804D00A4B1B68E1
:1007A000002B00D09847002003B030BDFFF724FD98
:1007B0000028DDD0F8E7C046442D0020372D00206A
:1007C000DC2D0020142D0020382D0020A0DF7047E4
:1007D000A2DF7047A3DF7047A4DF7047A6DF704732
:1007E00030B583B0002808D0002906D00B88112B23
:1007F00023D0502B03D0102B1CD003B030BD037D71
:10080000002BFAD0CA8843899A42F6D1CB8B022BAF
:10081000F3D10468002CF0D020221F33CB5C8A5C1B
:100820001B0213430122134001AD53402B702900DA
:10083000A047E2E78B884382DFE701235B424382E4
:10084000DBE7C046F0B55F4656464D464446F0B439
:10085000070093B00E000E25002814D0002912D0F6
:100860000B68036001235B4243820A79037404A985
:1008700002338B70654B0275021D01200B80FFF760
:10088000A5FF051E07D0280013B03CBC9046994632
:10089000A246AB46F0BD3B7D002B00D09BE00BADEC
:1008A0001C2200212800FAF7DDFC022291464A466C
:1008B0002B78397D1A4301239A460B401801D3B295
:1008C0001022934303432B70002390464A1E91410C
:1008D0009B466B60EB602B61494202AB0B406B6146
:1008E0005B465246AB616B469A756A46484B00219F
:1008F000938203A80322FAF7B5FC6A46B37B06ACE1
:100900001373F37B00215373937B062293434A4670
:1009100013430822DBB29343424693435246934328
:100920006A469373337B2000D3701422FAF79AFC43
:1009300005AB069303AB6360534623815B4663813B
:100940005346A3816B46033323612900BB1DB8883E
:100950002200FFF73DFF051E95D1B368002B52D052
:100960006A46012393752B4B0021938203A803222F
:10097000FAF778FC6A46337CB1681373002353732B
:10098000937B062293434A4613430822DBB29343E8
:1009900042469343524693436A46937301AB180011
:1009A000994601F0C9F91422060000212000FAF747
:1009B00059FC05AB236003AB63604B463A00B0B211
:1009C00065812081A08123610E32F8882100FFF724
:1009D00001FF050057E702AC032200212000FAF7CF
:1009E00041FC0F21012223788B43134310220B403B
:1009F000134306222370737B6370A3789343022210
:100A00001343A3704BE7F8813DE7C0460F18000081
:100A1000192A000008290000F0B589B06B460400CF
:100A2000DE1DD971002822D0027CCBB200259A426B
:100A30001AD002AF082200213800FAF713FC012374
:100A40007D803B807E60E188608A3A00FFF7C4FECB
:100A5000051E09D13378628A2374104B08359A42F7
:100A600002D0237D002B04D1280009B0F0BD0E2553
:100A7000FAE704AD102200212800FAF7F3FBE3881F
:100A800029002B800123AB707B88AF60AB807B6833
:100A9000EB60608AFFF7A2FE0500E5E7FFFF0000BC
:100AA00075DF704776DF70477ADF70477BDF70470E
:100AB00010B5184B82B01888174B984214D0174ABB
:100AC000174C13780133DBB21370217B99420DD29E
